:0200000460009A
:100000004643464200000156000000000101020084
:1000100000000000000000000000000000000000E0
:1000200000000000000000000000000000000000D0
:1000300000000000000000000000000000000000C0
:1000400000000000010403000000000000000000A8
:100050000000200000000000000000000000000080
:100060000000000000000000000000000000000090
:100070000000000000000000000000000000000080
:10008000EB04180A063204260000000000000000FD
:10009000050404240000000000000000000000002F
:1000A0000000000000000000000000000000000050
:1000B0000604000000000000000000000000000036
:1000C0000000000000000000000000000000000030
:1000D00020041808000000000000000000000000DC
:1000E0000000000000000000000000000000000010
:1000F0000000000000000000000000000000000000
:1001000000000000000000000000000000000000EF
:100110000204180804200000000000000000000095
:1001200000000000000000000000000000000000CF
:10013000600400000000000000000000000000005B
:1001400000000000000000000000000000000000AF
:10015000000000000000000000000000000000009F
:10016000000000000000000000000000000000008F
:10017000000000000000000000000000000000007F
:10018000000000000000000000000000000000006F
:10019000000000000000000000000000000000005F
:1001A000000000000000000000000000000000004F
:1001B000000000000000000000000000000000003F
:1001C000000100000010000001000000000000001D
:1001D000000000000000000000000000000000001F
:1001E000000000000000000000000000000000000F
:1001F00000000000000000000000000000000000FF
:10020000FFFFFFFFFFFFFFFFFFFFFFFFFFFFFFFFFE
:10100000D10020400014006000000000000000003B
:1010100020100060001000600000000000000000D0
:101020000000006062E90000000000000D480E4969
:101030000E4A4FF42A034164026483630C480D494D
:101040000D4A814202D008CA08C0FAE70B480C4991
:101050000C4A0D4B1860814202D038CA38C0FAE7FA
:1010600000F014F800C00A40AFAAAAAA07002000A6
:10107000000000005CA50000B8160060002C0020F5
:10108000B82E00200014006008ED00E043F6931C29
:10109000C0F2000C6047FFFF2B4B40F6617210B5A9
:1010A000C3F8202140F2044400F088F8274A284978
:1010B000D2F88030274843F00303C2F88030264B33
:1010C000C1F8604102681A4203D1D1F8A8319A07E9
:1010D00018D01F4A4FF000411E4B5963D2F84031DF
:1010E00043F00203C2F84031D2F840319B07FBD4F1
:1010F0004FF0E0214FF40030164B4FF00042C1F8A2
:101100008C029A63134A4FF08040114C0021906387
:101110000A20124B11604FF42072C4F8A80118463F
:1011200000F051F84FF4800103464FF4810040F283
:1011300043121860C4F8583119640123C4F84821D7
:10114000C4F8403110BD00BF00800D4000C00F400A
:1011500000002E4000900D40001C1E00005000209A
:10116000F0B4154A40274FF480314FF480564FF4C5
:1011700000554FF4404443F24200136913F0020F4C
:101180000ED113F4005F0FD013F4805F0ED0002B4C
:10119000F3DA13F4803F0BD15B060BD5F0BC70473C
:1011A000946151619061E8E75561E6E75661E4E7D3
:1011B0009161E2E75761E0E700800D404AF2310CAF
:1011C000C0F2000C604749F2FF5CC0F2000C6047BF
:1011D00016035500530042002000530065007200C2
:1011E000690061006C000000180354006500650090
:1011F0006E00730079006400750069006E006F0076
:101200000403090409024300020100C0320904007A
:101210000001020201000524001001052401010162
:1012200004240206052406000107058203100010AD
:1012300009040100020A0000000705030240000043
:10124000070584024000000009024300020100C0BB
:10125000320904000001020201000524001001050A
:101260002401010104240206052406000107058269
:101270000310001009040100020A00000007050322
:101280000200020007058402000200000A060002B4
:0612900002000040010015
:10140000000007202D100060394B000045A50000AA
:10141000394B0000394B0000394B00000000000040
:10142000000000000000000000000000394B000038
:10143000394B000000000000394B0000053400006B
:10144000394B0000394B0000394B0000394B00008C
:10145000394B0000394B0000394B0000394B00007C
:10146000394B0000394B0000394B0000394B00006C
:10147000394B0000394B0000394B0000394B00005C
:10148000394B0000394B0000394B0000394B00004C
:10149000394B0000394B0000394B0000394B00003C
:1014A000394B0000394B0000394B0000394B00002C
:1014B000394B0000394B0000394B0000394B00001C
:1014C000394B0000394B0000394B0000394B00000C
:1014D000394B0000394B0000394B0000394B0000FC
:1014E000394B0000394B0000394B0000394B0000EC
:1014F000394B0000394B0000394B0000394B0000DC
:10150000394B0000394B0000394B0000394B0000CB
:10151000394B0000394B0000394B0000394B0000BB
:10152000394B0000394B0000394B0000394B0000AB
:10153000394B0000394B0000394B0000394B00009B
:10154000394B0000394B0000394B0000394B00008B
:10155000394B0000394B0000394B0000394B00007B
:10156000394B0000394B0000394B0000394B00006B
:10157000394B0000394B0000394B0000394B00005B
:10158000394B0000394B0000394B0000394B00004B
:10159000394B0000394B0000394B0000394B00003B
:1015A000394B0000394B0000394B0000394B00002B
:1015B000394B0000394B0000394B0000394B00001B
:1015C000394B0000394B0000394B0000394B00000B
:1015D000394B0000394B0000394B0000394B0000FB
:1015E000394B0000394B0000394B0000394B0000EB
:1015F000394B0000394B0000394B0000394B0000DB
:10160000394B000067010000394B0000394B0000E6
:10161000394B0000394B0000394B0000394B0000BA
:10162000394B0000394B0000394B0000394B0000AA
:10163000394B0000394B0000394B0000394B00009A
:10164000394B0000394B0000394B0000394B00008A
:10165000394B0000394B0000394B0000394B00007A
:10166000394B0000394B0000394B0000394B00006A
:10167000394B0000394B0000394B0000394B00005A
:10168000394B0000394B0000394B0000394B00004A
:10169000394B0000394B0000394B0000394B00003A
:1016A000394B0000394B0000E14A0000394B000083
:0816B000394B0000394B00002A
:1016B80080B56F4604F099FD45F28C4042F6B8615A
:1016C800C2F20000C2F20001814213D242F6B861B0
:1016D8000022C2F2000141F8042B81423FBF41F8C9
:1016E800042B814241F8042B814203D241F8042B98
:1016F8008142F0D342F6602140F20000C2F20001BC
:10170800C2F2000088420ED2021D8A4238BF0A4641
:10171800C143114421F003010A1D4CF20001C6F235
:10172800000108F0DCFF4EF68850CEF20000016898
:1017380041F47001016004F052FDFEDE7047B0B55F
:1017480002AF88B004F047FD044604F03AFD04F007
:1017580045FD44F2254004F00101C2F2000005787D
:10176800002D04BF01220270002908BF04F02BFDE0
:101778009DBB05A803F07EFA40F294710020049006
:10178800C2F200010598CDE90201002002A9C4F2C5
:101798002E0003F079FAC4B2042C1BD104F01BFD0F
:1017A800054604F00EFD04F019FD43F20000C2F2F4
:1017B80000000168E9B900210160012101714EF2C0
:1017C8000C10CEF200004FF400310160E80708BFAA
:1017D80004F0F9FC204608B0B0BD40F2387040F281
:1017E8008472C2F20000C2F200022B2106F05AFBFA
:1017F800FEDE40F2947040F26473C2F2000002AA66
:10180800009040F2D860C2F20000C2F2000310213A
:1018180006F094FBFEDEB0B502AF82B004F0DBFC4C
:10182800044604F0CEFC04F0D9FC43F20005C2F2F1
:1018380000052868C8B94FF0FF3004F0010428609B
:101848002879012808D1681D03F04CFA286801306E
:1018580028602CB102B0B0BD0020002C2860F9D15E
:1018680002B0BDE8B04004F0AEBC40F2A47040F253
:101878006473C2F2000001AA009040F2D860C2F27C
:101888000000C2F20003102106F058FBFEDE70478C
:10189800F0B503AF2DE90007ADF5487D804601207E
:1018A80041464FF0010904F0E6FE054600200026F7
:1018B80004F0E1FE8246002004F0DDFE044602F05A
:1018C80000FA002874D005F120014FF48270ADF8B9
:1018D8001C033F2004F120020424CDE96E100323E9
:1018E800CDE96A61CDE968101AA9CDE97420CDE97E
:1018F8007206CDE96C06CDE91D0481E84104CDE905
:101908001650CDE91406CDE91050CDE90E06CDE903
:101918000A50CDE908060220059040F20030C0F2D6
:101928000220CDE97A66CDE9039040F20D30C0F28D
:101938000330CDE97766CDE9019001A8CDE92866A5
:10194800CDE92566CDE92266CDE91F668DF81E33FF
:1019580079947694CDE97062CDE96636279424941B
:101968002194CDE9186ACDE91265CDE90C65CDE978
:10197800066502F0C3F9C0B2052825D104F02BFC96
:10198800044604F01EFC04F029FC01A840F6F77296
:10199800C0F20002014602F08AF9E00708BF04F02D
:1019A80012FC012041460DF5487DBDE80007F0BD59
:1019B80040F62C0040F6A002C2F20000C2F200027B
:1019C8002B2106F06FFAFEDE8DF8040040F6B00019
:1019D800C2F2000040F68403009040F6570001AAC6
:1019E800C2F20000C2F200032B2106F0A7FAFEDEC5
:1019F800F0B503AF2DE9000F97B00DF104080E46BE
:101A08008146402140469A46144608F01FFF30465A
:101A1800414605F0C5FF02460E46C0073ED12046A6
:101A2800514699F8005099F801B004F024FE044694
:101A38002846594604F01FFE311D412938D200229C
:101A4800CDF84C808DF85420202E1491119288BF27
:101A5800203404EB8010129004F0BDFB044604F01F
:101A6800B0FB04F0BBFB16A911AA484602F013F913
:101A7800C5B2E00708BF04F0A6FB40F20312E80075
:101A8800C0F20102E91E22FA00F018BF2946032D10
:101A980008BF042017B0BDE8000FF0BD100A110CF4
:101AA80040EA066041EA064117B0BDE8000FF0BD04
:101AB80040F6C0020846C2F20002402107F0C0FA10
:101AC800FEDEF0B503AF2DE9000BBAB0044604F012
:101AD80082FB064604F075FB04F080FB14AD6846F3
:101AE800294600F080FEF00708BF04F06CFB009860
:101AF80002280AD12046242108F0A8FE032084F8F1
:101B080020003AB0BDE8000BF0BD694628465022D7
:101B180008F0E5FD0DF1A00905F10E01484605F0B4
:101B28005DFFDDE914120020002908BF02F01F0044
:101B380004F0ADFD884609F101010DF1C40905461F
:101B480023229DF8A060484608F08AFDE8B20328E1
:101B580010D016F001000DD109F103012046202212
:101B680008F07EFD84F8218084F820503AB0BDE862
:101B7800000BF0BD2046242108F068FE032584F8F8
:101B880020503AB0BDE8000BF0BD704780B56F46F5
:101B980000F002F8FEDED4D4B0B502AFADF5BA6DF0
:101BA800A4A803F028FBC298022800F0EB830DF1EB
:101BB8000809A4A94FF42272484608F090FD04F0E1
:101BC8000AFB044604F0FDFA04F008FB04F003FBEA
:101BD800054604F0F6FA04F001FB44F2474805F024
:101BE8000100C2F2000898F80060002E04BF01212D
:101BF80088F80010002808BF04F0E5FA002E04F069
:101C0800010004BF012188F80010002808BF04F073
:101C1800DAFA002E40F0BF8302F033FF04F0E6FA50
:101C280002F050FFFFF78BFDC0B2042840F0BF83DD
:101C380009F10808DDE90201424603F097FA054672
:101C480003F090FA044603F08FFAA96C40F62022BC
:101C5800C0B2C2F2000221F0010140F28863022CF6
:101C680008BF0131A96480F00200696CC2F2000368
:101C780052F8242053F8200021F06301114308434F
:101C8800012140F480606864686C61F383006864D3
:101C9800686C20F080006864A86C40F02000A8649C
:101CA800686C40F440406864686C40F44470686450
:101CB800A86C40F08000A864A86D00071FBFA86D3D
:101CC8005FEA0070A86D5FEA007002D0A86D000797
:101CD800F2D1A86C40F02000A864686C20F4404061
:101CE8006864686C20F4447000F58870686404F0D7
:101CF80088FA04694FF0050A6AF3030404F081FACC
:101D0800046104F068FA044604F05BFA04F066FA29
:101D18004CF2740940F2646BC4F20A09C2F2000B77
:101D2800D9F800002026D9F80010C9064FF0200184
:101D380058BF0C21C0064FF020005BF8011058BFB7
:101D48000C205BF80000496841F010014160E00791
:101D580008BF04F038FA04F054FA44696AF303043B
:101D680004F04FFA446104F036FA044604F029FA04
:101D780004F034FAD9F80000D9F8001089064FF0B9
:101D8800200158BF0C2180065BF8010058BF0C26C3
:101D98005BF80610406840F020004860E00708BF84
:101DA80004F011FA04F02DFA84694FF0050A6AF379
:101DB800030404F026FA846104F00DFA044604F0E2
:101DC80000FA04F00BFAD9F800002026D9F8001020
:101DD80049064FF0200158BF0C2140065BF801006E
:101DE8004FF0200158BF0C215BF80110406840F00B
:101DF80040004860E00708BF04F0E5F904F001FA84
:101E0800046A6AF3030404F0FCF9046204F0E3F9D9
:101E1800044604F0D6F904F0E1F9D9F80000D9F83D
:101E28000010C9054FF0200158BF0C21C0055BF810
:101E3800010058BF0C265BF80610406840F480701B
:101E48004860E00708BF04F0BEF904F0E9F9846AC5
:101E58004FF0050A6AF3030404F0E2F9846204F01F
:101E6800BAF9044604F0ADF904F0B8F959F8080CC9
:101E7800182659F8081C49054FF0180158BF0421C5
:101E880040055BF801004FF0180158BF04215BF8CA
:101E98000110406840F480604860E00708BF04F023
:101EA80092F904F0C2F944686AF3030404F0BDF936
:101EB800446004F090F9044604F083F904F08EF9C4
:101EC80059F8080C59F8081C89034FF0180158BF35
:101ED800042180035BF8010058BF04265BF8061054
:101EE800406840F400304860E00708BF04F06BF930
:101EF80004F09BF904684FF0050A6AF3030404F040
:101F080094F9046004F067F9044604F05AF904F0FF
:101F180065F959F8080C182259F8081CC90358BF64
:101F28000422C0034FF018015BF8020058BF0421D7
:101F38005BF80110406840F480304860E00708BF53
:101F480004F041F904F062F9446A6AF3030404F006
:101F58005DF9446204F04BF900224FF0000904F0E7
:101F680049F904460E4604F056F9406AB043044362
:101F780004F051F9446204F049F9046A6AF303046D
:101F880004F044F9046204F032F9002204F032F952
:101F980004460E4604F03FF9006AB043044304F0D7
:101FA8003AF9046204F032F944696AF3030404F06C
:101FB8002DF9446104F01BF9002204F01BF90446D2
:101FC8000E4604F028F94069B043044304F023F9AD
:101FD800446104F01BF904696AF3030404F016F978
:101FE800046104F004F9002204F004F904460E46E2
:101FF80004F011F90069B043044304F00CF90461DA
:1020080004F004F9C46A6AF3030404F0FFF8C46234
:1020180004F0EDF8002204F0EDF804460E4604F052
:10202800FAF8C06AB043044304F0F5F8C46204F057
:10203800EDF8846A6AF3030404F0E8F8846204F0B3
:10204800D6F8002204F0D6F804460E4604F0E3F869
:10205800806AB043044304F0DEF8846204F0D6F8E2
:1020680004686AF3030404F0D1F8046004F0BFF8CC
:10207800002204F0BFF804460E4604F0CCF80068CD
:10208800B043044304F0C7F8046004F0BFF84468A0
:102098006AF3030404F0BAF8446004F0A8F80022D4
:1020A80004F0A8F804460E4604F0B5F84068B043BA
:1020B800044304F0B0F8446004F0A8F884696AF3B3
:1020C800030404F0A3F8846104F091F8002204F0FA
:1020D80091F804460E4604F09EF88069B043044324
:1020E80004F099F8846104F091F8C4696AF3030470
:1020F80004F08CF8C46104F07AF8002204F07AF84D
:1021080004460E4604F087F8C069B043044304F05F
:1021180082F8C46104F07AF8C4686AF3030404F02E
:1021280075F8C46004F063F8002204F063F804460C
:102138000E4604F070F8C068B043044304F06BF82E
:10214800C46004F063F884686AF3030404F05EF87A
:10215800846004F04CF8002204F04CF804460E4663
:1021680004F059F88068B043044304F054F88460DC
:10217800A7F1BC0005F0C5FCA7F1BC03A7F1600CF2
:10218800A4ACCDE9B9990FCBCDE9BB998CE80F0088
:10219800A7F1500C8CE80F00A7F1400C8CE80F0059
:1021A800A7F1300C8CE80F00A7F1BC03A7F11C0CB9
:1021B8000FCB8CE80E00A7F16001502247F8200CE5
:1021C800201DCDE9BD99CDF8FC92ADF80093A495FA
:1021D80008F085FA8DF806930221CDF80293686C11
:1021E80061F3830068640020FFF752FB07F8C00C16
:1021F80040F68C10C2F20000A7F1600247F8540CB8
:10220800A7F1C00047F8580C40F66410C2F200006D
:1022180007F8BF1C47E91840A7F1BC00002104F0EB
:1022280009F802A844F2006100F11403C2F2C331B4
:102238004046424602F07DFFA7F1A00400914146C6
:1022480002222046012302F0C1FF0699A7F160008F
:10225800224602F099FFA7F1600344F20816C4F27F
:102268000806A7F1900C0FCB356825F002053560FC
:102278008CE80F0044F24C40C2F2000000680328CA
:102288001BD340F6C01040F6CC12C2F20000C2F2D6
:10229800000247F8500C012047F85C0C40F6B810D3
:1022A800C2F20000032147F8600CA7F1600047F86C
:1022B8004C9C47E9169904F099F941F26F2047F8C8
:1022C800809CA7F11008A7F1800BA7F17C09A7F162
:1022D8007806A7F19004A7F160059FED3B8AC3F645
:1022E800832047F87C0C11E0A7F1700A9AE80304F0
:1022F80008F040FD00EE10AA01EE100AB8EE400A00
:1023080080EE080A30EE010A07ED1F0AA7F1C000A7
:1023180047F8580CA7F1BC0047F85C0CA4A847F88C
:10232800600C304621462A4647F84C8C47E9159BF5
:1023380000F032FB57F8780C0028D5D144F24C4015
:10234800C2F2000000680028E0D0002040F6C0116A
:1023580047F84C0C40F6042247E91600012047F8DC
:102368005C0C40F6FC10C2F20001C2F2000047F813
:10237800501C012147F8600C2846C2F2000204F004
:1023880035F9C3E740F6D00040F60812C2F2000063
:10239800C2F2000207E040F6D00040F61812C2F27E
:1023A8000000C2F200022B2105F07CFDFEDE40F6A3
:1023B800281040F65412C2F20000C2F2000229218D
:1023C80005F070FDFEDE00BF286B6E4EF0B503AF62
:1023D8002DE9000740F62C224FF0000CC2F2000253
:1023E8004FF00E0E4FF00F084FF005094FF0060A98
:1023F8001546002124E05B6A9CB200EE104A00EB0F
:102408000614B8EE400A94ED011A94ED022A94EDF0
:10241800033A32EE412A94ED044A00EB4604A4F84C
:10242800683000EB860330EE410A34EE431A80EE42
:10243800020A00EE013A83ED153A531D9D4265D01C
:1024480015F8013B0E460131DFE803F00315273983
:102458004C0003681C68C3F800E01C6AE407CAD192
:102468001C6AE40704BF1C6A5FEAC474C3D11C6A0F
:10247800E407F2D0BFE703681C68C3F800C01C6A11
:10248800E407B8D11C6AE40704BF1C6A5FEAC47495
:10249800B1D11C6AE407F2D0ADE703681C68C3F841
:1024A80000801C6AE407A6D11C6AE40704BF1C6A02
:1024B8005FEAC4749FD11C6AE407F2D09BE7036803
:1024C8001C68C3F800901C6AE40701BF1C6A5FEA35
:1024D800C4741C6A5FEAC4747FF48DAF1C6AE40795
:1024E800F1D088E703681C68C3F800A01C6AE407F9
:1024F8007FF481AF1C6AE40704BF1C6A5FEAC474F6
:102508007FF479AF1C6AE407F0D074E7BDE80007F0
:10251800F0BDD4D45FFA81FC80B56F46DFE80CF0DB
:10252800021D39544CF274034FF0200CC4F20A0314
:102538001B685B0658BF4FF00C0C40F26463C2F294
:10254800000353F80CC013065CD04023CCF8843049
:1025580050FA81F080F8722080BD4CF274034FF07D
:10256800200CC4F20A031B68DB0558BF4FF00C0CA3
:1025780040F26463C2F2000353F80CC0130649D05A
:102588004FF48073CCF8843050FA81F080F87220D0
:1025980080BD4CF274034FF0200CC4F20A031B6890
:1025A800DB0658BF4FF00C0C40F26463C2F2000324
:1025B80053F80CC0130636D01023CCF8843050FAE8
:1025C80081F080F8722080BD4CF274034FF0200E29
:1025D800C4F20A034FF0200C1B689B0658BF4FF04B
:1025E8000C0E40F26463C2F2000353F80EE01306C7
:1025F8000CBFCEF888C0CEF884C050FA81F080F8BD
:10260800722080BD4023CCF8883050FA81F080F8E1
:10261800722080BD4FF48073CCF8883050FA81F076
:1026280080F8722080BD1023CCF8883050FA81F0F1
:1026380080F8722080BD4CF26C0240F26463C4F2F0
:102648000A02C2F200031268D2034FF0180258BF00
:10265800042253F802C088234FF48032002918BF9F
:1026680084234CF8032080F876107047C9B200EB39
:10267800810090ED150A7047683005217047723067
:102688000421704790F87600704780B56F4692E84D
:102698000850C9B200EB0110D268011D81E808504A
:1026A800026180BD7047B0B502AF96B043F208052D
:1026B8000C46C2F200052868BFF35F8F48BB55E897
:1026C800000F48B90121BFF35F8F45E8001232B10E
:1026D80055E8000F0028F8D00021BFF32F8FBFF373
:1026E8005F8FB1B1002141F21040295041F20C40F6
:1026F80029500120C5E90101022002958DF80C102E
:10270800BFF35F8F286002A8BFF35F8F05F078FBE7
:102718001AE0012801BF10BF2868BFF35F8F0128A6
:1027280001BF10BF2868BFF35F8F01280AD110BF0F
:102738002868BFF35F8F012804D110BF2868BFF352
:102748005F8FE6E7022823D1A868D0BB02A82146FC
:10275800502207F0C4FF41F20C4041F210442A58BD
:1027680029598B1A402B04BF01322A5001F03F002F
:1027780002A9502200EB800005EB00100C3007F096
:10278800AEFF2859013028510020A86016B0B0BD0E
:1027980058B940F6A42040F6CC22C2F20000C2F29A
:1027A8000002282105F07EFBFEDE40F6312040F6CF
:1027B8009422C2F20000C2F20002112105F072FB5D
:1027C800FEDE40F6E83040F6B433C2F2000002AA5A
:1027D800009040F2D860C2F20000C2F2000310215B
:1027E80005F0ACFBFEDEF0B503AF2DE9000B84B0BD
:1027F80043F208058046C2F200052868BFF35F8FE0
:1028080048BB55E8000F48B90121BFF35F8F45E881
:10281800001232B155E8000F0028F8D00021BFF3AC
:102828002F8FBFF35F8FB1B1002141F210402950C3
:1028380041F20C4029500120C5E90101022001950F
:102848008DF80810BFF35F8F286001A8BFF35F8F72
:1028580005F0D6FA1AE0012801BF10BF2868BFF3B7
:102868005F8F012801BF10BF2868BFF35F8F012861
:102878000AD110BF2868BFF35F8F012804D110BFA9
:102888002868BFF35F8FE6E7022858D1D5F808908B
:1028980009F1010100296BDD41F2104041F20C42BF
:1028A8002858AA58A960904217D1002129B38A68EC
:1028B800D1E900408B89C8E9010208F10E0091F8BE
:1028C8004E600E314022A8F80C3007F0C9FE002EE9
:1028D80018BF012688F84E6015E0811A1BD0B0FB9E
:1028E800F1F202FB1100402821D200EB800005EB39
:1028F800001000F10C010029D9D108F104004C2185
:1029080007F0A4FF0224C8F80040C5F8089004B0F6
:10291800BDE8000BF0BD40F6603040F64432C2F22C
:102928000000C2F20002392105F0BCFAFEDE40F6D2
:102938001C024021C2F2000205F0CCFAFEDE58B9B2
:1029480040F6A42040F6CC22C2F20000C2F20002F7
:10295800282105F0A7FAFEDE40F6312040F6942241
:10296800C2F20000C2F20002112105F09BFAFEDE5D
:1029780040F6F83040F6C433C2F2000003AA0090D3
:1029880040F69930C2F20000C2F20003182105F0A7
:10299800D5FAFEDE7047D4D4F0B503AF2DE9000FA9
:1029A80089B044F2181482468868C4F2080400907A
:1029B8001546D1F80C9020680490206820F0020099
:1029C800206054F8100C039054F8100C20F001000B
:1029D80044F8100C54F8180C0290206801902068F4
:1029E80020F001002060012054F808BC60604FF01E
:1029F800FF3044F8080C44F8180C206840F0040034
:102A08002060206840F00100206054F8100C40F06D
:102A1800010044F8100C16683046FFF7D7FC40F662
:102A2800304205F10408C2F20002089240F608425A
:102A3800C2F2000298E80301079105A9CDE90562F1
:102A480098ED000A03F028FCB7EE001A286990ED0B
:102A5800000AB4EE410AF1EE10FA15DD4CF26C01F1
:102A680040F26462C4F20A01C2F200020968082353
:102A78009FED2E0A09074FF0180158BF042151583D
:102A88000022C1F88C30026098ED001A30EE010A7D
:102A980080ED000A54F8385C54F8346C6068C0075C
:102AA80026D10098494602F04AFB02F01EFB4CF67C
:102AB8000028ED43C3F69A3801FB08F1E0FB082132
:102AC800F043A2FB006302FB0532002301FB002157
:102AD8000020CAF804003046424607F0B6FD01233C
:102AE80000FB1862CAF800300AF1080307C302E0C5
:102AF8000020CAE9000044F808BC2068019961F385
:102B080000002060029844F8180C54F8100C03993F
:102B180061F3000044F8100C20680499490861F337
:102B28004100206009B0BDE8000FF0BD00000000C2
:102B3800B0B502AFC2684AF6AB2CCAF6AA2CFAB1F5
:102B4800D0E900E3A3EB0E04A4FB0C450024C46009
:102B5800541EB4EBD50F0DD285682A44826004EB6D
:102B680044020EEB82020C329D1AA5FB0C54B1EB09
:102B7800D40F0DD300220021036008461146B0BDD2
:102B8800D0E900239D1AA5FB0C54B1EBD40FF1D268
:102B980001EB4105836802EB8502194402F10C053B
:102BA8004B1C0560836008461146B0BDD0B502AF26
:102BB800C16859B9D0E90012914224D0826801F164
:102BC8000C030360531C83601046D0BDD0E900C2DB
:102BD8004AF6AB23CAF6AA234C1EA2EB0C0EAEFB98
:102BE800033E0023C360B4EBDE0F0BD283681944A5
:102BF800816004EB44010CEB81010C3101609142CE
:102C0800DCD100E0026000210020D0BDD1E9002322
:102C18004FF0010CC9689A1A4AF6AB23CAF6AA23E0
:102C2800A2FB0323C1EBD302DB088B4238BF00228F
:102C3800C0E9002C82607047D0B502AFC2688A42F2
:102C48001DD9D0E900CE4AF6AB24CAF6AA24AEEBC9
:102C58000C03A3FB0434CB431A44C260B1EBD40F7A
:102C680026D201EB4102836819440CEB820202F17F
:102C78000C044B1C0460836008461146D0BDCAB1E1
:102C8800D0E900C34AF6AB24CAF6AA24A3EB0C0188
:102C9800A1FB0414511EB1EBD40F10D201EB41017A
:102CA80083680CEB81011A440C318260016007E0F3
:102CB800C0F800E00021002208461146D0BD03609C
:102CC8000021C160002208461146D0BD0246C068F6
:102CD80068B1D2E900130138D06099421FBF9068EB
:102CE80001F10C031360431C1CBF93607047002064
:102CF80000217047CA688AB1D1E90031C91A4AF679
:102D0800AB23CAF6AA23A1FB0313B2EBD30F28BF48
:102D1800DA0801218260C0E9002170470022012100
:102D28008260C0E9002170477047F0B503AF2DE914
:102D38000007D0F804A04AF6AB2E4FF0000CCAF6F4
:102D4800AA2E0025A94226D0C4682A466CB9046870
:102D580054451FBF551C866804F10C0303601EBF51
:102D6800731C8360002CEDD11BE0D0F80090C0F8F4
:102D78000CC0AAEB0906A6FB0E68661EB6EBD80FB8
:102D88000DD285682C44846006EB460409EB840464
:102D98000C340460DCE70020BDE80007F0BDC0F893
:102DA80000A001201146BDE80007F0BDD0B502AF74
:102DB800D1B18E46C168D0F804C04B1E00215A1C00
:102DC8001EBFC360026862450CD001318468013BB4
:102DD8000C328E45026004F101028260EFD10020BE
:102DE8007146D0BD0120D0BD00210020D0BDD4D473
:102DF800F0B503AF4DF804BDE0B0044608681546C9
:102E0800DFE810F004005C01E0002F016E46043199
:102E180030464FF4C07207F062FC2046294632461D
:102E280000F0E0F9691C06F10C02204600F0DAF91E
:102E3800A91C06F11802204600F0D4F9E91C06F195
:102E48002402204600F0CEF9291D06F13002204662
:102E580000F0C8F9691D06F13C02204600F0C2F9ED
:102E6800A91D06F14802204600F0BCF9E91D06F14B
:102E78005402204600F0B6F905F1080106F1600297
:102E8800204600F0AFF905F1090106F16C02204671
:102E980000F0A8F905F10A0106F17802204600F0D1
:102EA800A1F905F10B0106F18402204600F09AF918
:102EB80005F10C0106F19002204600F093F905F1A6
:102EC8000D0106F19C02204600F08CF905F10E0177
:102ED80006F1A802204600F085F905F10F0106F178
:102EE800B402204600F07EF905F1100106F1C00297
:102EF800204600F077F905F1110106F1CC022046D1
:102F080000F070F905F1120106F1D802204600F030
:102F180069F905F1130106F1E402204600F062F9AF
:102F280005F1140106F1F002204600F05BF905F105
:102F3800150106F1FC02204600F054F905F11601CE
:102F480006F58472204600F04DF905F1170106F5E3
:102F58008A72204600F046F905F1180106F59072CC
:102F6800204600F03FF905F1190106F59672204652
:102F780000F038F905F11A0106F59C72204600F0B8
:102F880031F905F11B0106F5A272204600F02AF975
:102F980005F11C0106F5A872204600F023F905F199
:102FA8001D0106F5AE72204600F01CF905F11E0160
:102FB80006F5B472204600F015F905F11F0106F573
:102FC800BA7208E16E4604313046902207F087FB5A
:102FD80020462946324600F005F9691C06F10C0224
:102FE800204600F0FFF8A91C06F11802204600F060
:102FF800F9F8E91C06F12402204600F0F3F8291D2F
:1030080006F13002204600F0EDF8691D06F13C0299
:10301800204600F0E7F8A91D06F14802204600F016
:10302800E1F8E91D06F15402204600F0DBF805F14D
:10303800080106F16002204600F0D4F805F1090104
:1030480006F16C02204600F0CDF805F10A0106F100
:103058007802204600F0C6F805F10B0106F184025B
:10306800B9E06E4604313046542207F038FB20465A
:103078002946324600F0B6F8691C06F10C022046D3
:1030880000F0B0F8A91C06F11802204600F0AAF8D2
:10309800E91C06F12402204600F0A4F8291D06F1D7
:1030A8003002204600F09EF8691D06F13C022046D9
:1030B80000F098F8A91D06F148028CE06E4604312C
:1030C8003046FC2207F00BFB20462946324600F02A
:1030D80089F8691C06F10C02204600F083F8A91C47
:1030E80006F11802204600F07DF8E91C06F12402DA
:1030F800204600F077F8291D06F13002204600F03E
:1031080071F8691D06F13C02204600F06BF8A91D14
:1031180006F14802204600F065F8E91D06F1540260
:10312800204600F05FF805F1080106F1600220462C
:1031380000F058F805F1090106F16C02204600F08C
:1031480051F805F10A0106F17802204600F04AF824
:1031580005F10B0106F18402204600F043F805F161
:103168000C0106F19002204600F03CF805F10D0133
:1031780006F19C02204600F035F805F10E0106F133
:10318800A802204600F02EF805F10F0106F1B4025E
:10319800204600F027F805F1100106F1C00220468C
:1031A80000F020F805F1110106F1CC02204600F0EC
:1031B80019F805F1120106F1D802204600F012F8BC
:1031C80005F1130106F1E402204600F00BF805F1C1
:1031D800140106F1F002204600F004F860B05DF832
:1031E80004BBF0BDF0B503AF2DE9000F81B0D2F8F4
:1031F8000090054690460C46A9F10200032828BF16
:103208000120002800F0508140F2F86A0128C2F23B
:10321800000A0DD168695AF82010A14215D9DFE8D3
:1032280000F002262D344FEA041B202C33D26AE02A
:1032380068695AF82010A14210D9DFE800F0023876
:103248003E442001202C44D2F0E0601AD5F89811B1
:10325800DFE801F0024C4F52000150E0601AD5F847
:103268009811DFE801F002D5D8DB0001D9E004EBC2
:1032780044004FEAC00B202C0DD244E004EB84003C
:103288004FEAC00B202C06D23DE004EBC4004FEA05
:10329800C00B202C37D3402C3ED2296804F01F00E5
:1032A800012202FA00F0C8622968243131E004EBF7
:1032B8004400C000202C0CD2B8E004EB8400C0000D
:1032C800202C06D2B2E004EBC400C000202CC0F0D1
:1032D800AD80402C80F0B4802A6804F01F010123DF
:1032E80003FA01F1D1622A682432A5E000EB40001C
:1032F80004E000EB800001E000EBC000C00000F536
:10330800007B202CC7D229680120A04008632968C7
:1033180028310A681043086048F2800E0026C4F27B
:103328001D0E0BEB0E0C634643F8086B6869D5F865
:1033380098115AF82020A24288BF014640F208702E
:10334800C2F2000050F82120002000210EE0904237
:103358003EBF1E5010F10400904211D21E5004309E
:1033680038BF90420CD21E50411C0120C00701D02A
:10337800033105D291423CBF5E5011F10400E6D3FF
:10338800D8F8040040F2000AC1F6FC7AB9F1010F3E
:103398000AEA804108BF20F060414FF08060CCF815
:1033A800041008BF4FF084604EF80B002E68306898
:1033B80040F0A04030603068C0015FBF30685FEA0D
:1033C800C01030685FEAC01002D43068C001F2D57E
:1033D8003046214600F026FAD8F80810B9F1010F56
:1033E8000AEA814208BF21F060420260306820F09A
:1033F800805030603068C00141BF30685FEAC0105B
:1034080030685FEAC0104FD53068C001F2D44BE095
:1034180000EB400004E000EB800001E000EBC0009E
:10342800C00000F50070202CBFF453AF2A680121BA
:10343800A14011632A682832136823EA0101116048
:1034480048F280014FF00062C4F21D014250421858
:103458000020506008326969D5F898315AF821601F
:10346800A64288BF0B4640F208710026C2F200014E
:1034780051F8231000230CE0D050043338BF8B429E
:1034880012D2D050043338BF8B420DD2D050013302
:103498000126F60701D0033306D28B4204D2D0505E
:1034A800043338BF8B42E7D33F2C9FBF98E807000F
:1034B80004EB440305EB830303F548739FBF07C37D
:1034C80001B0BDE8000FF0BD40F6C8422046C2F288
:1034D8000002402104F0FEFCFEDEF0B503AF2DE94A
:1034E800000B8EB040F2000240F20873C2F20002F4
:1034F800C2F2000356690190C06853F82610009282
:10350800029088420AD9D2F8985153F82550A84217
:1035180004D901200EB0BDE8000BF0BDD2F89841E7
:1035280040F2F865C2F200054FF0000955F8266030
:1035380002F5C46553F8244002F5487207AB4028E9
:10354800CDF814900495039206960A9683E824020F
:1035580028BF40200B1AA4EB000609D4002E07D57B
:1035680040F6D84003ADC2F200004FF000083AE040
:1035780040F6006007ADC2F20000B3F1FF3F07DC80
:10358800B6F1FF3F04DD4FF000094FF000082AE0D4
:10359800A1420BD20021B6F1FF3FDCBF0D46084621
:1035A80040F6D841C2F2000103AA11E040F6D84023
:1035B80003ADC2F200008C420FD20021B3F1FF3FED
:1035C800DCBF0D46084640F6006107AAC2F20001BA
:1035D800A94680460846154605E040F600680DF104
:1035E8001C09C2F20008C4680BAE02A968460D9116
:1035F80001A90C910B902846A04749B10A680346D7
:103608003046194600F020F8C0B20328F3D111E083
:10361800B9F1000F13D0D8F80C400BAD4846A047BD
:1036280069B10A6803462846194600F00DF8C0B289
:103638000328F3D103200EB0BDE8000BF0BD002035
:103648000EB0BDE8000BF0BDF0B503AF2DE9000FDB
:1036580081B0042A42D1834600680C46DBE9016543
:10366800D5F80080016840F2F860C2F200004A69AB
:1036780050F822303068A34205D9DFE802F002147E
:103688000D1826011FE0E21AD1F89831DFE803F09F
:1036980002130816120114E004EB8402D60012E0AB
:1036A80002EB82020CE004EB4402D6000BE004EBD0
:1036B800C402D60007E002EB420201E002EBC202BC
:1036C800D20002F5007648F28009C4F21D0956F8C6
:1036D800092002F07063B3F1406F04D1002001B0FB
:1036E800BDE8000FF0BD1F2C03D809682346303110
:1036F80005E03F2C07D8096804F01F032C31012589
:1037080005FA03F30B60082161F31B6249F80620F0
:103718000022D0E900A1C1F6FC72057C02EA8143CF
:10372800BAF1010F08BF21F06043002D1CBF417C96
:1037380043EA4173D0E9021209EB060043603046C0
:10374800434601F0B1F8B8F1090F01D2404622E032
:10375800B8F10D0F01D209201DE0B8F1110F01D207
:103768000A2018E0B8F1150F01D20B2013E0B8F1C8
:10377800190F01D20C200EE0B8F1210F01D20D2053
:1037880009E0B8F1310F01D20E2004E00820B8F1A9
:10379800410F38BF0F204FF04C41BAF1000F1CBF4A
:1037A8000021CCF66041202C60F3134149F8061043
:1037B8004FF00101DBF800000068006816D2A14054
:1037C800026B0A40012A01BF026B0A40012A026B00
:1037D80004BF0A40012A03D1026B0A40012AEFD034
:1037E8000163032001B0BDE8000FF0BD04F01F0223
:1037F8009140C26A0A40012A0BD1C26A0A40012AD2
:1038080007D1C26A0A40012A02BFC26A0A40012AD5
:10381800EFD03F2C98BFC162032001B0BDE8000F74
:10382800F0BDD4D43F2900F24280DFE811F0400017
:103838004300460049004C004F0052005500580014
:103848005B005E006100640067006A006D00700044
:103858007300760079007C007F0082008500880074
:103868008B008E009100940097009A009D00A000A4
:10387800A300A600A900AC00AF00B200B500B800D4
:10388800BB00BE00C100C400C700CA00CD00D00004
:10389800D300D600D900DC00DF00E200E500E80034
:1038A800EB00EE00F100F400F700FA00FD0000F56F
:1038B8000860704700F68400704700F6880070477B
:1038C80000F68C00704700F50960704700F6940018
:1038D800704700F69800704700F69C00704700F5A6
:1038E8000A60704700F6A400704700F6A800704709
:1038F80000F6AC00704700F50B60704700F6B400A6
:10390800704700F6B800704700F6BC00704700F535
:103918000C60704700F6C400704700F6C800704796
:1039280000F6CC00704700F50D60704700F6D40033
:10393800704700F6D800704700F6DC00704700F5C5
:103948000E60704700F6E400704700F6E800704724
:1039580000F6EC00704700F50F60704700F6F400C1
:10396800704700F6F800704700F6FC00704700F555
:103978001060704700F60410704700F60810704792
:1039880000F60C10704700F51160704700F614102F
:10399800704700F61810704700F61C10704700F5C5
:1039A8001260704700F62410704700F62810704720
:1039B80000F62C10704700F51360704700F63410BD
:1039C800704700F63810704700F63C10704700F555
:1039D8001460704700F64410704700F648107047AE
:1039E80000F64C10704700F51560704700F654104B
:1039F800704700F65810704700F65C10704700F5E5
:103A08001660704700F66410704700F6681070473B
:103A180000F66C10704700F51760704700F67410D8
:103A2800704700F67810704700F67C107047D4D4C1
:103A3800F0B503AF2DE9000FB3B04369042B00F0D4
:103A4800268101684FF001094FF0000B0E6B0C96B0
:103A5800CE6A0B968E6A0E9640F2F866496AC2F2F2
:103A680000060D91D0F898110A9056F8230056F8E0
:103A7800211008441FA90E310691116800220591F2
:103A8800002108920022099207900BEBCB020BEB66
:103A98008B0352425B42A1EB0B1EABEB8B01DC4666
:103AA800D200C900DB00584588BF8446DC4500F0D9
:103AB800E7800BF03F05483AC5F12004B5F1200630
:103AC80009FA05FAA3F1280329FA04F8A1F1180163
:103AD80058BF09FA06F80D9858BF4FF0000AAEF122
:103AE800100E08EA00060E980BF1010B00EA0A0016
:103AF8003043DBD00B980C9C00EA08000AEA040665
:103B08003043D3D00A9840F2F865C2F20005ABF111
:103B18000104466955F826C0644508D2DFE806F076
:103B2800022913176FF00F00A0EB0E012CE0D0F85C
:103B38009861DFE806F0022210170EEB0C106FF008
:103B48000F01081A1EE06FF02700C11A1CE06FF081
:103B58004700811A18E00CEB8C004042C3EBC00010
:103B680028380FE00CEBCC004042C2EBC0004838CC
:103B780008E06FF01700411A06E0ACEB8C00C1EBCF
:103B8800C000183800F5007148F28000C4F21D002A
:103B98000D5805F03060B0F1007F66D148F2800022
:103BA800C4F21D004218C5F303405668A0F109028B
:103BB800072A06D240F68C70C2F2000050F8222084
:103BC80009E048F63962C3F6E302A0FB02235A086B
:103BD80002EBC202821A1FA8049505F4001503928D
:103BE80000F098FE0A9826F06042002D016808BF90
:103BF800C6F38A42019218BF012502951F2C8A68D4
:103C080001D8303104E03F2C05D804F01F042C31D2
:103C180009FA04F20A601FAA0DF13C0EB2E84B1033
:103C2800AEE84B105BCAAEE85B0092E87B008EE81A
:103C38007B000A98D0F820660498B6B1C0F34074A7
:103C4800ADF8880003980FA9219040220198209090
:103C580002981F90069806F003FD00201FA98DF812
:103C6800CB0005988DF8CA40B0470898002140EA73
:103C78000A000890099840EA08000990079804E7A4
:103C88000A99089A0868026308680999C16233B0FA
:103C9800BDE8000FF0BD40F20000C2F2000040692C
:103CA80004281CBF1046FFF718BC0220704740F2DA
:103CB8000000C2F200004169042918BFC0F820269C
:103CC8007047B0B502AF02F086FA044602F079FAFE
:103CD80002F084FA44F21C4004F00101C2F2000030
:103CE80005782A0604BF01220270002908BF02F0E5
:103CF8006AFAE8B2B0FA80F04009B0BDF0B503AF97
:103D08002DE9000FADF6840D369002F064FA00F04C
:103D1800010402F056FA02F061FA44F22A40C2F2B3
:103D280000000578002D04BF01210170002C08BF98
:103D380002F049FA002D40F0AB850DF1DC0A369906
:103D48000AF58A600F900AF25C4010900AF58D60BF
:103D580011900AF2744012900AF5906013900AF2DA
:103D68008C4014900AF5936015900AF2A4401690BE
:103D78000AF5966017900AF2BC4018900AF5996007
:103D880019900AF2D4401A900AF59C601B900AF226
:103D9800EC401C900AF59F601D900AF204501E909A
:103DA8000AF5A2601F900AF21C5020900AF5A5603F
:103DB80021900AF2345022900AF5A86023900AF262
:103DC8004C5024900AF5AB6025900AF26450269076
:103DD8000AF5AE6027900AF27C5028900AF5B16087
:103DE80029900AF294502A900AF5B4602B900AF2AE
:103DF800AC502C900AF5B7602D900AF2C4502E9062
:103E08000AF5BA602F900AF2DC5030900AF5BD60CE
:103E180031900AF2F45032900AF5C06033900AF2F9
:103E28000C6034900AF5C36035900AF104004FF431
:103E380047720AF581690AF214480AF584650AF29C
:103E48002C440AF5876B0AF2444606F048FC48F20F
:103E580000020020C4F21D02022137920F9ACDF809
:103E6800E014CDF8D414C2E90000109ACDF8C814B3
:103E7800CDF8BC14C2E90000119ACDF8B014CDF801
:103E8800A414C2E90000129ACDF89814CDF88C1445
:103E9800C2E90000139ACDF88014CDF87414C2E971
:103EA8000000149ACDF86814CDF85C14C2E900003B
:103EB800159ACDF85014CDF84414C2E90000169AAA
:103EC800CDF83814CDF82C14C2E90000179ACDF8B3
:103ED8002014CDF81414C2E90000189ACDF808147B
:103EE800FF91C2E90000199ACDF8EC14CDF8F81446
:103EF800C2E900001A9ACDF80415CDF81015C2E9E8
:103F080000001B9ACDF81C15CDF82815C2E9000051
:103F18001C9ACDF83415CDF84015C2E900001D9A59
:103F2800CDF84C15CDF85815C2E900001E9ACDF809
:103F38006415CDF87015C2E900001F9ACDF87C15FC
:103F4800CDF88815C2E90000209ACDF89415CDF86F
:103F5800A015C2E90000219ACDF8AC15CDF8B81526
:103F6800C2E90000229ACDF8C415CDF8D015C2E9EF
:103F78000000239ACDF8DC15CDF8E815C2E9000059
:103F8800249ACDF8F415CDF80016C2E90000259A58
:103F9800CDF80C16CDF81816C2E90000269ACDF80F
:103FA8002416CDF83016C2E90000279ACDF83C1641
:103FB800CDF84816C2E90000289ACDF85416CDF875
:103FC8006016C2E90000299ACDF86C16CDF878166B
:103FD800C2E900002A9ACDF88416CDF89016C2E9F5
:103FE80000002B9ACDF89C16CDF8A816C2E900005F
:103FF8002C9ACDF8B416CDF8C016C2E900002D9A57
:10400800CDF8CC16CDF8D816C2E900002E9ACDF816
:10401800E416CDF8F016C2E900002F9A3599CDF8CC
:10402800DC04C2E90000309ACDF8D804CDF8D004F9
:10403800C2E90000319ACDF8CC04CDF8C404C2E935
:104048000000329ACDF8C004CDF8B804C2E90000E7
:10405800339ACDF8B404CDF8AC04C2E90000349A20
:10406800CDF8A804CDF8A004C2E900004FF480728E
:10407800CDF89C04CDF89404CDF89004CDF88804CC
:10408800CDF88404CDF87C04CDF87804CDF870041C
:10409800CDF86C04CDF86404CDF86004CDF858046C
:1040A800CDF85404CDF84C04CDF84804CDF84004BC
:1040B800CDF83C04CDF83404CDF83004CDF828040C
:1040C800CDF82404CDF81C04CDF81804CDF810045C
:1040D800CDF80C04CDF80404CDF80004C9E90000BB
:1040E800C8E90000C5E90000C4E90000CBE9000008
:1040F800C6E90000C1E90000CDF8FC064CF220003A
:10410800C4F20F0001689DF8F83321F47F71DFE8ED
:1041180003F0040404100D040F0441F4007100229C
:10412800DFE803F00A0C0E0F04040F0F042208E066
:1041380000221143002204E0242202E0102200E0C1
:104148000C2211430160816C192241F440518164B1
:10415800416E41F47071416648F2A400C4F21F0038
:10416800016862F304010160D0F8F01141F2B00176
:10417800C0F8F011D0F8E83623F00303C0F8E836A9
:10418800436862F304034360D0F8F421C0F8F411E3
:10419800379C206820F0004020602068C00241BFA2
:1041A80020685FEAC02020685FEAC02002D5206846
:1041B800C002F2D4206820F4802020602068C00269
:1041C80041BF20685FEAC02020685FEAC02002D5AE
:1041D8002068C002F2D4206840F000702060206897
:1041E800800141BF20685FEA801020685FEA801084
:1041F80006D520688001F2D402E02068C00109D405
:104208002068C0015FBF20685FEAC01020685FEACD
:10421800C010F2D54DF680712068CFF65771002591
:10422800084042F23F01C0F228010843206041F2F1
:1042380000006FF04046C0F2B2006560606320463F
:104248002946FFF7EFFA01350660402DF7D1002027
:1042580004F19001206104F18005606104F5806E2D
:10426800A06104F58268A06404F58469A06204F57D
:104278008666606204F5886B206304F58A62E062F2
:104288000023369104F1A001359104F1B001349175
:1042980004F1C001339104F1D001329104F1E0013D
:1042A800319104F1F001309104F580712F9104F5FA
:1042B80088712E9104F590712D9104F598712C91C7
:1042C80004F5A0712B9104F5A8712A9104F5B07139
:1042D800299104F5B871289104F5C071279104F566
:1042E800C871269104F5D071259104F5D8712491EF
:1042F80004F5E071239104F5E871229104F5F07159
:10430800219104F5F871209104F500711F9104F5CD
:1043180004711E9104F508711D9104F50C711C912E
:1043280004F510711B9104F514711A9104F51871B4
:10433800199104F51C71189104F52071179104F571
:104348002471169104F52871159104F52C711491B6
:1043580004F53071139104F53471129104F5387134
:10436800119104F53C71109104F540710F9104F519
:1043780044710E9104F548710D9104F54C710C913E
:1043880004F550710B9104F554710A9104F55871B4
:10439800099104F55C71089104F56071079104F5C1
:1043A8006471069104F56871059104F56C710491C6
:1043B80004F57071039104F57471029104F5787134
:1043C800019104F57C71009104E0013308603F2BF2
:1043D80000F0A480A3F1010C2946BCF13D0FF4D8EC
:1043E800DFE80CF01F21232527292B2D2F3133350A
:1043F80037393B3D3F41434547494B4D4F51535555
:1044080057595B5D5F61636567696B6D6F71737544
:1044180077797B7D7F81838587898B8D8F91939534
:1044280097993699D1E73599CFE73499CDE73399FC
:10443800CBE73299C9E73199C7E73099C5E72F9992
:10444800C3E72E99C1E72D99BFE72C99BDE72B99B2
:10445800BBE72A99B9E72999B7E72899B5E72799D2
:10446800B3E72699B1E72599AFE72499ADE72399F2
:10447800ABE72299A9E72199A7E72099A5E71F9912
:10448800A3E71E99A1E71D999FE71C999DE71B9932
:104498009BE71A9999E7199997E7189995E7179952
:1044A80093E7169991E715998FE714998DE7139972
:1044B8008BE7129989E7119987E7109985E70F9992
:1044C80083E70E9981E70D997FE70C997DE70B99B2
:1044D8007BE70A9979E7099977E7089975E70799D2
:1044E80073E7069971E705996FE704996DE70399F2
:1044F8006BE7029969E7019967E7009965E77146F3
:1045080063E7414661E749465FE731465DE759465B
:104518005BE7114659E70020C4F86004379841F278
:10452800280240F2A8660AF5CC79C2F20006416872
:104538009143416001683C9A9D9B56F8222040F2C5
:10454800F866C2F2000656F8233001261A444EF6E1
:104558008073CDF6B07302F07F021940114401F563
:1045680044310160DDE937049DF8E7B09DF8E6C005
:104578009DF8E410BBF1010F9DF8E550036843F086
:10458800A043036098BFB346012D98BF3546012963
:1045980088BF0E460AF114010368DB015FBF026899
:1045A8005FEAC21202685FEAC21202D40268D2014C
:1045B800F2D5DDF8DCE0012C4FF0010398BF1C4672
:1045C80040F2FF3A544528BF54463F2E28BF3F26A5
:1045D8004FF6004ADEF85020CFF6FF7A0AEB862223
:1045E8001F2DC2EA44524FF01F0428BF2546BCF1D4
:1045F800010F88BF63461F2B28BF23466FF01F0695
:1046080006EB4515013B05F4787503F01F032A44B2
:10461800BBF11F0F1A4440F20003CFF6FF7338BFF7
:104628005C4603EB044303F4F8131A4402F1C04256
:1046380002F1FF5242F00042CEF85020026822F008
:10464800805202600268D20141BF02685FEAC2126A
:1046580002685FEAC21202D50268D201F2D4DDF81C
:10466800E8A001239DF8EF4040F2FF30BAF1010FB6
:104678009DF8EE209DF8ED609DF8EC5098BF9A46A5
:10468800824528BF8246012C98BF1C461F2C4FF03C
:104698001F0028BF0446012A98BF1A461F2A28BFB0
:1046A8000246012E98BF1E461F2E9DF8F9E328BF2B
:1046B8000646012D98BF1D463F2D28BF3F25BEF158
:1046C800000F0DD09DF8FAC3BCF1010F88BF6346F7
:1046D8001F2B38BF18464FF4F85303EA002C01E0AB
:1046E8004FF4807C02F10708379A05F11F0004F1A6
:1046F800070B0736156845F0A04515601568ED01EC
:104708005FBF13685FEAC31313685FEAC31302D479
:104718001368DB01F2D548F21833D2F8045CCCF206
:104728000803BEF1000F03EA050340F20005C3F6D3
:10473800F07505EB0A5404EA050460F38E2406F0CC
:10474800070044EA401008F0070420440BF007046F
:1047580040EA044046F2FF041844C2F8040C10680A
:10476800C7F6E47440F4006010604FF0802008BF82
:104778004FF00040D2F8003C3C9E604423409D9D91
:10478800184340EA064040EAC540C2F8000C1068E9
:1047980020F0805010601068C00141BF10685FEAC7
:1047A800C01010685FEAC01002D51068C001F2D4CA
:1047B8003798D0F8002C520464D4026842F0A04222
:1047C80002600268D2015FBF02685FEAC212026833
:1047D8005FEAC21202D40268D201F2D50DF5E06593
:1047E8004FF4C2723C9C284605F079FF37AE294643
:1047F80000223046FEF7FCFA0DF5E06549464FF415
:10480800C272284605F06BFF40F2F8602946C2F2F2
:10481800000050F824203046FEF7EAFA379801687D
:1048280021F08051016037980168C90141BF0168D2
:104838005FEAC11101685FEAC11102D50168C901C7
:10484800F2D401F0C8FC044601F0BBFC01F0C6FC40
:1048580040F2000037A9C2F2000040F2246205F0DD
:104868003EFFE00708BF01F0AEFC4EF210104FF01B
:104878008061CEF20000016005200DF6840DBDE8D0
:10488800000FF0BD03200DF6840DBDE8000FF0BD4C
:1048980040F6444040F67C72C2F20000C2F20002C8
:1048A8002B2103F0FFFAFEDE80B56F46402B28BFB0
:1048B80040234FF0000CBCEB930F2AD04FEA930C27
:1048C80048F28803C4F21D0300EB030E07E0BCF1B5
:1048D800010CA2EB030219440EF1040E19D0002AB0
:1048E80008BF80BD0B78042A8EF80330134628BF12
:1048F8000423012BEBD04878022B8EF80200E6D077
:104908008878032B8EF801001CBFC8788EF8000049
:10491800DDE780BDF0B503AF2DE9000F83B00D468C
:10492800402116468246402405F08DFF402E38BFB0
:1049380034460020B0EB940F6BD048F28800002377
:10494800C4F21D00291801F1030E01F102084E1CE2
:10495800A0084FF04009029000910DE00298A9EBE1
:104968000B09DA4401330EF1040E08F10408043689
:104978000431013802904CD0102B4AD04FF0040B70
:10498800B9F1040F38BFCB46ABF101040420032C66
:1049980004D254461BF003051ED1DFE72BF00300B9
:1049A8006FF003044542002001930AEB04031EF84C
:1049B800002004341A7118F800205A71325C9A7178
:1049C8000A5C04388542DA71EFD1019BAAEB000436
:1049D80004301BF00305C1D01A46009B0190204605
:1049E800019C03EB820C1346012DA444CDF804C0AE
:1049F8001CF8014C0470B1D004460198022D10F83F
:104A0800023C637013461EBF019810F8030CA07097
:104A1800A4E703B0BDE8000FF0BDD4D4D0B502AF11
:104A280084B00078DFE800F0030A11181F0001AC19
:104A380041F27302C2F200020F231AE001AC40F205
:104A4800B862C2F20002102313E001AC41F2500236
:104A5800C2F2000223230CE001AC41F21002C2F2C0
:104A68000002202305E001AC40F6A872C2F2000261
:104A78000723204604F073F9204603F038FC04B0FD
:104A8800D0BD4EF21000CEF20000016821F0010105
:104A98000160016821F00401016063214160002187
:104AA8008160016841F001010160016841F0020183
:104AB8000160704744F22040C2F2000001680131F1
:104AC80001607047D0B502AF82B001F0A9FBC4689D
:104AD800052060F3030401F0A3FBC46001A80121D1
:104AE80000F026F801F077FB044601F06AFB01F0BC
:104AF80075FB4CF26C001822C4F20A0001680068C9
:104B0800000758BF042209074FF0180041F284013A
:104B180058BF0420C2F200018A580858516841F071
:104B280008014160E00708BF01F04DFB02B0D0BDAD
:104B3800F0B503AF4DF804BD0D4601F04CFB064639
:104B480001F03FFB01F04AFB4CF26C0041F2840497
:104B5800C4F20A0018230168C2F20004026821F0B6
:104B6800080165F3C301120758BF0423E35818224C
:104B78005B6801600168006800074FF0180058BFC3
:104B880004200907205858BF0422A158DA084068B1
:104B980062F3C3004860F00708BF01F014FB01206E
:104BA8005DF804BBF0BD704780B56F4682B0002049
:104BB8008029019007D28DF80410012201A900F084
:104BC80077F902B080BDB1F5006F09D2022208461C
:104BD80062F39F108DF80500C02040EA911028E08C
:104BE80002200A4660F39F12B1F5803F11D28DF87A
:104BF80006208A0960F39F12E0208DF8052040EA1C
:104C080011308DF80400032201A900F051F902B017
:104C180080BD8DF807208A0960F39F128DF8062061
:104C28000A0B60F39F12F0208DF80520042240EA59
:104C380091408DF8040001A900F03AF902B080BD56
:104C4800F0B503AF4DF804BD88B0006802AA019022
:104C580091E87850104641F2A801C2F2000180E8BC
:104C6800785001A803F047FC08B05DF804BBF0BD1C
:104C780000F01EB941F2C0020021C2F20002052371
:104C8800C0E9003281607047D0B502AF00220C46FF
:104C98000146C4F22E020120914218BFD0BD40F255
:104CA8002462D4E90113C2F20002C2E9001341F2FE
:104CB800C0011072C2F20001104601F04EFC08B1AA
:104CC8000020D0BD44F24C412068C2F20001BFF37D
:104CD8005F8F0860BFF35F8F06F082FF06F085FFE5
:104CE8000420D0BD06F072B9F0B503AF2DE9000776
:104CF8000646007A60B10D4606F060F940B144F20C
:104D08004C40D5F80080C2F200000068804503D905
:104D18000020BDE80007F0BD7168012029B33368A1
:104D28006FF0030202EB8101D5E901951E1D0024F5
:104D380000EB910A03E001340C36A245E8D0306854
:104D4800A842F8D156F8040C49462A4605F0DAFF7D
:104D58000028F0D1706800218045A0F10600B0FA63
:104D680080F098BF012140090843BDE80007F0BD65
:104D7800F0B503AF2DE9000F93B00446007A002880
:104D880074D0894606F01AF900286FD044F24C40D6
:104D9800D9F800A0C2F200000068824566D86068B1
:104DA80008B323686FF0030202EB8000D9E901B869
:104DB80001211C1D01EB9005002603E001360C348F
:104DC800B54253D020684045F8D154F8040C5946F0
:104DD800424605F097FF0028F0D16068062818BF02
:104DE800824502D942E0D9E901B801F0F4F9054653
:104DF80001F0E7F901F0F2F943F6811041F2A80158
:104E0800C0F200000CAA06900AA8059043F6871085
:104E1800C0F20000C2F20001049008A8039044F612
:104E28008760C0F20000CDF81CA0029007A801908E
:104E380009F10C000A9012A80B900320119001A808
:104E480010900020CDE90E0004200D9041F248108A
:104E5800C2F20000CDE908B80C900BA803F04BFB98
:104E68000446E80708BF01F0AEF91CB913B0BDE865
:104E7800000FF0BD40F6B07041F23012C2F20000EF
:104E8800C2F20002202103F00DF8FEDED0B502AF19
:104E980001F0A1F9044601F094F901F09FF906F038
:104EA8001FFEE00718BFD0BDBDE8D04001F08BB9A8
:104EB800F0B503AF2DE9000F8DB092468B4606F092
:104EC8007DF80021002800F0A28001200BEB0A06E3
:104ED8000A9003A84FF00A0980E8020C0025002078
:104EE800CDF82C90CDE908A9CDE906A107E00299F3
:104EF8000120002949464FF00A0900F093805545E2
:104F080006D9002289460292D046C00755D162E0F0
:104F1800CDE9000101E0554547D8AAEB05020BEBA6
:104F28000501072A1CD802B300200B5C0A2B2BD0E2
:104F38000B180133B34219D01C780A2C27D001333F
:104F4800B34213D01C780A2C24D00133B3420DD0BD
:104F58001C780A2C21D001330430B342E5D105E096
:104F68000A2003F0B2FF0A4601E0002200200128CF
:104F780016D102EB050808F10105D045CBD21BF884
:104F880008004845C7D136E002460120EFE7421C39
:104F98000120ECE7821C0120E9E7C21C0120E6E7BA
:104FA800019900200290554602E0019900200290E4
:104FB8008946D0460098C0070DD041F268100C46CB
:104FC800C2F20000022106F081FDB0F1FF3F1ADDB8
:104FD8000228214620D3B8EB01043FF488AF0BEB3D
:104FE8000100214606F072FDB0F1FF3F0BDD84425F
:104FF8007FF67DAF10E00120A94602900199009844
:10500800C007DAD1E7E7B0F1FF3118BF0121084640
:105018000DB0BDE8000FF0BD012108460DB0BDE898
:10502800000FF0BD002108460DB0BDE8000FF0BD2F
:10503800006803F04CBA0A46D0E90031184603F07C
:10504800A6BEB0B502AF4EF69C540025CEF20004C1
:10505800102044F8085C20602520C0F20830606009
:105068001120C0F2200020602120C0F20270606090
:105078001220C2F2000020602520C1F208306060D2
:105088001320C2F2200020602720C1F20B3060609C
:105098001420C4F2000020603320C1F21030606098
:1050A8001520C6F2000020602F20C0F20B7060604F
:1050B800012044F8080C01F088F801F089F8C4F8D8
:1050C800B45101F082F801F083F84FF4403044F80D
:1050D800880C4CF25400C4F20F00016821F003015F
:1050E8000160BDE8B040FCF7E3BA00281FBF4CF6EA
:1050F8000021C3F69A31B1FBF0F2500A1FBF44F603
:105108008333C0F20403A0FB0303D8091EBF00FBCE
:1051180011220021704780B56F4641F2D01041F24C
:10512800C012C2F20000C2F20002192102F0BAFE57
:10513800FEDE944604320846614600F01CBD002994
:105148001CBFB0FBF1F0704780B56F4641F25020AC
:1051580041F24022C2F20000C2F20002192102F01C
:10516800A1FEFEDE0220704701207047D2F800C081
:10517800DCF86C3043F44033CCF86C301268D36EF2
:1051880043F44073D3667047B0B502AFD2E900EC80
:10519800D2E90242DEF80050002C04BF43F200625C
:1051A800C0F26E120CF101044FF0000CD5F86CE05F
:1051B8004EF44053EB66C1F800C0C0E90024C0E9D2
:1051C8000224C0E90424C0E90624B0BDB0B502AF8A
:1051D800D1F800C01546D7F808E0002BDCF81C40D1
:1051E80008BF45F0400524F07F042C43CCF81C4050
:1051F80080E80E40B0BDF0B503AF2DE90007E2B07E
:10520800044600F0E8FF054600F0DBFF00F0E6FF8B
:1052180044F2444005F00101C2F200000678002E75
:1052280004BF01220270002908BF00F0CCFF002E45
:1052380040F0198300F0CFFF054600F0C2FF00F0F0
:10524800CDFF44F2374005F00101C2F200000678B4
:10525800002E04BF01220270002908BF00F0B3FF2E
:10526800002E40F0008300F0B6FF054600F0A9FFCD
:1052780000F0B4FF44F2384005F00101C2F200002A
:105288000678002E04BF01220270002908BF00F032
:105298009AFF002E40F0E78200F0B2FF00F09BFF7B
:1052A800054600F08EFF00F099FF44F2314005F00A
:1052B8000101C2F200000678002E04BF012202702C
:1052C800002908BF00F07FFF002E40F0CC8200F0DC
:1052D80082FF054600F075FF00F080FF44F224408D
:1052E80005F00101C2F200000678002E04BF012279
:1052F8000270002908BF00F066FF002E40F0B3825C
:1053080000F069FF054600F05CFF00F067FF44F21B
:10531800304005F00101C2F200000678002E04BFFB
:1053280001220270002908BF00F04DFF002E40F056
:105338009A8200F050FF054600F043FF00F04EFF50
:1053480044F2364005F00101C2F200000678002E52
:1053580004BF01220270002908BF00F034FF002EAC
:1053680040F0818200F037FF054600F02AFF00F088
:1053780035FF44F22B4005F00101C2F20000067827
:10538800002E04BF01220270002908BF00F01BFF95
:10539800002E40F0688200F01EFF054600F011FF65
:1053A80000F01CFF44F22D4005F00101C2F200009C
:1053B8000678002E04BF01220270002908BF00F001
:1053C80002FF002E40F04F8200F005FF054600F076
:1053D800F8FE00F003FF44F23F4005F00101C2F27D
:1053E80000000678002E04BF01220270002908BFC1
:1053F80000F0E9FE002E40F0368200F0ECFE054693
:1054080000F0DFFE00F0EAFE44F22E4005F0010154
:10541800C2F200000678002E04BF012202700029A3
:1054280008BF00F0D0FE002E40F01D8200F0D3FE31
:10543800054600F0C6FE00F0D1FE44F23B4005F000
:105448000101C2F200000678002E04BF012202709A
:10545800002908BF00F0B7FE002E40F0048200F0DB
:10546800BAFE054600F0ADFE00F0B8FE44F2264054
:1054780005F00101C2F200000678002E04BF0122E7
:105488000270002908BF00F09EFE002E40F0EB815C
:1054980000F0A1FE054600F094FE00F09FFE44F2E5
:1054A800354005F00101C2F200000678002E04BF65
:1054B80001220270002908BF00F085FE002E40F08E
:1054C800D28100F088FE054600F07BFE00F086FEE3
:1054D80044F2424005F00101C2F200000678002EB5
:1054E80004BF01220270002908BF00F06CFE002EE4
:1054F80040F0B98100F06FFE054600F062FE00F052
:105508006DFE44F2464005F00101C2F20000067843
:10551800002E04BF01220270002908BF00F053FECC
:10552800002E40F0A08100F056FE054600F049FE2E
:1055380000F054FE44F2274005F00101C2F20000D9
:105548000678002E04BF01220270002908BF00F06F
:105558003AFE002E40F0878100F03DFE054600F03F
:1055680030FE00F03BFE44F2394005F00101C2F282
:1055780000000678002E04BF01220270002908BF2F
:1055880000F021FE002E40F06E8100F024FE05465A
:1055980000F017FE00F022FE44F23D4005F0010144
:1055A800C2F200000678002E04BF01220270002912
:1055B80008BF00F008FE002E40F0558100F00BFEF9
:1055C800054600F0FEFD00F009FE44F2294005F012
:1055D8000101C2F200000678002E04BF0122027009
:1055E800002908BF00F0EFFD002E40F03C8100F0DC
:1055F800F2FD054600F0E5FD00F0F0FD44F22C4018
:1056080005F00101C2F200000678002E04BF012255
:105618000270002908BF00F0D6FD002E40F023815B
:1056280000F0D9FD054600F0CCFD00F0D7FD44F2AE
:105638003E4005F00101C2F200000678002E04BFCA
:1056480001220270002908BF00F0BDFD002E40F0C5
:105658000A8100F0C0FD054600F0B3FD00F0BEFD74
:1056680044F2284005F00101C2F200000678002E3D
:1056780004BF01220270002908BF00F0A4FD002E1B
:1056880040F0F18000F0A7FD054600F09AFD00F01B
:10569800A5FD44F2414005F00101C2F20000067880
:1056A800002E04BF01220270002908BF00F08BFD04
:1056B800002E40F0D88000F08EFD054600F081FDF8
:1056C80000F08CFD44F23C4005F00101C2F20000FC
:1056D8000678002E04BF01220270002908BF00F0DE
:1056E80072FD002E40F0BF8000F075FD054600F009
:1056F80068FD00F073FD44F2334005F00101C2F289
:1057080000000678002E04BF01220270002908BF9D
:1057180000F059FD002E40F0A68000F05CFD054623
:1057280000F04FFD00F05AFD44F23A4005F0010147
:10573800C2F200000678002E04BF01220270002980
:1057480008BF00F040FD002E40F08D8000F043FDC2
:10575800054600F036FD00F041FD44F2324005F008
:105768000101C2F200000678002E04BF0122027077
:10577800002908BF00F027FD002E74D100F02BFD92
:10578800054600F01EFD00F029FD44F2344005F006
:105798000101C2F200000678002E04BF0122027047
:1057A800002908BF00F00FFD002E5CD100F013FDAA
:1057B800054600F006FD00F011FD44F2454005F0F5
:1057C8000101C2F200000678002E04BF0122027017
:1057D800002908BF00F0F7FC002E44D100F0FBFCC4
:1057E800054600F0EEFC00F0F9FC44F2404005F0FC
:1057F8000101C2F200000678002E04BF01220270E7
:10580800002908BF00F0DFFC6EBB00F0E4FC054691
:1058180000F0D7FC00F0E2FC44F22F4005F0010153
:10582800C2F200000678002E04BF0122027000298F
:1058380008BF00F0C8FCB6B900F0CDFC054600F082
:10584800C0FC00F0CBFC44F2434005F00101C2F279
:1058580000000678002E04BF01220270002908BF4C
:1058680000F0B1FC56B120464FF4227104F0EEFF6F
:105878000220A06762B0BDE80007F0BD40F2000E4C
:105888000220C4F2080EC4F880020EF548160EF580
:105898008C100EF5B6130EF54715C4E918560EF51B
:1058A8009015A3660EF58A13C4E912300EF58E1210
:1058B8000EF5881604F150000EF598210EF54519DD
:1058C80080E824020EF55D150EF55F12C4F87C120F
:1058D8000EF58611C4E910160EF55C16C4E90A65C2
:1058E8000EF55A100EF590260EF546180EF55E13B5
:1058F800C4E90C320EF55911C4E908100EF58042BE
:105908000EF58820C4E900065DAEC4F85C800EF58B
:105918008418C4E9042E0EF5821937F81B0C4FF0D1
:10592800000A17F8192C0EF5571184F86F200EF598
:10593800B023A4F86D000EF5F82545CE4FF0010C04
:10594800C4E90E980EF55818C4E91EA004F18000A9
:10595800C4E9061837F81E1C80E8440454AA04F168
:105968008C00C4E902530EF5B813A4F87510DDE9EC
:105978005991236717F81C3C84F87730DDE95B35CB
:105988002AC004F1A003C4F884C284F874C0DDE915
:1059980057C807CA83E8000704F1AC0307C3DDE969
:1059A8005050DDE95212C4E92EA004F1C00080E88D
:1059B8000604C4F8D450DDE94A50DDE94C12C4E9C4
:1059C80036A004F1E00080E80604C4F8F450DDE9EC
:1059D8004450DDE94612C4E93EA004F5807080E831
:1059E8000604C4F81451DDE93E50DDE94012C4E96B
:1059F80046A004F5907080E80604C4F83451DDE947
:105A08003850DDE93A12C4E94EA004F5A07080E8E8
:105A18000604C4F85451DDE93250DDE93412C4E912
:105A280056A004F5B07080E80604C4F87451DDE9A6
:105A38002C50DDE92E12C4E95EA004F5C070DDE942
:105A48004E3680E80604C4F89451DDE92650DDE9B5
:105A58002812C4E93336DDE94836C4E966A004F5FE
:105A6800D070C4E93B36DDE9423680E80604C4F864
:105A7800B451DDE92050DDE92212C4E94336DDE9FD
:105A88003C36C4E96EA004F5E070C4E94B36DDE9A4
:105A9800363680E80604C4F8D451DDE91A50DDE949
:105AA8001C12C4E95336DDE93036C4E976A004F5A2
:105AB800F070C4E95B36DDE92A3680E80604C4F8EC
:105AC800F451DDE91450DDE91612C4E96336DDE965
:105AD8002436C4E97EA004F50070C4E96B36DDE91C
:105AE8001E3680E80604C4F81452DDE90E50DDE9DC
:105AF8001012C4E97336DDE91836C4E986A004F546
:105B08000870C4E97B36DDE9123680E80604C4F87B
:105B18003452DDE90850DDE90A12C4E98336DDE9CB
:105B28000C36C4E98EA004F51070C4E98B36DDE9A3
:105B3800063680E80604C4F85452DDE90250DDE96F
:105B48000412C4E99336DDE90036C4E996A004F5E9
:105B5800187080E806040EF5A82084F86CA0C4E943
:105B680026ACC4E99B36C4F87452C4F8780262B013
:105B7800BDE80007F0BDF0B503AF2DE9000F93B005
:105B88008B464AF20141C1F678719846924688429E
:105B9800009003D340F2E24012240CE043F200618B
:105BA800C0F26E11884203D840F2B630062402E0F3
:105BB80040F27E400E240190DBF8000044F24C498C
:105BC800C2F20009D0F8801041F0C001C0F880107E
:105BD800D8F80050E86800F01F00A0423CD2D9F87D
:105BE800000004281CD3012041F21032129005A8AD
:105BF80011900020CDE90F0002200E9041F2842080
:105C0800C2F20000C2F200020D9048F24730C0F222
:105C180000000421069001A805900DA800F0E6FCFC
:105C2800E86820F01F002044E860D8F80000016808
:105C3800002911D410BF0168B1F1FF3F0CDD10BF7E
:105C4800016800295EBF10BF0168002904D410BF95
:105C58000168B1F1FF3FEDDCDBF800406169D9F87C
:105C68000000890142D4042817D3002041F2E841FA
:105C7800129041F2E842CDE90F0001200E9041F266
:105C8800E040C2F20000C2F200010D900DA811918F
:105C9800C2F20002042100F0A9FCDAF8000043F285
:105CA8004002C8F200020169D9F80000114091428F
:105CB80037D10026042816D341F2E84041F2345285
:105CC800C2F20000C2F20002119001200E9041F2CF
:105CD8002C50C2F2000004210D900DA81296CDE9B7
:105CE8000F6600F083FC4FF0C05536E0042868D3F7
:105CF800002041F2E841129041F2C852CDE90F006C
:105D080001200E9041F2C050C2F20000C2F2000120
:105D18000D900DA81191C2F20002042100F066FC5A
:105D28004FE00025042816D341F2E84041F28052A2
:105D3800C2F20000C2F20002119001200E9041F25E
:105D48007850C2F2000004210D900DA81295CDE9FB
:105D58000F5500F04BFC4FF48056606920F06050FE
:105D680028436061A06920F440503043A06100E0FE
:105D780010BFA06C000742BF10BFA06C5FEA0070A4
:105D880008D510BFA06C000742BF10BFA06C5FEA27
:105D98000070EDD4606940F00070606109E010BFE8
:105DA800A06C800642BF10BFA06C5FEA806008D577
:105DB80010BFA06C800642BF10BFA06C5FEA806075
:105DC800EDD4009E4BF200230120C2F29F63012113
:105DD8009E42CDE9020016D23246012005E001318B
:105DE80000FB06F24A439A420BD20729F7D9042846
:105DF80007D801300121039000FB06F24A439A427A
:105E0800F3D3029100E0324602F5B70249F68173F6
:105E180002F55862C1F25E636C26A2FB03231A0DD9
:105E28006C2A38BF1E0D362E98BF36260496D9F830
:105E38000020042A26D30DA90320099100210A90E5
:105E480041F25C32CDE9060141F24430C2F2000071
:105E58000891059048F2473003A9C0F2000012905B
:105E6800C2F20002CDE9100102A9CDE90E0104A891
:105E78000D9005A8042100F0B9FB0299002900F053
:105E88006F810398002800F06B81049A41F6003373
:105E9800C0F2B703DAF8005041F2B83447F6FF769B
:105EA8005A43C2F20004C0F20006B2FBF1F1B1FBA2
:105EB800F0F0009028680B90D9F80000042813D35C
:105EC800012005A9129041F2C032CDE90D400BA87E
:105ED8001191002105900DA8CDE90F11C2F2000221
:105EE8000421069600F082FB4FF48050402228607F
:105EF800DAF80000049962F3DF110160DAF80000B3
:105F08000168002911D410BF0168B1F1FF3F0CDD11
:105F180010BF016800295EBF10BF0168002904D4C2
:105F280010BF0168B1F1FF3FEDDCD9F8001004297A
:105F380015D300680CA9059105A90C90012041F220
:105F4800DC32119100211290CDE90D400DA8CDE968
:105F58000F11C2F200020421069600F047FB0298D6
:105F6800DBF80010013800F007000861DBF80000DA
:105F780000E010BF816CC90342BF10BF816C5FEAAB
:105F8800C13108D510BF816CC90342BF10BF816CF5
:105F98005FEAC131EDD403994FF4E052436902EB53
:105FA8008121890A61F38C234361DBF8000000E05A
:105FB80010BF816CC90342BF10BF816C5FEAC13159
:105FC80008D510BF816CC90342BF10BF816C5FEA5E
:105FD800C131EDD400994DF27F12C0F6F0020424CD
:105FE800114441F29F02C0F2E5024369C909A1FBCD
:105FF80002124FF44071160B042E38BF140B01EB3C
:106008000421090A61F309234361DBF800004169AF
:1060180021F000714161DBF80000816C890641BF05
:1060280010BF816C5FEA816110BF41BF816C5FEA7C
:10603800816110BF816C48BF5FEA816101D510BFE3
:10604800EBE7D9F80000042825D3002C00F0948051
:1060580048F247300CA9C0F2000041F23442CDE9C1
:106068000601002108906846059005A8119041F2A4
:106078001440C2F2000010910D90C2F20002009884
:10608800B0FBF4F00C900220CDE90E01042112902F
:106098000DA800F0ABFA019848F21F51C5F2EB11B8
:1060A800D8F80050A0F54870A0FB0110E96801F08D
:1060B8001F01C0F3C70291423CD9C608D9F80000B5
:1060C80004281CD3012041F27842129005A81190AF
:1060D8000020CDE90F0002200E9041F26840C2F284
:1060E8000000C2F200020D9048F24730C0F20000F2
:1060F8000421069001A805900DA800F077FAE86839
:1061080066F30400E860D8F800000168002911D49B
:1061180010BF0168B1F1FF3F0CDD10BF0168002915
:106128005EBF10BF0168002904D410BF0168B1F137
:10613800FF3FEDDC002C1FBF0098B0FBF4F113B05B
:10614800BDE8000F18BFF0BD41F2903041F2944213
:10615800C2F20000C2F20002192101F0A3FEFEDE25
:1061680041F2903041F27832C2F20000C2F20002ED
:10617800192101F097FEFEDE41F2903041F22442EF
:10618800C2F20000C2F20002192101F08BFEFEDE0D
:10619800D0B502AF82B000F01EF8044600F011F846
:1061A80000F01CF840F2000001A9C2F200006A46A3
:1061B8000091FDF73DFCE00708BF00F004F802B0CD
:1061C800D0BD72B6704762B67047BFF34F8F704745
:1061D800BFF36F8F7047EFF310807047704780B53B
:1061E8006F46FBF7D3FCFEDEFEE7704770470020E2
:1061F8000021704720F4805041F4805110437047CB
:10620800704748F21400C4F21F00704748F2FC00BF
:10621800C4F21F00704748F2EC20C4F21F00704718
:1062280048F23C10C4F21F00704748F27C10C4F2D8
:106238001F007047F0B503AF2DE9000B0446D2E903
:106248000060C56888460021002230464FF00009EA
:10625800A847304601210022A847304602210022E3
:10626800A84730460321FF22A8474FF4FA6084F874
:106278000A902081FA20C0F2E83084F81880C4E936
:1062880000904DF20A70C3F62340C4F81490C4E994
:106298000390BDE8000BF0BDF0B503AF2DE9000792
:1062A8002DED088B98B0B0EE408A90ED031A90ED72
:1062B800050A8846824690ED04AAF0EE480A31EEB7
:1062C80008BA04F0A2FCB4EE4ABA8AED050AF1EE67
:1062D80010FA8AED03BA7BDDD8E90094B0EE409A53
:1062E800216A9AF80A60484688478DF813004FF0EB
:1062F8004530CDF80F002A20E2690021ADF80C00E6
:106308004FF02A100290CDE900104846CAF8141040
:106318008DED069A8DED058A8DF80E60904704295B
:1063280028BF042100291EBF02788DF80F200129FB
:106338005AD1A1694846884705294FF0050C28BF5E
:10634800614600291EBF0388ADF80430012959D1E0
:106358006C46D8E9020E2CCC07A901F10409A9E87A
:106368002C0094E86C0089E86C000222DEF80C30FE
:106378008DF81CC09847C2B2042A25D08DF83C007D
:1063880044F24C408DF83D10C2F200000068D8B1CC
:1063980016A9012014910021159041F25062CDE90F
:1063A800110141F20060C2F200001391109044F60E
:1063B8006960C0F20000C2F2000217900FA81690A0
:1063C80010A8012100F012F93BEE4A0A8AED030AEF
:1063D800B0EE480A5046414600F028F818B0BDEC27
:1063E800088BBDE80007F0BD427802298DF810201F
:1063F8009FD0827803298DF811201CBFC0788DF8B2
:10640800120096E742880229ADF80620A0D08288BB
:106418000329ADF808209BD0C2880429ADF80A20CA
:106428001CBF0089ADF80C0092E7D4D4B0B502AF18
:1064380090ED001A827A31EE000A80ED000ADFE85A
:1064480002F067021F4482889FED322A01EE102A6B
:10645800B8EE411A21EE021AB4EE410AF1EE10FA32
:1064680056DDD1E9004500212A69016002218172C7
:10647800204601219047ED6820460021FF221CE0BC
:10648800C2889FED242A01EE102AB8EE411A21EEA7
:10649800021AB4EE410AF1EE10FAD8BFB0BDD1E944
:1064A800004500212A6901600321817220460021EC
:1064B8009047ED68204600210022A8472046012188
:1064C800FF222B46BDE8B040184702899FED112AEC
:1064D80001EE102AB8EE411A21EE021AB4EE410A72
:1064E800F1EE10FA14DDD1E9004500212A690160B6
:1064F8008172204600219047ED6820460021002245
:10650800A8472046012100222B46BDE8B040184785
:10651800B0BD00BF6F12833A0278032A18BF00F09B
:1065280024BA41F26C620846C2F2000211460A22FD
:1065380002F00FBC7047006841F2A462C2F2000288
:106548000B4652F8301002EBC0004268184602F0C1
:1065580038BA002070477047704780B56F4644F2DC
:10656800484EC2F2000E5EE8003F53B94FF0010CEE
:10657800BFF35F8F4EE800C22AB15EE8003F002BF0
:10658800F8D0BFF32F8FBFF35F8F13B1012B1ED04D
:106598002AE040F23062C2F20002C2E900010220A1
:1065A800BFF35F8FCEF800000020BFF35F8F80BD80
:1065B80010BFDEF80000BFF35F8F012801BF10BFD6
:1065C800DEF80000BFF35F8F01280DD110BFDEF8A1
:1065D8000000BFF35F8F012801BF10BFDEF8000085
:1065E800BFF35F8F0128E3D0012080BDF0B503AF72
:1065F8002DE9000F91B044F2484592E8000BC2F231
:106608000005D2E90363D2E90542D5F800E0BFF3FB
:106618005F8F40F2306510920122C2F200050F929E
:106628000022D5E900ACBEF1020FCDE90D34CDE969
:106638000AB60C92099290E87C004069089003A879
:10664800009141F2D4617CC041F27860C2F200004E
:10665800C2F20001CDE9018908BF504608BF614672
:106668000A696946904711B0BDE8000FF0BD00689F
:1066780000F0BAB97047C0B2002804BF00207047C4
:10668800012812BF0120152050FA81F0704718B177
:10669800012803D10220704700207047A0F115019E
:1066A8000B2932BF0120002103207047F0B503AF4A
:1066B8004DF8048D92B00DF128080546404601F0CA
:1066C800E3FA4046002101F0E2FA10B1012000226D
:1066D80056E00AAA07CA47F8482C47F84C1C47F85E
:1066E800500C01F002FB57F8502CCDE9080105A821
:1066F80057F8486C57F84C3C4CC005AE2846314614
:1067080000F0B2F9C1B20E2921D196E83E00404608
:106718003EC0DDE90D0101F01FFB41F68002034692
:106728000D46C2F200024046194601F0D1FA057042
:106738004046002101F0ABFAE8B90AAA0FAB07CA34
:1067480007C30FA801F0B0FAA8B1002018E0012093
:1067580000220D2914D800FA01F39B070ED101235A
:1067680003FA01F111F00C0F05D111F4405F07D0C5
:106778000120032204E00122012001E0012002227D
:10678800D2B240EA022012B05DF8048BF0BDD4D436
:10679800F0B503AF2DE9000B94B004460E46084649
:1067A8001146154601F0D9FA38B12CE06070012085
:1067B800207014B0BDE8000BF0BDA94240D83046A7
:1067C80001F0A7F90BADCDE900016946284600F0B4
:1067D80043FA02350DF1080822229DF82C60404644
:1067E80029469DF82D9003F03BFF012E0FD1B9F1FA
:1067F8000D0F21D8DFE809F01C1C20202209090907
:10680800090909071E1E0620D0E70520CEE708F172
:1068180002012846202203F023FF201D29462022BA
:1068280003F01EFF0020207014B0BDE8000BF0BD7F
:106838000220BBE70320B9E70020B7E70420B5E74B
:1068480041F670320846C2F20002294602F0F8FB0F
:10685800FEDEB0B502AF84B0054600780C46B8B18C
:10686800012817D10120039001F00BFA009003A82A
:106878008DF80410694601F0C3F902460B4611462B
:1068880020461A4600F031FCE8B1022004B0B0BD41
:10689800002000E00220039001F0F3F98DF80410C5
:1068A8006946009003A801F0ABF902460B46114671
:1068B80020461A4600F019FC01460E20002918BF90
:1068C800022004B0B0BD6978204601F09BF8C0B240
:1068D80004B0B0BDD0B502AF84B0044601F02CF9C5
:1068E800C2070DD181B1012917D0022921D1204633
:1068F80001F084F9C0B20E281CD1002202201AE04F
:10690800000A40EA016015E0204601F077F9C0B2BC
:106918000E280FD1002000220DE001A821460122F7
:1069280001F0F8F89DF8040001280BD19DF8051036
:106938000CE00D200122C0B2000240EA01401044E0
:1069480004B0D0BD039939B10299097810F0010259
:10695800084608BF0120EEE741F614120020C2F2F3
:106968000002002101F0B6FAFEDEB0B502AF84B035
:106978000446007888B101281DD141F20C726D4699
:10698800C2F2000228460A2302F0E9F941F218721D
:10699800601CC2F2000203901CE041F228726C46AF
:1069A800C2F200022046072302F0D9F9204601F07E
:1069B8009EFC04B0B0BD41F2EC626D46C2F200022A
:1069C80028460D2302F0CBF941F2FC62601C0390CB
:1069D800C2F2000203A9284601F015FC284601F07E
:1069E80086FC04B0B0BDD4D4D0B502AF84B0007872
:1069F800DFE800F0040B10171E252C0001AC41F253
:106A08002872C2F20002072326E041F26D72C2F238
:106A1800000211E001AC41F25772C2F200021623E3
:106A28001AE001AC41F24D72C2F200020A2313E0EF
