:0200000460009A
:100000004643464200000156000000000101020084
:1000100000000000000000000000000000000000E0
:1000200000000000000000000000000000000000D0
:1000300000000000000000000000000000000000C0
:1000400000000000010403000000000000000000A8
:100050000000200000000000000000000000000080
:100060000000000000000000000000000000000090
:100070000000000000000000000000000000000080
:10008000EB04180A063204260000000000000000FD
:10009000050404240000000000000000000000002F
:1000A0000000000000000000000000000000000050
:1000B0000604000000000000000000000000000036
:1000C0000000000000000000000000000000000030
:1000D00020041808000000000000000000000000DC
:1000E0000000000000000000000000000000000010
:1000F0000000000000000000000000000000000000
:1001000000000000000000000000000000000000EF
:100110000204180804200000000000000000000095
:1001200000000000000000000000000000000000CF
:10013000600400000000000000000000000000005B
:1001400000000000000000000000000000000000AF
:10015000000000000000000000000000000000009F
:10016000000000000000000000000000000000008F
:10017000000000000000000000000000000000007F
:10018000000000000000000000000000000000006F
:10019000000000000000000000000000000000005F
:1001A000000000000000000000000000000000004F
:1001B000000000000000000000000000000000003F
:1001C000000100000010000001000000000000001D
:1001D000000000000000000000000000000000001F
:1001E000000000000000000000000000000000000F
:1001F00000000000000000000000000000000000FF
:10020000FFFFFFFFFFFFFFFFFFFFFFFFFFFFFFFFFE
:10100000D10020400014006000000000000000003B
:1010100020100060001000600000000000000000D0
:1010200000000060BEA20200000000000D480E4952
:101030000E4A4FF42A034164026483630C480D494D
:101040000D4A814202D008CA08C0FAE70B480C4991
:101050000C4A0D4B1860814202D038CA38C0FAE7FA
:1010600000F014F800C00A40BFAAAAAA0700200096
:1010700000000000B8120100B816006000780120DE
:10108000B87A01200014006008ED00E043F64F5CE0
:10109000C0F2000C6047FFFF2B4B40F6617210B5A9
:1010A000C3F8202140F2044400F088F8274A284978
:1010B000D2F88030274843F00303C2F88030264B33
:1010C000C1F8604102681A4203D1D1F8A8319A07E9
:1010D00018D01F4A4FF000411E4B5963D2F84031DF
:1010E00043F00203C2F84031D2F840319B07FBD4F1
:1010F0004FF0E0214FF40030164B4FF00042C1F8A2
:101100008C029A63134A4FF08040114C0021906387
:101110000A20124B11604FF42072C4F8A80118463F
:1011200000F051F84FF4800103464FF4810040F283
:1011300043121860C4F8583119640123C4F84821D7
:10114000C4F8403110BD00BF00800D4000C00F400A
:1011500000002E4000900D40001C1E0000A0012049
:10116000F0B4154A40274FF480314FF480564FF4C5
:1011700000554FF4404443F24200136913F0020F4C
:101180000ED113F4005F0FD013F4805F0ED0002B4C
:10119000F3DA13F4803F0BD15B060BD5F0BC70473C
:1011A000946151619061E8E75561E6E75661E4E7D3
:1011B0009161E2E75761E0E700800D4040F68D5C09
:1011C000C0F2010C604740F26F4CC0F2010C604766
:1011D00016035500530042002000530065007200C2
:1011E000690061006C000000180354006500650090
:1011F0006E00730079006400750069006E006F0076
:101200000403090409024300020100C0320904007A
:101210000001020201000524001001052401010162
:1012200004240206052406000107058203100010AD
:1012300009040100020A0000000705030240000043
:10124000070584024000000009024300020100C0BB
:10125000320904000001020201000524001001050A
:101260002401010104240206052406000107058269
:101270000310001009040100020A00000007050322
:101280000200020007058402000200000A060002B4
:0612900002000040010015
:10140000008006202D100060F54E0000A1120100A2
:10141000F54E0000F54E0000F54E00000000000003
:10142000000000000000000000000000F54E000079
:10143000F54E000000000000F54E00004B3C00009F
:10144000F54E0000F54E0000F54E0000F54E000090
:10145000F54E0000F54E0000F54E0000F54E000080
:10146000F54E0000F54E0000F54E0000F54E000070
:10147000F54E0000F54E0000F54E0000F54E000060
:10148000F54E0000F54E0000F54E0000F54E000050
:10149000F54E0000F54E0000F54E0000F54E000040
:1014A000F54E0000F54E0000F54E0000F54E000030
:1014B000F54E0000F54E0000F54E0000F54E000020
:1014C000F54E0000F54E0000F54E0000F54E000010
:1014D000F54E0000F54E0000F54E0000F54E000000
:1014E000F54E0000F54E0000F54E0000F54E0000F0
:1014F000F54E0000F54E0000F54E0000F54E0000E0
:10150000F54E0000F54E0000F54E0000F54E0000CF
:10151000F54E0000F54E0000F54E0000F54E0000BF
:10152000F54E0000F54E0000F54E0000F54E0000AF
:10153000F54E0000F54E0000F54E0000F54E00009F
:10154000F54E0000F54E0000F54E0000F54E00008F
:10155000F54E0000F54E0000F54E0000F54E00007F
:10156000F54E0000F54E0000F54E0000F54E00006F
:10157000F54E0000F54E0000F54E0000F54E00005F
:10158000F54E0000F54E0000F54E0000F54E00004F
:10159000F54E0000F54E0000F54E0000F54E00003F
:1015A000F54E0000F54E0000F54E0000F54E00002F
:1015B000F54E0000F54E0000F54E0000F54E00001F
:1015C000F54E0000F54E0000F54E0000F54E00000F
:1015D000F54E0000F54E0000F54E0000F54E0000FF
:1015E000F54E0000F54E0000F54E0000F54E0000EF
:1015F000F54E0000F54E0000F54E0000F54E0000DF
:10160000F54E0000C1010000F54E0000F54E00004F
:10161000F54E0000F54E0000F54E0000F54E0000BE
:10162000F54E0000F54E0000F54E0000F54E0000AE
:10163000F54E0000F54E0000F54E0000F54E00009E
:10164000F54E0000F54E0000F54E0000F54E00008E
:10165000F54E0000F54E0000F54E0000F54E00007E
:10166000F54E0000F54E0000F54E0000F54E00006E
:10167000F54E0000F54E0000F54E0000F54E00005E
:10168000F54E0000F54E0000F54E0000F54E00004E
:10169000F54E0000F54E0000F54E0000F54E00003E
:1016A000F54E0000F54E00009D4E0000F54E000086
:0816B000F54E0000F54E0000AC
:1016B80080B56F4604F077FF4AF28C4047F6B821B0
:1016C800C2F20100C2F20101814213D247F6B821E9
:1016D8000022C2F2010141F8042B81423FBF41F8C8
:1016E800042B814241F8042B814203D241F8042B98
:1016F8008142F0D347F21C6140F20000C2F20101BE
:10170800C2F2000088420ED2021D8A4238BF0A4641
:10171800C143114421F003010A1D42F60041C6F2FB
:10172800010110F0F7F84EF68850CEF2000001687B
:1017380041F47001016004F030FFFEDE7047B0B57F
:1017480002AF84B00446007803280DD143F628720E
:101758006C46C2F20102204604230DF024FC204608
:101768000CF021F904B0B0BD43F610726D46C2F218
:101778000102284604230DF016FC43F62C7203A937
:10178800C2F20102284603940CF09DF828460CF09A
:101798000AF904B0B0BD7047B0B502AF88B004F024
:1017A800F8FE044604F0EBFE04F0F6FE49F2404071
:1017B80004F00101C2F201000578002D04BF0122E6
:1017C8000270002908BF04F0DCFE9DBB05A803F0E9
:1017D8009DFB44F2480100200490C2F201010598E3
:1017E800CDE90201002002A9C4F22E0003F098FB03
:1017F800C4B2042C1BD104F0CCFE054604F0BFFE95
:1018080004F0CAFE48F20000C2F201000168E9B91A
:1018180000210160012101714EF20C10CEF200008E
:101828004FF400310160E80708BF04F0AAFE204623
:1018380008B0B0BD43F6EC7044F23802C2F20100C1
:10184800C2F201022B210BF061FDFEDE44F24800DA
:1018580044F21803C2F2010002AA009043F69C70F9
:10186800C2F20100C2F2010310210BF012FEFEDEEB
:10187800B0B502AF82B004F08CFE044604F07FFEDF
:1018880004F08AFE48F20005C2F201052868C8B9CA
:101898004FF0FF3004F0010428602879012808D1AE
:1018A800681D03F06BFB2868013028602CB102B07A
:1018B800B0BD0020002C2860F9D102B0BDE8B040CE
:1018C80004F05FBE44F2580044F21803C2F201006B
:1018D80001AA009043F69C70C2F20100C2F2010313
:1018E80010210BF0D6FDFEDE7047D4D4F0B503AF5F
:1018F8002DE9000F81B02DED028B8CB044F2181445
:101908008146C4F2080488462068924605902068FB
:1019180020F00200206054F8100C049054F8100CC9
:1019280020F0010044F8100C54F8180C03902068BB
:101938000290206820F00100206054F8081C012063
:10194800019160604FF0FF3044F8080C44F8180C1F
:10195800206840F004002060206840F0010020600A
:1019680054F8100C40F0010044F8100CD2E90005BE
:10197800D0E9006B90ED020A2846B8EE408A00F0E4
:10198800CDFA304659460FF0F1FE9FED7C1A00EE75
:10199800100A95F8820088EE011A002831EE008AB4
:1019A80044D095ED1A0A95ED1B1A38EE000AB4EEEC
:1019B800410A85ED1A0AF1EE10FA1BDD4CF26C00B3
:1019C80043F6E461C4F20A00C2F201010068C003F0
:1019D8004FF0180058BF042008584FF48031C0F861
:1019E800841095ED1A0A95ED1B1A30EE410A85ED23
:1019F8001A0A1BE095ED1C2A21EE021AB4EE410AE0
:101A0800F1EE10FA12DD4CF26C0043F6E461C4F218
:101A18000A00C2F201010068C0034FF0180058BF65
:101A2800042008584FF48031C0F88810B0EE480AF6
:101A380044F29002DAE90201C2F20102099244F288
:101A48006802089106A9C2F20102CDE9065205F022
:101A5800A7F8B7EE001ADAF8105095ED000AB4EEC0
:101A6800410AF1EE10FA34DD4CF26C0043F6E46101
:101A7800C4F20A00C2F20101006800074FF0180022
:101A880058BF042008580821C0F88C1049F270404B
:101A9800C2F201000068032817D3002044F2B40101
:101AA8000B9044F2CC02CDE908000120079044F2E3
:101AB800AC00C2F20100C2F20101069006A80A9128
:101AC800C2F20102032105F00DFB9FED2D0A002053
:101AD800286038EE000A85ED000A54F8386C54F88E
:101AE800345C6068C00726D1D8E9020103F005FD1F
:101AF80003F0D9FC4CF60028F643C3F69A3801FBEC
:101B080008F1E0FB0821E843A2FB005302FB063280
:101B1800002301FB00210020C9F8040028464246A2
:101B28000FF0AEFE012300FB1852C9F8003009F18E
:101B3800080307C302E00020C9E90000DDE9010647
:101B48000599DDE9033244F8080C2068490866F372
:101B58000000206044F8183C54F8100C62F30000B0
:101B680044F8100C206861F3410020600CB0BDEC13
:101B7800028B01B0BDE8000FF0BD00BF286B6E4EB0
:101B880000000000006805F055BD006805F013BCB2
:101B9800006805F00FBD7047F0B503AF2DE90007E9
:101BA800ADF5487D8046012041464FF0010905F01A
:101BB80015FB05460020002605F010FB8246002094
:101BC80005F00CFB044602F088FA002874D005F1F1
:101BD80020014FF48270ADF81C033F2004F120026D
:101BE8000424CDE96E100323CDE96A61CDE96810BC
:101BF8001AA9CDE97420CDE97206CDE96C06CDE9C4
:101C08001D0481E84104CDE91650CDE91406CDE95B
:101C18001050CDE90E06CDE90A50CDE9080602209C
:101C2800059040F20030C0F20220CDE97A66CDE995
:101C3800039040F20D30C0F20330CDE97766CDE96C
:101C4800019001A8CDE92866CDE92566CDE922668F
:101C5800CDE91F668DF81E3379947694CDE97062CC
:101C6800CDE96636279424942194CDE9186ACDE904
:101C78001265CDE90C65CDE9066502F04BFAC0B2F4
:101C8800052825D104F085FC044604F078FC04F00E
:101C980083FC01A841F2DD22C0F20002014602F0F5
:101CA80012FAE00708BF04F06CFC012041460DF56C
:101CB800487DBDE80007F0BD44F2E80044F25C123C
:101CC800C2F20100C2F201022B210BF01FFBFEDE63
:101CD8008DF8040044F26C10C2F2010044F2401383
:101CE800009044F2131001AAC2F20100C2F20103EB
:101CF8002B210BF0CEFBFEDEF0B503AF2DE9000F74
:101D080097B00DF104080D46824640214046994699
:101D180016460FF0B6FE2846414606F056FF024624
:101D28000D46C0073DD1304649469AF800409AF81A
:101D380001B005F053FA06462046594605F04EFA1A
:101D4800412D38D20021CDF84C808DF85410202D2B
:101D58001495119188BF203606EB8010129004F07C
:101D680018FC044604F00BFC04F016FC16A911AA92
:101D7800504602F09CF9C5B2E00708BF04F001FC28
:101D880040F20312E800C0F20102E91E22FA00F054
:101D980018BF2946032D08BF042017B0BDE8000F5F
:101DA800F0BD100A110C40EA056041EA054117B080
:101DB800BDE8000FF0BD44F27C122846C2F20102D1
:101DC80040210DF08AFAFEDEF0B503AF2DE90007D9
:101DD800BEB0044604F0DDFB064604F0D0FB04F078
:101DE800DBFB0DF1540A01A8514600F02EFFF00765
:101DF80008BF04F0C6FB019802280DD10020C4E9F1
:101E08000000C4E90200C4E90400A06103202076B0
:101E18003EB0BDE80007F0BD01A9504650220FF0C2
:101E280079FD0DF1A4080AF10E01404606F0F3FE13
:101E3800DDE9150100284FF0000008BF01F01F0080
:101E480005F0D8F99DF8A45006468DF8C000C0B238
:101E5800894603288DF8C11002D00DB9002534E059
:101E680049F27040C2F20100006870B3032044F2E6
:101E78000422369037A835900020CDE9330004209D
:101E8800329044F2D010C2F20100C2F20102319045
:101E980043F22D60C0F200000121CDE93BA040F2E1
:101EA8008F00C0F200003A9030A8399041F26B7070
:101EB800C0F20000CDE9378031A805F013F99DF88C
:101EC800C0609DF8C1909DF8A45008F101010DF182
:101ED800DC081B2240460FF0DEFCF0B203280FD0CE
:101EE80015F001000CD108F10301204618220FF06B
:101EF800D2FC84F8199026763EB0BDE80007F0BD04
:101F080000200326C4E90000C4E90200C4E9040073
:101F1800A06126763EB0BDE80007F0BDF0B503AF7E
:101F28002DE9000744F220224FF0000CC2F2010212
:101F38004FF00E0E4FF00F084FF005094FF0060A4C
:101F48001546002124E05B6A9CB200EE104A00EBC3
:101F58000614B8EE400A94ED011A94ED022A94EDA5
:101F6800033A32EE412A94ED044A00EB4604A4F801
:101F7800743000EB860330EE410A34EE431A80EEEB
:101F8800020A00EE013A83ED153A531D9D426AD0CC
:101F980015F8013B0E460131DFE803F00316293C32
:101FA800500003681C68C3F800E003681C6AE40773
:101FB800C9D11C6AE40704BF1C6A5FEAC474C2D1B1
:101FC8001C6AE407F2D0BEE703681C68C3F800C0C7
:101FD80003681C6AE407B6D11C6AE40704BF1C6ADC
:101FE8005FEAC474AFD11C6AE407F2D0ABE70368B8
:101FF8001C68C3F8008003681C6AE407A3D11C6A44
:10200800E40704BF1C6A5FEAC4749CD11C6AE40735
:10201800F2D098E703681C68C3F8009003681C6A4C
:10202800E40701BF1C6A5FEAC4741C6A5FEAC474EF
:102038007FF489AF1C6AE407F1D084E703681C6861
:10204800C3F800A003681C6AE4077FF47CAF1C6A2D
:10205800E40704BF1C6A5FEAC4747FF474AF1C6AA7
:10206800E407F0D06FE7BDE80007F0BD5FFA81FC38
:1020780080B56F46DFE80CF0021D3B564CF2740346
:102088004FF0200CC4F20A031B68DB0658BF4FF060
:102098000C0C43F6E463C2F2010353F80CC01306B8
:1020A8005DD01023CCF8843050FA81F080F87E207F
:1020B80080BD4CF274034FF0200EC4F20A034FF0B7
:1020C800200C1B689B0658BF4FF00C0E43F6E463C8
:1020D800C2F2010353F80EE013060CBFCEF888C015
:1020E800CEF884C050FA81F080F87E2080BD4CF292
:1020F80074034FF0200CC4F20A031B685B0658BF38
:102108004FF00C0C43F6E463C2F2010353F80CC021
:1021180013062CD04023CCF8843050FA81F080F894
:102128007E2080BD4CF274034FF0180CC4F20A03F1
:1021380053F8083C5B0558BF4FF0040C43F6E463C2
:10214800C2F2010353F80CC0130618D04FF4806391
:10215800CCF8843050FA81F080F87E2080BD1023BE
:10216800CCF8883050FA81F080F87E2080BD40237A
:10217800CCF8883050FA81F080F87E2080BD4FF48A
:102188008063CCF8883050FA81F080F87E2080BDDA
:10219800002280F8821082664CF26C00C4F20A00B9
:1021A80043F6E4620068C2F20102C0034FF018006F
:1021B80058BF0420002910584FF088024FF480318E
:1021C80018BF842281507047C9B200EB810090ED9E
:1021D800150A70477430052170477E300421704716
:1021E80090F88200704780B56F4692E80850C9B2EF
:1021F80000EB0110D268011D81E80850026180BD22
:10220800704780B56F4600F001F8FEDE80B56F4676
:10221800ADF5BB6DA4A803F0CCF9C298022800F074
:102228008C830DF10808A4A94FF4227240460FF0E0
:1022380071FB04F0AEF9054604F0A1F904F0ACF91D
:1022480004F0A7F9064604F09AF904F0A5F949F252
:102258004F4906F00100C2F2010999F80040002C2C
:1022680004BF012189F80010002808BF04F089F98B
:10227800002C05F0010004BF012189F80010002896
:1022880008BF04F07EF9002C40F0608303F01CF8CE
:1022980004F08AF903F042F8FFF77EFAC0B2042886
:1022A80040F0608308F10806DDE90201324603F0D8
:1022B8003BF9054603F034F9044603F033F9A96CF9
:1022C80044F27432C0B2C2F2010221F0010143F6B5
:1022D8003C73022C08BF0131A96480F00200696CCC
:1022E800C2F2010352F8242053F8200021F06301C0
:1022F80011430843012140F480606864686C61F30D
:1023080083006864686C20F080006864A86C40F002
:102318002000A864686C40F440406864686C40F42D
:1023280044706864A86C40F08000A864A86D000739
:102338001FBFA86D5FEA0070A86D5FEA007002D049
:10234800A86D0007F2D1A86C44F2006108F11403EB
:10235800C2F2C33140F02000A864686C324620F411
:1023680040406864686C20F4447000F588706864C4
:10237800304603F0BCF8A7F1C004009131460222B0
:102388002046012303F000F90699A4A8224603F089
:10239800D9F8A4AB44F20816C4F20806A7F1B00CA9
:1023A8000FCB346824F0020434608CE80F0004F08A
:1023B800FCF804694FF0050969F3030404F0F5F823
:1023C800046104F0E6F8044604F0D9F804F0E4F8EF
:1023D8004CF2740843F6E46AC4F20A08C2F2010A2D
:1023E800D8F800002026D8F80010C9064FF02001C0
:1023F80058BF0C21C0064FF020005AF8011058BFF2
:102408000C205AF80000496841F010014160E007CB
:1024180008BF04F0B6F804F0C8F8446969F3030487
:1024280004F0C3F8446104F0B4F8044604F0A7F8D3
:1024380004F0B2F8D8F80000D8F8001089064FF078
:10244800200158BF0C2180065AF8010058BF0C26FD
:102458005AF80610406840F020004860E00708BFBE
:1024680004F08FF804F0A1F88469052666F30304E4
:1024780004F09BF8846104F08CF8044604F07FF8BB
:1024880004F08AF8D8F800002022D8F8001049068D
:1024980058BF0C2240064FF020015AF8020058BFDE
:1024A8000C215AF80110406840F040004860E007ED
:1024B80008BF04F066F804F087F8846A66F303043A
:1024C80004F082F8846204F064F8044604F057F8D3
:1024D80004F062F858F8080C182658F8081C490542
:1024E8004FF0180158BF042140055AF801004FF079
:1024F800180158BF04215AF80110406840F4806060
:102508004860E00708BF04F03CF804F062F804688B
:102518004FF0050969F3030404F05BF8046004F064
:1025280038F8044604F02BF804F036F858F8080C8C
:1025380058F8081CC9034FF0180158BF0421C003FC
:102548005AF8010058BF04265AF80610406840F4AB
:1025580080304860E00708BF04F013F804F02AF858
:10256800446A69F3030404F025F8446204F037F878
:1025780000224FF0000804F035F804460E4604F037
:102588001EF8406AB043044304F019F8446204F0AA
:1025980011F8046A69F3030404F00CF8046204F007
:1025A8001EF8002204F01EF804460E4604F007F850
:1025B800006AB043044304F002F8046203F0FAFF2F
:1025C800446969F3030403F0F5FF446104F007F874
:1025D800002204F007F804460E4603F0F0FF4069B5
:1025E800B043044303F0EBFF446103F0E3FF0469E5
:1025F80069F3030403F0DEFF046103F0F0FF002237
:1026080003F0F0FF04460E4603F0D9FF0069B0431B
:10261800044303F0D4FF046103F0CCFFC46A69F3F8
:10262800030403F0C7FFC46203F0D9FF002203F0DC
:10263800D9FF04460E4603F0C2FFC06AB043044304
:1026480003F0BDFFC46203F0B5FF846A69F30304B5
:1026580003F0B0FF846203F0C2FF002203F0C2FF60
:1026680004460E4603F0ABFF806AB043044303F010
:10267800A6FF846203F09EFF046869F3030403F075
:1026880099FF046003F0ABFF002203F0ABFF0446A0
:102698000E4603F094FF0068B043044303F08FFF35
:1026A800046003F087FF446869F3030403F082FFC2
:1026B800446003F094FF002203F094FF04460E46A2
:1026C80003F07DFF4068B043044303F078FF4460A3
:1026D80003F070FF846969F3030403F06BFF8461FE
:1026E80003F07DFF002203F07DFF04460E4603F051
:1026F80066FF8069B043044303F061FF846103F01F
:1027080059FFC46969F3030403F054FFC46103F07B
:1027180066FF002203F066FF04460E4603F04FFFF3
:10272800C069B043044303F04AFFC46103F042FFA9
:10273800C46869F3030403F03DFFC46003F04FFF6E
:10274800002203F04FFF04460E4603F038FFC0682E
:10275800B043044303F033FFC46003F02BFF8468E5
:1027680069F3030403F026FF846003F038FF0022B6
:1027780003F038FF04460E4603F021FF8068B0439B
:10278800044303F01CFF8460A7F16C0006F0A6FA6E
:10279800A7F16C03A7F1540CA4ACCDE9C1880FCB09
:1027A800ADF80C838CE80F00A7F1440C8CE80F00FF
:1027B800A7F1340C8CE80F00A7F1240C8CE80F006B
:1027C800A7F16C03A7F1100C0FCB8CE80E00A7F152
:1027D8005401502247F8140C201DCDE9B988CDE9E1
:1027E800BB88CDF8F482A4950FF094F84FF07C5094
:1027F8008DF81283C0904DF20A70C3F62340CDF8CD
:102808000E83CDE9BE800221686C61F383006864A1
:102818000020FFF7C1F907F8A00C44F2E020C2F24B
:102828000100A7F1540947F8600CA7F1A00047F888
:10283800640C44F2B820C2F20100A7F16C0207F858
:102848009F1C002147E91B40484604F06FF949F2F4
:102858007040C2F20100006803281BD344F2143010
:1028680044F22032C2F20100C2F2010247F85C0CC5
:10287800012047F8680C44F20C30C2F20100032131
:1028880047F86C0CA7F16C0047F8588C47E9198891
:1028980004F028FC44F2402047F8948C47E9278844
:1028A800A7F1040AA7F19C0BA7F19808A7F18806DD
:1028B800A7F1B004A7F16C05C0F20F0047F8900C1F
:1028C80005E0A7F18002A7F1980307CA07C3A7F19B
:1028D800A00021462A4647E917BA47E91990A4A853
:1028E80047E91B803046FFF701F857F8880C0128A4
:1028F800E7D049F27040C2F2010000680028E6D033
:10290800002044F2143147F8580C44F2583247E991
:102918001900012047F8680C44F25030C2F2010156
:10292800C2F2010047F85C1C012147F86C0C2846EC
:10293800C2F2010204F0D6FBC9E744F2252044F2B2
:102948005C22C2F20100C2F2010207E044F2252033
:1029580044F26C22C2F20100C2F201022B210AF0F9
:10296800D5FCFEDE44F27C2044F2A822C2F201002B
:10297800C2F2010229210AF0C9FCFEDE084644F22F
:102988008031C2F2010102220BF00EBFF0B503AF95
:102998002DE9000F95B049F208450C46C2F2010531
:1029A8002868BFF35F8F60BB55E8000F48B9012165
:1029B800BFF35F8F45E8001232B155E8000F0028D9
:1029C800F8D00021BFF32F8FBFF35F8FC9B148F252
:1029D800080200204021C2F201020123C5E90310C8
:1029E800C5E90132C5E905008DF80C000220029501
:1029F800BFF35F8F286002A8BFF35F8F06F09DFBCF
:102A08001BE0012801BF10BF2868BFF35F8F0128B2
:102A180001BF10BF2868BFF35F8F01280AD110BF1C
:102A28002868BFF35F8F012804D110BF2868BFF35F
:102A38005F8FE6E7022840F0EF8094F84E0004F13B
:102A48000E01019002A84022D4E900B9D4F808A0E8
:102A5800B4F80C800EF01FFF28696C69E968201A29
:102A6800884280F0A780661C55E8050FA04204D173
:102A780045E805600028F7D13AE0BFF32F8F2869B1
:102A88006C69E968201A884280F09480661C55E8D1
:102A9800050FA04204D145E805600028F7D127E0DA
:102AA800BFF32F8F28696C69E968201A884280F083
:102AB8008180661C55E8050FA04204D145E80560F1
:102AC8000028F7D114E0BFF32F8F28696C69E968F3
:102AD800201A88426ED2661C55E8050FA04204D120
:102AE80045E805600028F7D102E0BFF32F8FB3E770
:102AF800BFF35F8FE868002800F08280B4FBF0F134
:102B080001FB1040A96800EB8000020141F802B007
:102B180001EB001B0BF10E0002A94022ABF80C8060
:102B2800CBE9019A0EF0B7FE01988BF84E0055E8F4
:102B3800060FA04209D1BFF35F8F45E80660002861
:102B48005AD055E8060FA042F7D0BFF32F8F55E8AB
:102B5800060FA04209D1BFF35F8F45E80660002841
:102B68004AD055E8060FA042F7D0BFF32F8F55E89B
:102B7800060FA04208D1BFF35F8F45E80660D8B3BF
:102B880055E8060FA042F8D0BFF32F8F55E8060F7F
:102B9800A04208D1BFF35F8F45E8066060B355E8EF
:102BA800060FA042F8D0BFF32F8F55E8060FA042BA
:102BB800C1D0CAE749F27040C2F201000068D8B13A
:102BC80012A9012006910021079044F2EC32CDE9C8
:102BD800030144F2B430C2F201000591029041F2BF
:102BE800CD20C0F20000C2F20102139014A8129086
:102BF80002A8012104F076FA15B0BDE8000FF0BD77
:102C080044F2704044F26042C2F20100C2F2010292
:102C180039210AF07BFBFEDE58B944F2205044F219
:102C28004852C2F20100C2F2010228210AF06EFBEA
:102C3800FEDE44F2A94044F21052C2F20100C2F290
:102C4800010211210AF062FBFEDEF0B503AF2DE9A7
:102C5800000FA3B049F208460546C2F201063068E3
:102C6800BFF35F8F60BB56E8000F48B90121BFF37F
:102C78005F8F46E8001232B156E8000F0028F8D0FE
:102C88000021BFF32F8FBFF35F8FC9B148F208024D
:102C980000204021C2F201020123C6E90310C6E95F
:102CA8000132C6E905008DF8500002201396BFF3E3
:102CB8005F8F306013A8BFF35F8F06F03EFA1AE00B
:102CC800012801BF10BF3068BFF35F8F012801BF23
:102CD80010BF3068BFF35F8F01280AD110BF30687A
:102CE800BFF35F8F012804D110BF3068BFF35F8F37
:102CF800E6E7022877D1B0693469BFF35F8F844271
:102D080047D20DF14C0B07E0BFF32F8FB069346940
:102D1800BFF35F8F84423CD2F068002857D0B4FBE1
:102D2800F0F101FB1040B16800EB800001EB0018E6
:102D3800020151F8029008F10E01D8F8040002903F
:102D48004022D8F8080001905846B8F80CA00EF0B8
:102D5800A2FD98F84E8056E8040FA042D4D1601C1A
:102D6800BFF35F8F46E8040121B156E8041FA14272
:102D7800F8D0C9E7BBE85E0003A8AC46B9F1020F7A
:102D88005EC0BBE85E005EC09BE87E007EC0654614
:102D980009D1281D4C210EF074FE0220286023B0B2
:102DA800BDE8000FF0BD029803A9686040220198B1
:102DB800A86005F10E00A5F80CA0C5F800900EF06B
:102DC8006AFD85F84E8023B0BDE8000FF0BD44F2DF
:102DD800704044F26042C2F20100C2F2010239219D
:102DE8000AF094FAFEDE58B944F2205044F24852F0
:102DF800C2F20100C2F2010228210AF087FAFEDEBF
:102E080044F2A94044F21052C2F20100C2F2010297
:102E180011210AF07BFAFEDE7047B0B502AF84B02C
:102E28000446007801280FD144F258526D46C2F288
:102E38000102284603230CF0B6F844F25C52601CE9
:102E48000390C2F201020EE044F26C526D46C2F2E7
:102E58000102284602230CF0A6F844F27052201D05
:102E6800C2F20102039003A928460AF02CFD284665
:102E78000AF099FD04B0B0BDB0B502AFC2684AF619
:102E8800AB2CCAF6AA2CFAB1D0E900E3A3EB0E04E6
:102E9800A4FB0C450024C460541EB4EBD50F0DD21E
:102EA80085682A44826004EB44020EEB82020C32ED
:102EB8009D1AA5FB0C54B1EBD40F0DD300220021B1
:102EC800036008461146B0BDD0E900239D1AA5FB52
:102ED8000C54B1EBD40FF1D201EB4105836802EB3E
:102EE8008502194402F10C054B1C056083600846F5
:102EF8001146B0BDD0B502AFC16859B9D0E90012CA
:102F0800914224D0826801F10C030360531C836052
:102F18001046D0BDD0E900C24AF6AB23CAF6AA23B0
:102F28004C1EA2EB0C0EAEFB033E0023C360B4EBB9
:102F3800DE0F0BD283681944816004EB44010CEB6B
:102F480081010C3101609142DCD100E00260002176
:102F58000020D0BDD1E900234FF0010CC9689A1AAE
:102F68004AF6AB23CAF6AA23A2FB0323C1EBD3027A
:102F7800DB088B4238BF0022C0E9002C8260704712
:102F8800D0B502AFC2688A421DD9D0E900CE4AF650
:102F9800AB24CAF6AA24AEEB0C03A3FB0434CB4340
:102FA8001A44C260B1EBD40F26D201EB4102836808
:102FB80019440CEB820202F10C044B1C0460836080
:102FC80008461146D0BDCAB1D0E900C34AF6AB24C1
:102FD800CAF6AA24A3EB0C01A1FB0414511EB1EB01
:102FE800D40F10D201EB410183680CEB81011A4424
:102FF8000C318260016007E0C0F800E00021002287
:1030080008461146D0BD03600021C1600022084671
:103018001146D0BD0246C06868B1D2E90013013834
:10302800D06099421FBF906801F10C031360431CE4
:103038001CBF93607047002000217047CA688AB19E
:10304800D1E90031C91A4AF6AB23CAF6AA23A1FB73
:103058000313B2EBD30F28BFDA0801218260C0E95D
:1030680000217047002201218260C0E900217047D9
:103078007047D0B502AFD1B18E46C168D0F804C050
:103088004B1E00215A1C1EBFC360026862450CD04B
:1030980001318468013B0C328E45026004F1010263
:1030A8008260EFD100207146D0BD0120D0BD002143
:1030B8000020D0BDF0B503AF2DE9000BE1B3C36824
:1030C8008C46D0F804E0002B4ED10368CCF1000800
:1030D8000021AEEB0302B2B3846803F10C0608EBDF
:1030E80001050660013484606C1C1FD0B64529D0E8
:1030F800846803F11806066001348460AC1C15D09E
:10310800B64525D0846803F124060660013484603E
:10311800EC1C0BD0B64521D0846830330431303AEA
:103128000134846018EB01040360D4D100236146A4
:103138001846BDE8000BF0BD002100231846BDE885
:10314800000BF0BD013101231846BDE8000BF0BDAE
:10315800023101231846BDE8000BF0BD03310123FD
:103168001846BDE8000BF0BD4AF6AB240022CAF6AB
:10317800AA24002163B903687345E4D085680C3339
:10318800013103606B1C836000238C45F2D116E08B
:10319800D0F80090C260AEEB0906A6FB04685E1E7C
:1031A800B6EBD80F10D285682B44836006EB460334
:1031B80009EB83030C3303607345DFD1C3E7614632
:1031C8001846BDE8000BF0BDC0F800E00123184622
:1031D800BDE8000BF0BDD4D4F0B503AF4DF804BD85
:1031E800E0B0044608681546DFE810F004005C010A
:1031F800E0002F016E46043130464FF4C0720EF0E5
:1032080089FB20462946324600F0E0F9691C06F1A0
:103218000C02204600F0DAF9A91C06F11802204633
:1032280000F0D4F9E91C06F12402204600F0CEF99A
:10323800291D06F13002204600F0C8F9691D06F183
:103248003C02204600F0C2F9A91D06F148022046BA
:1032580000F0BCF9E91D06F15402204600F0B6F969
:1032680005F1080106F16002204600F0AFF905F10A
:10327800090106F16C02204600F0A8F905F10A01DF
:1032880006F17802204600F0A1F905F10B0106F1DC
:103298008402204600F09AF905F10C0106F190022B
:1032A800204600F093F905F10D0106F19C02204635
:1032B80000F08CF905F10E0106F1A802204600F095
:1032C80085F905F10F0106F1B402204600F07EF9F8
:1032D80005F1100106F1C002204600F077F905F16A
:1032E800110106F1CC02204600F070F905F1120137
:1032F80006F1D802204600F069F905F1130106F13C
:10330800E402204600F062F905F1140106F1F0022A
:10331800204600F05BF905F1150106F1FC02204694
:1033280000F054F905F1160106F58472204600F004
:103338004DF905F1170106F58A72204600F046F9A5
:1033480005F1180106F59072204600F03FF905F1E5
:10335800190106F59672204600F038F905F11A01B0
:1033680006F59C72204600F031F905F11B0106F5BF
:10337800A272204600F02AF905F11C0106F5A87290
:10338800204600F023F905F11D0106F5AE7220462E
:1033980000F01CF905F11E0106F5B472204600F094
:1033A80015F905F11F0106F5BA7208E16E460431F8
:1033B800304690220EF0AEFA20462946324600F0FA
:1033C80005F9691C06F10C02204600F0FFF8A91C5B
:1033D80006F11802204600F0F9F8E91C06F124026B
:1033E800204600F0F3F8291D06F13002204600F0CF
:1033F800EDF8691D06F13C02204600F0E7F8A91D2A
:1034080006F14802204600F0E1F8E91D06F15402F1
:10341800204600F0DBF805F1080106F160022046BD
:1034280000F0D4F805F1090106F16C02204600F01D
:10343800CDF805F10A0106F17802204600F0C6F839
:1034480005F10B0106F18402B9E06E4604313046FD
:1034580054220EF05FFA20462946324600F0B6F8AC
:10346800691C06F10C02204600F0B0F8A91C06F110
:103478001802204600F0AAF8E91C06F124022046AA
:1034880000F0A4F8291D06F13002204600F09EF84D
:10349800691D06F13C02204600F098F8A91D06F1C6
:1034A80048028CE06E4604313046FC220EF032FAB7
:1034B80020462946324600F089F8691C06F10C02BC
:1034C800204600F083F8A91C06F11802204600F0F7
:1034D8007DF8E91C06F12402204600F077F8291D42
:1034E80006F13002204600F071F8691D06F13C0231
:1034F800204600F06BF8A91D06F14802204600F0AE
:1035080065F8E91D06F15402204600F05FF805F160
:10351800080106F16002204600F058F805F109019B
:1035280006F16C02204600F051F805F10A0106F197
:103538007802204600F04AF805F10B0106F18402F2
:10354800204600F043F805F10C0106F190022046F0
:1035580000F03CF805F10D0106F19C02204600F050
:1035680035F805F10E0106F1A802204600F02EF804
:1035780005F10F0106F1B402204600F027F805F125
:10358800100106F1C002204600F020F805F11101F3
:1035980006F1CC02204600F019F805F1120106F1F7
:1035A800D802204600F012F805F1130106F1E402F2
:1035B800204600F00BF805F1140106F1F002204650
:1035C80000F004F860B05DF804BBF0BDF0B503AFDF
:1035D8002DE9000F81B0D2F80080054691460C46CF
:1035E800A8F10200032828BF0120002800F052811A
:1035F80043F6AC760128C2F201060DD1686956F887
:103608002010A14215D9DFE800F002262D344FEA38
:10361800041C202C33D26AE0686956F82010A142B5
:1036280010D9DFE800F002383E442001202C44D2B3
:10363800F2E0601AD5F89811DFE801F0024C4F5219
:10364800000150E0601AD5F89811DFE801F002D7C0
:10365800DADD0001DBE004EB44004FEAC00C202C6B
:103668000DD244E004EB84004FEAC00C202C06D2B3
:103678003DE004EBC4004FEAC00C202C37D3402CAB
:103688003ED2296804F01F00012202FA00F0C86245
:103698002968243131E004EB4400C000202C0CD20E
:1036A800BAE004EB8400C000202C06D2B4E004EB9E
:1036B800C400C000202CC0F0AF80402C80F0B68041
:1036C8002A6804F01F01012303FA01F1D1622A6874
:1036D8002432A7E000EB400004E000EB800001E0AA
:1036E80000EBC000C00000F5007C202CC7D2296880
:1036F8000120A0400863296828310A68104308603F
:1037080048F2800E0020C4F21D0E0CEB0E0B5B4637
:1037180043F8080B6969D5F8982156F82160A64244
:1037280088BF0A4643F6CC710026C2F2010151F85F
:10373800221000220EE08A423EBF985012F1040285
:103748008A4211D29850043238BF8A420CD298501B
:1037580001320126F60701D0033205D28A423CBF66
:10376800985012F10402E6D3D9F8040040F2000A96
:10377800C1F6FC7AB8F1010F0AEA804108BF20F0CF
:1037880060414FF08060CBF8041008BF4FF08460B0
:103798004EF80C002868016841F0A04101602868D3
:1037A8000168C9015FBF01685FEAC11101685FEA8A
:1037B800C11102D40168C901F2D5214600F03EFAD0
:1037C800D9F80810B8F1010F0AEA814208BF21F0C0
:1037D800604202602868016821F080510160286811
:1037E8000168C90141BF01685FEAC11101685FEA68
:1037F800C1114FD50168C901F2D44BE000EB40007C
:1038080004E000EB800001E000EBC000C00000F520
:103818000070202CBFF451AF2A680121A140116328
:103828002A682832136823EA0101116048F28001EE
:103838004FF00062C4F21D0142504218002050604F
:1038480008326969D5F8983156F82160A64288BFD0
:103858000B4643F6CC710026C2F2010151F8231041
:1038680000230CE0D050043338BF8B4212D2D05022
:10387800043338BF8B420DD2D05001330126F607EE
:1038880001D0033306D28B4204D2D050043338BF60
:103898008B42E7D33F2C9FBF99E8070004EB440312
:1038A80005EB830303F548739FBF07C301B0BDE869
:1038B800000FF0BD44F204622046C2F2010240212A
:1038C80009F03CFDFEDEF0B503AF2DE9000B8EB02C
:1038D80040F2000243F6CC73C2F20002C2F20103C6
:1038E80056690190C06853F82610009202908842E9
:1038F8000AD9D2F8985153F82550A84204D9012082
:103908000EB0BDE8000BF0BDD2F8984143F6AC7597
:10391800C2F201054FF0000955F8266002F5C465AA
:1039280053F8244002F5487207AB4028CDF81490AC
:103938000495039206960A9683E8240228BF40203D
:103948000B1AA4EB000609D4002E07D544F2146024
:1039580003ADC2F201004FF000083AE044F23C70B7
:1039680007ADC2F20100B3F1FF3F07DCB6F1FF3F3C
:1039780004DD4FF000094FF000082AE0A1420BD205
:103988000021B6F1FF3FDCBF0D46084644F2146142
:10399800C2F2010103AA11E044F2146003ADC2F2BD
:1039A80001008C420FD20021B3F1FF3FDCBF0D466E
:1039B800084644F23C7107AAC2F20101A9468046B2
:1039C8000846154605E044F23C780DF11C09C2F2A0
:1039D8000108C4680BAE02A968460D9101A90C91B3
:1039E8000B902846A04749B10A6803463046194655
:1039F80000F020F8C0B20328F3D111E0B9F1000FAC
:103A080013D0D8F80C400BAD4846A04769B10A68F6
:103A180003462846194600F00DF8C0B20328F3D132
:103A280003200EB0BDE8000BF0BD00200EB0BDE8CD
:103A3800000BF0BDF0B503AF2DE9000B042A44D10B
:103A4800D0E9002543F6AC768468C2F20106126814
:103A5800D4F800802C68536956F823608E4206D942
:103A6800DFE803F0021E0E134FEA011922E08B1B58
:103A7800D2F89861DFE806F002190E111B0117E071
:103A880001EB81034FEAC30914E001EBC1034FEADC
:103A9800C3090FE003EB830309E003EBC30306E06C
:103AA80001EB41034FEAC30904E003EB4303DB00E6
:103AB80003F5007948F2800CC4F21D0C59F80C602B
:103AC80006F07065B5F1406F03D10020BDE8000B2A
:103AD800F0BD1F2903D812680D46303205E03F2992
:103AE80006D8126801F01F052C320123AB40136081
:103AF800082262F31B664CF809600022D4E900E34F
:103B0800C1F6FC72257C02EA8342BEF1010F08BFB0
:103B180023F06042002D1CBF637C42EA4372E568D3
:103B28000CEB09067260E5B1A468083604E0AD1A2A
:103B3800144406F1040614D0042D2A4628BF042292
:103B4800002A1EBF2378F370012AF0D06378022A76
:103B5800B370ECD0A378032A73701CBFE37833707A
:103B6800E5E7B8F1090F01D2424622E0B8F10D0F9E
:103B780001D209221DE0B8F1110F01D20A2218E082
:103B8800B8F1150F01D20B2213E0B8F1190F01D2C9
:103B98000C220EE0B8F1210F01D20D2209E0B8F194
:103BA800310F01D20E2204E00822B8F1410F38BFCC
:103BB8000F224FF04C43BEF1000F1CBF0023CCF680
:103BC8006043202962F313434CF809304FF0010297
:103BD80000680068006816D202FA01F1026B0A4018
:103BE800012A01BF026B0A40012A026B04BF0A4086
:103BF800012A03D1026B0A40012AEFD00163032096
:103C0800BDE8000BF0BD01F01F039A40C36A1340E2
:103C1800012B0BD1C36A1340012B07D1C36A134090
:103C2800012B02BFC36A1340012BEFD03F2998BF75
:103C3800C2620320BDE8000BF0BDD4D43F2900F2D6
:103C48004280DFE811F040004300460049004C0084
:103C58004F005200550058005B005E006100640090
:103C680067006A006D0070007300760079007C00C0
:103C78007F008200850088008B008E0091009400F0
:103C880097009A009D00A000A300A600A900AC0020
:103C9800AF00B200B500B800BB00BE00C100C40050
:103CA800C700CA00CD00D000D300D600D900DC0080
:103CB800DF00E200E500E800EB00EE00F100F400B0
:103CC800F700FA00FD0000F50860704700F6840070
:103CD800704700F68800704700F68C00704700F5C2
:103CE8000960704700F69400704700F69800704726
:103CF80000F69C00704700F50A60704700F6A400C3
:103D0800704700F6A800704700F6AC00704700F551
:103D18000B60704700F6B400704700F6B8007047B3
:103D280000F6BC00704700F50C60704700F6C40050
:103D3800704700F6C800704700F6CC00704700F5E1
:103D48000D60704700F6D400704700F6D800704741
:103D580000F6DC00704700F50E60704700F6E400DE
:103D6800704700F6E800704700F6EC00704700F571
:103D78000F60704700F6F400704700F6F8007047CF
:103D880000F6FC00704700F51060704700F604105C
:103D9800704700F60810704700F60C10704700F5E1
:103DA8001160704700F61410704700F6181070473D
:103DB80000F61C10704700F51260704700F62410DA
:103DC800704700F62810704700F62C10704700F571
:103DD8001360704700F63410704700F638107047CB
:103DE80000F63C10704700F51460704700F6441068
:103DF800704700F64810704700F64C10704700F501
:103E08001560704700F65410704700F65810704758
:103E180000F65C10704700F51660704700F66410F5
:103E2800704700F66810704700F66C10704700F590
:103E38001760704700F67410704700F678107047E6
:103E480000F67C107047D4D4F0B503AF2DE9000F0D
:103E5800B3B04369042B00F0268101684FF00109D3
:103E68004FF0000B0E6B0C96CE6A0B968E6A0E9670
:103E780043F6AC76496AC2F201060D91D0F8981162
:103E88000A9056F8230056F8211008441FA90E314D
:103E980006911168002205910021089200220992DA
:103EA80007900BEBCB020BEB8B0352425B42A1EB6F
:103EB8000B1EABEB8B01DC46D200C900DB0058457A
:103EC80088BF8446DC4500F0E7800BF03F05483AA0
:103ED800C5F12004B5F1200609FA05FAA3F1280373
:103EE80029FA04F8A1F1180158BF09FA06F80D9843
:103EF80058BF4FF0000AAEF1100E08EA00060E98FF
:103F08000BF1010B00EA0A003043DBD00B980C9C44
:103F180000EA08000AEA04063043D3D00A9843F6B8
:103F2800AC75C2F20105ABF10104466955F826C02B
:103F3800644508D2DFE806F0022913176FF00F0076
:103F4800A0EB0E012CE0D0F89861DFE806F0022221
:103F580010170EEB0C106FF00F01081A1EE06FF02F
:103F68002700C11A1CE06FF04700811A18E00CEB1B
:103F78008C004042C3EBC00028380FE00CEBCC00AB
:103F88004042C2EBC000483808E06FF01700411A01
:103F980006E0ACEB8C00C1EBC000183800F50071EE
:103FA80048F28000C4F21D000D5805F03060B0F1F1
:103FB800007F66D148F28000C4F21D004218C5F3A4
:103FC80003405668A0F10902072A06D244F6CC003D
:103FD800C2F2010050F8222009E048F63962C3F61F
:103FE800E302A0FB02235A0802EBC202821A1FA8AE
:103FF800049505F40015039200F094FE0A9826F043
:104008006042002D016808BFC6F38A42019218BFBA
:10401800012502951F2C8A6801D8303104E03F2C15
:1040280005D804F01F042C3109FA04F20A601FAA0B
:104038000DF13C0EB2E84B10AEE84B105BCAAEE88F
:104048005B0092E87B008EE87B000A98D0F8206637
:104058000498B6B1C0F34074ADF8880003980FA96E
:10406800219040220198209002981F9006980DF008
:1040780012FC00201FA98DF8CB0005988DF8CA40C6
:10408800B0470898002140EA0A000890099840EAD9
:1040980008000990079804E70A99089A08680263D3
:1040A80008680999C16233B0BDE8000FF0BD40F25D
:1040B8000000C2F20000406904281CBF1046FFF748
:1040C80002BC0220704740F20000C2F200004169C1
:1040D800042918BFC0F820267047B0B502AF02F017
:1040E80058FA044602F04BFA02F056FA49F2244014
:1040F80004F00101C2F2010005782A0604BF01227A
:104108000270002908BF02F03CFAE8B2B0FA80F069
:104118004009B0BDF0B503AF2DE9000FADF6840D31
:10412800369002F036FA00F0010402F028FA02F0A4
:1041380033FA49F24C40C2F201000578002D04BF61
:1041480001210170002C08BF02F01BFA002D40F07D
:10415800B8850DF1DC0A36990AF58A600F900AF2E3
:104168005C4010900AF58D6011900AF2744012902C
:104178000AF5906013900AF28C4014900AF5936047
:1041880015900AF2A44016900AF5966017900AF264
:10419800BC4018900AF5996019900AF2D4401A9018
:1041A8000AF59C601B900AF2EC401C900AF59F608F
:1041B8001D900AF204501E900AF5A2601F900AF2A0
:1041C8001C5020900AF5A56021900AF234502290E4
:1041D8000AF5A86023900AF24C5024900AF5AB60C7
:1041E80025900AF2645026900AF5AE6027900AF2EC
:1041F8007C5028900AF5B16029900AF294502A90D0
:104208000AF5B4602B900AF2AC502C900AF5B7600E
:104218002D900AF2C4502E900AF5BA602F900AF237
:10422800DC5030900AF5BD6031900AF2F4503290BB
:104238000AF5C06033900AF20C6034900AF5C36046
:1042480035900AF104004FF447720AF581690AF2C1
:1042580014480AF584660AF22C440AF5876B0AF2B8
:1042680044450DF057FB48F200020020C4F21D023D
:10427800022137920F9ACDF8E014CDF8D414C2E990
:104288000000109ACDF8C814CDF8BC14C2E900009B
:10429800119ACDF8B014CDF8A414C2E90000129A0E
:1042A800CDF89814CDF88C14C2E90000139ACDF813
:1042B8008014CDF87414C2E90000149ACDF868147B
:1042C800CDF85C14C2E90000159ACDF85014CDF869
:1042D8004414C2E90000169ACDF83814CDF82C140D
:1042E800C2E90000179ACDF82014CDF81414C2E9D9
:1042F8000000189ACDF80814FF91C2E90000199A35
:10430800CDF8EC14CDF8F814C2E900001A9ACDF8EB
:104318000415CDF81015C2E900001B9ACDF81C153C
:10432800CDF82815C2E900001C9ACDF83415CDF84F
:104338004015C2E900001D9ACDF84C15CDF8581566
:10434800C2E900001E9ACDF86415CDF87015C2E9CF
:1043580000001F9ACDF87C15CDF88815C2E9000039
:10436800209ACDF89415CDF8A015C2E90000219A3D
:10437800CDF8AC15CDF8B815C2E90000229ACDF8F1
:10438800C415CDF8D015C2E90000239ACDF8DC1584
:10439800CDF8E815C2E90000249ACDF8F415CDF857
:1043A8000016C2E90000259ACDF80C16CDF81816AB
:1043B800C2E90000269ACDF82416CDF83016C2E9D5
:1043C8000000279ACDF83C16CDF84816C2E900003F
:1043D800289ACDF85416CDF86016C2E90000299A3B
:1043E800CDF86C16CDF87816C2E900002A9ACDF8F7
:1043F8008416CDF89016C2E900002B9ACDF89C16C9
:10440800CDF8A816C2E900002C9ACDF8B416CDF85C
:10441800C016C2E900002D9ACDF8CC16CDF8D816F2
:10442800C2E900002E9ACDF8E416CDF8F016C2E9DC
:1044380000002F9A3599CDF8DC04C2E90000309AC3
:10444800CDF8D804CDF8D004C2E90000319ACDF8EF
:10445800CC04CDF8C404C2E90000329ACDF8C004F7
:10446800CDF8B804C2E90000339ACDF8B404CDF809
:10447800AC04C2E90000349ACDF8A804CDF8A00431
:10448800C2E900004FF48072CDF89C04CDF8940482
:10449800CDF89004CDF88804CDF88404CDF87C04D8
:1044A800CDF87804CDF87004CDF86C04CDF8640428
:1044B800CDF86004CDF85804CDF85404CDF84C0478
:1044C800CDF84804CDF84004CDF83C04CDF83404C8
:1044D800CDF83004CDF82804CDF82404CDF81C0418
:1044E800CDF81804CDF81004CDF80C04CDF8040468
:1044F800CDF80004C9E90000C8E90000C6E90000D9
:10450800C4E90000CBE90000C5E90000C1E90000EA
:10451800CDF8FC064CF22000C4F20F0001689DF8AB
:10452800F83321F47F71DFE803F0040404100D046C
:104538000F0441F400710022DFE803F00A0C0E0FAB
:1045480004040F0F042208E000221143002204E0B3
:10455800242202E0102200E00C2211430160816C49
:10456800192241F440518164416E41F470714166F1
:1045780048F2A400C4F21F00016862F3040101605C
:10458800D0F8F01141F2B001C0F8F011D0F8E836D7
:1045980023F00303C0F8E836436862F3040343607A
:1045A800D0F8F421C0F8F4113798016821F00041DF
:1045B800016037980168C90241BF01685FEAC121FB
:1045C80001685FEAC12102D50168C902F2D4016815
:1045D80021F48021016037980168C90241BF016850
:1045E8005FEAC12101685FEAC12102D50168C902F9
:1045F800F2D4016841F000710160379801688901BF
:1046080041BF01685FEA811101685FEA811106D53F
:1046180001688901F2D402E00168C90109D401687E
:10462800C9015FBF01685FEAC11101685FEAC11192
:10463800F2D54DF680720168CFF65772114042F2FA
:104648003F02C0F2280211430160002137984160FF
:1046580041F20001C0F2B20141630021FFF7EEFA16
:104668006FF040450124056037982146FFF7E6FAC8
:1046780001340560402CF7D137980021002600F15D
:10468800900200F18004016100F5806E416100F53F
:104698008268816100F58469816400F586658162BC
:1046A80000F5886B416200F58A630163C162369246
:1046B80000F1A002359200F1B002349200F1C0027C
:1046C800339200F1D002329200F1E002319200F10F
:1046D800F002309200F580722F9200F588722E92C7
:1046E80000F590722D9200F598722C9200F5A07248
:1046F8002B9200F5A8722A9200F5B072299200F563
:10470800B872289200F5C072279200F5C8722692F6
:1047180000F5D072259200F5D872249200F5E07267
:10472800239200F5E872229200F5F072219200F5CA
:10473800F872209200F500721F9200F504721E9222
:1047480000F508721D9200F50C721C9200F51072AB
:104758001B9200F514721A9200F51872199200F55E
:104768001C72189200F52072179200F524721692A6
:1047780000F52872159200F52C72149200F530722B
:10478800139200F53472129200F53872119200F506
:104798003C72109200F540720F9200F544720E922E
:1047A80000F548720D9200F54C720C9200F55072AB
:1047B8000B9200F554720A9200F55872099200F5AE
:1047C8005C72089200F56072079200F564720692B6
:1047D80000F56872059200F56C72049200F570722B
:1047E800039200F57472029200F57872019200F556
:1047F8007C72009204E0013611603F2E00F0A48024
:10480800A6F1010C2246BCF13D0FF4D8DFE80CF00C
:104818001F21232527292B2D2F31333537393B3DB0
:104828003F41434547494B4D4F51535557595B5DA0
:104838005F61636567696B6D6F71737577797B7D90
:104848007F81838587898B8D8F9193959799369AE8
:10485800D1E7359ACFE7349ACDE7339ACBE7329A46
:10486800C9E7319AC7E7309AC5E72F9AC3E72E9A66
:10487800C1E72D9ABFE72C9ABDE72B9ABBE72A9A86
:10488800B9E7299AB7E7289AB5E7279AB3E7269AA6
:10489800B1E7259AAFE7249AADE7239AABE7229AC6
:1048A800A9E7219AA7E7209AA5E71F9AA3E71E9AE6
:1048B800A1E71D9A9FE71C9A9DE71B9A9BE71A9A06
:1048C80099E7199A97E7189A95E7179A93E7169A26
:1048D80091E7159A8FE7149A8DE7139A8BE7129A46
:1048E80089E7119A87E7109A85E70F9A83E70E9A66
:1048F80081E70D9A7FE70C9A7DE70B9A7BE70A9A86
:1049080079E7099A77E7089A75E7079A73E7069AA5
:1049180071E7059A6FE7049A6DE7039A6BE7029AC5
:1049280069E7019A67E7009A65E7724663E74246D6
:1049380061E74A465FE72A465DE75A465BE71A465B
:1049480059E70021C0F86014416841F2280243F693
:104958005C760125914341600168C2F201063C9AE8
:104968009D9B56F8222043F6AC76C2F2010656F813
:1049780023301A444EF68073CDF6B07302F07F02EE
:104988001940114401F544310160DDE937049DF80F
:10499800E7B09DF8E6C09DF8E410BBF1010F9DF863
:1049A800E560036843F0A043036098BFAB46012E5F
:1049B80098BF2E46012988BF0D460AF5CC7136915D
:1049C8000AF1140135910368DB015FBF01685FEAF2
:1049D800C11101685FEAC11102D40168C901F2D5A9
:1049E800DDF8DCE0012C4FF0010398BF1C4640F2D3
:1049F800FF3A544528BF54463F2D28BF3F254FF660
:104A0800004ADEF85020CFF6FF7A0AEB85221F2EE7
:104A1800C2EA44524FF01F0428BF26466FF01F0514
:104A2800BCF1010F88BF634605EB46151F2B28BF55
:104A3800234605F47875013B2A4403F01F03BBF1B4
:104A48001F0F1A4440F20003CFF6FF7338BF5C46CD
:104A580003EB044303F4F8131A4402F1C04202F1D1
:104A6800FF5242F00042CEF85020026822F08052F5
:104A780002600268D20141BF01685FEAC1110168A2
:104A88005FEAC11102D50168C901F2D4DDF8E8A0D6
:104A980001229DF8EF6040F2FF30BAF1010F9DF856
:104AA800EE309DF8ED509DF8EC4098BF9246824557
:104AB80028BF8246012E98BF16461F2E4FF01F00B2
:104AC80028BF0646012B98BF13461F2B28BF034655
:104AD800012D98BF15461F2D9DF8F9E328BF0546FF
:104AE800012C98BF14463F2C28BF3F24BEF1000F6D
:104AF8000DD09DF8FAC3BCF1010F88BF62461F2A8A
:104B080038BF10464FF4F85202EA002101E04FF492
:104B1800807103F10709379B06F1070B05F1070CB4
:104B28001F34186840F0A04018601868C0015FBFC3
:104B380018685FEAC01018685FEAC01002D41868E5
:104B4800C001F2D500263798C3F6F07606EB0A5571
:104B580035400CF0070664F38E25D0F8042C45EA9E
:104B6800461609F007052E440BF0070548F21838D9
:104B7800BEF1000FCCF2080846EA054602EA080230
:104B88004FF080253244C0F8042C026842F40062D9
:104B9800026037983C9A9D9E08BF4FF00045294413
:104BA80046F2FF05D0F8004CC7F6E47525402943C6
:104BB80041EA024141EAC641C0F8001C186820F0E9
:104BC800805018601868C00141BF18685FEAC010BB
:104BD80018685FEAC01002D51868C001F2D4379887
:104BE800D0F8001C490466D4026842F0A042026072
:104BF80037980268D2015FBF01685FEAC111016896
:104C08005FEAC11102D40168C901F2D50DF5E0656A
:104C180035994FF4C2723C9C28460CF07BFE37AEA7
:104C2800294600223046FEF7D7FA0DF5E065369999
:104C38004FF4C27228460CF06DFE43F6AC7029465C
:104C4800C2F2010050F824203046FEF7C5FA379822
:104C5800016821F08051016037980168C90141BF9E
:104C680001685FEAC11101685FEAC11102D50168F4
:104C7800C901F2D401F08DFC044601F080FC01F07A
:104C88008BFC40F2000037A9C2F2000040F2246217
:104C98000CF040FEE00708BF01F073FC4EF2101064
:104CA8004FF08061CEF20000016005200DF6840D02
:104CB800BDE8000FF0BD03200DF6840DBDE8000F20
:104CC800F0BD44F2805044F6BC02C2F20100C2F2C8
:104CD80001022B2108F01AFBFEDE7047B0B502AFC7
:104CE80084B0044654F8040B012804D144F6101289
:104CF800C2F2010203E044F60012C2F201026D465C
:104D0800082328460AF04FF944F6E80203A9C2F23C
:104D180001022846039408F0D6FD284608F043FE11
:104D280004B0B0BDF0B503AF2DE9000788464021B7
:104D3800144681464FF0400A0CF0A0FE48F28B0062
:104D48000025C4F21D0080444FF0000E05E0154414
:104D580008F10408BEF1100F1DD05646BAF1040F31
:104D680028BF04264B46AAEB060AB14405F1040CF9
:104D78000EF1010E002240469642E8D0042A08D0DF
:104D880010F8011999540132A918A142F4D30D461B
:104D9800DEE76546DCE7BDE80007F0BDD0B502AF49
:104DA80084B00078DFE800F0030A11181F0001AC96
:104DB80044F6FB12C2F201020F231AE001AC43F6DB
:104DC8006C72C2F20102102313E001AC44F6D8124F
:104DD800C2F2010223230CE001AC44F69812C2F29D
:104DE8000102202305E001AC44F63012C2F20102B0
:104DF800072320460AF0D7F8204608F0D4FD04B06F
:104E0800D0BDB0B502AF056808460C460AF0B6F842
:104E180028B128462146BDE8B0400BF014B9204619
:104E28000AF0B0F828B128462146BDE8B0400BF09A
:104E380073B928462146BDE8B0400BF0BBBB7047AC
:104E480080B56F4682B000208029019007D28DF886
:104E58000410012201A900F077F902B080BDB1F574
:104E6800006F09D20222084662F39F108DF80500F0
:104E7800C02040EA911028E002200A4660F39F1201
:104E8800B1F5803F11D28DF806208A0960F39F1290
:104E9800E0208DF8052040EA11308DF80400032247
:104EA80001A900F051F902B080BD8DF807208A09E8
:104EB80060F39F128DF806200A0B60F39F12F02012
:104EC8008DF80520042240EA91408DF8040001A9DC
:104ED80000F03AF902B080BDF0B503AF4DF804BD5B
:104EE80088B0006802AA019091E87850104644F60C
:104EF8000C21C2F2010180E8785001A809F0F9F903
:104F080008B05DF804BBF0BD00F01EB944F62422D9
:104F18000021C2F201020523C0E900328160704716
:104F2800D0B502AF00220C460146C4F22E02012081
:104F3800914218BFD0BD40F22462D4E90113C2F2F5
:104F48000002C2E9001344F624211072C2F20101E2
:104F5800104602F07EF808B10020D0BD49F2704139
:104F68002068C2F20101BFF35F8F0860BFF35F8F53
:104F78000DF0E4FC0DF0E7FC0420D0BD0CF0D4BE2D
:104F8800F0B503AF2DE900070646007A60B10D467B
:104F98000CF0C2FE40B149F27040D5F80080C2F270
:104FA80001000068804503D90020BDE80007F0BD76
:104FB8007168012029B333686FF0030202EB8101A5
:104FC800D5E901951E1D002400EB910A03E0013488
:104FD8000C36A245E8D03068A842F8D156F8040C3F
:104FE80049462A460CF0C6FD0028F0D17068002119
:104FF8008045A0F10600B0FA80F098BF0121400971
:105008000843BDE80007F0BDF0B503AF2DE9000F78
:1050180093B00446007A002874D089460CF07CFED0
:1050280000286FD049F27040D9F800A0C2F2010000
:105038000068824566D8606808B323686FF0030289
:1050480002EB8000D9E901B801211C1D01EB900594
:10505800002603E001360C34B54253D020684045A1
:10506800F8D154F8040C594642460CF083FD002848
:10507800F0D16068062818BF824502D942E0D9E914
:1050880001B801F086FA054601F079FA01F084FAD0
:1050980043F6674044F60C21C0F200000CAA0690C3
:1050A8000AA8059043F65B40C0F20000C2F2010175
:1050B800049008A8039045F67F10C0F20000CDF8D0
:1050C8001CA0029007A8019009F10C000A9012A8F0
:1050D8000B900320119001A810900020CDE90E003C
:1050E80004200D9044F6B020C2F20100CDE908B8C2
:1050F8000C900BA809F0FDF80446E80708BF01F07A
:1051080040FA1CB913B0BDE8000FF0BD44F63810E2
:1051180044F69822C2F20100C2F20102202108F0EE
:10512800F5F8FEDED0B502AF01F033FA044601F01F
:1051380026FA01F031FA0DF081FBE00718BFD0BD67
:10514800BDE8D04001F01DBAF0B503AF2DE9000F5E
:105158008DB092468B460CF0DFFD0021002800F050
:10516800A28001200BEB0A060A9003A84FF00A0957
:1051780080E8020C00250020CDF82C90CDE908A984
:10518800CDE906A107E002990120002949464FF020
:105198000A0900F09380554506D9002289460292F3
:1051A800D046C00755D162E0CDE9000101E0554580
:1051B80047D8AAEB05020BEB0501072A1CD802B356
:1051C80000200B5C0A2B2BD00B180133B34219D0EB
:1051D8001C780A2C27D00133B34213D01C780A2C30
:1051E80024D00133B3420DD01C780A2C21D00133CE
:1051F8000430B342E5D105E00A2009F0B3FF0A46BE
:1052080001E000220020012816D102EB050808F170
:105218000105D045CBD21BF808004845C7D136E078
:1052280002460120EFE7421C0120ECE7821C012026
:10523800E9E7C21C0120E6E70199002002905546E3
:1052480002E00199002002908946D0460098C007E4
:105258000DD044F6D0200C46C2F2010002210DF018
:10526800E3FAB0F1FF3F1ADD0228214620D3B8EB5C
:1052780001043FF488AF0BEB010021460DF0D4FA8E
:10528800B0F1FF3F0BDD84427FF67DAF10E00120D7
:10529800A946029001990098C007DAD1E7E7B0F172
:1052A800FF3118BF012108460DB0BDE8000FF0BD61
:1052B800012108460DB0BDE8000FF0BD00210846E9
:1052C8000DB0BDE8000FF0BD4EF21000CEF20000A8
:1052D800016821F001010160016821F00401016009
:1052E8006321416000218160016841F00101016092
:1052F800016841F002010160704749F22840C2F29A
:10530800010001680131016070470A46D0E90031A7
:10531800184609F085BE006808F0D7BFD0B502AFBF
:1053280082B001F051F9C468052060F3030401F06C
:105338004BF9C46001A8012100F026F801F029F911
:10534800044601F01CF901F027F94CF26C00182210
:10535800C4F20A0001680068000758BF0422090760
:105368004FF0180044F6D42158BF0420C2F20101BE
:105378008A580858516841F008014160E00708BFA1
:1053880001F0FFF802B0D0BDF0B503AF4DF804BD91
:105398000D4601F0FEF8064601F0F1F801F0FCF8C0
:1053A8004CF26C0044F6D424C4F20A0018230168B5
:1053B800C2F20104026821F0080165F3C301120773
:1053C80058BF0423E35818225B680160016800682D
:1053D80000074FF0180058BF04200907205858BF8D
:1053E8000422A158DA08406862F3C3004860F00755
:1053F80008BF01F0C6F801205DF804BBF0BDB0B5E8
:1054080002AF4EF69C540025CEF20004102044F85A
:10541800085C20602520C0F2083060601120C0F2CE
:10542800200020602120C0F2027060601220C2F2C9
:10543800000020602520C1F2083060601320C2F20D
:10544800200020602720C1F20B3060601420C4F2D5
:10545800000020603320C1F2103060601520C6F2D1
:10546800000020602F20C0F20B706060012044F81B
:10547800080C01F088F801F089F8C4F8B45101F07B
:1054880082F801F083F84FF4403044F8880C4CF26D
:105498005400C4F20F00016821F003010160BDE867
:1054A800B040FCF705B900281FBF4CF60021C3F631
:1054B8009A31B1FBF0F2500A1FBF44F68333C0F2B1
:1054C8000403A0FB0303D8091EBF00FB112200211F
:1054D800704780B56F4644F6703044F65432C2F2D5
:1054E8000100C2F20102192107F010FFFEDE944606
:1054F80004320846614600F01CBD00291CBFB0FB01
:10550800F1F0704780B56F4644F6004044F6E43247
:10551800C2F20100C2F20102192107F0F7FEFEDE15
:105528000220704701207047D2F800C0DCF86C30C8
:1055380043F44033CCF86C301268D36E43F44073B4
:10554800D366704780B56F461368D3F800C0DCF89F
:105558006C3043F44053CCF86C30D2E901EC0023B2
:10556800D268BCF1000F0B600EF1010104BF43F2D9
:105578000062C0F26E12C0E90021C0E90221C0E950
:105588000421C0E9062180BDB0B502AFD1F800C042
:105598001546D7F808E0002BDCF81C4008BF45F09A
:1055A800400524F07F042C43CCF81C4080E80E40D2
:1055B800B0BDF0B503AF2DE90007E2B0044600F036
:1055C800E8FF054600F0DBFF00F0E6FF49F238404F
:1055D80005F00101C2F201000678002E04BF012285
:1055E8000270002908BF00F0CCFF002E40F019839C
:1055F80000F0CFFF054600F0C2FF00F0CDFF49F2F2
:10560800414005F00101C2F201000678002E04BFF6
:1056180001220270002908BF00F0B3FF002E40F0FD
:10562800008300F0B6FF054600F0A9FF00F0B4FFC4
:1056380049F24A4005F00101C2F201000678002E45
:1056480004BF01220270002908BF00F09AFF002E53
:1056580040F0E78200F0C2FF00F09BFF054600F033
:105668008EFF00F099FF49F2434005F00101C2F2B4
:1056780001000678002E04BF01220270002908BF2D
:1056880000F07FFF002E40F0CC8200F082FF05463C
:1056980000F075FF00F080FF49F2314005F001018C
:1056A800C2F201000678002E04BF01220270002910
:1056B80008BF00F066FF002E40F0B38200F069FFDB
:1056C800054600F05CFF00F067FF49F2324005F044
:1056D8000101C2F201000678002E04BF0122027007
:1056E800002908BF00F04DFF002E40F09A8200F01C
:1056F80050FF054600F043FF00F04EFF49F23E40E0
:1057080005F00101C2F201000678002E04BF012253
:105718000270002908BF00F034FF002E40F081829B
:1057280000F037FF054600F02AFF00F035FF49F288
:10573800394005F00101C2F201000678002E04BFCD
:1057480001220270002908BF00F01BFF002E40F064
:10575800688200F01EFF054600F011FF00F01CFFF4
:1057680049F2334005F00101C2F201000678002E2B
:1057780004BF01220270002908BF00F002FF002EBA
:1057880040F04F8200F005FF054600F0F8FE00F0FB
:1057980003FF49F2304005F00101C2F2010006782A
:1057A800002E04BF01220270002908BF00F0E9FEA4
:1057B800002E40F0368200F0ECFE054600F0DFFED9
:1057C80000F0EAFE49F23A4005F00101C2F2010098
:1057D8000678002E04BF01220270002908BF00F0DD
:1057E800D0FE002E40F01D8200F0D3FE054600F0EA
:1057F800C6FE00F0D1FE49F22E4005F00101C2F2CA
:1058080001000678002E04BF01220270002908BF9B
:1058180000F0B7FE002E40F0048200F0BAFE054604
:1058280000F0ADFE00F0B8FE49F2464005F0010177
:10583800C2F201000678002E04BF0122027000297E
:1058480008BF00F09EFE002E40F0EB8100F0A1FEA4
:10585800054600F094FE00F09FFE49F23D4005F039
:105868000101C2F201000678002E04BF0122027075
:10587800002908BF00F085FE002E40F0D28100F01C
:1058880088FE054600F07BFE00F086FE49F24B409C
:1058980005F00101C2F201000678002E04BF0122C2
:1058A8000270002908BF00F06CFE002E40F0B9819C
:1058B80000F06FFE054600F062FE00F06DFE49F252
:1058C800424005F00101C2F201000678002E04BF33
:1058D80001220270002908BF00F053FE002E40F09C
:1058E800A08100F056FE054600F049FE00F054FE87
:1058F80049F23F4005F00101C2F201000678002E8E
:1059080004BF01220270002908BF00F03AFE002EF1
:1059180040F0878100F03DFE054600F030FE00F0C3
:105928003BFE49F2484005F00101C2F20100067849
:10593800002E04BF01220270002908BF00F021FEDA
:10594800002E40F06E8100F024FE054600F017FEA0
:1059580000F022FE49F2494005F00101C2F20100BF
:105968000678002E04BF01220270002908BF00F04B
:1059780008FE002E40F0558100F00BFE054600F0B1
:10598800FEFD00F009FE49F22C4005F00101C2F2CB
:1059980001000678002E04BF01220270002908BF0A
:1059A80000F0EFFD002E40F03C8100F0F2FD0546CE
:1059B80000F0E5FD00F0F0FD49F2474005F0010177
:1059C800C2F201000678002E04BF012202700029ED
:1059D80008BF00F0D6FD002E40F0238100F0D9FD6D
:1059E800054600F0CCFD00F0D7FD49F24E4005F029
:1059F8000101C2F201000678002E04BF01220270E4
:105A0800002908BF00F0BDFD002E40F00A8100F01B
:105A1800C0FD054600F0B3FD00F0BEFD49F22F4081
:105A280005F00101C2F201000678002E04BF012230
:105A38000270002908BF00F0A4FD002E40F0F1809C
:105A480000F0A7FD054600F09AFD00F0A5FD49F21B
:105A5800444005F00101C2F201000678002E04BF9F
:105A680001220270002908BF00F08BFD002E40F0D3
:105A7800D88000F08EFD054600F081FD00F08CFD19
:105A880049F23C4005F00101C2F201000678002EFF
:105A980004BF01220270002908BF00F072FD002E29
:105AA80040F0BF8000F075FD054600F068FD00F08D
:105AB80073FD49F2374005F00101C2F20100067892
:105AC800002E04BF01220270002908BF00F059FD12
:105AD800002E40F0A68000F05CFD054600F04FFD6A
:105AE80000F05AFD49F2454005F00101C2F20100FB
:105AF8000678002E04BF01220270002908BF00F0BA
:105B080040FD002E40F08D8000F043FD054600F07A
:105B180036FD00F041FD49F23B4005F00101C2F2BB
:105B280001000678002E04BF01220270002908BF78
:105B380000F027FD002E74D100F02BFD054600F083
:105B48001EFD00F029FD49F22D4005F00101C2F2C9
:105B580001000678002E04BF01220270002908BF48
:105B680000F00FFD002E5CD100F013FD054600F09B
:105B780006FD00F011FD49F2364005F00101C2F2C0
:105B880001000678002E04BF01220270002908BF18
:105B980000F0F7FC002E44D100F0FBFC054600F0B5
:105BA800EEFC00F0F9FC49F24D4005F00101C2F2AB
:105BB80001000678002E04BF01220270002908BFE8
:105BC80000F0DFFC6EBB00F0E4FC054600F0D7FCFB
:105BD80000F0E2FC49F2354005F00101C2F2010093
:105BE8000678002E04BF01220270002908BF00F0C9
:105BF800C8FCB6B900F0CDFC054600F0C0FC00F0CA
:105C0800CBFC49F2344005F00101C2F201000678EC
:105C1800002E04BF01220270002908BF00F0B1FC69
:105C280056B120464FF422710BF02BFF0220A067DB
:105C380062B0BDE80007F0BD40F2000E0220C4F2D9
:105C4800080EC4F880020EF548160EF58C100EF5F5
:105C5800B6130EF54715C4E918560EF59015A36648
:105C68000EF58A13C4E912300EF58E120EF5881659
:105C780004F150000EF598210EF5451980E824022C
:105C88000EF55D150EF55F12C4F87C120EF586113F
:105C9800C4E910160EF55C16C4E90A650EF55A102B
:105CA8000EF590260EF546180EF55E13C4E90C3273
:105CB8000EF55911C4E908100EF580420EF588203A
:105CC800C4E900065DAEC4F85C800EF58418C4E92A
:105CD800042E0EF5821937F81B0C4FF0000A17F83E
:105CE800192C0EF5571184F86F200EF5B023A4F87F
:105CF8006D000EF5F82545CE4FF0010CC4E90E985D
:105D08000EF55818C4E91EA004F18000C4E906186D
:105D180037F81E1C80E8440454AA04F18C00C4E936
:105D280002530EF5B813A4F87510DDE959912367ED
:105D380017F81C3C84F87730DDE95B352AC004F19C
:105D4800A003C4F884C284F874C0DDE957C807CA40
:105D580083E8000704F1AC0307C3DDE95050DDE92F
:105D68005212C4E92EA004F1C00080E80604C4F869
:105D7800D450DDE94A50DDE94C12C4E936A004F1FB
:105D8800E00080E80604C4F8F450DDE94450DDE999
:105D98004612C4E93EA004F5807080E80604C4F801
:105DA8001451DDE93E50DDE94012C4E946A004F58E
:105DB800907080E80604C4F83451DDE93850DDE914
:105DC8003A12C4E94EA004F5A07080E80604C4F8AD
:105DD8005451DDE93250DDE93412C4E956A004F526
:105DE800B07080E80604C4F87451DDE92C50DDE990
:105DF8002E12C4E95EA004F5C070DDE94E3680E8D5
:105E08000604C4F89451DDE92650DDE92812C4E9F6
:105E18003336DDE94836C4E966A004F5D070C4E934
:105E28003B36DDE9423680E80604C4F8B451DDE9C2
:105E38002050DDE92212C4E94336DDE93C36C4E9E5
:105E48006EA004F5E070C4E94B36DDE9363680E82B
:105E58000604C4F8D451DDE91A50DDE91C12C4E97E
:105E68005336DDE93036C4E976A004F5F070C4E9AC
:105E78005B36DDE92A3680E80604C4F8F451DDE92A
:105E88001450DDE91612C4E96336DDE92436C4E9A5
:105E98007EA004F50070C4E96B36DDE91E3680E8A3
:105EA8000604C4F81452DDE90E50DDE91012C4E905
:105EB8007336DDE91836C4E986A004F50870C4E92C
:105EC8007B36DDE9123680E80604C4F83452DDE991
:105ED8000850DDE90A12C4E98336DDE90C36C4E965
:105EE8008EA004F51070C4E98B36DDE9063680E82B
:105EF8000604C4F85452DDE90250DDE90412C4E98D
:105F08009336DDE90036C4E996A004F5187080E8F8
:105F180006040EF5A82084F86CA0C4E926ACC4E9F0
:105F28009B36C4F87452C4F8780262B0BDE8000722
:105F3800F0BDF0B503AF2DE9000F93B08B464AF2E0
:105F48000141C1F67871984692468842009003D381
:105F580040F2E24012240CE043F20061C0F26E11FC
:105F6800884203D840F2B630062402E040F27E4070
:105F78000E240190DBF8000049F27049C2F20109D1
:105F8800D0F8801041F0C001C0F88010D8F8005057
:105F9800E86800F01F00A0423CD2D9F800000428AD
:105FA8001CD3012044F6C042129005A8119000208D
:105FB800CDE90F0002200E9044F63440C2F20100F1
:105FC800C2F201020D904EF60570C0F200000421E5
:105FD800069001A805900DA801F084F8E86820F063
:105FE8001F002044E860D8F800000168002911D497
:105FF80010BF0168B1F1FF3F0CDD10BF0168002937
:106008005EBF10BF0168002904D410BF0168B1F158
:10601800FF3FEDDCDBF800406169D9F80000890139
:1060280042D4042817D3002044F68461129044F621
:106038008462CDE90F0001200E9044F67C60C2F224
:106048000100C2F201010D900DA81191C2F20102E6
:10605800042101F047F8DAF8000043F24002C8F2E0
:1060680000020169D9F800001140914237D1002699
:10607800042816D344F6846044F6D062C2F20100C4
:10608800C2F20102119001200E9044F6C860C2F2DB
:10609800010004210D900DA81296CDE90F6601F0BC
:1060A80021F84FF0C05536E0042868D3002044F6A4
:1060B8008461129044F66472CDE90F0001200E90BD
:1060C80044F65C70C2F20100C2F201010D900DA805
:1060D8001191C2F20102042101F004F84FE00025F9
:1060E800042816D344F6846044F61C72C2F20100F8
:1060F800C2F20102119001200E9044F61470C2F20F
:10610800010004210D900DA81295CDE90F5500F05E
:10611800E9FF4FF48056606920F0605028436061C1
:10612800A06920F440503043A06100E010BFA06C8B
:10613800000742BF10BFA06C5FEA007008D510BF0F
:10614800A06C000742BF10BFA06C5FEA0070EDD4DE
:10615800606940F00070606109E010BFA06C8006C3
:1061680042BF10BFA06C5FEA806008D510BFA06C6A
:10617800800642BF10BFA06C5FEA8060EDD4009E2D
:106188004BF200230120C2F29F6301219E42CDE918
:10619800020016D23246012005E0013100FB06F26A
:1061A8004A439A420BD20729F7D9042807D8013065
:1061B8000121039000FB06F24A439A42F3D302916D
:1061C80000E0324602F5B70249F6817302F55862DB
:1061D800C1F25E636C26A2FB03231A0D6C2A38BF3A
:1061E8001E0D362E98BF36260496D9F80020042AAC
:1061F80026D30DA90320099100210A9044F60C52D8
:10620800CDE9060144F6F440C2F201000891059078
:106218004EF6057003A9C0F200001290C2F2010206
:10622800CDE9100102A9CDE90E0104A80D9005A839
:10623800042100F057FF0299002900F06F810398AC
:10624800002800F06B81049A41F60033C0F2B703CE
:10625800DAF8005044F668544EF697165A43C2F2DC
:106268000104C0F20006B2FBF1F1B1FBF0F00090BE
:1062780028680B90D9F80000042813D3012005A939
:10628800129044F67052CDE90D400BA811910021EF
:1062980005900DA8CDE90F11C2F20102042106965E
:1062A80000F020FF4FF4805040222860DAF8000008
:1062B800049962F3DF110160DAF80000016800292F
:1062C80011D410BF0168B1F1FF3F0CDD10BF0168A8
:1062D80000295EBF10BF0168002904D410BF0168FF
:1062E800B1F1FF3FEDDCD9F80010042915D300689F
:1062F8000CA9059105A90C90012044F68C52119126
:1063080000211290CDE90D400DA8CDE90F11C2F280
:1063180001020421069600F0E5FE0298DBF8001061
:10632800013800F007000861DBF8000000E010BF4A
:10633800816CC90342BF10BF816C5FEAC13108D5C7
:1063480010BF816CC90342BF10BF816C5FEAC131C5
:10635800EDD403994FF4E052436902EB8121890A95
:1063680061F38C234361DBF8000000E010BF816C0F
:10637800C90342BF10BF816C5FEAC13108D510BFA5
:10638800816CC90342BF10BF816C5FEAC131EDD493
:1063980000994DF27F12C0F6F0020424114441F234
:1063A8009F02C0F2E5024369C909A1FB02124FF43A
:1063B8004071160B042E38BF140B01EB0421090A97
:1063C80061F309234361DBF80000416921F00071A2
:1063D8004161DBF80000816C890641BF10BF816C08
:1063E8005FEA816110BF41BF816C5FEA816110BFC4
:1063F800816C48BF5FEA816101D510BFEBE7D9F82E
:106408000000042825D3002C00F094804EF6057077
:106418000CA9C0F2000044F6D052CDE906010021D3
:1064280008906846059005A8119044F6B050C2F24D
:10643800010010910D90C2F201020098B0FBF4F037
:106448000C900220CDE90E01042112900DA800F055
:1064580049FE019848F21F51C5F2EB11D8F80050D7
:10646800A0F54870A0FB0110E96801F01F01C0F316
:10647800C70291423CD9C608D9F8000004281CD3A9
:10648800012044F61462129005A811900020CDE96D
:106498000F0002200E9044F60460C2F20100C2F21E
:1064A80001020D904EF60570C0F20000042106901E
:1064B80001A805900DA800F015FEE86866F3040031
:1064C800E860D8F800000168002911D410BF0168FD
:1064D800B1F1FF3F0CDD10BF016800295EBF10BF9E
:1064E8000168002904D410BF0168B1F1FF3FEDDC59
:1064F800002C1FBF0098B0FBF4F113B0BDE8000FEB
:1065080018BFF0BD44F6405044F63062C2F20100B4
:10651800C2F20102192106F0F9FEFEDE44F64050EF
:1065280044F62852C2F20100C2F20102192106F013
:10653800EDFEFEDE44F6405044F6C052C2F20100C1
:10654800C2F20102192106F0E1FEFEDED0B502AF6B
:1065580082B000F01EF8044600F011F800F01CF8B4
:1065680040F2000001A9C2F200006A460091FDF75E
:106578006BFCE00708BF00F004F802B0D0BD72B6AB
:10658800704762B67047BFF34F8F7047BFF36F8F86
:106598007047EFF310807047704780B56F46FBF780
:1065A80030FEFEDEFEE77047704748F21400C4F282
:1065B8001F00704748F2FC00C4F21F00704748F201
:1065C800EC20C4F21F00704748F23C10C4F21F00D0
:1065D800704748F27C10C4F21F00704770470020D3
:1065E8000021704720F4805041F4805110437047D7
:1065F800F0B503AF2DE9000B94B08146007D8846C5
:10660800022865D0012840F0028299ED031A31EE84
:10661800000A9FEDDD1AB4EE410A89ED030AF1EE96
:1066280010FAC0F2F4819FEDD91A49F25046C2F22D
:10663800010630EE010A89ED030A3068BFF35F8F67
:1066480068BB56E8000F48B90121BFF35F8F46E8E1
:10665800001232B156E8000F0028F8D00021BFF32D
:106668002F8FBFF35F8FD1B140F23062002041F22B
:106678008831C2F200020123C6E90310C6E90132DB
:10668800C6E905008DF8340002200C96BFF35F8F31
:1066980030600CA8BFF35F8F02F04FFD80E0012847
:1066A80001BF10BF3068BFF35F8F012801BF10BF63
:1066B8003068BFF35F8F01286FD110BF3068BFF318
:1066C8005F8F012869D110BF3068BFF35F8FE6E79D
:1066D80099ED041A31EE000A9FEDAB1AB4EE410AA7
:1066E80089ED040AF1EE10FAC0F291819FEDA71A24
:1066F80049F25046C2F2010630EE010A89ED040A59
:106708003068BFF35F8F68BB56E8000F48B90121B6
:10671800BFF35F8F46E8001232B156E8000F002839
:10672800F8D00021BFF32F8FBFF35F8FD1B140F2B4
:106738003062002041F28831C2F200020123C6E92A
:106748000310C6E90132C6E905008DF834000220BD
:106758000C96BFF35F8F30600CA8BFF35F8F02F019
:10676800ECFC17E1012801BF10BF3068BFF35F8F51
:10677800012801BF10BF3068BFF35F8F012840F0C8
:10678800F18010BF3068BFF35F8F012840F0EA80C6
:1067980010BF3068BFF35F8FE4E7022840F0E48061
:1067A800D8E90001096A99F808508847D8E9001221
:1067B8008DF83F004FF04530CDF83B002A20D269D4
:1067C800ADF838004FF02A10CDE90C0008468DF8D6
:1067D8003A509047042928BF042100291EBF027897
:1067E8008DF83B20012940F01681D8E9000189691C
:1067F8008847052928BF052100291EBF0288ADF852
:106808003020012940F0168131697069F268411A17
:10681800914280F06A81411C56E8052F824204D1DA
:1068280046E80512002AF7D13BE0BFF32F8F316904
:106838007069F268411A914280F05781411C56E80C
:10684800052F824204D146E80512002AF7D128E034
:10685800BFF32F8F31697069F268411A914280F055
:106868004481411C56E8052F824204D146E80512AE
:10687800002AF7D115E0BFF32F8F31697069F268EC
:10688800411A914280F03181411C56E8052F82421D
:1068980004D146E80512002AF7D102E0BFF32F8F92
:1068A800B2E7BFF35F8FF268002A00F02781B0FBE0
:1068B800F2F30DF1300E03FB1202B3680F9C9EE851
:1068C8000051150103EB021243F80580D460C2F8A9
:1068D80008E0C2F804C056E8062F82420AD1BFF386
:1068E8005F8F46E80612002A00F0918056E8062FCE
:1068F8008242F6D0BFF32F8F56E8062F82420AD184
:10690800BFF35F8F46E80612002A00F0808056E841
:10691800062F8242F6D0BFF32F8F56E8062F824209
:1069280009D1BFF35F8F46E80612002A6FD056E8F8
:10693800062F8242F7D0BFF32F8F56E8062F8242E8
:1069480009D1BFF35F8F46E80612002A5FD056E8E8
:10695800062F8242F7D0BFF32F8F56E8062F8242C8
:10696800BDD0C7E7022815D0002840F0D38045F2F3
:10697800581045F28012C2F20100C2F20102282129
:1069880006F0C4FCFEDE00BF6F12833A6F1283BAB2
:10699800BFF32F8FB1693069BFF35F8F884231D25F
:1069A800F168002900F0AA80B0FBF1F202FB1101A6
:1069B800B2680B0102EB0111D3584A688D68D1F80F
:1069C8000B40C97B0E95CDE90C32CDF83B4056E81B
:1069D800042F8242DCD1421CBFF35F8F46E80423B8
:1069E80023B156E8043F8342F8D0D1E70CABDDF879
:1069F8003B6002290DF1040C0DCBCDF80F608CE83B
:106A08000D002CD10020C9F8100089F8140014B02A
:106A1800BDE8000BF0BD427802298DF83C203FF418
:106A2800E4AE827803298DF83D201CBFC0788DF82C
