:0200000460009A
:100000004643464200000156000000000101020084
:1000100000000000000000000000000000000000E0
:1000200000000000000000000000000000000000D0
:1000300000000000000000000000000000000000C0
:1000400000000000010403000000000000000000A8
:100050000000200000000000000000000000000080
:100060000000000000000000000000000000000090
:100070000000000000000000000000000000000080
:10008000EB04180A063204260000000000000000FD
:10009000050404240000000000000000000000002F
:1000A0000000000000000000000000000000000050
:1000B0000604000000000000000000000000000036
:1000C0000000000000000000000000000000000030
:1000D00020041808000000000000000000000000DC
:1000E0000000000000000000000000000000000010
:1000F0000000000000000000000000000000000000
:1001000000000000000000000000000000000000EF
:100110000204180804200000000000000000000095
:1001200000000000000000000000000000000000CF
:10013000600400000000000000000000000000005B
:1001400000000000000000000000000000000000AF
:10015000000000000000000000000000000000009F
:10016000000000000000000000000000000000008F
:10017000000000000000000000000000000000007F
:10018000000000000000000000000000000000006F
:10019000000000000000000000000000000000005F
:1001A000000000000000000000000000000000004F
:1001B000000000000000000000000000000000003F
:1001C000000100000010000001000000000000001D
:1001D000000000000000000000000000000000001F
:1001E000000000000000000000000000000000000F
:1001F00000000000000000000000000000000000FF
:10020000FFFFFFFFFFFFFFFFFFFFFFFFFFFFFFFFFE
:10100000D10020400014006000000000000000003B
:1010100020100060001000600000000000000000D0
:10102000000000606E5E0100000000000D480E49E7
:101030000E4A4FF42A034164026483630C480D494D
:101040000D4A814202D008CA08C0FAE70B480C4991
:101050000C4A0D4B1860814202D038CA38C0FAE7FA
:1010600000F014F800C00A40BFAAAAAA0700200096
:1010700000000000680A0100B8160060003C002073
:10108000B83E00200014006008ED00E043F6E34C99
:10109000C0F2000C6047FFFF2B4B40F6617210B5A9
:1010A000C3F8202140F2044400F088F8274A284978
:1010B000D2F88030274843F00303C2F88030264B33
:1010C000C1F8604102681A4203D1D1F8A8319A07E9
:1010D00018D01F4A4FF000411E4B5963D2F84031DF
:1010E00043F00203C2F84031D2F840319B07FBD4F1
:1010F0004FF0E0214FF40030164B4FF00042C1F8A2
:101100008C029A63134A4FF08040114C0021906387
:101110000A20124B11604FF42072C4F8A80118463F
:1011200000F051F84FF4800103464FF4810040F283
:1011300043121860C4F8583119640123C4F84821D7
:10114000C4F8403110BD00BF00800D4000C00F400A
:1011500000002E4000900D40001C1E00006000208A
:10116000F0B4154A40274FF480314FF480564FF4C5
:1011700000554FF4404443F24200136913F0020F4C
:101180000ED113F4005F0FD013F4805F0ED0002B4C
:10119000F3DA13F4803F0BD15B060BD5F0BC70473C
:1011A000946151619061E8E75561E6E75661E4E7D3
:1011B0009161E2E75761E0E700800D4040F23D5C5D
:1011C000C0F2010C60474FF61F4CC0F2000C6047A4
:1011D00016035500530042002000530065007200C2
:1011E000690061006C000000180354006500650090
:1011F0006E00730079006400750069006E006F0076
:101200000403090409024300020100C0320904007A
:101210000001020201000524001001052401010162
:1012200004240206052406000107058203100010AD
:1012300009040100020A0000000705030240000043
:10124000070584024000000009024300020100C0BB
:10125000320904000001020201000524001001050A
:101260002401010104240206052406000107058269
:101270000310001009040100020A00000007050322
:101280000200020007058402000200000A060002B4
:0612900002000040010015
:10140000008006202D100060894E0000510A010066
:10141000894E0000894E0000894E00000000000047
:10142000000000000000000000000000894E0000E5
:10143000894E000000000000894E00005537000072
:10144000894E0000894E0000894E0000894E000040
:10145000894E0000894E0000894E0000894E000030
:10146000894E0000894E0000894E0000894E000020
:10147000894E0000894E0000894E0000894E000010
:10148000894E0000894E0000894E0000894E000000
:10149000894E0000894E0000894E0000894E0000F0
:1014A000894E0000894E0000894E0000894E0000E0
:1014B000894E0000894E0000894E0000894E0000D0
:1014C000894E0000894E0000894E0000894E0000C0
:1014D000894E0000894E0000894E0000894E0000B0
:1014E000894E0000894E0000894E0000894E0000A0
:1014F000894E0000894E0000894E0000894E000090
:10150000894E0000894E0000894E0000894E00007F
:10151000894E0000894E0000894E0000894E00006F
:10152000894E0000894E0000894E0000894E00005F
:10153000894E0000894E0000894E0000894E00004F
:10154000894E0000894E0000894E0000894E00003F
:10155000894E0000894E0000894E0000894E00002F
:10156000894E0000894E0000894E0000894E00001F
:10157000894E0000894E0000894E0000894E00000F
:10158000894E0000894E0000894E0000894E0000FF
:10159000894E0000894E0000894E0000894E0000EF
:1015A000894E0000894E0000894E0000894E0000DF
:1015B000894E0000894E0000894E0000894E0000CF
:1015C000894E0000894E0000894E0000894E0000BF
:1015D000894E0000894E0000894E0000894E0000AF
:1015E000894E0000894E0000894E0000894E00009F
:1015F000894E0000894E0000894E0000894E00008F
:10160000894E000063030000894E0000894E0000EF
:10161000894E0000894E0000894E0000894E00006E
:10162000894E0000894E0000894E0000894E00005E
:10163000894E0000894E0000894E0000894E00004E
:10164000894E0000894E0000894E0000894E00003E
:10165000894E0000894E0000894E0000894E00002E
:10166000894E0000894E0000894E0000894E00001E
:10167000894E0000894E0000894E0000894E00000E
:10168000894E0000894E0000894E0000894E0000FE
:10169000894E0000894E0000894E0000894E0000EE
:1016A000894E0000894E0000314E0000894E000036
:0816B000894E0000894E000084
:1016B80080B56F4604F041FF46F28C4043F6B861AE
:1016C800C2F20000C2F20001814213D243F6B861AF
:1016D8000022C2F2000141F8042B81423FBF41F8C9
:1016E800042B814241F8042B814203D241F8042B98
:1016F8008142F0D343F6FC2140F20000C2F200011F
:10170800C2F2000088420ED2021D8A4238BF0A4641
:10171800C143114421F003010A1D42F20041C6F2FF
:1017280001010FF0CFFC4EF68850CEF200000168A0
:1017380041F47001016004F0FAFEFEDE7047D4D473
:10174800F0B503AF2DE9000F81B02DED028B8CB001
:101758008246886844F218190290C868C4F20809D9
:1017680001901546D9F800000790D9F8000020F03C
:101778000200C9F8000059F8100C069059F8100C2E
:1017880020F0010049F8100C59F8180C0590D9F808
:1017980000000490D9F8000020F00100C9F800000A
:1017A80059F8081C01200391C9F804004FF0FF30D4
:1017B80049F8080C49F8180CD9F8000040F0040062
:1017C800C9F80000D9F8000040F00100C9F800008D
:1017D80059F8100C40F0010049F8100CD2E9000645
:1017E800D0E9004B90ED020A3046B8EE408A00F08E
:1017F8000BFF40F2B061D5E90280C2F200010B9103
:1018080040F28861C2F200010A90CDE908612046E1
:1018180059460FF083FB9FED431A00EE100A08A902
:10182800404688EE011A31EE008AB0EE480A04F00C
:10183800DEFEB7EE001A286990ED000AB4EE410A00
:10184800F1EE10FA15DD4CF26C0140F26462C4F25C
:101858000A01C2F20002096808239FED330A09074A
:101868004FF0180158BF042151580022C1F88C309C
:10187800026038EE000A80ED000A59F8386C59F811
:10188800345CD9F80400C00725D1DDE9011003F064
:10189800FEFD03F0D2FD4CF60024F643C3F69A345D
:1018A8006143E0FB0421E843A2FB005302FB06323C
:1018B800002301FB00210020CAF804002846224624
:1018C8000FF0B6FB012300FB1452CAF800300AF1EE
:1018D800080307C302E00020CAE90000039849F89A
:1018E800080CD9F80000049961F30000C9F8000059
:1018F800059849F8180C59F8100C069961F300007E
:1019080049F8100CD9F800000799490861F341001B
:10191800C9F800000CB0BDEC028B01B0BDE8000FA7
:10192800F0BD00BF286B6E4E00000000006805F097
:1019380047BB006805F084BB7047B0B502AF88B0FC
:1019480004F0F1FD044604F0E4FD04F0EFFD45F277
:10195800404004F00101C2F200000578002D04BFE8
:1019680001220270002908BF04F0D5FD9DBB05A81F
:1019780003F0EDFA40F2D07100200490C2F20001A9
:101988000598CDE90201002002A9C4F22E0003F057
:10199800E8FAC4B2042C1BD104F0C5FD054604F0D6
:1019A800B8FD04F0C3FD44F20000C2F20000016873
:1019B800E9B900210160012101714EF20C10CEF24B
:1019C80000004FF400310160E80708BF04F0A3FDF0
:1019D800204608B0B0BD40F2747040F2C072C2F246
:1019E8000000C2F200022B210BF0CFF8FEDE40F21D
:1019F800D07040F2A073C2F2000002AA009040F238
:101A08002470C2F20000C2F2000310210BF080F92A
:101A1800FEDEB0B502AF82B004F085FD044604F0E6
:101A280078FD04F083FD44F20005C2F20005286841
:101A3800C8B94FF0FF3004F0010428602879012864
:101A480008D1681D03F0BBFA2868013028602CB162
:101A580002B0B0BD0020002C2860F9D102B0BDE86A
:101A6800B04004F058BD40F2E07040F2A073C2F2FA
:101A7800000001AA009040F22470C2F20000C2F2F5
:101A8800000310210BF044F9FEDE7047F0B503AFF8
:101A98002DE90007ADF5487D8046012041464FF00D
:101AA800010905F0A1F805460020002605F09CF87C
:101AB8008246002005F098F8044602F09EFA0028B5
:101AC80074D005F120014FF48270ADF81C033F205B
:101AD80004F120020424CDE96E100323CDE96A61E4
:101AE800CDE968101AA9CDE97420CDE97206CDE9CF
:101AF8006C06CDE91D0481E84104CDE91650CDE915
:101B08001406CDE91050CDE90E06CDE90A50CDE90D
:101B180008060220059040F20030C0F20220CDE90C
:101B28007A66CDE9039040F20D30C0F20330CDE97A
:101B38007766CDE9019001A8CDE92866CDE925664B
:101B4800CDE92266CDE91F668DF81E337994769427
:101B5800CDE97062CDE96636279424942194CDE9C5
:101B6800186ACDE91265CDE90C65CDE9066502F084
:101B780061FAC0B2052825D104F0D5FC044604F06A
:101B8800C8FC04F0D3FC01A841F23922C0F20002DB
:101B9800014602F028FAE00708BF04F0BCFC012067
:101BA80041460DF5487DBDE80007F0BD40F2F070F4
:101BB80040F66402C2F20000C2F200022B210AF0D1
:101BC800E4FFFEDE8DF8040040F67400C2F2000067
:101BD80040F64803009040F61B0001AAC2F200003C
:101BE800C2F200032B210BF093F8FEDEF0B503AF31
:101BF8002DE9000F97B00DF104080E4681464021EB
:101C080040469A4614460FF014FB3046414606F00B
:101C1800A4FB02460E46C0073ED12046514699F81D
:101C2800005099F801B004F0DFFF044628465946F1
:101C380004F0DAFF311D412938D20022CDF84C805A
:101C48008DF85420202E1491119288BF203404EB73
:101C58008010129004F067FC044604F05AFC04F06B
:101C680065FC16A911AA484602F0B1F9C5B2E00709
:101C780008BF04F050FC40F20312E800C0F2010271
:101C8800E91E22FA00F018BF2946032D08BF0420D8
:101C980017B0BDE8000FF0BD100A110C40EA06604D
:101CA80041EA064117B0BDE8000FF0BD40F68402D6
:101CB8000846C2F2000240210CF04FFFFEDEF0B5EC
:101CC80003AF2DE9000FC1B0044604F02CFC064612
:101CD80004F01FFC04F02AFC15AD01A8294600F009
:101CE8005BFFF00708BF04F016FC0198022874D0C7
:101CF80001A9284650220FF0E5F90DF1A40B05F1D2
:101D08000E01584606F047FBDDE915014FF0000AC1
:101D180000284FF0000008BF01F01F0004F070FF1A
:101D280045F254490546C2F200098846D9F8000030
:101D3800032819D301203BA9379040F6C002CDE90A
:101D4800330A40F6A400C2F20000CDE935A1329072
:101D580041F2B960C0F20000C2F20002CDE93BB026
:101D680032A8032104F0B2FE0DF1C80A0BF10101FB
:101D780023229DF8A46050460FF065F9E8B20328C5
:101D880010D016F001000DD10AF1030120462022DF
:101D98000FF059F984F8218084F8205041B0BDE84B
:101DA800000FF0BDD9F80000B8B1002040F60411CA
:101DB800409040F60412CDE93D0001203C9040F6E9
:101DC800FC00C2F20000C2F200013B903BA83F9128
:101DD800C2F20002012104F079FE204624210FF00E
:101DE80028FA032084F8200041B0BDE8000FF0BDB8
:101DF800704780B56F4600F001F8FEDE80B56F468B
:101E0800ADF5BB6DA3A803F09EFBC198022800F0B6
:101E1800DA830DF10409A3A94FF4227248460FF0A2
:101E280051F904F080FB044604F073FB04F07EFBD8
:101E380004F079FB054604F06CFB04F077FB45F2EF
:101E48004F4805F00100C2F2000898F80060002E23
:101E580004BF012188F80010002808BF04F05BFBCC
:101E6800002E04F0010004BF012188F800100028AA
:101E780008BF04F050FB002E40F0AE8302F0A9FF2B
:101E880004F05CFB02F0C6FFFFF757FDC0B2042860
:101E980040F0AE8309F10808DDE90101424603F08C
:101EA8000DFB054603F006FB044603F005FBA96C91
:101EB80040F67022C0B2C2F2000221F0010140F2E5
:101EC800C463022C08BF0131A96480F00200696C68
:101ED800C2F2000352F8242053F8200021F06301D5
:101EE80011430843012140F480606864686C61F321
:101EF80083006864686C20F080006864A86C40F017
:101F08002000A864686C40F440406864686C40F441
:101F180044706864A86C40F08000A864A86D00074D
:101F28001FBFA86D5FEA0070A86D5FEA007002D05D
:101F3800A86D0007F2D1A86C40F02000A864686C76
:101F480020F440406864686C20F4447000F58870A0
:101F5800686404F0F4FA04694FF0050A6AF30304AC
:101F680004F0EDFA046104F0DEFA044604F0D1FA54
:101F780004F0DCFA4CF2740940F2646BC4F20A090A
:101F8800C2F2000BD9F800002026D9F80010C906C3
:101F98004FF0200158BF0C21C0064FF020005BF81D
:101FA800011058BF0C205BF80000496841F010018F
:101FB8004160E00708BF04F0AEFA04F0C0FA4469D3
:101FC8006AF3030404F0BBFA446104F0ACFA044673
:101FD80004F09FFA04F0AAFAD9F80000D9F8001022
:101FE80089064FF0200158BF0C2180065BF80100DC
:101FF80058BF0C265BF80610406840F02000486087
:10200800E00708BF04F087FA04F099FA84694FF0F2
:10201800050A6AF3030404F092FA846104F083FA6F
:10202800044604F076FA04F081FAD9F80000202674
:10203800D9F8001049064FF0200158BF0C2140067E
:102048005BF801004FF0200158BF0C215BF801102C
:10205800406840F040004860E00708BF04F05BFAC1
:1020680004F06DFA046A6AF3030404F068FA04627F
:1020780004F059FA044604F04CFA04F057FAD9F877
:102088000000D9F80010C9054FF0200158BF0C21F5
:10209800C0055BF8010058BF0C265BF806104068C5
:1020A80040F480704860E00708BF04F034FA04F098
:1020B80055FA846A4FF0050A6AF3030404F04EFAED
:1020C800846204F030FA044604F023FA04F02EFA8D
:1020D80059F8080C182659F8081C49054FF018013A
:1020E80058BF042140055BF801004FF0180158BFA4
:1020F80004215BF80110406840F480604860E00704
:1021080008BF04F008FA04F02EFA44686AF30304DE
:1021180004F029FA446004F006FA044604F0F9F9D8
:1021280004F004FA59F8080C59F8081C89034FF010
:10213800180158BF042180035BF8010058BF04262A
:102148005BF80610406840F400304860E00708BFBC
:1021580004F0E1F904F007FA04684FF0050A6AF39D
:10216800030404F000FA046004F0DDF9044604F006
:10217800D0F904F0DBF959F8080C182259F8081CB2
:10218800C90358BF0422C0034FF018015BF80200CE
:1021980058BF04215BF80110406840F48030486063
:1021A800E00708BF04F0B7F904F0CEF9446A6AF30F
:1021B800030404F0C9F9446204F0DBF900224FF08B
:1021C800000904F0D9F904460E4604F0C2F9406A41
:1021D800B043044304F0BDF9446204F0B5F9046A5D
:1021E8006AF3030404F0B0F9046204F0C2F90022AF
:1021F80004F0C2F904460E4604F0ABF9006AB04395
:10220800044304F0A6F9046204F09EF944696AF3F1
:10221800030404F099F9446104F0ABF9002204F0D6
:10222800ABF904460E4604F094F94069B043044300
:1022380004F08FF9446104F087F904696AF3030430
:1022480004F082F9046104F094F9002204F094F98E
:1022580004460E4604F07DF90069B043044304F0D7
:1022680078F9046104F070F9C46A6AF3030404F0AD
:102278006BF9C46204F07DF9002204F07DF904468C
:102288000E4604F066F9C06AB043044304F061F9ED
:10229800C46204F059F9846A6AF3030404F054F937
:1022A800846204F066F9002204F066F904460E46DA
:1022B80004F04FF9806AB043044304F04AF9846299
:1022C80004F042F904686AF3030404F03DF9046079
:1022D80004F04FF9002204F04FF904460E4604F0CA
:1022E80038F90068B043044304F033F9046004F09B
:1022F8002BF944686AF3030404F026F9446004F0F7
:1023080038F9002204F038F904460E4604F021F9A1
:102318004068B043044304F01CF9446004F014F925
:1023280084696AF3030404F00FF9846104F021F965
:10233800002204F021F904460E4604F00AF98069E7
:10234800B043044304F005F9846104F0FDF8C4695E
:102358006AF3030404F0F8F8C46104F00AF90022EF
:1023680004F00AF904460E4604F0F3F8C069B043D5
:10237800044304F0EEF8C46104F0E6F8C4686AF3B4
:10238800030404F0E1F8C46004F0F3F8002204F058
:10239800F3F804460E4604F0DCF8C068B043044382
:1023A80004F0D7F8C46004F0CFF884686AF3030433
:1023B80004F0CAF8846004F0DCF8002204F0DCF8C9
:1023C80004460E4604F0C5F88068B043044304F0A0
:1023D800C0F88460A7F1C00006F0BFF8A7F1C003F9
:1023E800A7F1540CA3ACCDE9B8990FCBCDE9BA99B4
:1023F8008CE80F00A7F1440C8CE80F00A7F1340C0F
:102408008CE80F00A7F1240C8CE80F00A7F1C0039B
:10241800A7F1100C0FCB8CE80E00A7F15401502245
:1024280047F8140C201DCDE9BC99CDF8F892ADF809
:10243800FC92A3950EF046FE8DF802930221CDF88A
:10244800FE92686C61F3830068640020FFF71EFB4E
:1024580007F8C40C40F6DC10C2F20000A7F1C00A6D
:1024680047F8480CA7F1C40047F84C0C40F6B410E4
:10247800C2F20000A7F1540207F8C31C002147E983
:102488001540504604F07EF801A844F2006100F1BE
:102498001403C2F2C3314046424602F0F2FFA7F1EC
:1024A800A4040091414602222046012303F036F895
:1024B8000599A7F15400224603F00EF8A7F154033A
:1024C80044F20816C4F20806A7F1940C0FCB35683D
:1024D80025F0020535608CE80F0045F25440C2F241
:1024E8000000006803281BD340F6102040F61C2289
:1024F800C2F20000C2F2000247F8440C012047F87B
:10250800500C40F60820C2F20000032147F8540C92
:10251800A7F1540047F8409C47E9139904F0D6FA0C
:1025280044F2402047F87C9C47E92199A7F1040828
:10253800A7F1840BA7F18009A7F17006A7F194040D
:10254800A7F15405C0F20F0047F8780C05E0A7F191
:102558006802A7F1800307CA07C3A7F1C400214690
:102568002A4647E911B847E913A0A3A847E91590F7
:102578003046FFF7E5F857F8700C0028E7D145F228
:102588005440C2F2000000680028E6D0002040F65F
:10259800102147F8400C40F6542247E91300012067
:1025A80047F8500C40F64C20C2F20001C2F200007D
:1025B80047F8441C012147F8540C2846C2F200028F
:1025C80004F084FAC9E740F6201040F65812C2F227
:1025D8000000C2F2000207E040F6201040F6681240
:1025E800C2F20000C2F200022B210AF0CEFAFEDE8F
:1025F80040F6781040F6A412C2F20000C2F20002BF
:1026080029210AF0C2FAFEDEF0B503AF2DE9000772
:1026180040F67C224FF0000CC2F200024FF00E0E82
:102628004FF00F084FF005094FF0060A1546002134
:1026380024E05B6A9CB200EE104A00EB0614B8EE88
:10264800400A94ED011A94ED022A94ED033A32EE11
:10265800412A94ED044A00EB4604A4F8683000EBE4
:10266800860330EE410A34EE431A80EE020A00EE89
:10267800013A83ED153A531D9D426AD015F8013B86
:102688000E460131DFE803F00316293C50000368C9
:102698001C68C3F800E003681C6AE407C9D11C6A17
:1026A800E40704BF1C6A5FEAC474C2D11C6AE40769
:1026B800F2D0BEE703681C68C3F800C003681C6A50
:1026C800E407B6D11C6AE40704BF1C6A5FEAC47455
:1026D800AFD11C6AE407F2D0ABE703681C68C3F803
:1026E800008003681C6AE407A3D11C6AE40704BFDE
:1026F8001C6A5FEAC4749CD11C6AE407F2D098E7AC
:1027080003681C68C3F8009003681C6AE40701BFEB
:102718001C6A5FEAC4741C6A5FEAC4747FF489AFF8
:102728001C6AE407F1D084E703681C68C3F800A0BA
:1027380003681C6AE4077FF47CAF1C6AE40704BFE3
:102748001C6A5FEAC4747FF474AF1C6AE407F0D0B3
:102758006FE7BDE80007F0BD5FFA81FC80B56F4602
:10276800DFE80CF0021D39544CF274034FF0200CD2
:10277800C4F20A031B685B0658BF4FF00C0C40F20A
:102788006463C2F2000353F80CC013065CD0402304
:10279800CCF8843050FA81F080F8722080BD4CF279
:1027A80074034FF0200CC4F20A031B68DB0558BF02
:1027B8004FF00C0C40F26463C2F2000353F80CC0F3
:1027C800130649D04FF48073CCF8843050FA81F066
:1027D80080F8722080BD4CF274034FF0200CC4F2D4
:1027E8000A031B68DB0658BF4FF00C0C40F2646309
:1027F800C2F2000353F80CC0130636D01023CCF8ED
:10280800843050FA81F080F8722080BD4CF2740355
:102818004FF0200EC4F20A034FF0200C1B689B06F1
:1028280058BF4FF00C0E40F26463C2F2000353F835
:102838000EE013060CBFCEF888C0CEF884C050FA5C
:1028480081F080F8722080BD4023CCF8883050FA9F
:1028580081F080F8722080BD4FF48073CCF8883006
:1028680050FA81F080F8722080BD1023CCF88830AF
:1028780050FA81F080F8722080BD4CF26C0240F270
:102888006463C4F20A02C2F200031268D2034FF072
:10289800180258BF042253F802C088234FF480322C
:1028A800002918BF84234CF8032080F8761070475D
:1028B800C9B200EB810090ED150A70476830052118
:1028C800704772300421704790F87600704780B5E1
:1028D8006F4692E80850C9B200EB0110D268011D9A
:1028E80081E80850026180BDF0B503AF2DE9000F03
:1028F80091B045F208450C46C2F200052868BFF3BE
:102908005F8F60BB55E8000F48B90121BFF35F8FA7
:1029180045E8001232B155E8000F0028F8D0002130
:10292800BFF32F8FBFF35F8FC9B144F208020020B5
:102938004021C2F200020123C5E90310C5E90132B2
:10294800C5E905008DF8080002200195BFF35F8FE7
:10295800286001A8BFF35F8F06F02EF81BE001285E
:1029680001BF10BF2868BFF35F8F012801BF10BFE8
:102978002868BFF35F8F01280AD110BF2868BFF30A
:102988005F8F012804D110BF2868BFF35F8FE6E787
:10299800022840F0E88094F84E0004F10E010090FF
:1029A80001A84022D4E900B9D4F808A0B4F80C80F2
:1029B8000EF049FB28696C69E968201A884280F0A2
:1029C800A380661C55E8050FA04204D145E80560C0
:1029D8000028F7D139E0BFF32F8F28696C69E968BF
:1029E800201A884280F09080661C55E8050FA042A6
:1029F80004D145E805600028F7D126E0BFF32F8F02
:102A080028696C69E968201A88427DD2661C55E8F5
:102A1800050FA04204D145E805600028F7D114E06D
:102A2800BFF32F8F28696C69E968201A88426BD236
:102A3800661C55E8050FA04204D145E8056000284A
:102A4800F7D102E0BFF32F8FB4E7BFF35F8FE868D9
:102A580000287CD0B4FBF0F101FB1040A96800EB22
:102A68008000020141F802B001EB001B0BF10E00DF
:102A780001A94022ABF80C80CBE9019A0EF0E3FAE9
:102A880000988BF84E0055E8060FA04208D1BFF316
:102A98005F8F45E80660B8B355E8060FA042F8D046
:102AA800BFF32F8F55E8060FA04208D1BFF35F8F01
:102AB80045E8066040B355E8060FA042F8D0BFF3DA
:102AC8002F8F55E8060FA04208D1BFF35F8F45E866
:102AD8000660C8B155E8060FA042F8D0BFF32F8FA3
:102AE80055E8060FA04208D1BFF35F8F45E806609E
:102AF80050B155E8060FA042F8D0BFF32F8F55E824
:102B0800060FA042C3D0CBE745F25440C2F2000002
:102B18000068032817D3002040F69421069040F659
:102B2800C422CDE903000120029040F68C20C2F2B5
:102B38000000C2F20001019001A80591C2F2000252
:102B4800032103F0C3FF11B0BDE8000FF0BD40F64C
:102B5800503040F63832C2F20000C2F20002392189
:102B68000AF013F8FEDE58B940F6004040F6284255
:102B7800C2F20000C2F2000228210AF006F8FEDEC6
:102B880040F6893040F6F032C2F20000C2F200028C
:102B9800112109F0FAFFFEDEF0B503AF2DE9000FB1
:102BA800A3B045F208460546C2F200063068BFF3F6
:102BB8005F8F60BB56E8000F48B90121BFF35F8FF4
:102BC80046E8001232B156E8000F0028F8D000217C
:102BD800BFF32F8FBFF35F8FC9B144F20802002003
:102BE8004021C2F200020123C6E90310C6E90132FE
:102BF800C6E905008DF8500002201396BFF35F8FD9
:102C0800306013A8BFF35F8F05F0D6FE1AE00128E5
:102C180001BF10BF3068BFF35F8F012801BF10BF2D
:102C28003068BFF35F8F01280AD110BF3068BFF347
:102C38005F8F012804D110BF3068BFF35F8FE6E7CC
:102C4800022877D1B0693469BFF35F8F844247D2D5
:102C58000DF14C0B07E0BFF32F8FB0693469BFF358
:102C68005F8F84423CD2F068002857D0B4FBF0F163
:102C780001FB1040B16800EB800001EB0018020175
:102C880051F8029008F10E01D8F804000290402291
:102C9800D8F8080001905846B8F80CA00EF0D3F9FF
:102CA80098F84E8056E8040FA042D4D1601CBFF3B8
:102CB8005F8F46E8040121B156E8041FA142F8D00D
:102CC800C9E7BBE85E0003A8AC46B9F1020F5EC0D5
:102CD800BBE85E005EC09BE87E007EC0654609D109
:102CE800281D4C210EF0A5FA0220286023B0BDE86B
:102CF800000FF0BD029803A9686040220198A860FF
:102D080005F10E00A5F80CA0C5F800900EF09BF98F
:102D180085F84E8023B0BDE8000FF0BD40F6503076
:102D280040F63832C2F20000C2F20002392109F03E
:102D38002CFFFEDE58B940F6004040F62842C2F2A9
:102D48000000C2F20002282109F01FFFFEDE40F653
:102D5800893040F6F032C2F20000C2F200021121BE
:102D680009F013FFFEDE7047B0B502AF84B0044629
:102D7800007801280FD140F638426D46C2F20002B1
:102D8800284603230BF04FFD40F63C42601C03909D
:102D9800C2F200020EE040F64C426D46C2F200025A
:102DA800284602230BF03FFD40F65042201DC2F298
:102DB8000002039003A928460AF0C4F928460AF03D
:102DC80031FA04B0B0BDB0B502AFC2684AF6AB2C58
:102DD800CAF6AA2CFAB1D0E900E3A3EB0E04A4FBCF
:102DE8000C450024C460541EB4EBD50F0DD2856881
:102DF8002A44826004EB44020EEB82020C329D1AD4
:102E0800A5FB0C54B1EBD40F0DD3002200210360B5
:102E180008461146B0BDD0E900239D1AA5FB0C5405
:102E2800B1EBD40FF1D201EB4105836802EB8502C7
:102E3800194402F10C054B1C0560836008461146D5
:102E4800B0BDD0B502AFC16859B9D0E900129142FE
:102E580024D0826801F10C030360531C8360104680
:102E6800D0BDD0E900C24AF6AB23CAF6AA234C1E4D
:102E7800A2EB0C0EAEFB033E0023C360B4EBDE0FE7
:102E88000BD283681944816004EB44010CEB810187
:102E98000C3101609142DCD100E002600021002089
:102EA800D0BDD1E900234FF0010CC9689A1A4AF63F
:102EB800AB23CAF6AA23A2FB0323C1EBD302DB0888
:102EC8008B4238BF0022C0E9002C82607047D0B521
:102ED80002AFC2688A421DD9D0E900CE4AF6AB24B7
:102EE800CAF6AA24AEEB0C03A3FB0434CB431A4462
:102EF800C260B1EBD40F26D201EB410283681944BA
:102F08000CEB820202F10C044B1C0460836008463F
:102F18001146D0BDCAB1D0E900C34AF6AB24CAF6FF
:102F2800AA24A3EB0C01A1FB0414511EB1EBD40F8E
:102F380010D201EB410183680CEB81011A440C317A
:102F48008260016007E0C0F800E000210022084626
:102F58001146D0BD03600021C16000220846114619
:102F6800D0BD0246C06868B1D2E900130138D0600C
:102F780099421FBF906801F10C031360431C1CBFEA
:102F880093607047002000217047CA688AB1D1E970
:102F98000031C91A4AF6AB23CAF6AA23A1FB0313C8
:102FA800B2EBD30F28BFDA0801218260C0E9002103
:102FB8007047002201218260C0E9002170477047F4
:102FC800F0B503AF2DE9000BE1B3C3688C46D0F828
:102FD80004E0002B4ED10368CCF100080021AEEBD1
:102FE8000302B2B3846803F10C0608EB010506601E
:102FF800013484606C1C1FD0B64529D0846803F165
:103008001806066001348460AC1C15D0B64525D07E
:10301800846803F12406066001348460EC1C0BD03C
:10302800B64521D0846830330431303A01348460A5
:1030380018EB01040360D4D1002361461846BDE8AB
:10304800000BF0BD002100231846BDE8000BF0BDC1
:10305800013101231846BDE8000BF0BD0231012300
:103068001846BDE8000BF0BD033101231846BDE842
:10307800000BF0BD4AF6AB240022CAF6AA240021B0
:1030880063B903687345E4D085680C330131036084
:103098006B1C836000238C45F2D116E0D0F80090B9
:1030A800C260AEEB0906A6FB04685E1EB6EBD80F3D
:1030B80010D285682B44836006EB460309EB830333
:1030C8000C3303607345DFD1C3E761461846BDE89A
:1030D800000BF0BDC0F800E001231846BDE8000B66
:1030E800F0BDD0B502AFD1B18E46C168D0F804C0EA
:1030F8004B1E00215A1C1EBFC360026862450CD0DB
:1031080001318468013B0C328E45026004F10102F2
:103118008260EFD100207146D0BD0120D0BD0021D2
:103128000020D0BDF0B503AF4DF804BDE0B00446B3
:1031380008681546DFE810F004005C01E0002F0184
:103148006E46043130464FF4C0720DF0BBFF204686
:103158002946324600F0E0F9691C06F10C022046C7
:1031680000F0DAF9A91C06F11802204600F0D4F99B
:10317800E91C06F12402204600F0CEF9291D06F1CB
:103188003002204600F0C8F9691D06F13C022046CD
:1031980000F0C2F9A91D06F14802204600F0BCF96A
:1031A800E91D06F15402204600F0B6F905F10801C0
:1031B80006F16002204600F0AFF905F1090106F1B9
:1031C8006C02204600F0A8F905F10A0106F1780220
:1031D800204600F0A1F905F10B0106F18402204612
:1031E80000F09AF905F10C0106F19002204600F072
:1031F80093F905F10D0106F19C02204600F08CF9C7
:1032080005F10E0106F1A802204600F085F905F146
:103218000F0106F1B402204600F07EF905F1100115
:1032280006F1C002204600F077F905F1110106F118
:10323800CC02204600F070F905F1120106F1D8021F
:10324800204600F069F905F1130106F1E402204671
:1032580000F062F905F1140106F1F002204600F0D1
:103268005BF905F1150106F1FC02204600F054F95E
:1032780005F1160106F58472204600F04DF905F1B6
:10328800170106F58A72204600F046F905F1180183
:1032980006F59072204600F03FF905F1190106F590
:1032A8009672204600F038F905F11A0106F59C726D
:1032B800204600F031F905F11B0106F5A2722046FF
:1032C80000F02AF905F11C0106F5A872204600F065
:1032D80023F905F11D0106F5AE72204600F01CF930
:1032E80005F11E0106F5B472204600F015F905F146
:1032F8001F0106F5BA7208E16E4604313046902285
:103308000DF0E0FE20462946324600F005F9691C1A
:1033180006F10C02204600F0FFF8A91C06F118027D
:10332800204600F0F9F8E91C06F12402204600F0D6
:10333800F3F8291D06F13002204600F0EDF8691D6A
:1033480006F13C02204600F0E7F8A91D06F1480204
:10335800204600F0E1F8E91D06F15402204600F08D
:10336800DBF805F1080106F16002204600F0D4F808
:1033780005F1090106F16C02204600F0CDF805F1CF
:103388000A0106F17802204600F0C6F805F10B01A3
:1033980006F18402B9E06E460431304654220DF03D
:1033A80091FE20462946324600F0B6F8691C06F11F
:1033B8000C02204600F0B0F8A91C06F118022046BD
:1033C80000F0AAF8E91C06F12402204600F0A4F84F
:1033D800291D06F13002204600F09EF8691D06F10D
:1033E8003C02204600F098F8A91D06F148028CE03E
:1033F8006E4604313046FC220DF064FE2046294614
:10340800324600F089F8691C06F10C02204600F0EB
:1034180083F8A91C06F11802204600F07DF8E91C83
:1034280006F12402204600F077F8291D06F1300243
:10343800204600F071F8691D06F13C02204600F0B4
:103448006BF8A91D06F14802204600F065F8E91D51
:1034580006F15402204600F05FF805F1080106F174
:103468006002204600F058F805F1090106F16C02E7
:10347800204600F051F805F10A0106F178022046CD
:1034880000F04AF805F10B0106F18402204600F02D
:1034980043F805F10C0106F19002204600F03CF8D3
:1034A80005F10D0106F19C02204600F035F805F102
:1034B8000E0106F1A802204600F02EF805F10F01D2
:1034C80006F1B402204600F027F805F1100106F1D4
:1034D800C002204600F020F805F1110106F1CC02E7
:1034E800204600F019F805F1120106F1D80220462D
:1034F80000F012F805F1130106F1E402204600F08D
:103508000BF805F1140106F1F002204600F004F86A
:1035180060B05DF804BBF0BDF0B503AF2DE9000F56
:1035280081B0D2F80080054691460C46A8F1020009
:10353800032828BF0120002800F0528140F2347689
:103548000128C2F200060DD1686956F82010A14280
:1035580015D9DFE800F002262D344FEA041C202C90
:1035680033D26AE0686956F82010A14210D9DFE822
:1035780000F002383E442001202C44D2F2E0601AC8
:10358800D5F89811DFE801F0024C4F52000150E0E5
:10359800601AD5F89811DFE801F002D7DADD0001EA
:1035A800DBE004EB44004FEAC00C202C0DD244E0D1
:1035B80004EB84004FEAC00C202C06D23DE004EB5B
:1035C800C4004FEAC00C202C37D3402C3ED22968C7
:1035D80004F01F00012202FA00F0C86229682431B1
:1035E80031E004EB4400C000202C0CD2BAE004EB1C
:1035F8008400C000202C06D2B4E004EBC400C00054
:10360800202CC0F0AF80402C80F0B6802A6804F0EF
:103618001F01012303FA01F1D1622A682432A7E0CD
:1036280000EB400004E000EB800001E000EBC0008C
:10363800C00000F5007C202CC7D229680120A040DA
:103648000863296828310A681043086048F2800E28
:103658000020C4F21D0E0CEB0E0B5B4643F8080B62
:103668006969D5F8982156F82160A64288BF0A46AC
:1036780040F254710026C2F2000151F822100022D3
:103688000EE08A423EBF985012F104028A4211D2DB
:103698009850043238BF8A420CD298500132012621
:1036A800F60701D0033205D28A423CBF985012F186
:1036B8000402E6D3D9F8040040F2000AC1F6FC7A05
:1036C800B8F1010F0AEA804108BF20F060414FF0CD
:1036D8008060CBF8041008BF4FF084604EF80C00EF
:1036E8002868016841F0A041016028680168C901A3
:1036F8005FBF01685FEAC11101685FEAC11102D4C6
:103708000168C901F2D5214600F028FAD9F8081055
:10371800B8F1010F0AEA814208BF21F06042026055
:103728002868016821F08051016028680168C90192
:1037380041BF01685FEAC11101685FEAC1114FD555
:103748000168C901F2D44BE000EB400004E000EB53
:10375800800001E000EBC000C00000F50070202CE4
:10376800BFF451AF2A680121A14011632A682832A9
:10377800136823EA0101116048F280014FF00062EA
:10378800C4F21D0142504218002050600832696995
:10379800D5F8983156F82160A64288BF0B4640F20A
:1037A80054710026C2F2000151F8231000230CE0E6
:1037B800D050043338BF8B4212D2D050043338BFB4
:1037C8008B420DD2D05001330126F60701D00333C6
:1037D80006D28B4204D2D050043338BF8B42E7D391
:1037E8003F2C9FBF99E8070004EB440305EB8303D4
:1037F80003F548739FBF07C301B0BDE8000FF0BDD4
:1038080040F6E4422046C2F20002402109F0D5F910
:10381800FEDEF0B503AF2DE9000B8EB040F20002DA
:1038280040F25473C2F20002C2F2000356690190DA
:10383800C06853F826100092029088420AD9D2F83C
:10384800985153F82550A84204D901200EB0BDE87C
:10385800000BF0BDD2F8984140F23475C2F2000571
:103868004FF0000955F8266002F5C46553F8244066
:1038780002F5487207AB4028CDF8149004950392DE
:1038880006960A9683E8240228BF40200B1AA4EB68
:10389800000609D4002E07D540F6F44003ADC2F265
:1038A80000004FF000083AE040F61C6007ADC2F295
:1038B8000000B3F1FF3F07DCB6F1FF3F04DD4FF036
:1038C80000094FF000082AE0A1420BD20021B6F10E
:1038D800FF3FDCBF0D46084640F6F441C2F2000146
:1038E80003AA11E040F6F44003ADC2F200008C4296
:1038F8000FD20021B3F1FF3FDCBF0D46084640F66A
:103908001C6107AAC2F20001A9468046084615466E
:1039180005E040F61C680DF11C09C2F20008C468F5
:103928000BAE02A968460D9101A90C910B9028468F
:10393800A04749B10A6803463046194600F020F806
:10394800C0B20328F3D111E0B9F1000F13D0D8F8B1
:103958000C400BAD4846A04769B10A6803462846A3
:10396800194600F00DF8C0B20328F3D103200EB0B9
:10397800BDE8000BF0BD00200EB0BDE8000BF0BDA7
:10398800F0B503AF2DE9000F81B0042A42D1834678
:1039980000680C46DBE90165D5F80080016840F253
:1039A8003470C2F200004A6950F822303068A342ED
:1039B80005D9DFE802F002140D1826011FE0E21A0B
:1039C800D1F89831DFE803F002130816120114E069
:1039D80004EB8402D60012E002EB82020CE004EB56
:1039E8004402D6000BE004EBC402D60007E002EB69
:1039F800420201E002EBC202D20002F5007648F270
:103A08008009C4F21D0956F8092002F07063B3F169
:103A1800406F04D1002001B0BDE8000FF0BD1F2C9D
:103A280003D809682346303105E03F2C07D80968D8
:103A380004F01F032C31012505FA03F30B6008215C
:103A480061F31B6249F806200022D0E900A1C1F603
:103A5800FC72057C02EA8143BAF1010F08BF21F02C
:103A68006043002D1CBF417C43EA4173D0E9021238
:103A780009EB060043603046434601F0BEF8B8F152
:103A8800090F01D2404622E0B8F10D0F01D20920FA
:103A98001DE0B8F1110F01D20A2018E0B8F1150F96
:103AA80001D20B2013E0B8F1190F01D20C200EE05F
:103AB800B8F1210F01D20D2009E0B8F1310F01D280
:103AC8000E2004E00820B8F1410F38BF0F204FF056
:103AD8004C41BAF1000F1CBF0021CCF66041202CEC
:103AE80060F3134149F806104FF00101DBF80000BC
:103AF8000068006816D2A140026B0A40012A01BF83
:103B0800026B0A40012A026B04BF0A40012A03D152
:103B1800026B0A40012AEFD00163032001B0BDE81F
:103B2800000FF0BD04F01F029140C26A0A40012A4A
:103B38000BD1C26A0A40012A07D1C26A0A40012A87
:103B480002BFC26A0A40012AEFD03F2C98BFC16267
:103B5800032001B0BDE8000FF0BDD4D43F2900F226
:103B68004280DFE811F040004300460049004C0065
:103B78004F005200550058005B005E006100640071
:103B880067006A006D0070007300760079007C00A1
:103B98007F008200850088008B008E0091009400D1
:103BA80097009A009D00A000A300A600A900AC0001
:103BB800AF00B200B500B800BB00BE00C100C40031
:103BC800C700CA00CD00D000D300D600D900DC0061
:103BD800DF00E200E500E800EB00EE00F100F40091
:103BE800F700FA00FD0000F50860704700F6840051
:103BF800704700F68800704700F68C00704700F5A3
:103C08000960704700F69400704700F69800704706
:103C180000F69C00704700F50A60704700F6A400A3
:103C2800704700F6A800704700F6AC00704700F532
:103C38000B60704700F6B400704700F6B800704794
:103C480000F6BC00704700F50C60704700F6C40031
:103C5800704700F6C800704700F6CC00704700F5C2
:103C68000D60704700F6D400704700F6D800704722
:103C780000F6DC00704700F50E60704700F6E400BF
:103C8800704700F6E800704700F6EC00704700F552
:103C98000F60704700F6F400704700F6F8007047B0
:103CA80000F6FC00704700F51060704700F604103D
:103CB800704700F60810704700F60C10704700F5C2
:103CC8001160704700F61410704700F6181070471E
:103CD80000F61C10704700F51260704700F62410BB
:103CE800704700F62810704700F62C10704700F552
:103CF8001360704700F63410704700F638107047AC
:103D080000F63C10704700F51460704700F6441048
:103D1800704700F64810704700F64C10704700F5E1
:103D28001560704700F65410704700F65810704739
:103D380000F65C10704700F51660704700F66410D6
:103D4800704700F66810704700F66C10704700F571
:103D58001760704700F67410704700F678107047C7
:103D680000F67C107047D4D4F0B503AF2DE9000FEE
:103D7800B3B04369042B00F0268101684FF00109B4
:103D88004FF0000B0E6B0C96CE6A0B968E6A0E9651
:103D980040F23476496AC2F200060D91D0F89811C3
:103DA8000A9056F8230056F8211008441FA90E312E
:103DB80006911168002205910021089200220992BB
:103DC80007900BEBCB020BEB8B0352425B42A1EB50
:103DD8000B1EABEB8B01DC46D200C900DB0058455B
:103DE80088BF8446DC4500F0E7800BF03F05483A81
:103DF800C5F12004B5F1200609FA05FAA3F1280354
:103E080029FA04F8A1F1180158BF09FA06F80D9823
:103E180058BF4FF0000AAEF1100E08EA00060E98DF
:103E28000BF1010B00EA0A003043DBD00B980C9C25
:103E380000EA08000AEA04063043D3D00A9840F2A0
:103E48003475C2F20005ABF10104466955F826C085
:103E5800644508D2DFE806F0022913176FF00F0057
:103E6800A0EB0E012CE0D0F89861DFE806F0022202
:103E780010170EEB0C106FF00F01081A1EE06FF010
:103E88002700C11A1CE06FF04700811A18E00CEBFC
:103E98008C004042C3EBC00028380FE00CEBCC008C
:103EA8004042C2EBC000483808E06FF01700411AE2
:103EB80006E0ACEB8C00C1EBC000183800F50071CF
:103EC80048F28000C4F21D000D5805F03060B0F1D2
:103ED800007F66D148F28000C4F21D004218C5F385
:103EE80003405668A0F10902072A06D240F6AC70D2
:103EF800C2F2000050F8222009E048F63962C3F601
:103F0800E302A0FB02235A0802EBC202821A1FA88E
:103F1800049505F40015039200F0A5FE0A9826F012
:103F28006042002D016808BFC6F38A42019218BF9B
:103F3800012502951F2C8A6801D8303104E03F2CF6
:103F480005D804F01F042C3109FA04F20A601FAAEC
:103F58000DF13C0EB2E84B10AEE84B105BCAAEE870
:103F68005B0092E87B008EE87B000A98D0F8206618
:103F78000498B6B1C0F34074ADF8880003980FA94F
:103F8800219040220198209002981F9006980DF0E9
:103F98005AF800201FA98DF8CB0005988DF8CA4063
:103FA800B0470898002140EA0A000890099840EABA
:103FB80008000990079804E70A99089A08680263B4
:103FC80008680999C16233B0BDE8000FF0BD40F23E
:103FD8000000C2F20000406904281CBF1046FFF729
:103FE80018BC0220704740F20000C2F2000041698C
:103FF800042918BFC0F820267047B0B502AF02F0F8
:1040080092FA044602F085FA02F090FA45F224404A
:1040180004F00101C2F2000005782A0604BF01225B
:104028000270002908BF02F076FAE8B2B0FA80F010
:104038004009B0BDF0B503AF2DE9000FADF6840D12
:10404800369002F070FA00F0010402F062FA02F011
:104058006DFA45F24B40C2F200000578002D04BF0E
:1040680001210170002C08BF02F055FA002D40F024
:10407800B8850DF1DC0A36990AF58A600F900AF2C4
:104088005C4010900AF58D6011900AF2744012900D
:104098000AF5906013900AF28C4014900AF5936028
:1040A80015900AF2A44016900AF5966017900AF245
:1040B800BC4018900AF5996019900AF2D4401A90F9
:1040C8000AF59C601B900AF2EC401C900AF59F6070
:1040D8001D900AF204501E900AF5A2601F900AF281
:1040E8001C5020900AF5A56021900AF234502290C5
:1040F8000AF5A86023900AF24C5024900AF5AB60A8
:1041080025900AF2645026900AF5AE6027900AF2CC
:104118007C5028900AF5B16029900AF294502A90B0
:104128000AF5B4602B900AF2AC502C900AF5B760EF
:104138002D900AF2C4502E900AF5BA602F900AF218
:10414800DC5030900AF5BD6031900AF2F45032909C
:104158000AF5C06033900AF20C6034900AF5C36027
:1041680035900AF104004FF447720AF581690AF2A2
:1041780014480AF584660AF22C440AF5876B0AF299
:1041880044450CF09FFF48F200020020C4F21D02D3
:10419800022137920F9ACDF8E014CDF8D414C2E971
:1041A8000000109ACDF8C814CDF8BC14C2E900007C
:1041B800119ACDF8B014CDF8A414C2E90000129AEF
:1041C800CDF89814CDF88C14C2E90000139ACDF8F4
:1041D8008014CDF87414C2E90000149ACDF868145C
:1041E800CDF85C14C2E90000159ACDF85014CDF84A
:1041F8004414C2E90000169ACDF83814CDF82C14EE
:10420800C2E90000179ACDF82014CDF81414C2E9B9
:104218000000189ACDF80814FF91C2E90000199A15
:10422800CDF8EC14CDF8F814C2E900001A9ACDF8CC
:104238000415CDF81015C2E900001B9ACDF81C151D
:10424800CDF82815C2E900001C9ACDF83415CDF830
:104258004015C2E900001D9ACDF84C15CDF8581547
:10426800C2E900001E9ACDF86415CDF87015C2E9B0
:1042780000001F9ACDF87C15CDF88815C2E900001A
:10428800209ACDF89415CDF8A015C2E90000219A1E
:10429800CDF8AC15CDF8B815C2E90000229ACDF8D2
:1042A800C415CDF8D015C2E90000239ACDF8DC1565
:1042B800CDF8E815C2E90000249ACDF8F415CDF838
:1042C8000016C2E90000259ACDF80C16CDF818168C
:1042D800C2E90000269ACDF82416CDF83016C2E9B6
:1042E8000000279ACDF83C16CDF84816C2E9000020
:1042F800289ACDF85416CDF86016C2E90000299A1C
:10430800CDF86C16CDF87816C2E900002A9ACDF8D7
:104318008416CDF89016C2E900002B9ACDF89C16A9
:10432800CDF8A816C2E900002C9ACDF8B416CDF83D
:10433800C016C2E900002D9ACDF8CC16CDF8D816D3
:10434800C2E900002E9ACDF8E416CDF8F016C2E9BD
:1043580000002F9A3599CDF8DC04C2E90000309AA4
:10436800CDF8D804CDF8D004C2E90000319ACDF8D0
:10437800CC04CDF8C404C2E90000329ACDF8C004D8
:10438800CDF8B804C2E90000339ACDF8B404CDF8EA
:10439800AC04C2E90000349ACDF8A804CDF8A00412
:1043A800C2E900004FF48072CDF89C04CDF8940463
:1043B800CDF89004CDF88804CDF88404CDF87C04B9
:1043C800CDF87804CDF87004CDF86C04CDF8640409
:1043D800CDF86004CDF85804CDF85404CDF84C0459
:1043E800CDF84804CDF84004CDF83C04CDF83404A9
:1043F800CDF83004CDF82804CDF82404CDF81C04F9
:10440800CDF81804CDF81004CDF80C04CDF8040448
:10441800CDF80004C9E90000C8E90000C6E90000B9
:10442800C4E90000CBE90000C5E90000C1E90000CB
:10443800CDF8FC064CF22000C4F20F0001689DF88C
:10444800F83321F47F71DFE803F0040404100D044D
:104458000F0441F400710022DFE803F00A0C0E0F8C
:1044680004040F0F042208E000221143002204E094
:10447800242202E0102200E00C2211430160816C2A
:10448800192241F440518164416E41F470714166D2
:1044980048F2A400C4F21F00016862F3040101603D
:1044A800D0F8F01141F2B001C0F8F011D0F8E836B8
:1044B80023F00303C0F8E836436862F3040343605B
:1044C800D0F8F421C0F8F4113798016821F00041C0
:1044D800016037980168C90241BF01685FEAC121DC
:1044E80001685FEAC12102D50168C902F2D40168F6
:1044F80021F48021016037980168C90241BF016831
:104508005FEAC12101685FEAC12102D50168C902D9
:10451800F2D4016841F0007101603798016889019F
:1045280041BF01685FEA811101685FEA811106D520
:1045380001688901F2D402E00168C90109D401685F
:10454800C9015FBF01685FEAC11101685FEAC11173
:10455800F2D54DF680720168CFF65772114042F2DB
:104568003F02C0F2280211430160002137984160E0
:1045780041F20001C0F2B20141630021FFF7EEFAF7
:104588006FF040450124056037982146FFF7E6FAA9
:1045980001340560402CF7D137980021002600F13E
:1045A800900200F18004016100F5806E416100F520
:1045B8008268816100F58469816400F5866581629D
:1045C80000F5886B416200F58A630163C162369227
:1045D80000F1A002359200F1B002349200F1C0025D
:1045E800339200F1D002329200F1E002319200F1F0
:1045F800F002309200F580722F9200F588722E92A8
:1046080000F590722D9200F598722C9200F5A07228
:104618002B9200F5A8722A9200F5B072299200F543
:10462800B872289200F5C072279200F5C8722692D7
:1046380000F5D072259200F5D872249200F5E07248
:10464800239200F5E872229200F5F072219200F5AB
:10465800F872209200F500721F9200F504721E9203
:1046680000F508721D9200F50C721C9200F510728C
:104678001B9200F514721A9200F51872199200F53F
:104688001C72189200F52072179200F52472169287
:1046980000F52872159200F52C72149200F530720C
:1046A800139200F53472129200F53872119200F5E7
:1046B8003C72109200F540720F9200F544720E920F
:1046C80000F548720D9200F54C720C9200F550728C
:1046D8000B9200F554720A9200F55872099200F58F
:1046E8005C72089200F56072079200F56472069297
:1046F80000F56872059200F56C72049200F570720C
:10470800039200F57472029200F57872019200F536
:104718007C72009204E0013611603F2E00F0A48004
:10472800A6F1010C2246BCF13D0FF4D8DFE80CF0ED
:104738001F21232527292B2D2F31333537393B3D91
:104748003F41434547494B4D4F51535557595B5D81
:104758005F61636567696B6D6F71737577797B7D71
:104768007F81838587898B8D8F9193959799369AC9
:10477800D1E7359ACFE7349ACDE7339ACBE7329A27
:10478800C9E7319AC7E7309AC5E72F9AC3E72E9A47
:10479800C1E72D9ABFE72C9ABDE72B9ABBE72A9A67
:1047A800B9E7299AB7E7289AB5E7279AB3E7269A87
:1047B800B1E7259AAFE7249AADE7239AABE7229AA7
:1047C800A9E7219AA7E7209AA5E71F9AA3E71E9AC7
:1047D800A1E71D9A9FE71C9A9DE71B9A9BE71A9AE7
:1047E80099E7199A97E7189A95E7179A93E7169A07
:1047F80091E7159A8FE7149A8DE7139A8BE7129A27
:1048080089E7119A87E7109A85E70F9A83E70E9A46
:1048180081E70D9A7FE70C9A7DE70B9A7BE70A9A66
:1048280079E7099A77E7089A75E7079A73E7069A86
:1048380071E7059A6FE7049A6DE7039A6BE7029AA6
:1048480069E7019A67E7009A65E7724663E74246B7
:1048580061E74A465FE72A465DE75A465BE71A463C
:1048680059E70021C0F86014416841F2280240F27B
:10487800E4660125914341600168C2F200063C9A52
:104888009D9B56F8222040F23476C2F2000656F874
:1048980023301A444EF68073CDF6B07302F07F02CF
:1048A8001940114401F544310160DDE937049DF8F0
:1048B800E7B09DF8E6C09DF8E410BBF1010F9DF844
:1048C800E560036843F0A043036098BFAB46012E40
:1048D80098BF2E46012988BF0D460AF5CC7136913E
:1048E8000AF1140135910368DB015FBF01685FEAD3
:1048F800C11101685FEAC11102D40168C901F2D58A
:10490800DDF8DCE0012C4FF0010398BF1C4640F2B3
:10491800FF3A544528BF54463F2D28BF3F254FF640
:10492800004ADEF85020CFF6FF7A0AEB85221F2EC8
:10493800C2EA44524FF01F0428BF26466FF01F05F5
:10494800BCF1010F88BF634605EB46151F2B28BF36
:10495800234605F47875013B2A4403F01F03BBF195
:104968001F0F1A4440F20003CFF6FF7338BF5C46AE
:1049780003EB044303F4F8131A4402F1C04202F1B2
:10498800FF5242F00042CEF85020026822F08052D6
:1049980002600268D20141BF01685FEAC111016883
:1049A8005FEAC11102D50168C901F2D4DDF8E8A0B7
:1049B80001229DF8EF6040F2FF30BAF1010F9DF837
:1049C800EE309DF8ED509DF8EC4098BF9246824538
:1049D80028BF8246012E98BF16461F2E4FF01F0093
:1049E80028BF0646012B98BF13461F2B28BF034636
:1049F800012D98BF15461F2D9DF8F9E328BF0546E0
:104A0800012C98BF14463F2C28BF3F24BEF1000F4D
:104A18000DD09DF8FAC3BCF1010F88BF62461F2A6A
:104A280038BF10464FF4F85202EA002101E04FF473
:104A3800807103F10709379B06F1070B05F1070C95
:104A48001F34186840F0A04018601868C0015FBFA4
:104A580018685FEAC01018685FEAC01002D41868C6
:104A6800C001F2D500263798C3F6F07606EB0A5552
:104A780035400CF0070664F38E25D0F8042C45EA7F
:104A8800461609F007052E440BF0070548F21838BA
:104A9800BEF1000FCCF2080846EA054602EA080211
:104AA8004FF080253244C0F8042C026842F40062BA
:104AB800026037983C9A9D9E08BF4FF000452944F4
:104AC80046F2FF05D0F8004CC7F6E47525402943A7
:104AD80041EA024141EAC641C0F8001C186820F0CA
:104AE800805018601868C00141BF18685FEAC0109C
:104AF80018685FEAC01002D51868C001F2D4379868
:104B0800D0F8001C490466D4026842F0A042026052
:104B180037980268D2015FBF01685FEAC111016876
:104B28005FEAC11102D40168C901F2D50DF5E0654B
:104B380035994FF4C2723C9C28460CF0C3FA37AE44
:104B4800294600223046FEF7EDFA0DF5E065369964
:104B58004FF4C27228460CF0B5FA40F23470294678
:104B6800C2F2000050F824203046FEF7DBFA3798EE
:104B7800016821F08051016037980168C90141BF7F
:104B880001685FEAC11101685FEAC11102D50168D5
:104B9800C901F2D401F0C7FC044601F0BAFC01F0E7
:104BA800C5FC40F2000037A9C2F2000040F22462BE
:104BB8000CF088FAE00708BF01F0ADFC4EF21010C7
:104BC8004FF08061CEF20000016005200DF6840DE3
:104BD800BDE8000FF0BD03200DF6840DBDE8000F01
:104BE800F0BD40F6604040F69C72C2F20000C2F28E
:104BF80000022B2107F0C9FFFEDE80B56F46402B6F
:104C080028BF40234FF0000CBCEB930F2AD04FEA8B
:104C1800930C48F28803C4F21D0300EB030E07E06F
:104C2800BCF1010CA2EB030219440EF1040E19D0D9
:104C3800002A08BF80BD0B78042A8EF8033013467B
:104C480028BF0423012BEBD04878022B8EF80200F2
:104C5800E6D08878032B8EF801001CBFC8788EF840
:104C68000000DDE780BDF0B503AF2DE9000F83B08C
:104C78000D4640211646824640240CF0D7FA402EB5
:104C880038BF34460020B0EB940F6BD048F2880050
:104C98000023C4F21D00291801F1030E01F10208D6
:104CA8004E1CA0084FF04009029000910DE00298B8
:104CB800A9EB0B09DA4401330EF1040E08F10408DC
:104CC80004360431013802904CD0102B4AD04FF0F2
:104CD800040BB9F1040F38BFCB46ABF10104042033
:104CE800032C04D254461BF003051ED1DFE72BF03A
:104CF80003006FF003044542002001930AEB04030C
:104D08001EF8002004341A7118F800205A71325C19
:104D18009A710A5C04388542DA71EFD1019BAAEBDB
:104D2800000404301BF00305C1D01A46009B019013
:104D38002046019C03EB820C1346012DA444CDF8B8
:104D480004C01CF8014C0470B1D004460198022D2F
:104D580010F8023C637013461EBF019810F8030C4C
:104D6800A070A4E703B0BDE8000FF0BDD0B502AF56
:104D780084B00078DFE800F0030A11181F0001ACC6
:104D880041F29302C2F200020F231AE001AC40F292
:104D9800F462C2F20002102313E001AC41F2700287
:104DA800C2F2000223230CE001AC41F23002C2F24D
:104DB8000002202305E001AC40F6C872C2F20002EE
:104DC8000723204609F02FFD204608F02BFA04B0EF
:104DD800D0BD4EF21000CEF20000016821F00101B2
:104DE8000160016821F00401016063214160002134
:104DF8008160016841F001010160016841F0020130
:104E08000160704745F22840C2F200000168013194
:104E180001607047D0B502AF82B001F09FFBC46853
:104E2800052060F3030401F099FBC46001A8012187
:104E380000F074FA01F077FB044601F06AFB01F018
:104E480075FB4CF26C001822C4F20A000168006875
:104E5800000758BF042209074FF0180041F26C11EF
:104E680058BF0420C2F200018A580858516841F01E
:104E780008014160E00708BF01F04DFB02B0D0BD5A
:104E8800704780B56F4682B000208029019007D214
:104E98008DF80410012201A900F077F902B080BD55
:104EA800B1F5006F09D20222084662F39F108DF80F
:104EB8000500C02040EA911028E002200A4660F36D
:104EC8009F12B1F5803F11D28DF806208A0960F350
:104ED8009F12E0208DF8052040EA11308DF804007B
:104EE800032201A900F051F902B080BD8DF8072016
:104EF8008A0960F39F128DF806200A0B60F39F124F
:104F0800F0208DF80520042240EA91408DF8040035
:104F180001A900F03AF902B080BDF0B503AF4DF831
:104F280004BD88B0006802AA019091E87850104644
:104F380041F2A401C2F2000180E8785001A808F00B
:104F480018FE08B05DF804BBF0BD00F01EB941F2D0
:104F5800BC020021C2F200020523C0E900328160D0
:104F68007047D0B502AF00220C460146C4F22E02AB
:104F78000120914218BFD0BD40F22462D4E9011348
:104F8800C2F20002C2E9001341F2BC011072C2F27F
:104F98000001104601F051FD08B10020D0BD45F2D6
:104FA80054412068C2F20001BFF35F8F0860BFF36D
:104FB8005F8F0DF09BF80DF09EF80420D0BD0CF02B
:104FC8008BBAF0B503AF2DE900070646007A60B149
:104FD8000D460CF079FA40B145F25440D5F80080FE
:104FE800C2F200000068804503D90020BDE8000730
:104FF800F0BD7168012029B333686FF0030202EB3A
:105008008101D5E901951E1D002400EB910A03E0FA
:1050180001340C36A245E8D03068A842F8D156F8D9
:10502800040C49462A460CF07DF90028F0D1706836
:1050380000218045A0F10600B0FA80F098BF012158
:1050480040090843BDE80007F0BDF0B503AF2DE9FE
:10505800000F93B00446007A002874D089460CF0FB
:1050680033FA00286FD045F25440D9F800A0C2F2B4
:1050780000000068824566D8606808B323686FF04E
:10508800030202EB8000D9E901B801211C1D01EBE4
:105098009005002603E001360C34B54253D0206851
:1050A8004045F8D154F8040C594642460CF03AF9F8
:1050B8000028F0D16068062818BF824502D942E06E
:1050C800D9E901B801F02FFA054601F022FA01F0FA
:1050D8002DFA43F65B4041F2A401C0F200000CAA8D
:1050E80006900AA8059043F66140C0F20000C2F29B
:1050F8000001049008A8039045F26730C0F2000050
:10510800CDF81CA0029007A8019009F10C000A90A4
:1051180012A80B900320119001A810900020CDE94F
:105128000E0004200D9041F24810C2F20000CDE9B3
:1051380008B80C900BA808F01CFD0446E80708BF47
:1051480001F0E9F91CB913B0BDE8000FF0BD40F655
:10515800D07041F23012C2F20000C2F200022021E7
:1051680007F013FDFEDED0B502AF01F0DCF904460E
:1051780001F0CFF901F0DAF90CF038FFE00718BFB9
:10518800D0BDBDE8D04001F0C6B9F0B503AF2DE9F8
:10519800000F8DB092468B460CF096F9002100283E
:1051A80000F0A28001200BEB0A060A9003A84FF03A
:1051B8000A0980E8020C00250020CDF82C90CDE9E2
:1051C80008A9CDE906A107E002990120002949466E
:1051D8004FF00A0900F09380554506D90022894608
:1051E8000292D046C00755D162E0CDE9000101E046
:1051F800554547D8AAEB05020BEB0501072A1CD831
:1052080002B300200B5C0A2B2BD00B180133B342DE
:1052180019D01C780A2C27D00133B34213D01C783C
:105228000A2C24D00133B3420DD01C780A2C21D08B
:1052380001330430B342E5D105E00A2009F0D2FB7E
:105248000A4601E000220020012816D102EB0508D9
:1052580008F10105D045CBD21BF808004845C7D155
:1052680036E002460120EFE7421C0120ECE7821CF1
:105278000120E9E7C21C0120E6E70199002002901D
:10528800554602E00199002002908946D0460098D0
:10529800C0070DD041F268100C46C2F2000002218E
:1052A8000CF09AFEB0F1FF3F1ADD0228214620D308
:1052B800B8EB01043FF488AF0BEB010021460CF07A
:1052C8008BFEB0F1FF3F0BDD84427FF67DAF10E02F
:1052D8000120A946029001990098C007DAD1E7E7B2
:1052E800B0F1FF3118BF012108460DB0BDE8000F2D
:1052F800F0BD012108460DB0BDE8000FF0BD00214A
:1053080008460DB0BDE8000FF0BD006808F01DBCF0
:105318000A46D0E90031184609F0C2BAF0B503AF21
:105328004DF804BD0D4601F0FEF8064601F0F1F80F
:1053380001F0FCF84CF26C0041F26C14C4F20A0063
:1053480018230168C2F20004026821F0080165F31D
:10535800C301120758BF0423E35818225B68016091
:105368000168006800074FF0180058BF04200907BB
:10537800205858BF0422A158DA08406862F3C300D5
:105388004860F00708BF01F0C6F801205DF804BBCB
:10539800F0BDB0B502AF4EF69C540025CEF2000425
:1053A800102044F8085C20602520C0F208306060B6
:1053B8001120C0F2200020602120C0F2027060603D
:1053C8001220C2F2000020602520C1F2083060607F
:1053D8001320C2F2200020602720C1F20B30606049
:1053E8001420C4F2000020603320C1F21030606045
:1053F8001520C6F2000020602F20C0F20B706060FC
:10540800012044F8080C01F088F801F089F8C4F884
:10541800B45101F082F801F083F84FF4403044F8B9
:10542800880C4CF25400C4F20F00016821F003010B
:105438000160BDE8B040FCF73BB900281FBF4CF63F
:105448000021C3F69A31B1FBF0F2500A1FBF44F6AF
:105458008333C0F20403A0FB0303D8091EBF00FB7B
:1054680011220021704780B56F4641F2002041F2B9
:10547800EC12C2F20000C2F20002192107F085FB0B
:10548800FEDE944604320846614600F01CBD002941
:105498001CBFB0FBF1F0704780B56F4641F2902019
:1054A80041F27422C2F20000C2F20002192107F090
:1054B8006CFBFEDE0220704701207047D2F800C066
:1054C800DCF86C3043F44033CCF86C301268D36E9F
:1054D80043F44073D366704780B56F461368D3F8BA
:1054E80000C0DCF86C3043F44053CCF86C30D2E99F
:1054F80001EC0023D268BCF1000F0B600EF1010132
:1055080004BF43F20062C0F26E12C0E90021C0E994
:105518000221C0E90421C0E9062180BDB0B502AF6F
:10552800D1F800C01546D7F808E0002BDCF81C407D
:1055380008BF45F0400524F07F042C43CCF81C40FC
:1055480080E80E40B0BDF0B503AF2DE90007E2B02A
:10555800044600F0E8FF054600F0DBFF00F0E6FF38
:1055680045F24A4005F00101C2F200000678002E1B
:1055780004BF01220270002908BF00F0CCFF002EF2
:1055880040F0198300F0CFFF054600F0C2FF00F09D
:10559800CDFF45F22D4005F00101C2F2000006786A
:1055A800002E04BF01220270002908BF00F0B3FFDB
:1055B800002E40F0008300F0B6FF054600F0A9FF7A
:1055C80000F0B4FF45F22F4005F00101C2F20000DF
:1055D8000678002E04BF01220270002908BF00F0DF
:1055E8009AFF002E40F0E78200F0C2FF00F09BFF18
:1055F800054600F08EFF00F099FF45F24C4005F09B
:105608000101C2F200000678002E04BF01220270D8
:10561800002908BF00F07FFF002E40F0CC8200F088
:1056280082FF054600F075FF00F080FF45F22C4030
:1056380005F00101C2F200000678002E04BF012225
:105648000270002908BF00F066FF002E40F0B38208
:1056580000F069FF054600F05CFF00F067FF45F2C7
:10566800304005F00101C2F200000678002E04BFA8
:1056780001220270002908BF00F04DFF002E40F003
:105688009A8200F050FF054600F043FF00F04EFFFD
:1056980045F2334005F00101C2F200000678002E01
:1056A80004BF01220270002908BF00F034FF002E59
:1056B80040F0818200F037FF054600F02AFF00F035
:1056C80035FF45F23B4005F00101C2F200000678C3
:1056D800002E04BF01220270002908BF00F01BFF42
:1056E800002E40F0688200F01EFF054600F011FF12
:1056F80000F01CFF45F2424005F00101C2F2000033
:105708000678002E04BF01220270002908BF00F0AD
:1057180002FF002E40F04F8200F005FF054600F022
:10572800F8FE00F003FF45F24D4005F00101C2F21A
:1057380000000678002E04BF01220270002908BF6D
:1057480000F0E9FE002E40F0368200F0ECFE05463F
:1057580000F0DFFE00F0EAFE45F2384005F00101F6
:10576800C2F200000678002E04BF01220270002950
:1057780008BF00F0D0FE002E40F01D8200F0D3FEDE
:10578800054600F0C6FE00F0D1FE45F23A4005F0AD
:105798000101C2F200000678002E04BF0122027047
:1057A800002908BF00F0B7FE002E40F0048200F088
:1057B800BAFE054600F0ADFE00F0B8FE45F24E40D8
:1057C80005F00101C2F200000678002E04BF012294
:1057D8000270002908BF00F09EFE002E40F0EB8109
:1057E80000F0A1FE054600F094FE00F09FFE45F291
:1057F800344005F00101C2F200000678002E04BF13
:1058080001220270002908BF00F085FE002E40F03A
:10581800D28100F088FE054600F07BFE00F086FE8F
:1058280045F2394005F00101C2F200000678002E69
:1058380004BF01220270002908BF00F06CFE002E90
:1058480040F0B98100F06FFE054600F062FE00F0FE
:105858006DFE45F2374005F00101C2F200000678FE
:10586800002E04BF01220270002908BF00F053FE79
:10587800002E40F0A08100F056FE054600F049FEDB
:1058880000F054FE45F2324005F00101C2F200007A
:105898000678002E04BF01220270002908BF00F01C
:1058A8003AFE002E40F0878100F03DFE054600F0EC
:1058B80030FE00F03BFE45F2474005F00101C2F220
:1058C80000000678002E04BF01220270002908BFDC
:1058D80000F021FE002E40F06E8100F024FE054607
:1058E80000F017FE00F022FE45F2364005F00101F7
:1058F800C2F200000678002E04BF012202700029BF
:1059080008BF00F008FE002E40F0558100F00BFEA5
:10591800054600F0FEFD00F009FE45F23E4005F0A8
:105928000101C2F200000678002E04BF01220270B5
:10593800002908BF00F0EFFD002E40F03C8100F088
:10594800F2FD054600F0E5FD00F0F0FD45F23F40B0
:1059580005F00101C2F200000678002E04BF012202
:105968000270002908BF00F0D6FD002E40F0238108
:1059780000F0D9FD054600F0CCFD00F0D7FD45F25A
:10598800484005F00101C2F200000678002E04BF6D
:1059980001220270002908BF00F0BDFD002E40F072
:1059A8000A8100F0C0FD054600F0B3FD00F0BEFD21
:1059B80045F23D4005F00101C2F200000678002ED4
:1059C80004BF01220270002908BF00F0A4FD002EC8
:1059D80040F0F18000F0A7FD054600F09AFD00F0C8
:1059E800A5FD45F2444005F00101C2F20000067829
:1059F800002E04BF01220270002908BF00F08BFDB1
:105A0800002E40F0D88000F08EFD054600F081FDA4
:105A180000F08CFD45F2454005F00101C2F200009E
:105A28000678002E04BF01220270002908BF00F08A
:105A380072FD002E40F0BF8000F075FD054600F0B5
:105A480068FD00F073FD45F2494005F00101C2F21E
:105A580000000678002E04BF01220270002908BF4A
:105A680000F059FD002E40F0A68000F05CFD0546D0
:105A780000F04FFD00F05AFD45F2414005F00101EC
:105A8800C2F200000678002E04BF0122027000292D
:105A980008BF00F040FD002E40F08D8000F043FD6F
:105AA800054600F036FD00F041FD45F22E4005F0B8
:105AB8000101C2F200000678002E04BF0122027024
:105AC800002908BF00F027FD002E74D100F02BFD3F
:105AD800054600F01EFD00F029FD45F2434005F0A3
:105AE8000101C2F200000678002E04BF01220270F4
:105AF800002908BF00F00FFD002E5CD100F013FD57
:105B0800054600F006FD00F011FD45F2314005F0B4
:105B18000101C2F200000678002E04BF01220270C3
:105B2800002908BF00F0F7FC002E44D100F0FBFC70
:105B3800054600F0EEFC00F0F9FC45F2464005F0A1
:105B48000101C2F200000678002E04BF0122027093
:105B5800002908BF00F0DFFC6EBB00F0E4FC05463E
:105B680000F0D7FC00F0E2FC45F23C4005F00101F2
:105B7800C2F200000678002E04BF0122027000293C
:105B880008BF00F0C8FCB6B900F0CDFC054600F02F
:105B9800C0FC00F0CBFC45F2354005F00101C2F233
:105BA80000000678002E04BF01220270002908BFF9
:105BB80000F0B1FC56B120464FF422710BF039FBCE
:105BC8000220A06762B0BDE80007F0BD40F2000EF9
:105BD8000220C4F2080EC4F880020EF548160EF52D
:105BE8008C100EF5B6130EF54715C4E918560EF5C8
:105BF8009015A3660EF58A13C4E912300EF58E12BD
:105C08000EF5881604F150000EF598210EF5451989
:105C180080E824020EF55D150EF55F12C4F87C12BB
:105C28000EF58611C4E910160EF55C16C4E90A656E
:105C38000EF55A100EF590260EF546180EF55E1361
:105C4800C4E90C320EF55911C4E908100EF580426A
:105C58000EF58820C4E900065DAEC4F85C800EF538
:105C68008418C4E9042E0EF5821937F81B0C4FF07E
:105C7800000A17F8192C0EF5571184F86F200EF545
:105C8800B023A4F86D000EF5F82545CE4FF0010CB1
:105C9800C4E90E980EF55818C4E91EA004F1800056
:105CA800C4E9061837F81E1C80E8440454AA04F115
:105CB8008C00C4E902530EF5B813A4F87510DDE999
:105CC8005991236717F81C3C84F87730DDE95B3578
:105CD8002AC004F1A003C4F884C284F874C0DDE9C2
:105CE80057C807CA83E8000704F1AC0307C3DDE916
:105CF8005050DDE95212C4E92EA004F1C00080E83A
:105D08000604C4F8D450DDE94A50DDE94C12C4E970
:105D180036A004F1E00080E80604C4F8F450DDE998
:105D28004450DDE94612C4E93EA004F5807080E8DD
:105D38000604C4F81451DDE93E50DDE94012C4E917
:105D480046A004F5907080E80604C4F83451DDE9F3
:105D58003850DDE93A12C4E94EA004F5A07080E895
:105D68000604C4F85451DDE93250DDE93412C4E9BF
:105D780056A004F5B07080E80604C4F87451DDE953
:105D88002C50DDE92E12C4E95EA004F5C070DDE9EF
:105D98004E3680E80604C4F89451DDE92650DDE962
:105DA8002812C4E93336DDE94836C4E966A004F5AB
:105DB800D070C4E93B36DDE9423680E80604C4F811
:105DC800B451DDE92050DDE92212C4E94336DDE9AA
:105DD8003C36C4E96EA004F5E070C4E94B36DDE951
:105DE800363680E80604C4F8D451DDE91A50DDE9F6
:105DF8001C12C4E95336DDE93036C4E976A004F54F
:105E0800F070C4E95B36DDE92A3680E80604C4F898
:105E1800F451DDE91450DDE91612C4E96336DDE911
:105E28002436C4E97EA004F50070C4E96B36DDE9C8
:105E38001E3680E80604C4F81452DDE90E50DDE988
:105E48001012C4E97336DDE91836C4E986A004F5F2
:105E58000870C4E97B36DDE9123680E80604C4F828
:105E68003452DDE90850DDE90A12C4E98336DDE978
:105E78000C36C4E98EA004F51070C4E98B36DDE950
:105E8800063680E80604C4F85452DDE90250DDE91C
:105E98000412C4E99336DDE90036C4E996A004F596
:105EA800187080E806040EF5A82084F86CA0C4E9F0
:105EB80026ACC4E99B36C4F87452C4F8780262B0C0
:105EC800BDE80007F0BDF0B503AF2DE9000F93B0B2
:105ED8008B464AF20141C1F678719846924688424B
:105EE800009003D340F2E24012240CE043F2006138
:105EF800C0F26E11884203D840F2B630062402E0A0
:105F080040F27E400E240190DBF8000045F254492F
:105F1800C2F20009D0F8801041F0C001C0F880102A
:105F2800D8F80050E86800F01F00A0423CD2D9F829
:105F3800000004281CD3012041F25032129005A819
:105F480011900020CDE90F0002200E9041F2C420EC
:105F5800C2F20000C2F200020D904EF2B360C0F22D
:105F680000000421069001A805900DA800F0AEFDE0
:105F7800E86820F01F002044E860D8F800000168B5
:105F8800002911D410BF0168B1F1FF3F0CDD10BF2B
:105F9800016800295EBF10BF0168002904D410BF42
:105FA8000168B1F1FF3FEDDCDBF800406169D9F829
:105FB8000000890142D4042817D3002041F234514B
:105FC800129041F23452CDE90F0001200E9041F2B7
:105FD8002C50C2F20000C2F200010D900DA81191E0
:105FE800C2F20002042100F071FDDAF8000043F269
:105FF8004002C8F200020169D9F80000114091423C
:1060080037D10026042816D341F2345041F2805289
:10601800C2F20000C2F20002119001200E9041F27B
:106028007850C2F2000004210D900DA81296CDE917
:106038000F6600F04BFD4FF0C05536E0042868D3DA
:10604800002041F23451129041F21462CDE90F0060
:1060580001200E9041F20C60C2F20000C2F2000171
:106068000D900DA81191C2F20002042100F02EFD3E
:106078004FE00025042816D341F2345041F2CC52A7
:10608800C2F20000C2F20002119001200E9041F20B
:10609800C450C2F2000004210D900DA81295CDE95C
:1060A8000F5500F013FD4FF48056606920F06050E2
:1060B80028436061A06920F440503043A06100E0AB
:1060C80010BFA06C000742BF10BFA06C5FEA007051
:1060D80008D510BFA06C000742BF10BFA06C5FEAD4
:1060E8000070EDD4606940F00070606109E010BF95
:1060F800A06C800642BF10BFA06C5FEA806008D524
:1061080010BFA06C800642BF10BFA06C5FEA806021
:10611800EDD4009E4BF200230120C2F29F630121BF
:106128009E42CDE9020016D23246012005E0013137
:1061380000FB06F24A439A420BD20729F7D90428F2
:1061480007D801300121039000FB06F24A439A4226
:10615800F3D3029100E0324602F5B70249F68173A3
:1061680002F55862C1F25E636C26A2FB03231A0D86
:106178006C2A38BF1E0D362E98BF36260496D9F8DD
:106188000020042A26D30DA90320099100210A9092
:1061980041F29C32CDE9060141F28430C2F200009E
:1061A800089105904EF2B36003A9C0F20000129066
:1061B800C2F20002CDE9100102A9CDE90E0104A83E
:1061C8000D9005A8042100F081FC0299002900F037
:1061D8006F810398002800F06B81049A41F6003320
:1061E800C0F2B703DAF8005041F2F8344EF217263D
:1061F8005A43C2F20004C0F20006B2FBF1F1B1FB4F
:10620800F0F0009028680B90D9F80000042813D308
:10621800012005A9129041F20042CDE90D400BA8DA
:106228001191002105900DA8CDE90F11C2F20002CD
:106238000421069600F04AFC4FF480504022286062
:10624800DAF80000049962F3DF110160DAF800005F
:106258000168002911D410BF0168B1F1FF3F0CDDBE
:1062680010BF016800295EBF10BF0168002904D46F
:1062780010BF0168B1F1FF3FEDDCD9F80010042927
:1062880015D300680CA9059105A90C90012041F2CD
:106298001C42119100211290CDE90D400DA8CDE9C5
:1062A8000F11C2F200020421069600F00FFC0298BA
:1062B800DBF80010013800F007000861DBF8000087
:1062C80000E010BF816CC90342BF10BF816C5FEA58
:1062D800C13108D510BF816CC90342BF10BF816CA2
:1062E8005FEAC131EDD403994FF4E052436902EB00
:1062F8008121890A61F38C234361DBF8000000E007
:1063080010BF816CC90342BF10BF816C5FEAC13105
:1063180008D510BF816CC90342BF10BF816C5FEA0A
:10632800C131EDD400994DF27F12C0F6F002042479
:10633800114441F29F02C0F2E5024369C909A1FB79
:1063480002124FF44071160B042E38BF140B01EBE8
:106358000421090A61F309234361DBF8000041695C
:1063680021F000714161DBF80000816C890641BFB2
:1063780010BF816C5FEA816110BF41BF816C5FEA29
:10638800816110BF816C48BF5FEA816101D510BF90
:10639800EBE7D9F80000042825D3002C00F09480FE
:1063A8004EF2B3600CA9C0F2000041F28042CDE980
:1063B8000601002108906846059005A8119041F251
:1063C8006040C2F2000010910D90C2F200020098E5
:1063D800B0FBF4F00C900220CDE90E0104211290DC
:1063E8000DA800F073FB019848F21F51C5F2EB119C
:1063F800D8F80050A0F54870A0FB0110E96801F03A
:106408001F01C0F3C70291423CD9C608D9F8000061
:1064180004281CD3012041F2C442129005A811900F
:106428000020CDE90F0002200E9041F2B440C2F2E4
:106438000000C2F200020D904EF2B360C0F20000FC
:106448000421069001A805900DA800F03FFBE8681C
:1064580066F30400E860D8F800000168002911D448
:1064680010BF0168B1F1FF3F0CDD10BF01680029C2
:106478005EBF10BF0168002904D410BF0168B1F1E4
:10648800FF3FEDDC002C1FBF0098B0FBF4F113B008
:10649800BDE8000F18BFF0BD41F2D03041F2E04234
:1064A800C2F20000C2F20002192106F06EFBFEDE05
:1064B80041F2D03041F2B832C2F20000C2F200021A
:1064C800192106F062FBFEDE41F2D03041F2704243
:1064D800C2F20000C2F20002192106F056FBFEDEED
:1064E800D0B502AF82B000F01EF8044600F011F8F3
:1064F80000F01CF840F2000001A9C2F200006A4650
:106508000091FDF731FCE00708BF00F004F802B085
:10651800D0BD72B6704762B67047BFF34F8F7047F1
:10652800BFF36F8F7047EFF310807047704780B5E7
:106538006F46FBF75EFCFEDEFEE77047704748F2E9
:106548001400C4F21F00704748F2FC00C4F21F0098
:10655800704748F2EC20C4F21F00704748F23C1024
:10656800C4F21F00704748F27C10C4F21F00704745
:10657800704700200021704720F4805041F480517A
:1065880010437047F0B503AF4DF8048D88460446B4
:10659800D2E900011646CB68002100220025984761
:1065A800D6E900010022CB6801219847D6E900010D
:1065B8000022CB6802219847D6E90001FF22CB6868
:1065C800032198474FF4FA60A5722081FA20C0F29F
:1065D800E83084F81880C4E9005041F26F20C3F60F
:1065E80003206561C4E903505DF8048BF0BDF0B584
:1065F80003AF2DE9000F81B02DED068B9CB0B0EEF6
:10660800408A90ED031A90ED050A8946834690ED7D
:10661800049AF0EE480A31EE08AA0AF06BFCB4EED0
:1066280049AA8BED050AF1EE10FA8BED03AA2DDAD3
:10663800D9E902100DF108080269404690479DF813
:106648002800032815D00BAE414630463CC93CC053
:1066580091E83C0049463CC05846324600F0C0F834
:10666800D9E902100269404690479DF8280003289E
:10667800EAD1B0EE480A5846494600F047F91CB03E
:10668800BDEC068B01B0BDE8000FF0BD02A84FF0CD
:1066980000080524043001900CE09BED030A9BEDF3
:1066A800041A30EE410AB4EE410A8BED030AF1EE0A
:1066B80010FABDDBD9E90001096A9BF80AA08847EE
:1066C8009BED050A2A228DF83F004FF04530CBF8A4
:1066D8001480CDF83B00D9E90001C969ADF838202C
:1066E8004FF02A128DF83AA00D92CDE90B828DED6C
:1066F800110A8DED100A8847042928BF04210029B2
:106708001EBF02788DF83B20012948D1D9E9000144
:1067180089698847052928BF214600291EBF0288A4
:10672800ADF83020012948D10BABD9E9020C019A08
:1067380070CB70C293E8720072C202A90524DCF81B
:106748000C3002228DF808409847C2B2042AA4D01F
:106758008DF84C0045F254408DF84D10C2F20000FF
:106768000068002899D001201AA9199041F2DC622A
:10677800CDE9150841F2D460C2F20000CDE91781D5
:10678800149045F24930C0F2000001211B9013A873
:106798001A9014A8C2F2000200F098F97DE7427836
:1067A80002298DF83C20B1D0827803298DF83D204C
:1067B8001CBFC0788DF83E00A8E742880229ADF8D2
:1067C8003220B1D082880329ADF83420ACD0C288F9
:1067D8000429ADF836201CBF0089ADF83800A3E7BE
:1067E800F0B503AF4DF804BD92B0054610781646D3
:1067F8000C46042809D0022852D0002857D1D4E9E1
:1068080000037178B278DB684FE000202860A87236
:10681800D4E900010A6900219047D4E90001002267
:10682800CB6800219847D4E900010022CB680121F8
:106838009847D4E90201CB684FF483712A7EADF8FA
:10684800041001A98DF8062000229847C2B2042A34
:106858002CD08DF8240045F254408DF82510C2F252
:106868000000006810B310A901200E9100210F90BC
:1068780041F29C62CDE90B0141F25460C2F2000082
:106888000D910A9045F24930C0F20000C2F20002B0
:10689800119009A810900AA8012100F017F905E045
:1068A800D4E90002536A321D717898473078042879
:1068B80006D0032808D0012804BFA87A00280CD0E5
:1068C80012B05DF804BBF0BDD6F80200F18829814A
:1068D800686012B05DF804BBF0BD0020286001209C
:1068E800A872D4E900010A6901219047D4E900019E
:1068F8000022CB6800219847D4E90001FF22CB6829
:106908000121984712B05DF804BBF0BDD0B502AFC5
:1069180090ED001A0C46817A31EE000A80ED000AEB
:10692800DFE801F067021D4381889FED322A01EEFE
:10693800101AB8EE411A21EE021AB4EE410AF1EE2D
:1069480010FA56DD0021016002218172D4E90001AC
:106958000A6901219047D4E90001FF221AE0C188A1
:106968009FED242A01EE101AB8EE411A21EE021A00
:10697800B4EE410AF1EE10FAD8BFD0BD0021016093
:1069880003218172D4E900010A6900219047D4E902
:1069980000010022CB68002198476168FF22206827
:1069A800CB680121BDE8D040184701899FED112A25
:1069B80001EE101AB8EE411A21EE021AB4EE410A9D
:1069C800F1EE10FA15DD002101608172D4E90001B1
:1069D8000A6900219047D4E900010022CB68002110
:1069E8009847D4E900010022CB680121BDE8D040D6
:1069F8001847D0BD6F12833A0278032A18BF00F0F7
:106A0800A1BA41F2F8620846C2F2000211460A220F
:106A180007F0EEBE7047006841F23072C2F2000221
:106A28000B4652F8301002EBC0004268184607F0D7
