:0200000460009A
:100000004643464200000156000000000101020084
:1000100000000000000000000000000000000000E0
:1000200000000000000000000000000000000000D0
:1000300000000000000000000000000000000000C0
:1000400000000000010403000000000000000000A8
:100050000000200000000000000000000000000080
:100060000000000000000000000000000000000090
:100070000000000000000000000000000000000080
:10008000EB04180A063204260000000000000000FD
:10009000050404240000000000000000000000002F
:1000A0000000000000000000000000000000000050
:1000B0000604000000000000000000000000000036
:1000C0000000000000000000000000000000000030
:1000D00020041808000000000000000000000000DC
:1000E0000000000000000000000000000000000010
:1000F0000000000000000000000000000000000000
:1001000000000000000000000000000000000000EF
:100110000204180804200000000000000000000095
:1001200000000000000000000000000000000000CF
:10013000600400000000000000000000000000005B
:1001400000000000000000000000000000000000AF
:10015000000000000000000000000000000000009F
:10016000000000000000000000000000000000008F
:10017000000000000000000000000000000000007F
:10018000000000000000000000000000000000006F
:10019000000000000000000000000000000000005F
:1001A000000000000000000000000000000000004F
:1001B000000000000000000000000000000000003F
:1001C000000100000010000001000000000000001D
:1001D000000000000000000000000000000000001F
:1001E000000000000000000000000000000000000F
:1001F00000000000000000000000000000000000FF
:10020000FFFFFFFFFFFFFFFFFFFFFFFFFFFFFFFFFE
:10100000D10020400014006000000000000000003B
:1010100020100060001000600000000000000000D0
:1010200000000060F2BB0000000000000D480E4907
:101030000E4A4FF42A034164026483630C480D494D
:101040000D4A814202D008CA08C0FAE70B480C4991
:101050000C4A0D4B1860814202D038CA38C0FAE7FA
:1010600000F014F800C00A40AFAAAAAA07002000A6
:1010700000000000EC870000B8160060001C002093
:10108000B81E00200014006008ED00E043F6231CA9
:10109000C0F2000C6047FFFF2B4B40F6617210B5A9
:1010A000C3F8202140F2044400F088F8274A284978
:1010B000D2F88030274843F00303C2F88030264B33
:1010C000C1F8604102681A4203D1D1F8A8319A07E9
:1010D00018D01F4A4FF000411E4B5963D2F84031DF
:1010E00043F00203C2F84031D2F840319B07FBD4F1
:1010F0004FF0E0214FF40030164B4FF00042C1F8A2
:101100008C029A63134A4FF08040114C0021906387
:101110000A20124B11604FF42072C4F8A80118463F
:1011200000F051F84FF4800103464FF4810040F283
:1011300043121860C4F8583119640123C4F84821D7
:10114000C4F8403110BD00BF00800D4000C00F400A
:1011500000002E4000900D40001C1E0000400020AA
:10116000F0B4154A40274FF480314FF480564FF4C5
:1011700000554FF4404443F24200136913F0020F4C
:101180000ED113F4005F0FD013F4805F0ED0002B4C
:10119000F3DA13F4803F0BD15B060BD5F0BC70473C
:1011A000946151619061E8E75561E6E75661E4E7D3
:1011B0009161E2E75761E0E700800D4048F2C12C01
:1011C000C0F2000C604747F6A51CC0F2000C604757
:1011D00016035500530042002000530065007200C2
:1011E000690061006C000000180354006500650090
:1011F0006E00730079006400750069006E006F0076
:101200000403090409024300020100C0320904007A
:101210000001020201000524001001052401010162
:1012200004240206052406000107058203100010AD
:1012300009040100020A0000000705030240000043
:10124000070584024000000009024300020100C0BB
:10125000320904000001020201000524001001050A
:101260002401010104240206052406000107058269
:101270000310001009040100020A00000007050322
:101280000200020007058402000200000A060002B4
:0612900002000040010015
:10140000000007202D10006001450000D587000076
:1014100001450000014500000145000000000000FA
:101420000000000000000000000000000145000076
:1014300001450000000000000145000013390000D4
:101440000145000001450000014500000145000084
:101450000145000001450000014500000145000074
:101460000145000001450000014500000145000064
:101470000145000001450000014500000145000054
:101480000145000001450000014500000145000044
:101490000145000001450000014500000145000034
:1014A0000145000001450000014500000145000024
:1014B0000145000001450000014500000145000014
:1014C0000145000001450000014500000145000004
:1014D00001450000014500000145000001450000F4
:1014E00001450000014500000145000001450000E4
:1014F00001450000014500000145000001450000D4
:1015000001450000014500000145000001450000C3
:1015100001450000014500000145000001450000B3
:1015200001450000014500000145000001450000A3
:101530000145000001450000014500000145000093
:101540000145000001450000014500000145000083
:101550000145000001450000014500000145000073
:101560000145000001450000014500000145000063
:101570000145000001450000014500000145000053
:101580000145000001450000014500000145000043
:101590000145000001450000014500000145000033
:1015A0000145000001450000014500000145000023
:1015B0000145000001450000014500000145000013
:1015C0000145000001450000014500000145000003
:1015D00001450000014500000145000001450000F3
:1015E00001450000014500000145000001450000E3
:1015F00001450000014500000145000001450000D3
:1016000001450000670100000145000001450000A0
:1016100001450000014500000145000001450000B2
:1016200001450000014500000145000001450000A2
:101630000145000001450000014500000145000092
:101640000145000001450000014500000145000082
:101650000145000001450000014500000145000072
:101660000145000001450000014500000145000062
:101670000145000001450000014500000145000052
:101680000145000001450000014500000145000042
:101690000145000001450000014500000145000032
:1016A0000145000001450000A9440000014500007B
:0816B0000145000001450000A6
:1016B80080B56F4604F07DFA44F28C4041F6B8617B
:1016C800C2F20000C2F20001814213D241F6B861B1
:1016D8000022C2F2000141F8042B81423FBF41F8C9
:1016E800042B814241F8042B814203D241F8042B98
:1016F8008142F0D341F6C01140F20000C2F200016D
:10170800C2F2000088420ED2021D8A4238BF0A4641
:10171800C143114421F003010A1D4AF20001C6F237
:10172800000107F09EFB4EF68850CEF200000168DB
:1017380041F47001016004F036FAFEDE7047B0B57E
:1017480002AF88B004F02BFA044604F01EFA04F045
:1017580029FA43F2474004F00101C2F2000005787B
:10176800002D04BF01220270002908BF04F00FFAFF
:101778009DBB05A803F0D4F940F2847100200490C1
:10178800C2F200010598CDE90201002002A9C4F2C5
:101798002E0003F0CFF9C4B2042C1BD104F0FFF9DA
:1017A800054604F0F2F904F0FDF942F20000C2F235
:1017B80000000168E9B900210160012101714EF2C0
:1017C8000C10CEF200004FF400310160E80708BFAA
:1017D80004F0DDF9204608B0B0BD40F2287040F2B0
:1017E8007472C2F20000C2F200022B2105F095FECD
:1017F800FEDE40F2847040F25473C2F2000002AA86
:10180800009040F2C860C2F20000C2F2000310214A
:1018180005F0CFFEFEDEB0B502AF82B004F0BFF92E
:10182800044604F0B2F904F0BDF942F20005C2F230
:1018380000052868C8B94FF0FF3004F0010428609B
:101848002879012808D1681D03F0A2F92868013019
:1018580028602CB102B0B0BD0020002C2860F9D15E
:1018680002B0BDE8B04004F092B940F2947040F282
:101878005473C2F2000001AA009040F2C860C2F29C
:101888000000C2F20003102105F093FEFEDED4D45E
:10189800F0B503AF2DE9000F8DB040F61C0843F2F8
:1018A800284BC2F2000804460025C2F2000B4FF094
:1018B800020A46464FF0000904E008F10500864296
:1018C80000F0B38016F8010BCDF8049009F1010976
:1018D800DFE800F0031526389900216808680E2013
:1018E8000860086AC0073ED1086AC00704BF086AD2
:1018F8005FEAC07037D1086AC007F2D033E02168C8
:1019080008680D60086AC0072DD1086AC00704BFBF
:10191800086A5FEAC07026D1086AC007F2D022E0E0
:10192800216808680F200860086AC0071BD1086A88
:10193800C00704BF086A5FEAC07014D1086AC0070C
:10194800F2D010E02168086805200860086AC0071E
:1019580001BF086A5FEAC070086A5FEAC07002D116
:10196800086AC007F2D00198496A042827F8461C7B
:101978005FD88AB200EE102A04EB0012B8EE400AD3
:1019880092ED011A92ED022A92ED033A32EE412AC3
:1019980092ED044A04EB400204EB8000A2F86810C0
:1019A80030EE410A34EE431A80EE020A00EE013AA4
:1019B80080ED153ADBF800000328FFF47EAF09A894
:1019C80040F674020321C2F20002CDE9065040F647
:1019D8004800C2F20000CDF820A0039046F6E520AA
:1019E800C0F20000CDE904A50C90A7F146000B90C9
:1019F80046F6BB30C0F200000A9001A8099003A87F
:101A080004F069F859E72168086806200860086A40
:101A1800C007A8D1086AC00704BF086A5FEAC07097
:101A2800A1D1086AC007F2D09DE70DB0BDE8000F4C
:101A3800F0BD40F634020521C2F2000205F085FD32
:101A4800FEDEF0B503AF4DF8048D8AB0044690F879
:101A5800720000250021002808BF4FF0FF352046FE
:101A68002A464FF0000807F8315C00F03BF82046A2
:101A780001212A46012600F035F8204602212A468F
:101A880000F030F8204603212A4600F02BF82046C3
:101A980004212A4600F026F843F22840C2F200004A
:101AA800006803281AD308A840F6B002C2F2000260
:101AB8000321CDE9058040F6A800C2F20000079690
:101AC800029046F66720C0F20000CDE9036809904D
:101AD800A7F13100089002A803F0FDFF0AB05DF8F5
:101AE800048BF0BD5FFA81FC80B56F46DFE80CF02F
:101AF800031E3A5772004CF274034FF0200CC4F2E4
:101B08000A031B685B0658BF4FF00C0C40F2646375
:101B1800C2F2000353F80CC0130679D04023CCF866
:101B2800843050FA81F080F8722080BD4CF2740342
:101B38004FF0200CC4F20A031B68DB0558BF4FF0B6
:101B48000C0C40F26463C2F2000353F80CC0130695
:101B580066D04FF48073CCF8843050FA81F080F866
:101B6800722080BD4CF274034FF0180CC4F20A03C3
:101B780053F8083C5B0558BF4FF0040C40F264630F
:101B8800C2F2000353F80CC0130652D04FF480631E
:101B9800CCF8843050FA81F080F8722080BD4CF285
:101BA80074034FF0200CC4F20A031B68DB0658BF0D
:101BB8004FF00C0C40F26463C2F2000353F80CC0FF
:101BC80013063FD01023CCF8843050FA81F080F807
:101BD800722080BD4CF274034FF0200EC4F20A0349
:101BE8004FF0200C1B689B0658BF4FF00C0E40F2BC
:101BF8006463C2F2000353F80EE013060CBFCEF87C
:101C080088C0CEF884C050FA81F080F8722080BD78
:101C18004023CCF8883050FA81F080F8722080BDDB
:101C28004FF48073CCF8883050FA81F080F8722035
:101C380080BD4FF48063CCF8883050FA81F080F88A
:101C4800722080BD1023CCF8883050FA81F080F8DB
:101C5800722080BD4CF26C0240F26463C4F20A0246
:101C6800C2F200031268D2034FF0180258BF0422D0
:101C780053F802C088234FF48032002918BF842308
:101C88004CF8032080F877107047C9B200EB810048
:101C980090ED150A704768300521704772300521AC
:101CA800704790F87700704780B56F4692E8085003
:101CB800C9B200EB0110D268011D81E80850026129
:101CC80080BD7047F0B503AF2DE90007ADF5487D3D
:101CD8008046012041464FF0010904F0BDF8054651
:101CE8000020002604F0B8F88246002004F0B4F87A
:101CF800044601F09AFF002874D005F120014FF442
:101D08008270ADF81C033F2004F120020424CDE9C1
:101D18006E100323CDE96A61CDE968101AA9CDE9EF
:101D28007420CDE97206CDE96C06CDE91D0481E881
:101D38004104CDE91650CDE91406CDE91050CDE99E
:101D48000E06CDE90A50CDE908060220059040F2BA
:101D58000030C0F20220CDE97A66CDE9039040F266
:101D68000D30C0F20330CDE97766CDE9019001A8C6
:101D7800CDE92866CDE92566CDE92266CDE91F665D
:101D88008DF81E3379947694CDE97062CDE9663684
:101D9800279424942194CDE9186ACDE91265CDE9F8
:101DA8000C65CDE9066501F05DFFC0B2052825D1B7
:101DB80003F0F5FE044603F0E8FE03F0F3FE01A885
:101DC80041F22B02C0F20002014601F024FFE007B5
:101DD80008BF03F0DCFE012041460DF5487DBDE853
:101DE8000007F0BD40F6CC0040F64012C2F20000F9
:101DF800C2F200022B2105F090FBFEDE8DF80400F4
:101E080040F65010C2F2000040F62413009040F64D
:101E1800F70001AAC2F20000C2F200032B2105F06C
:101E2800C8FBFEDEF0B503AF2DE9000F97B00DF14A
:101E380004090E460446402148469846154607F0D0
:101E4800C7F83046494605F0BCF802460E46C007BA
:101E58003BD12846414694F800A094F801B003F01D
:101E6800FBFF05465046594603F0F6FF0021402285
:101E78008DF85410202ECDE9139288BF203505EB3C
:101E88008010CDE9111003F08AFE054603F07DFEAF
:101E980003F088FE16A911AA204601F0B0FEC4B2CC
:101EA800E80708BF03F073FE40F20312E000C0F237
:101EB8000102E11E22FA00F018BF2146032C08BFD8
:101EC800042017B0BDE8000FF0BD100A110C40EA5D
:101ED800066041EA064117B0BDE8000FF0BDF0B555
:101EE80003AF2DE9000BBCB0044603F058FE0646CC
:101EF80003F04BFE03F056FE14AD6846294600F089
:101F08008CFCF00708BF03F042FE009802280AD1B3
:101F18002046282107F05CF8032084F824003CB010
:101F2800BDE8000BF0BD69462846502206F099FF2F
:101F38000DF1A00905F10E01484605F060F8DDE94C
:101F480014120020002908BF02F01F0003F090FFC0
:101F5800884609F101010DF1C809054627229DF8B7
:101F6800A060484606F03EFFE8B2032810D016F0FD
:101F780001000DD109F103012046242206F032FFA9
:101F880084F8258084F824503CB0BDE8000BF0BDEF
:101F98002046282107F01CF8032584F824503CB07B
:101FA800BDE8000BF0BD704780B56F4600F002F841
:101FB800FEDED4D480B56F46ADF5B06DA2A803F0AF
:101FC8006EF8C098022800F06483E846A2A940464B
:101FD8004FF4227206F045FF03F0E1FD054603F0D9
:101FE800D4FD03F0DFFD03F0DAFD064603F0CDFD76
:101FF80003F0D8FD43F24F4906F00100C2F2000990
:1020080099F80040002C04BF012189F8001000282D
:1020180008BF03F0BCFD002C05F0010004BF01213E
:1020280089F80010002808BF03F0B1FD002C40F02B
:10203800398302F097FF03F0BDFD02F0D4FCFFF7EF
:102048007EFBC0B2042840F03983DDE9000108F1C5
:10205800080203F016F8044603F00FF8054603F0EB
:102068000EF8A16C40F67822C0B2C2F2000221F04C
:10207800010140F28863022D08BF0131A16480F09C
:102088000200616CC2F2000352F8252053F82000C8
:1020980021F0630111430843012140F4806060642A
:1020A800606C61F383006064606C20F080006064A1
:1020B800A06C40F02000A064606C40F44040606474
:1020C800606C40F444706064A06C40F08000A064D0
:1020D800A06D00071FBFA06D5FEA0070A06D5FEAEA
:1020E800007002D0A06D0007F2D1A06C40F0200073
:1020F800A064606C20F440406064606C20F444701C
:1021080000F58870606403F060FD05694FF005090B
:1021180069F3030503F059FD056103F040FD054629
:1021280003F033FD03F03EFD4CF2740A40F264689C
:10213800C4F20A0AC2F20008DAF800002026DAF827
:102148000010C9064FF0200158BF0C21C0064FF0FF
:10215800200058F8011058BF0C2058F800004968B2
:1021680041F010014160E80708BF03F010FD03F0DB
:102178002CFD456969F3030503F027FD456103F06C
:102188000EFD054603F001FD03F00CFDDAF8000032
:10219800DAF8001089064FF0200158BF0C2180069C
:1021A80058F8010058BF0C2658F80610406840F04F
:1021B80020004860E80708BF03F0E9FC03F005FDCC
:1021C80085694FF0050969F3030503F0FEFC856195
:1021D80003F0E5FC054603F0D8FC03F0E3FCDAF86D
:1021E80000002026DAF8001049064FF0200158BFF9
:1021F8000C21400658F801004FF0200158BF0C216F
:1022080058F80110406840F040004860E80708BFEF
:1022180003F0BDFC03F0D9FC056A69F3030503F07C
:10222800D4FC056203F0BBFC054603F0AEFC03F0EA
:10223800B9FCDAF80000DAF80010C9054FF02001FF
:1022480058BF0C21C00558F8010058BF0C2658F893
:102258000610406840F480704860E80708BF03F043
:1022680096FC03F0C1FC856A4FF0050969F3030584
:1022780003F0BAFC856203F092FC054603F085FC86
:1022880003F090FC5AF8080C18265AF8081C49055F
:102298004FF0180158BF0421400558F801004FF0CD
:1022A800180158BF042158F80110406840F48060B4
:1022B8004860E80708BF03F06AFC03F09AFC456829
:1022C80069F3030503F095FC456003F068FC0546D7
:1022D80003F05BFC03F066FC5AF8080C5AF8081C7B
:1022E80089034FF0180158BF0421800358F80100F2
:1022F80058BF042658F80610406840F4003048607B
:10230800E80708BF03F043FC03F073FC05684FF0CF
:10231800050969F3030503F06CFC056003F03FFC55
:10232800054603F032FC03F03DFC5AF8080C18226D
:102338005AF8081CC90358BF0422C0034FF01801FB
:1023480058F8020058BF042158F80110406840F4BA
:1023580080304860E80708BF03F019FC03F03AFC36
:10236800456A69F3030503F035FC456203F023FC75
:1023780000224FF0000803F021FC05460E4603F04A
:102388002EFC406AB043054303F029FC456203F084
:1023980021FC056A69F3030503F01CFC056203F0E0
:1023A8000AFC002203F00AFC05460E4603F017FC5F
:1023B800006AB043054303F012FC056203F00AFC0F
:1023C800456969F3030503F005FC456103F0F3FB78
:1023D800002203F0F3FB05460E4603F000FC4069BB
:1023E800B043054303F0FBFB456103F0F3FB0569CC
:1023F80069F3030503F0EEFB056103F0DCFB002243
:1024080003F0DCFB05460E4603F0E9FB0069B04328
:10241800054303F0E4FB056103F0DCFBC56A69F3DF
:10242800030503F0D7FBC56203F0C5FB002203F0E8
:10243800C5FB05460E4603F0D2FBC06AB043054310
:1024480003F0CDFBC56203F0C5FB856A69F303059C
:1024580003F0C0FB856203F0AEFB002203F0AEFB85
:1024680005460E4603F0BBFB806AB043054303F004
:10247800B6FB856203F0AEFB056869F3030503F05C
:10248800A9FB056003F097FB002203F097FB0546C4
:102498000E4603F0A4FB0068B043054303F09FFB1E
:1024A800056003F097FB456869F3030503F092FBA9
:1024B800456003F080FB002203F080FB05460E46D2
:1024C80003F08DFB4068B043054303F088FB45608B
:1024D80003F080FB856969F3030503F07BFB8561E5
:1024E80003F069FB002203F069FB05460E4603F082
:1024F80076FB8069B043054303F071FB856103F007
:1025080069FBC56969F3030503F064FBC56103F062
:1025180052FB002203F052FB05460E4603F05FFB18
:10252800C069B043054303F05AFBC56103F052FB91
:10253800C56869F3030503F04DFBC56003F03BFB79
:10254800002203F03BFB05460E4603F048FBC0683B
:10255800B043054303F043FBC56003F03BFB8568CC
:1025680069F3030503F036FB856003F024FB0022C2
:1025780003F024FB05460E4603F031FB8068B043A8
:10258800054303F02CFB8560A2AD284604F0CAFD84
:10259800A2ABA7F1540C0FCB8CE80F00A7F1440CA9
:1025A8008CE80F00A7F1340C8CE80F00A7F1240C7D
:1025B8008CE80F00A2ABA7F1140C0FCB8CE80F002E
:1025C80005F15400232106F003FD281DA7F154014D
:1025D8005022A29406F045FC8DF8FF820221606C1F
:1025E80061F3830060640020FFF76CFB07F8700C50
:1025F800A7F16C0007F86F1C002103F0FFFA43F203
:102608002840C2F20000006803281BD340F61420BB
:1026180040F62022C2F20000C2F2000247F8440C41
:10262800012047F8500C40F60C20C2F200000321AC
:1026380047F8540CA7F1540047F8408C47E9138831
:1026480003F049FA40F6642940F63C2B9FED218AB5
:10265800A7F1700AA7F16C08A7F154063C1FC2F253
:102668000009C2F2000B2846FFF712F92846FFF7C7
:10267800E8F9B0EE480A4046314647E913A947E968
:10268800155B03F0CDFA20464FF47A7102F083FC13
:10269800E9E740F6601040F69812C2F20000C2F274
:1026A800000207E040F6601040F6A812C2F20000EF
:1026B800C2F200022B2104F030FFFEDE40F6B81013
:1026C80040F6E412C2F20000C2F20002292104F02E
:1026D80024FFFEDE6F12833A7047B0B502AF96B0A2
:1026E80042F208050C46C2F200052868BFF35F8F66
:1026F80048BB55E8000F48B90121BFF35F8F45E893
:10270800001232B155E8000F0028F8D00021BFF3BD
:102718002F8FBFF35F8FB1B1002141F210402950D4
:1027280041F20C4029500120C5E90101022002951F
:102738008DF80C10BFF35F8F286002A8BFF35F8F7E
:1027480004F0C1FE1AE0012801BF10BF2868BFF3DA
:102758005F8F012801BF10BF2868BFF35F8F012872
:102768000AD110BF2868BFF35F8F012804D110BFBA
:102778002868BFF35F8FE6E7022823D1A868D0BB9B
:1027880002A82146502206F06CFB41F20C4041F2AF
:1027980010442A5829598B1A402B04BF01322A5059
:1027A80001F03F0002A9502200EB800005EB001069
:1027B8000C3006F056FB2859013028510020A8603B
:1027C80016B0B0BD58B940F6F82040F62032C2F233
:1027D8000000C2F20002282104F09FFEFEDE40F64F
:1027E800842040F6E822C2F20000C2F20002112161
:1027F80004F093FEFEDE40F6384040F60443C2F291
:10280800000002AA009040F2C860C2F20000C2F2C2
:102818000003102104F0CDFEFEDEF0B503AF2DE974
:10282800000B84B042F208058046C2F20005286811
:10283800BFF35F8F48BB55E8000F48B90121BFF3CC
:102848005F8F45E8001232B155E8000F0028F8D034
:102858000021BFF32F8FBFF35F8FB1B1002141F289
:102868001040295041F20C4029500120C5E90101CE
:10287800022001958DF80810BFF35F8F286001A82A
:10288800BFF35F8F04F01FFE1AE0012801BF10BFDD
:102898002868BFF35F8F012801BF10BF2868BFF306
:1028A8005F8F01280AD110BF2868BFF35F8F012806
:1028B80004D110BF2868BFF35F8FE6E7022858D11C
:1028C800D5F8089009F1010100296BDD41F21040AB
:1028D80041F20C422858AA58A960904217D1002109
:1028E80029B38A68D1E900408B89C8E9010208F157
:1028F8000E0091F84E600E314022A8F80C3006F018
:1029080071FA002E18BF012688F84E6015E0811A6A
:102918001BD0B0FBF1F202FB1100402821D200EBE2
:10292800800005EB001000F10C010029D9D108F155
:1029380004004C2106F04CFB0224C8F80040C5F8FE
:10294800089004B0BDE8000BF0BD40F6B03040F68A
:102958009832C2F20000C2F20002392104F0DDFD13
:10296800FEDE40F60C024021C2F2000204F0EDFD4A
:10297800FEDE58B940F6F82040F62032C2F20000D8
:10298800C2F20002282104F0C8FDFEDE40F68420D1
:1029980040F6E822C2F20000C2F20002112104F05F
:1029A800BCFDFEDE40F6484040F61443C2F200008B
:1029B80003AA009040F6E930C2F20000C2F2000318
:1029C800182104F0F6FDFEDEB0B502AFC2684AF683
:1029D800AB2CCAF6AA2CFAB1D0E900E3A3EB0E049B
:1029E800A4FB0C450024C460541EB4EBD50F0DD2D3
:1029F80085682A44826004EB44020EEB82020C32A2
:102A08009D1AA5FB0C54B1EBD40F0DD30022002165
:102A1800036008461146B0BDD0E900239D1AA5FB06
:102A28000C54B1EBD40FF1D201EB4105836802EBF2
:102A38008502194402F10C054B1C056083600846A9
:102A48001146B0BDD0B502AFC16859B9D0E900127E
:102A5800914224D0826801F10C030360531C836007
:102A68001046D0BDD0E900C24AF6AB23CAF6AA2365
:102A78004C1EA2EB0C0EAEFB033E0023C360B4EB6E
:102A8800DE0F0BD283681944816004EB44010CEB20
:102A980081010C3101609142DCD100E0026000212B
:102AA8000020D0BDD1E900234FF0010CC9689A1A63
:102AB8004AF6AB23CAF6AA23A2FB0323C1EBD3022F
:102AC800DB088B4238BF0022C0E9002C82607047C7
:102AD800D0B502AFC2688A421DD9D0E900CE4AF605
:102AE800AB24CAF6AA24AEEB0C03A3FB0434CB43F5
:102AF8001A44C260B1EBD40F26D201EB41028368BD
:102B080019440CEB820202F10C044B1C0460836034
:102B180008461146D0BDCAB1D0E900C34AF6AB2475
:102B2800CAF6AA24A3EB0C01A1FB0414511EB1EBB5
:102B3800D40F10D201EB410183680CEB81011A44D8
:102B48000C318260016007E0C0F800E0002100223B
:102B580008461146D0BD03600021C1600022084626
:102B68001146D0BD0246C06868B1D2E900130138E9
:102B7800D06099421FBF906801F10C031360431C99
:102B88001CBF93607047002000217047CA688AB153
:102B9800D1E90031C91A4AF6AB23CAF6AA23A1FB28
:102BA8000313B2EBD30F28BFDA0801218260C0E912
:102BB80000217047002201218260C0E9002170478E
:102BC8007047F0B503AF2DE90007D0F804A04AF626
:102BD800AB2E4FF0000CCAF6AA2E0025A94226D02B
:102BE800C4682A466CB9046854451FBF551C8668DA
:102BF80004F10C0303601EBF731C8360002CEDD12D
:102C08001BE0D0F80090C0F80CC0AAEB0906A6FBA0
:102C18000E68661EB6EBD80F0DD285682C4484600A
:102C280006EB460409EB84040C340460DCE700205E
:102C3800BDE80007F0BDC0F800A001201146BDE8BE
:102C48000007F0BDD0B502AFD1B18E46C168D0F84B
:102C580004C04B1E00215A1C1EBFC3600268624597
:102C68000CD001318468013B0C328E45026004F1BE
:102C780001028260EFD100207146D0BD0120D0BD95
:102C880000210020D0BDD4D4F0B503AF4DF804BD69
:102C9800E0B0044608681546DFE810F004005C015F
:102CA800E0002F016E46043130464FF4C07206F042
:102CB800D8F820462946324600F0E0F9691C06F1AA
:102CC8000C02204600F0DAF9A91C06F11802204689
:102CD80000F0D4F9E91C06F12402204600F0CEF9F0
:102CE800291D06F13002204600F0C8F9691D06F1D9
:102CF8003C02204600F0C2F9A91D06F14802204610
:102D080000F0BCF9E91D06F15402204600F0B6F9BE
:102D180005F1080106F16002204600F0AFF905F15F
:102D2800090106F16C02204600F0A8F905F10A0134
:102D380006F17802204600F0A1F905F10B0106F131
:102D48008402204600F09AF905F10C0106F1900280
:102D5800204600F093F905F10D0106F19C0220468A
:102D680000F08CF905F10E0106F1A802204600F0EA
:102D780085F905F10F0106F1B402204600F07EF94D
:102D880005F1100106F1C002204600F077F905F1BF
:102D9800110106F1CC02204600F070F905F112018C
:102DA80006F1D802204600F069F905F1130106F191
:102DB800E402204600F062F905F1140106F1F00280
:102DC800204600F05BF905F1150106F1FC022046EA
:102DD80000F054F905F1160106F58472204600F05A
:102DE8004DF905F1170106F58A72204600F046F9FB
:102DF80005F1180106F59072204600F03FF905F13B
:102E0800190106F59672204600F038F905F11A0105
:102E180006F59C72204600F031F905F11B0106F514
:102E2800A272204600F02AF905F11C0106F5A872E5
:102E3800204600F023F905F11D0106F5AE72204683
:102E480000F01CF905F11E0106F5B472204600F0E9
:102E580015F905F11F0106F5BA7208E16E4604314D
:102E68003046902205F0FDFF20462946324600F004
:102E780005F9691C06F10C02204600F0FFF8A91CB0
:102E880006F11802204600F0F9F8E91C06F12402C0
:102E9800204600F0F3F8291D06F13002204600F024
:102EA800EDF8691D06F13C02204600F0E7F8A91D7F
:102EB80006F14802204600F0E1F8E91D06F1540247
:102EC800204600F0DBF805F1080106F16002204613
:102ED80000F0D4F805F1090106F16C02204600F073
:102EE800CDF805F10A0106F17802204600F0C6F88F
:102EF80005F10B0106F18402B9E06E460431304653
:102F0800542205F0AEFF20462946324600F0B6F8B6
:102F1800691C06F10C02204600F0B0F8A91C06F165
:102F28001802204600F0AAF8E91C06F124022046FF
:102F380000F0A4F8291D06F13002204600F09EF8A2
:102F4800691D06F13C02204600F098F8A91D06F11B
:102F580048028CE06E4604313046FC2205F081FFC1
:102F680020462946324600F089F8691C06F10C0211
:102F7800204600F083F8A91C06F11802204600F04C
:102F88007DF8E91C06F12402204600F077F8291D97
:102F980006F13002204600F071F8691D06F13C0286
:102FA800204600F06BF8A91D06F14802204600F003
:102FB80065F8E91D06F15402204600F05FF805F1B6
:102FC800080106F16002204600F058F805F10901F1
:102FD80006F16C02204600F051F805F10A0106F1ED
:102FE8007802204600F04AF805F10B0106F1840248
:102FF800204600F043F805F10C0106F19002204646
:1030080000F03CF805F10D0106F19C02204600F0A5
:1030180035F805F10E0106F1A802204600F02EF859
:1030280005F10F0106F1B402204600F027F805F17A
:10303800100106F1C002204600F020F805F1110148
:1030480006F1CC02204600F019F805F1120106F14C
:10305800D802204600F012F805F1130106F1E40247
:10306800204600F00BF805F1140106F1F0022046A5
:1030780000F004F860B05DF804BBF0BDF0B503AF34
:103088002DE9000F81B0D2F80090054690460C4615
:10309800A9F10200032828BF0120002800F0508170
:1030A80040F2E86A0128C2F2000A0DD168695AF8AC
:1030B8002010A14215D9DFE800F002262D344FEA8E
:1030C800041B202C33D26AE068695AF82010A14208
:1030D80010D9DFE800F002383E442001202C44D209
:1030E800F0E0601AD5F89811DFE801F0024C4F5271
:1030F800000150E0601AD5F89811DFE801F002D518
:10310800D8DB0001D9E004EB44004FEAC00B202CC7
:103118000DD244E004EB84004FEAC00B202C06D209
:103128003DE004EBC4004FEAC00B202C37D3402C01
:103138003ED2296804F01F00012202FA00F0C8629A
:103148002968243131E004EB4400C000202C0CD263
:10315800B8E004EB8400C000202C06D2B2E004EBF7
:10316800C400C000202CC0F0AD80402C80F0B4809A
:103178002A6804F01F01012303FA01F1D1622A68C9
:103188002432A5E000EB400004E000EB800001E001
:1031980000EBC000C00000F5007B202CC7D22968D6
:1031A8000120A0400863296828310A681043086094
:1031B80048F2800E0026C4F21D0E0BEB0E0C63467F
:1031C80043F8086B6869D5F898115AF82020A2428C
:1031D80088BF014640F2F860C2F2000050F8212092
:1031E800002000210EE090423EBF1E5010F1040066
:1031F800904211D21E50043038BF90420CD21E505B
:10320800411C0120C00701D0033105D291423CBFC7
:103218005E5011F10400E6D3D8F8040040F2000A29
:10322800C1F6FC7AB9F1010F0AEA804108BF20F023
:1032380060414FF08060CCF8041008BF4FF0846004
:103248004EF80B002E68306840F0A04030603068BF
:10325800C0015FBF30685FEAC01030685FEAC01025
:1032680002D43068C001F2D53046214600F08EFA0B
:10327800D8F80810B9F1010F0AEA814208BF21F015
:1032880060420260306820F0805030603068C001D1
:1032980041BF30685FEAC01030685FEAC0104FD5A0
:1032A8003068C001F2D44BE000EB400004E000EBD2
:1032B800800001E000EBC000C00000F50070202C89
:1032C800BFF453AF2A680121A14011632A6828324C
:1032D800136823EA0101116048F280014FF000628F
:1032E800C4F21D014250421800205060083269693A
:1032F800D5F898315AF82160A64288BF0B4640F2AB
:10330800F8610026C2F2000151F8231000230CE0F6
:10331800D050043338BF8B4212D2D050043338BF58
:103328008B420DD2D05001330126F60701D003336A
:1033380006D28B4204D2D050043338BF8B42E7D335
:103348003F2C9FBF98E8070004EB440305EB830379
:1033580003F548739FBF07C301B0BDE8000FF0BD78
:1033680040F6DC422046C2F20002402104F0EDF8AB
:10337800FEDEF0B503AF2DE9000B8EB0D0E90223D5
:1033880040F20001C2F200010025D618CDE9001074
:103398000295AB4261D0541C681CB44202901FBF16
:1033A800A81C0290941CB4421FBFE81C0290D41CB5
:1033B800B44251D0141D281DB44202901FBF681D8D
:1033C8000290541DB44247D0941DA81DB4420290E7
:1033D8001FBFE81D0290D41DB4423DD002F108047D
:1033E80005F10800B44202901FBF05F109000290E0
:1033F80002F10904B4422FD002F10A0405F10A00CF
:10340800B44202901FBF05F10B00029002F10B04B9
:10341800B44221D002F10C0405F10C00B442029030
:103428001FBF05F10D00029002F10D04B44213D044
:1034380002F10E0405F10E00B44202901FBF05F11F
:103448000F00029002F10F04B44205D0103510327B
:10345800402D02959DD100E005464E6940F2F86383
:10346800C2F2000353F8262095420AD9D1F89801F0
:1034780053F82000854204D901200EB0BDE8000BA6
:10348800F0BDD1F8984140F2E860C2F200004FF078
:10349800000950F8260001F5C46653F8244001F5E8
:1034A80048710690402D0A9007A8CDF8149004960C
:1034B800039180E8420228BF4025531BA4EB050670
:1034C80009D4002E07D540F6EC4003ADC2F2000047
:1034D8004FF000083AE040F6146007ADC2F2000071
:1034E800B3F1FF3F07DCB6F1FF3F04DD4FF0000901
:1034F8004FF000082AE0A2420BD20021B6F1FF3FAC
:10350800DCBF0D46084640F6EC41C2F2000103AAB2
:1035180011E040F6EC4003ADC2F2000094420FD235
:103528000021B3F1FF3FDCBF0D46084640F61461A9
:1035380007AAC2F20001A94680460846154605E0DA
:1035480040F614680DF11C09C2F20008C4680BAEFD
:1035580002A968460D9101A90C910B902846A04735
:1035680049B10A6803463046194600F021F8C0B24E
:103578000328F3D111E0B9F1000F13D0D8F80C40AB
:103588000BAD4846A04769B10A6803462846194664
:1035980000F00EF8C0B20328F3D103200EB0BDE846
:1035A800000BF0BD00200EB0BDE8000BF0BDD4D478
:1035B800F0B503AF2DE9000F81B0042A42D183464C
:1035C80000680C46DBE90165D5F80080016840F227
:1035D800E860C2F200004A6950F822303068A3421D
:1035E80005D9DFE802F002140D1826011FE0E21ADF
:1035F800D1F89831DFE803F002130816120114E03D
:1036080004EB8402D60012E002EB82020CE004EB29
:103618004402D6000BE004EBC402D60007E002EB3C
:10362800420201E002EBC202D20002F5007648F243
:103638008009C4F21D0956F8092002F07063B3F13D
:10364800406F04D1002001B0BDE8000FF0BD1F2C71
:1036580003D809682346303105E03F2C07D80968AC
:1036680004F01F032C31012505FA03F30B60082130
:1036780061F31B6249F806200022D0E900A1C1F6D7
:10368800FC72057C02EA8143BAF1010F08BF21F000
:103698006043002D1CBF417C43EA4173D0E902120C
:1036A80009EB060043603046434601F0B1F8B8F133
:1036B800090F01D2404622E0B8F10D0F01D20920CE
:1036C8001DE0B8F1110F01D20A2018E0B8F1150F6A
:1036D80001D20B2013E0B8F1190F01D20C200EE033
:1036E800B8F1210F01D20D2009E0B8F1310F01D254
:1036F8000E2004E00820B8F1410F38BF0F204FF02A
:103708004C41BAF1000F1CBF0021CCF66041202CBF
:1037180060F3134149F806104FF00101DBF800008F
:103728000068006816D2A140026B0A40012A01BF56
:10373800026B0A40012A026B04BF0A40012A03D126
:10374800026B0A40012AEFD00163032001B0BDE8F3
:10375800000FF0BD04F01F029140C26A0A40012A1E
:103768000BD1C26A0A40012A07D1C26A0A40012A5B
:1037780002BFC26A0A40012AEFD03F2C98BFC1623B
:10378800032001B0BDE8000FF0BDD4D43F2900F2FA
:103798004280DFE811F040004300460049004C0039
:1037A8004F005200550058005B005E006100640045
:1037B80067006A006D0070007300760079007C0075
:1037C8007F008200850088008B008E0091009400A5
:1037D80097009A009D00A000A300A600A900AC00D5
:1037E800AF00B200B500B800BB00BE00C100C40005
:1037F800C700CA00CD00D000D300D600D900DC0035
:10380800DF00E200E500E800EB00EE00F100F40064
:10381800F700FA00FD0000F50860704700F6840024
:10382800704700F68800704700F68C00704700F576
:103838000960704700F69400704700F698007047DA
:1038480000F69C00704700F50A60704700F6A40077
:10385800704700F6A800704700F6AC00704700F506
:103868000B60704700F6B400704700F6B800704768
:1038780000F6BC00704700F50C60704700F6C40005
:10388800704700F6C800704700F6CC00704700F596
:103898000D60704700F6D400704700F6D8007047F6
:1038A80000F6DC00704700F50E60704700F6E40093
:1038B800704700F6E800704700F6EC00704700F526
:1038C8000F60704700F6F400704700F6F800704784
:1038D80000F6FC00704700F51060704700F6041011
:1038E800704700F60810704700F60C10704700F596
:1038F8001160704700F61410704700F618107047F2
:1039080000F61C10704700F51260704700F624108E
:10391800704700F62810704700F62C10704700F525
:103928001360704700F63410704700F6381070477F
:1039380000F63C10704700F51460704700F644101C
:10394800704700F64810704700F64C10704700F5B5
:103958001560704700F65410704700F6581070470D
:1039680000F65C10704700F51660704700F66410AA
:10397800704700F66810704700F66C10704700F545
:103988001760704700F67410704700F6781070479B
:1039980000F67C107047D4D4F0B503AF2DE9000FC2
:1039A800B3B04369042B00F0268101684FF0010988
:1039B8004FF0000B0E6B0C96CE6A0B968E6A0E9625
:1039C80040F2E866496AC2F200060D91D0F89811F3
:1039D8000A9056F8230056F8211008441FA90E3102
:1039E800069111680022059100210892002209928F
:1039F80007900BEBCB020BEB8B0352425B42A1EB24
:103A08000B1EABEB8B01DC46D200C900DB0058452E
:103A180088BF8446DC4500F0E7800BF03F05483A54
:103A2800C5F12004B5F1200609FA05FAA3F1280327
:103A380029FA04F8A1F1180158BF09FA06F80D98F7
:103A480058BF4FF0000AAEF1100E08EA00060E98B3
:103A58000BF1010B00EA0A003043DBD00B980C9CF9
:103A680000EA08000AEA04063043D3D00A9840F274
:103A7800E865C2F20005ABF10104466955F826C0B5
:103A8800644508D2DFE806F0022913176FF00F002B
:103A9800A0EB0E012CE0D0F89861DFE806F00222D6
:103AA80010170EEB0C106FF00F01081A1EE06FF0E4
:103AB8002700C11A1CE06FF04700811A18E00CEBD0
:103AC8008C004042C3EBC00028380FE00CEBCC0060
:103AD8004042C2EBC000483808E06FF01700411AB6
:103AE80006E0ACEB8C00C1EBC000183800F50071A3
:103AF80048F28000C4F21D000D5805F03060B0F1A6
:103B0800007F66D148F28000C4F21D004218C5F358
:103B180003405668A0F10902072A06D240F6A070B1
:103B2800C2F2000050F8222009E048F63962C3F6D4
:103B3800E302A0FB02235A0802EBC202821A1FA862
:103B4800049505F40015039200F098FE0A9826F0F3
:103B58006042002D016808BFC6F38A42019218BF6F
:103B6800012502951F2C8A6801D8303104E03F2CCA
:103B780005D804F01F042C3109FA04F20A601FAAC0
:103B88000DF13C0EB2E84B10AEE84B105BCAAEE844
:103B98005B0092E87B008EE87B000A98D0F82066EC
:103BA8000498B6B1C0F34074ADF8880003980FA923
:103BB800219040220198209002981F90069805F0C5
:103BC80011F900201FA98DF8CB0005988DF8CA407F
:103BD800B0470898002140EA0A000890099840EA8E
:103BE80008000990079804E70A99089A0868026388
:103BF80008680999C16233B0BDE8000FF0BD40F212
:103C08000000C2F20000406904281CBF1046FFF7FC
:103C1800B0BB0220704740F20000C2F200004169C8
:103C2800042918BFC0F820267047B0B502AF01F0CC
:103C3800B6FF044601F0A9FF01F0B4FF43F21C40AF
:103C480004F00101C2F2000005782A0604BF01222F
:103C58000270002908BF01F09AFFE8B2B0FA80F0BC
:103C68004009B0BDF0B503AF2DE9000FADF6840DE6
:103C7800369001F094FF00F0010401F086FF01F096
:103C880091FF43F23C40C2F200000578002D04BFCA
:103C980001210170002C08BF01F079FF002D40F0D0
:103CA800AB850DF1DC0A36990AF58A600F900AF2A5
:103CB8005C4010900AF58D6011900AF274401290E1
:103CC8000AF5906013900AF28C4014900AF59360FC
:103CD80015900AF2A44016900AF5966017900AF219
:103CE800BC4018900AF5996019900AF2D4401A90CD
:103CF8000AF59C601B900AF2EC401C900AF59F6044
:103D08001D900AF204501E900AF5A2601F900AF254
:103D18001C5020900AF5A56021900AF23450229098
:103D28000AF5A86023900AF24C5024900AF5AB607B
:103D380025900AF2645026900AF5AE6027900AF2A0
:103D48007C5028900AF5B16029900AF294502A9084
:103D58000AF5B4602B900AF2AC502C900AF5B760C3
:103D68002D900AF2C4502E900AF5BA602F900AF2EC
:103D7800DC5030900AF5BD6031900AF2F450329070
:103D88000AF5C06033900AF20C6034900AF5C360FB
:103D980035900AF104004FF447720AF581690AF276
:103DA80014480AF584650AF22C440AF5876B0AF26E
:103DB800444605F056F848F200020020C4F21D02FD
:103DC800022137920F9ACDF8E014CDF8D414C2E945
:103DD8000000109ACDF8C814CDF8BC14C2E9000050
:103DE800119ACDF8B014CDF8A414C2E90000129AC3
:103DF800CDF89814CDF88C14C2E90000139ACDF8C8
:103E08008014CDF87414C2E90000149ACDF868142F
:103E1800CDF85C14C2E90000159ACDF85014CDF81D
:103E28004414C2E90000169ACDF83814CDF82C14C1
:103E3800C2E90000179ACDF82014CDF81414C2E98D
:103E48000000189ACDF80814FF91C2E90000199AE9
:103E5800CDF8EC14CDF8F814C2E900001A9ACDF8A0
:103E68000415CDF81015C2E900001B9ACDF81C15F1
:103E7800CDF82815C2E900001C9ACDF83415CDF804
:103E88004015C2E900001D9ACDF84C15CDF858151B
:103E9800C2E900001E9ACDF86415CDF87015C2E984
:103EA80000001F9ACDF87C15CDF88815C2E90000EE
:103EB800209ACDF89415CDF8A015C2E90000219AF2
:103EC800CDF8AC15CDF8B815C2E90000229ACDF8A6
:103ED800C415CDF8D015C2E90000239ACDF8DC1539
:103EE800CDF8E815C2E90000249ACDF8F415CDF80C
:103EF8000016C2E90000259ACDF80C16CDF8181660
:103F0800C2E90000269ACDF82416CDF83016C2E989
:103F18000000279ACDF83C16CDF84816C2E90000F3
:103F2800289ACDF85416CDF86016C2E90000299AEF
:103F3800CDF86C16CDF87816C2E900002A9ACDF8AB
:103F48008416CDF89016C2E900002B9ACDF89C167D
:103F5800CDF8A816C2E900002C9ACDF8B416CDF811
:103F6800C016C2E900002D9ACDF8CC16CDF8D816A7
:103F7800C2E900002E9ACDF8E416CDF8F016C2E991
:103F880000002F9A3599CDF8DC04C2E90000309A78
:103F9800CDF8D804CDF8D004C2E90000319ACDF8A4
:103FA800CC04CDF8C404C2E90000329ACDF8C004AC
:103FB800CDF8B804C2E90000339ACDF8B404CDF8BE
:103FC800AC04C2E90000349ACDF8A804CDF8A004E6
:103FD800C2E900004FF48072CDF89C04CDF8940437
:103FE800CDF89004CDF88804CDF88404CDF87C048D
:103FF800CDF87804CDF87004CDF86C04CDF86404DD
:10400800CDF86004CDF85804CDF85404CDF84C042C
:10401800CDF84804CDF84004CDF83C04CDF834047C
:10402800CDF83004CDF82804CDF82404CDF81C04CC
:10403800CDF81804CDF81004CDF80C04CDF804041C
:10404800CDF80004C9E90000C8E90000C5E900008E
:10405800C4E90000CBE90000C6E90000C1E900009E
:10406800CDF8FC064CF22000C4F20F0001689DF860
:10407800F83321F47F71DFE803F0040404100D0421
:104088000F0441F400710022DFE803F00A0C0E0F60
:1040980004040F0F042208E000221143002204E068
:1040A800242202E0102200E00C2211430160816CFE
:1040B800192241F440518164416E41F470714166A6
:1040C80048F2A400C4F21F00016862F30401016011
:1040D800D0F8F01141F2B001C0F8F011D0F8E8368C
:1040E80023F00303C0F8E836436862F3040343602F
:1040F800D0F8F421C0F8F411379C206820F0004073
:1041080020602068C00241BF20685FEAC0202068A4
:104118005FEAC02002D52068C002F2D4206820F4EB
:10412800802020602068C00241BF20685FEAC0206C
:1041380020685FEAC02002D52068C002F2D4206857
:1041480040F0007020602068800141BF20685FEA6D
:10415800801020685FEA801006D520688001F2D4BC
:1041680002E02068C00109D42068C0015FBF206850
:104178005FEAC01020685FEAC010F2D54DF6807182
:104188002068CFF657710025084042F23F01C0F27F
:1041980028010843206041F200006FF04046C0F259
:1041A800B2006560606320462946FFF7EFFA0135E3
:1041B8000660402DF7D1002004F19001206104F140
:1041C8008005606104F5806EA06104F58268A064D2
:1041D80004F58469A06204F58666606204F5886B5C
:1041E800206304F58A62E0620023369104F1A0019D
:1041F800359104F1B001349104F1C001339104F117
:10420800D001329104F1E001319104F1F0013091D3
:1042180004F580712F9104F588712E9104F5907141
:104228002D9104F598712C9104F5A0712B9104F54A
:10423800A8712A9104F5B071299104F5B8712891F3
:1042480004F5C071279104F5C871269104F5D07161
:10425800259104F5D871249104F5E071239104F5B2
:10426800E871229104F5F071219104F5F87120911B
:1042780004F500711F9104F504711E9104F508718D
:104288001D9104F50C711C9104F510711B9104F536
:1042980014711A9104F51871199104F51C7118918B
:1042A80004F52071179104F52471169104F528710D
:1042B800159104F52C71149104F53071139104F5DE
:1042C8003471129104F53871119104F53C71109113
:1042D80004F540710F9104F544710E9104F548718D
:1042E8000D9104F54C710C9104F550710B9104F586
:1042F80054710A9104F55871099104F55C7108919B
:1043080004F56071079104F56471069104F568710C
:10431800059104F56C71049104F57071039104F52D
:104328007471029104F57871019104F57C71009122
:1043380004E0013308603F2B00F0A480A3F1010CD6
:104348002946BCF13D0FF4D8DFE80CF01F212325E6
:1043580027292B2D2F31333537393B3D3F414345F5
:1043680047494B4D4F51535557595B5D5F616365E5
:1043780067696B6D6F71737577797B7D7F818385D5
:1043880087898B8D8F91939597993699D1E7359930
:10439800CFE73499CDE73399CBE73299C9E731991B
:1043A800C7E73099C5E72F99C3E72E99C1E72D993B
:1043B800BFE72C99BDE72B99BBE72A99B9E729995B
:1043C800B7E72899B5E72799B3E72699B1E725997B
:1043D800AFE72499ADE72399ABE72299A9E721999B
:1043E800A7E72099A5E71F99A3E71E99A1E71D99BB
:1043F8009FE71C999DE71B999BE71A9999E71999DB
:1044080097E7189995E7179993E7169991E71599FA
:104418008FE714998DE713998BE7129989E711991A
:1044280087E7109985E70F9983E70E9981E70D993A
:104438007FE70C997DE70B997BE70A9979E709995A
:1044480077E7089975E7079973E7069971E705997A
:104458006FE704996DE703996BE7029969E701999A
:1044680067E7009965E7714663E7414661E74946B2
:104478005FE731465DE759465BE7114659E700209B
:10448800C4F86004379841F2280240F2A8660AF599
:10449800CC79C2F2000641689143416001683C9AB8
:1044A8009D9B56F8222040F2E866C2F2000656F8B4
:1044B800233001261A444EF68073CDF6B07302F00D
:1044C8007F021940114401F544310160DDE93704E8
:1044D8009DF8E7B09DF8E6C09DF8E410BBF1010F28
:1044E8009DF8E550036843F0A043036098BFB346C6
:1044F800012D98BF3546012988BF0E460AF11401DF
:104508000368DB015FBF02685FEAC21202685FEA04
:10451800C21202D40268D201F2D5DDF8DCE0012C27
:104528004FF0010398BF1C4640F2FF3A544528BF9C
:1045380054463F2E28BF3F264FF6004ADEF850204B
:10454800CFF6FF7A0AEB86221F2DC2EA44524FF0BB
:104558001F0428BF2546BCF1010F88BF63461F2BE7
:1045680028BF23466FF01F0606EB4515013B05F4EF
:10457800787503F01F032A44BBF11F0F1A4440F259
:104588000003CFF6FF7338BF5C4603EB044303F424
:10459800F8131A4402F1C04202F1FF5242F00042FD
:1045A800CEF85020026822F0805202600268D201E0
:1045B80041BF02685FEAC21202685FEAC21202D50E
:1045C8000268D201F2D4DDF8E8A001239DF8EF409B
:1045D80040F2FF30BAF1010F9DF8EE209DF8ED6032
:1045E8009DF8EC5098BF9A46824528BF8246012C18
:1045F80098BF1C461F2C4FF01F0028BF0446012AF5
:1046080098BF1A461F2A28BF0246012E98BF1E4689
:104618001F2E9DF8F9E328BF0646012D98BF1D46B9
:104628003F2D28BF3F25BEF1000F0DD09DF8FAC3DE
:10463800BCF1010F88BF63461F2B38BF18464FF4E3
:10464800F85303EA002C01E04FF4807C02F10708DC
:10465800379A05F11F0004F1070B0736156845F076
:10466800A04515601568ED015FBF13685FEAC313C5
:1046780013685FEAC31302D41368DB01F2D548F26A
:104688001833D2F8045CCCF20803BEF1000F03EA39
:10469800050340F20005C3F6F07505EB0A5404EA79
:1046A800050460F38E2406F0070044EA401008F081
:1046B800070420440BF0070440EA044046F2FF04D4
:1046C8001844C2F8040C1068C7F6E47440F400609B
:1046D80010604FF0802008BF4FF00040D2F8003C37
:1046E8003C9E604423409D9D184340EA064040EAB2
:1046F800C540C2F8000C106820F0805010601068A7
:10470800C00141BF10685FEAC01010685FEAC010BE
:1047180002D51068C001F2D43798D0F8002C5204A2
:1047280064D4026842F0A04202600268D2015FBF0E
:1047380002685FEAC21202685FEAC21202D4026823
:10474800D201F2D50DF5E0654FF4C2723C9C2846C3
:1047580004F087FB37AE294600223046FEF794FA6C
:104768000DF5E06549464FF4C272284604F079FB1E
:1047780040F2E8602946C2F2000050F82420304692
:10478800FEF782FA3798016821F080510160379866
:104798000168C90141BF01685FEAC11101685FEAA8
:1047A800C11102D50168C901F2D401F0F8F9044633
:1047B80001F0EBF901F0F6F940F2000037A9C2F276
:1047C800000040F2246204F04CFBE00708BF01F04F
:1047D800DEF94EF210104FF08061CEF20000016059
:1047E80005200DF6840DBDE8000FF0BD03200DF681
:1047F800840DBDE8000FF0BD40F6584040F69072B9
:10480800C2F20000C2F200022B2102F086FEFEDE98
:1048180080B56F46102B28BF10234FF0000CBCEB5F
:10482800930F2AD04FEA930C48F28803C4F21D0371
:1048380000EB030E07E0BCF1010CA2EB03021944E4
:104848000EF1040E19D0002A08BF80BD0B78042A87
:104858008EF80330134628BF0423012BEBD0487889
:10486800022B8EF80200E6D08878032B8EF8010020
:104878001CBFC8788EF80000DDE780BDF0B503AF37
:104888002DE9000F83B00E4640211546824604F0FC
:104898009CFB102D28BF10250020B0EB950F6BD086
:1048A80048F288000023C4F21D00311801F1030EFC
:1048B80001F102084E1CA8084FF04009029000912F
:1048C8000DE00298A9EB0B09DA4401330EF1040E4E
:1048D80008F1040804360431013802904CD0102B3A
:1048E8004AD04FF0040BB9F1040F38BFCB46ABF1F7
:1048F80001040420032C04D254461BF003051ED1E6
:10490800DFE72BF003006FF003044542002001931A
:104918000AEB04031EF8002004341A7118F800206A
:104928005A71325C9A710A5C04388542DA71EFD1A7
:10493800019BAAEB000404301BF00305C1D01A4602
:10494800009B01902046019C03EB820C1346012D2D
:10495800A444CDF804C01CF8014C0470B1D004463E
:104968000198022D10F8023C637013461EBF01988F
:1049780010F8030CA070A4E703B0BDE8000FF0BD69
:10498800D0B502AF84B00078DFE800F0030A111850
:104998001F0001AC41F26702C2F200020F231AE0C5
:1049A80001AC40F2B862C2F20002102313E001AC7D
:1049B80041F24402C2F2000223230CE001AC41F2AE
:1049C8002402C2F20002202305E001AC40F6BC72CA
:1049D800C2F200020723204603F081FA204602F0C3
:1049E8000FFE04B0D0BDD0B502AF82B001F0FCF824
:1049F800C468052060F3030401F0F6F8C46001A858
:104A0800012100F074FA01F0CAF8044601F0BDF87B
:104A180001F0C8F84CF26C001822C4F20A000168D0
:104A28000068000758BF042209074FF0180041F238
:104A38003C1158BF0420C2F200018A580858516836
:104A480041F008014160E00708BF01F0A0F802B09A
:104A5800D0BD704780B56F4682B000208029019094
:104A680007D28DF80410012201A900F077F902B0ED
:104A780080BDB1F5006F09D20222084662F39F108B
:104A88008DF80500C02040EA911028E002200A466F
:104A980060F39F12B1F5803F11D28DF806208A0984
:104AA80060F39F12E0208DF8052040EA11308DF860
:104AB8000400032201A900F051F902B080BD8DF86D
:104AC80007208A0960F39F128DF806200A0B60F30D
:104AD8009F12F0208DF80520042240EA91408DF8BD
:104AE800040001A900F03AF902B080BDF0B503AFA7
:104AF8004DF804BD88B0006802AA019091E878508A
:104B0800104641F27801C2F2000180E8785001A80D
:104B180002F0B7FD08B05DF804BBF0BD00F01EB9A7
:104B280041F290020021C2F200020523C0E90032DE
:104B380081607047D0B502AF00220C460146C4F22E
:104B48002E020120914218BFD0BD40F22462D4E960
:104B58000113C2F20002C2E9001341F2900110727F
:104B6800C2F20001104600F06DFF08B10020D0BD70
:104B780043F228412068C2F20001BFF35F8F08604A
:104B8800BFF35F8F05F074F905F077F90420D0BD05
:104B980004F064BBF0B503AF2DE900070646007AC0
:104BA80060B10D4604F052FB40B143F22840D5F8FD
:104BB8000080C2F200000068804503D90020BDE8EB
:104BC8000007F0BD7168012029B333686FF0030254
:104BD80002EB8101D5E901951E1D002400EB910A25
:104BE80003E001340C36A245E8D03068A842F8D179
:104BF80056F8040C49462A4604F057FA0028F0D122
:104C0800706800218045A0F10600B0FA80F098BFD6
:104C1800012140090843BDE80007F0BDF0B503AF26
:104C28002DE9000F93B00446007A002874D0894615
:104C380004F00CFB00286FD043F22840D9F800A0FC
:104C4800C2F200000068824566D8606808B323682D
:104C58006FF0030202EB8000D9E901B801211C1DA5
:104C680001EB9005002603E001360C34B54253D021
:104C780020684045F8D154F8040C5946424604F0DF
:104C880014FA0028F0D16068062818BF824502D9B6
:104C980042E0D9E901B800F082FF054600F075FF4F
:104CA80000F080FF43F62D0041F27801C0F20000C9
:104CB8000CAA06900AA8059043F63300C0F200003B
:104CC800C2F20001049008A8039044F27130C0F2C7
:104CD8000000CDF81CA0029007A8019009F10C0073
:104CE8000A9012A80B900320119001A810900020A0
:104CF800CDE90E0004200D9041F21810C2F2000018
:104D0800CDE908B80C900BA802F0BBFC0446E807F4
:104D180008BF00F03CFF1CB913B0BDE8000FF0BDA0
:104D280040F6C47041F20012C2F20000C2F2000262
:104D3800202102F0F2FBFEDED0B502AF00F02FFF1B
:104D4800044600F022FF00F02DFF05F011F8E007FF
:104D580018BFD0BDBDE8D04000F019BFF0B503AF13
:104D68002DE9000F8DB092468B4604F06FFA0021B2
:104D7800002800F0A28001200BEB0A060A9003A885
:104D88004FF00A0980E8020C00250020CDF82C908D
:104D9800CDE908A9CDE906A107E00299012000297B
:104DA80049464FF00A0900F09380554506D900227C
:104DB80089460292D046C00755D162E0CDE900018C
:104DC80001E0554547D8AAEB05020BEB0501072A78
:104DD8001CD802B300200B5C0A2B2BD00B18013314
:104DE800B34219D01C780A2C27D00133B34213D010
:104DF8001C780A2C24D00133B3420DD01C780A2C1D
:104E080021D001330430B342E5D105E00A2003F094
:104E180084F80A4601E000220020012816D102EB9E
:104E2800050808F10105D045CBD21BF80800484514
:104E3800C7D136E002460120EFE7421C0120ECE72B
:104E4800821C0120E9E7C21C0120E6E70199002045
:104E58000290554602E00199002002908946D0460A
:104E68000098C0070DD041F238100C46C2F200007D
:104E7800022104F073FFB0F1FF3F1ADD022821463A
:104E880020D3B8EB01043FF488AF0BEB01002146B7
:104E980004F064FFB0F1FF3F0BDD84427FF67DAF85
:104EA80010E00120A946029001990098C007DAD1C4
:104EB800E7E7B0F1FF3118BF012108460DB0BDE8A2
:104EC800000FF0BD012108460DB0BDE8000FF0BD90
:104ED800002108460DB0BDE8000FF0BD006802F0E3
:104EE800BCBB0A46D0E90031184603F010B8F0B54B
:104EF80003AF4DF804BD0D4600F051FE064600F024
:104F080044FE00F04FFE4CF26C0041F23C14C4F237
:104F18000A0018230168C2F20004026821F008019F
:104F280065F3C301120758BF0423E35818225B68CE
:104F380001600168006800074FF0180058BF04209E
:104F48000907205858BF0422A158DA08406862F3BC
:104F5800C3004860F00708BF00F019FE01205DF8A3
:104F680004BBF0BD4EF21000CEF20000016821F043
:104F780001010160016821F00401016063214160C1
:104F880000218160016841F001010160016841F080
:104F9800020101607047002908BF704743F22040B2
:104FA800C2F200000268114402688A4208D202680C
:104FB8008A423CBF02688A4202D202688A42F3D31C
:104FC800704743F22040C2F20000016801310160DD
:104FD8007047B0B502AF4EF69C540025CEF20004DF
:104FE800102044F8085C20602520C0F2083060607A
:104FF8001120C0F2200020602120C0F20270606001
:105008001220C2F2000020602520C1F20830606042
:105018001320C2F2200020602720C1F20B3060600C
:105028001420C4F2000020603320C1F21030606008
:105038001520C6F2000020602F20C0F20B706060BF
:10504800012044F8080C00F0A4FD00F0A5FDC4F808
:10505800B45100F09EFD00F09FFD4FF4403044F83D
:10506800880C4CF25400C4F20F00016821F00301CF
:105078000160BDE8B040FCF71BBB0220704701206F
:105088007047D2F800C0DCF86C3043F44033CCF8F9
:105098006C301268D36E43F44073D3667047F0B532
:1050A80003AF2DE90007E2B0044600F078FD05469D
:1050B80000F06BFD00F076FD43F22F4005F0010192
:1050C800C2F200000678002E04BF012202700029F7
:1050D80008BF00F05CFD002E40F0198300F05FFD72
:1050E800054600F052FD00F05DFD43F2304005F04A
:1050F8000101C2F200000678002E04BF01220270EE
:10510800002908BF00F043FD002E40F0008300F0A6
:1051180046FD054600F039FD00F044FD43F23940F4
:1051280005F00101C2F200000678002E04BF01223A
:105138000270002908BF00F02AFD002E40F0E78227
:1051480000F042FD00F02BFD054600F01EFD00F0CA
:1051580029FD43F2494005F00101C2F2000006783A
:10516800002E04BF01220270002908BF00F00FFDC5
:10517800002E40F0CC8200F012FD054600F005FD3F
:1051880000F010FD43F2484005F00101C2F20000B2
:105198000678002E04BF01220270002908BF00F023
:1051A800F6FC002E40F0B38200F0F9FC054600F052
:1051B800ECFC00F0F7FC43F2424005F00101C2F2BA
:1051C80000000678002E04BF01220270002908BFE3
:1051D80000F0DDFC002E40F09A8200F0E0FC05466D
:1051E80000F0D3FC00F0DEFC43F22C4005F0010196
:1051F800C2F200000678002E04BF012202700029C6
:1052080008BF00F0C4FC002E40F0818200F0C7FC0B
:10521800054600F0BAFC00F0C5FC43F24D4005F02D
:105228000101C2F200000678002E04BF01220270BC
:10523800002908BF00F0ABFC002E40F0688200F0A7
:10524800AEFC054600F0A1FC00F0ACFC43F2444083
:1052580005F00101C2F200000678002E04BF012209
:105268000270002908BF00F092FC002E40F04F8227
:1052780000F095FC054600F088FC00F093FC43F232
:10528800354005F00101C2F200000678002E04BF87
:1052980001220270002908BF00F079FC002E40F0BE
:1052A800368200F07CFC054600F06FFC00F07AFCCA
:1052B80043F23D4005F00101C2F200000678002EDD
:1052C80004BF01220270002908BF00F060FC002E14
:1052D80040F01D8200F063FC054600F056FC00F02B
:1052E80061FC43F24E4005F00101C2F2000006786D
:1052F800002E04BF01220270002908BF00F047FCFD
:10530800002E40F0048200F04AFC054600F03DFC07
:1053180000F048FC43F2414005F00101C2F20000F0
:105328000678002E04BF01220270002908BF00F091
:105338002EFC002E40F0EB8100F031FC054600F019
:1053480024FC00F02FFC43F2464005F00101C2F2B4
:1053580000000678002E04BF01220270002908BF51
:1053680000F015FC002E40F0D28100F018FC054634
:1053780000F00BFC00F016FC43F2364005F001018A
:10538800C2F200000678002E04BF01220270002934
:1053980008BF00F0FCFB002E40F0B98100F0FFFBD5
:1053A800054600F0F2FB00F0FDFB43F2384005F043
:1053B8000101C2F200000678002E04BF012202702B
:1053C800002908BF00F0E3FB002E40F0A08100F0A8
:1053D800E6FB054600F0D9FB00F0E4FB43F233405E
:1053E80005F00101C2F200000678002E04BF012278
:1053F8000270002908BF00F0CAFB002E40F0878128
:1054080000F0CDFB054600F0C0FB00F0CBFB43F2FB
:10541800344005F00101C2F200000678002E04BFF6
:1054280001220270002908BF00F0B1FB002E40F0F5
:105438006E8100F0B4FB054600F0A7FB00F0B2FB5C
:1054480043F24A4005F00101C2F200000678002E3E
:1054580004BF01220270002908BF00F098FB002E4B
:1054680040F0558100F09BFB054600F08EFB00F0F4
:1054780099FB43F2454005F00101C2F200000678AD
:10548800002E04BF01220270002908BF00F07FFB34
:10549800002E40F03C8100F082FB054600F075FBD1
:1054A80000F080FB43F22D4005F00101C2F200003C
:1054B8000678002E04BF01220270002908BF00F000
:1054C80066FB002E40F0238100F069FB054600F0E2
:1054D8005CFB00F067FB43F2314005F00101C2F2CA
:1054E80000000678002E04BF01220270002908BFC0
:1054F80000F04DFB002E40F00A8100F050FB0546FD
:1055080000F043FB00F04EFB43F2374005F0010189
:10551800C2F200000678002E04BF012202700029A2
:1055280008BF00F034FB002E40F0F18000F037FB9C
:10553800054600F02AFB00F035FB43F24B4005F02E
:105548000101C2F200000678002E04BF0122027099
:10555800002908BF00F01BFB002E40F0D88000F0A7
:105568001EFB054600F011FB00F01CFB43F23A401D
:1055780005F00101C2F200000678002E04BF0122E6
:105588000270002908BF00F002FB002E40F0BF8027
:1055980000F005FB054600F0F8FA00F003FB43F2C3
:1055A8003F4005F00101C2F200000678002E04BF5A
:1055B80001220270002908BF00F0E9FA002E40F02D
:1055C800A68000F0ECFA054600F0DFFA00F0EAFAEF
:1055D80043F24C4005F00101C2F200000678002EAB
:1055E80004BF01220270002908BF00F0D0FA002E83
:1055F80040F08D8000F0D3FA054600F0C6FA00F0BE
:10560800D1FA43F23E4005F00101C2F200000678EB
:10561800002E04BF01220270002908BF00F0B7FA6B
:10562800002E74D100F0BBFA054600F0AEFA00F087
:10563800B9FA43F22E4005F00101C2F200000678E3
:10564800002E04BF01220270002908BF00F09FFA53
:10565800002E5CD100F0A3FA054600F096FA00F09F
:10566800A1FA43F2434005F00101C2F200000678B6
:10567800002E04BF01220270002908BF00F087FA3B
:10568800002E44D100F08BFA054600F07EFA00F0B7
:1056980089FA43F23B4005F00101C2F200000678A6
:1056A800002E04BF01220270002908BF00F06FFA23
:1056B8006EBB00F074FA054600F067FA00F072FA63
:1056C80043F2324005F00101C2F200000678002ED4
:1056D80004BF01220270002908BF00F058FAB6B9C9
:1056E80000F05DFA054600F050FA00F05BFA43F26C
:1056F800404005F00101C2F200000678002E04BF08
:1057080001220270002908BF00F041FA56B1204674
:105718004FF4227103F05CFC0220A06762B0BDE880
:105728000007F0BD40F2000E0220C4F2080EC4F8D3
:1057380080020EF548160EF58C100EF5B6130EF510
:105748004715C4E918560EF59015A3660EF58A1389
:10575800C4E912300EF58E120EF5881604F15000C9
:105768000EF598210EF5451980E824020EF55D1511
:105778000EF55F12C4F87C120EF58611C4E91016F6
:105788000EF55C16C4E90A650EF55A100EF590265A
:105798000EF546180EF55E13C4E90C320EF55911D4
:1057A800C4E908100EF580420EF58820C4E9000609
:1057B8005DAEC4F85C800EF58418C4E9042E0EF5BD
:1057C800821937F81B0C4FF0000A17F8192C0EF540
:1057D800571184F86F200EF5B023A4F86D000EF56C
:1057E800F82545CE4FF0010CC4E90E980EF558186F
:1057F800C4E91EA004F18000C4E9061837F81E1C8D
:1058080080E8440454AA04F18C00C4E902530EF55C
:10581800B813A4F87510DDE95991236717F81C3CF3
:1058280084F87730DDE95B352AC004F1A003C4F8B9
:1058380084C284F874C0DDE957C807CA83E8000742
:1058480004F1AC0307C3DDE95050DDE95212C4E9A5
:105858002EA004F1C00080E80604C4F8D450DDE9A5
:105868004A50DDE94C12C4E936A004F1E00080E8B2
:105878000604C4F8F450DDE94450DDE94612C4E9F1
:105888003EA004F5807080E80604C4F81451DDE9F0
:105898003E50DDE94012C4E946A004F5907080E866
:1058A8000604C4F83451DDE93850DDE93A12C4E998
:1058B8004EA004F5A07080E80604C4F85451DDE950
:1058C8003250DDE93412C4E956A004F5B07080E81E
:1058D8000604C4F87451DDE92C50DDE92E12C4E940
:1058E8005EA004F5C070DDE94E3680E80604C4F811
:1058F8009451DDE92650DDE92812C4E93336DDE9A3
:105908004836C4E966A004F5D070C4E93B36DDE941
:10591800423680E80604C4F8B451DDE92050DDE9D8
:105928002212C4E94336DDE93C36C4E96EA004F529
:10593800E070C4E94B36DDE9363680E80604C4F881
:10594800D451DDE91A50DDE91C12C4E95336DDE90A
:105958003036C4E976A004F5F070C4E95B36DDE9B9
:105968002A3680E80604C4F8F451DDE91450DDE96C
:105978001612C4E96336DDE92436C4E97EA004F5CD
:105988000070C4E96B36DDE91E3680E80604C4F809
:105998001452DDE90E50DDE91012C4E97336DDE971
:1059A8001836C4E986A004F50870C4E97B36DDE939
:1059B800123680E80604C4F83452DDE90850DDE9FF
:1059C8000A12C4E98336DDE90C36C4E98EA004F571
:1059D8001070C4E98B36DDE9063680E80604C4F8A1
:1059E8005452DDE90250DDE90412C4E99336DDE9D9
:1059F8000036C4E996A004F5187080E806040EF590
:105A0800A82084F86CA0C4E926ACC4E99B36C4F885
:105A18007452C4F8780262B0BDE80007F0BD704760
:105A2800006841F29412C2F200020B4652F830109C
:105A380002EBC0004268184602F089B8002070479F
:105A48007047704780B56F4643F2244EC2F2000E8D
:105A58005EE8003F53B94FF0010CBFF35F8F4EE88B
:105A680000C22AB15EE8003F002BF8D0BFF32F8FA9
:105A7800BFF35F8F13B1012B1ED02AE040F23062D2
:105A8800C2F20002C2E900010220BFF35F8FCEF824
:105A980000000020BFF35F8F80BD10BFDEF800005C
:105AA800BFF35F8F012801BF10BFDEF80000BFF30E
:105AB8005F8F01280DD110BFDEF80000BFF35F8FA4
:105AC800012801BF10BFDEF80000BFF35F8F012877
:105AD800E3D0012080BDF0B503AF2DE9000F91B0F0
:105AE80043F2244592E8000BC2F20005D2E90363B1
:105AF800D2E90542D5F800E0BFF35F8F40F2306588
:105B080010920122C2F200050F920022D5E900ACE2
:105B1800BEF1020FCDE90D34CDE90AB60C92099217
:105B280090E87C004069089003A8009141F2C411F4
:105B38007CC041F26010C2F20000C2F20001CDE95F
:105B4800018908BF504608BF61460A6969469047FF
:105B580011B0BDE8000FF0BDD0B502AF82B000F0C3
:105B68001EF8044600F011F800F01CF840F200009E
:105B780001A9C2F200006A460091FDF70DFFE00797
:105B880008BF00F004F802B0D0BD72B6704762B624
:105B98007047BFF34F8F7047BFF36F8F7047EFF3B6
:105BA80010807047704780B56F46FCF7FDF9FEDE40
:105BB800FEE77047704700200021704720F48050AE
:105BC80041F4805110437047704748F21400C4F202
:105BD8001F00704748F2FC00C4F21F00704748F2EB
:105BE800EC20C4F21F00704748F23C10C4F21F00BA
:105BF800704748F27C10C4F21F0070474FF4FA63F4
:105C080001754DF20A710381FA230022C0F2E833CC
:105C1800C3F623418272C0E90023C0E9032170471B
:105C2800F0B503AF2DE9000F81B02DED068B92B0D2
:105C3800B0EE408A90ED030A90ED049A8A468346B6
:105C480030EE08AAB4EE49AA80ED03AAF1EE10FAE4
:105C58004DDDDAE900890024D9F820109BF80A60A4
:105C68004046CDF813408DF81740CDE90244ADF811
:105C780010408847D9F81C108DF818004046CDE927
:105C880007448DF812600194884705294FF00506EE
:105C980028BF314600291EBF02788DF8132001293C
:105CA80032D1D9F8181040468847052938BF0E4622
:105CB800002E1EBF0188ADF80810012E37D101AEA5
:105CC800DAE9020C09A93CCE01F1040EAEE83C0069
:105CD80096E83C008EE83C000522DCF80C308DF894
:105CE8002420022298473AEE490A8BED030AB0EEC7
:105CF800480A5846514600F02DF812B0BDEC068B04
:105D080001B0BDE8000FF0BD427802298DF81420DB
:105D1800C7D0827803298DF81520C2D0C27804290B
:105D28008DF816201CBF00798DF81700B9E7418857
:105D3800022EADF80A10C2D08188032EADF80C10DF
:105D4800BDD0C188042EADF80E101CBF0089ADF877
:105D58001000B4E7B0B502AF90ED001A827A31EEC8
:105D6800000A80ED000ADFE802F07302234C828803
:105D78009FED382A01EE102AB8EE411A21EE021AD8
:105D8800B4EE410AF1EE10FA62DDD1E900450021D6
:105D98002A69016002218172204601219047ED683D
:105DA80020460021FF22A84720460121FF2247E084
:105DB800C2889FED282A01EE102AB8EE411A21EE7A
:105DC800021AB4EE410AF1EE10FAD8BFB0BDD1E91B
:105DD800004500212A6901600321817220460021C3
:105DE8009047ED68204600210022A847204601215F
:105DF800FF22A84720460221FF222B46BDE8B040DB
:105E0800184702899FED132A01EE102AB8EE411AAD
:105E180021EE021AB4EE410AF1EE10FA18DDD1E9CA
:105E2800004500212A6901608172204600219047BF
:105E3800ED68204600210022A847204601210022C3
:105E4800A8472046022100222B46BDE8B04018474B
:105E5800B0BD00BF6F12833AC0B2002804BF002053
:105E68007047012812BF0120152050FA81F07047B1
:105E780018B1012803D10220704700207047A0F113
:105E880015010B2932BF0120002103207047F0B50E
:105E980003AF4DF8048D92B00DF128080546404631
:105EA80001F011FA4046002101F010FA10B101206A
:105EB800002256E00AAA07CA47F8482C47F84C1CA3
:105EC80047F8500C01F074FA57F8502CCDE9080146
:105ED80005A857F8486C57F84C3C4CC005AE284606
:105EE800314600F033F9C1B20E2921D196E83E00BF
:105EF80040463EC0DDE90D0101F091FA41F27852C9
:105F080003460D46C2F200024046194601F0FFF969
:105F180005704046002101F0D9F9E8B90AAA0FAB8B
:105F280007CA07C30FA801F0DEF9A8B1002018E0DE
:105F3800012000220D2914D800FA01F39B070ED185
:105F4800012303FA01F111F00C0F05D111F4405FA0
:105F580007D00120032204E00122012001E00120F2
:105F68000222D2B240EA022012B05DF8048BF0BDE2
:105F7800F0B503AF2DE9000B96B004460E4608466F
:105F88001146154601F04CFA38B12CE0607001203A
:105F9800207016B0BDE8000BF0BDA94240D83046CD
:105FA80001F01AF90CADCDE900016946284600F068
:105FB800C5F902350DF1080826229DF830604046E3
:105FC80029469DF8319002F00DFF012E0FD1B9F14D
:105FD8000D0F21D8DFE809F01C1C2020220909092F
:105FE800090909071E1E0620D0E70520CEE708F19B
:105FF80002012846242202F0F5FE201D294624220B
:1060080002F0F0FE0020207016B0BDE8000BF0BDD5
:106018000220BBE70320B9E70020B7E70420B5E773
:1060280041F2D0220846C2F20002294602F030F8B6
:10603800FEDEB0B502AF84B0054600780C46B8B1B4
:10604800012817D10120039001F0AFF9009003A8AF
:106058008DF80410694601F067F902460B461146AF
:1060680020461A4601F066F8E8B1022004B0B0BD37
:10607800002000E00220039001F097F98DF8041049
:106088006946009003A801F04FF902460B461146F5
:1060980020461A4601F04EF801460E20002918BF86
:1060A800022004B0B0BD6978204600F0BCFFC0B241
:1060B80004B0B0BDD0B502AF84B0044601F09FF87B
:1060C800C2070DD181B1012917D0022921D120465B
:1060D80001F0F7F8C0B20E281CD1002202201AE005
:1060E800000A40EA016015E0204601F0EAF8C0B273
:1060F8000E280FD1002000220DE001A82146012220
:1061080001F06BF89DF8040001280BD19DF80510EB
:106118000CE00D200122C0B2000240EA0140104408
:1061280004B0D0BD039939B10299097810F0010281
:10613800084608BF0120EEE741F244320020C2F2CF
:106148000002002101F001FAFEDED4D4F0B503AF5D
:106158004DF804BD88B0054600780C46DFE800F02D
:1061680004304B832E9ACA000020079001F01DF9D5
:106178008DF8141004A9049007A801F0D5F8024678
:106188000B46114620461A4600F0D4FF002840F07E
:10619800C480681C214600F0F9F9C6B20E2E40F002
:1061A800BD80A978204600F03EFFC6B20E2E08BF7B
:1061B8000E26304608B05DF804BBF0BD042000E0B0
:1061C8000120079001F0F1F88DF8141004A904904B
:1061D80007A801F0A9F802460B46114620461A46C0
:1061E80000F0A8FF0E26002818BF0226304608B087
:1061F8005DF804BBF0BD0226079601F0D6F88DF8CD
:10620800141004A9049007A801F08EF802460B4662
:10621800114620461A4600F08DFF00287ED1681CE2
:10622800214600F0B3F9C6B20E2E77D1686804A9EA
:1062380004902046042200F07DFF00286DD1A86854
:1062480004A904902046042200F074FF002864D1B9
:10625800E86804A904902046042200F06BFF002897
:106268005BD1286939E041F2DC121621C2F2000242
:10627800A81CCDE9002141F2FA110290C2F20001F6
:1062880020460622032300F013FFC0B208B05DF8D1
:1062980004BBF0BD0520079001F087F88DF81410B5
:1062A80004A9049007A801F03FF802460B461146DE
:1062B80020461A4600F03EFF78BB281D214600F014
:1062C800FDF9C6B20E2E29D1E86904A9049020462A
:1062D800042200F02FFF00BB286A04A9049020467E
:1062E800042200F027FFC0B90E26304608B05DF83A
:1062F80004BBF0BD0620079001F057F88DF8141084
:1063080004A9049007A801F00FF802460B461146AD
:1063180020461A4600F00EFF28B10226304608B083
:106328005DF804BBF0BD681C2146FFF782FEC6B2CB
:10633800304608B05DF804BBF0BDD4D4F0B503AF67
:106348002DE9000B98B0044608460D4600F057FFAB
:10635800C20720D1062928D8DFE801F004293747E9
:10636800606E8600284600F03DF90E46C00740F0F2
:106378008880F0B2052831D002A8294601224FF0C2
:10638800010800F02AFF9DF80810012940F0BC80A0
:106398009DF80900C7E0000A40EA01600121607029
:1063A800217018B0BDE8000BF0BD0D20F6E72846B7
:1063B80000F087FFC0B20E28F0D100202070012025
:1063C800207118B0BDE8000BF0BD284600F00AF9AE
:1063D8000E46C00755D1F0B205286FD140F60150DE
:1063E800208018B0BDE8000BF0BD41F2282141F231
:1063F80060230326C2F20001C2F2000328461322DA
:10640800009600F062FDC20742D1000C267140EAF6
:106418000140C4F80600080C6081A7E0284600F097
:1064280050FFC0B20E28B9D100202070042020717E
:1064380018B0BDE8000BF0BD41F2102102AE41F2E8
:1064480000220320C2F20001C2F20002CDE90010CE
:10645800304629460F2300F0DAFA9DF80800012893
:1064680019D19DF8090014E02846FFF723FEC0F370
:106478000F21C2071BD161710621000C2171A07187
:1064880074E001206670207018B0BDE8000BF0BD04
:10649800000A60700CE00BAD311DE81C202202F0F0
:1064A800A1FC052029462071601D23225CE0617053
:1064B8000120207018B0BDE8000BF0BD41F2F84192
:1064C8000DF1080841F2D0420420C2F20001C2F2E4
:1064D8000002CDE90010404629460C2300F063FC79
:1064E80008F102010BA812229DF808509DF80990A6
:1064F80002F078FC012D1DD1012084F80190207054
:1065080018B0BDE8000BF0BD0498A8B30398C907FC
:10651800007808D1A071002066712071207018B031
:10652800BDE8000BF0BD84F80080607018B0BDE8CD
:10653800000BF0BDDDF82E000DF1500CDDF8321027
:10654800DDF83620DDF83A30667102268CE80F0057
:10655800CDF812201222CDF80E1002A9CDF80A00AB
:10656800A01D2671CDF8163002F03CFC00202070EA
:1065780018B0BDE8000BF0BD41F244320020C2F271
:106588000002002100F0E1FFFEDED4D4D0B502AF56
:1065980084B000780C46DFE800F0030507090B001B
:1065A800002006E0012004E0022002E0032000E0D1
:1065B8000420039000F0F9FE8DF80410694600905D
:1065C80003A800F0B1FE02460B46114620461A46C3
:1065D80000F0B0FD01460E20002918BF022004B0CB
:1065E800D0BDD4D4D0B502AF044600F008FEC2072F
:1065F8000FD104292DD8DFE801F0032F111A230049
:10660800204600F05EFEC1B20E2905D1002100200F
:10661800D0BD000A40EA01610120D0BD204600F04B
:1066280050FEC1B20E29F7D100200221D0BD20466C
:1066380000F047FEC1B20E29EED100200321D0BDE3
:10664800204600F03EFEC1B20E29E5D1002004210B
:10665800D0BD0D210120D0BD204600F032FEC1B2D0
:106668000E29D9D100200121D0BDD4D4D0B502AF94
:1066780084B000780C46DFE800F002080406002029
:1066880004E0022002E0032000E00120039000F073
:106698008CFE8DF804106946009003A800F044FEB3
:1066A80002460B46114620461A4600F043FD0146B5
:1066B8000E20002918BF022004B0D0BDF0B503AFEA
:1066C8002DE9000782B08A46814600686946009035
:1066D8005046042200F02EFD28B10226304602B0B2
:1066E800BDE80007F0BD09F10E005146FFF7BEFFF7
:1066F800C6B20E2EF2D109F10F050024052C08D0E0
:10670800295D504600F08FFC0134C6B20E2EF5D03C
:10671800E4E7A7F11A08042502260E2D0CD039F853
:1067280005004146022227F81A0C504600F002FDE7
:1067380002350028F1D0D1E799F814105046002905
:1067480018BF012100F06FFCC6B20E2E08BF0E263E
:10675800304602B0BDE80007F0BDF0B503AF2DE943
:10676800000F83B004469AB11646684602220D46C9
:1067780000F033FD9DF8000001280BD19DF80100C1
:10678800000200F101085FEAC8700ED1012E15D190
:106798000D200CE00299022940F0998001980088A8
:1067A8004FEA00485FEAC870F0D04FEA18206070DE
:1067B8000120207003B0BDE8000FF0BD68462946EF
:1067C800022200F00AFD9DF80000012818D19DF86A
:1067D8000100000200F101095FEAC9701AD1022E16
:1067E800D6D068462946022200F0F7FC9DF8000042
:1067F800012812D19DF80100000200F1010A13E0FE
:106808000299022963D1019800884FEA00495FEA9A
:10681800C970E4D04FEA1920C9E70299022956D174
:10682800019800884FEA004A5FEACA7010D1032E27
:10683800AED068462946022200F0CFFC9DF8000041
:10684800012808D19DF80100000200F1010B09E0C0
:106858004FEA1A20ABE70299022938D1019800883B
:106868004FEA004B5FEACB7010D1042E3FF490AF93
:1068780068462946022200F0B0FC9DF80000012875
:1068880007D19DF801000002013008E04FEA1B2003
:106898008DE7029902291AD1019800880004C107DE
:1068A80013D1000C4FEA18414FEA19424FEA1A4334
:1068B8004FEA1B46608100202681E380A280618028
:1068C800207003B0BDE8000FF0BD000A6FE741F289
:1068D800D8320220C2F2000201F0FBFBFEDEF0B566
:1068E80003AF2DE9000F83B0C1B104460D466846D9
:1068F80021460122012600F070FC9DF800000128C5
:1069080002D19DF801800EE00299002973D0019907
:10691800C00791F8008005D1012D0ED101264FF056
:106928000D0800E001264FEA082040EA0140090C62
:10693800304403B0BDE8000FF0BD6846214601228F
:10694800012600F04AFC9DF800000128D9D00299E0
:10695800002950D00199C00791F8009042D1022D2A
:10696800DCD0684621460122012600F036FC9DF85D
:1069780000000128C5D00299E9B30199C00791F830
:1069880000A032D1032DC9D0684621460122012634
:1069980000F023FC9DF800000128B2D0029951B301
:1069A8000199C00791F800B022D1042DB6D06846ED
:1069B80021460122012600F010FC9DF80010012953
:1069C8009FD00298B8B10198C90700781CD14FEA46
:1069D8000A214FEA0B4241EA09010026114341EA24
:1069E8000061A0E70126C8469DE70126D0469AE740
:1069F8000126D84697E741F244320020C2F200024D
:106A0800002100F0A2FDFEDE012680468BE7F0B5EE
:106A180003AF2DE9000F9DB0D7F80C808346B8F17D
:106A2800000F5BD016AD052001908946284600F07E
