:0200000460009A
:100000004643464200000156000000000101020084
:1000100000000000000000000000000000000000E0
:1000200000000000000000000000000000000000D0
:1000300000000000000000000000000000000000C0
:1000400000000000010403000000000000000000A8
:100050000000200000000000000000000000000080
:100060000000000000000000000000000000000090
:100070000000000000000000000000000000000080
:10008000EB04180A063204260000000000000000FD
:10009000050404240000000000000000000000002F
:1000A0000000000000000000000000000000000050
:1000B0000604000000000000000000000000000036
:1000C0000000000000000000000000000000000030
:1000D00020041808000000000000000000000000DC
:1000E0000000000000000000000000000000000010
:1000F0000000000000000000000000000000000000
:1001000000000000000000000000000000000000EF
:100110000204180804200000000000000000000095
:1001200000000000000000000000000000000000CF
:10013000600400000000000000000000000000005B
:1001400000000000000000000000000000000000AF
:10015000000000000000000000000000000000009F
:10016000000000000000000000000000000000008F
:10017000000000000000000000000000000000007F
:10018000000000000000000000000000000000006F
:10019000000000000000000000000000000000005F
:1001A000000000000000000000000000000000004F
:1001B000000000000000000000000000000000003F
:1001C000000100000010000001000000000000001D
:1001D000000000000000000000000000000000001F
:1001E000000000000000000000000000000000000F
:1001F00000000000000000000000000000000000FF
:10020000FFFFFFFFFFFFFFFFFFFFFFFFFFFFFFFFFE
:10100000D10020400014006000000000000000003B
:1010100020100060001000600000000000000000D0
:101020000000006022EA0000000000000D480E49A8
:101030000E4A4FF42A034164026483630C480D494D
:101040000D4A814202D008CA08C0FAE70B480C4991
:101050000C4A0D4B1860814202D038CA38C0FAE7FA
:1010600000F014F800C00A40AFAAAAAA07002000A6
:10107000000000001CA60000B8160060002C002034
:10108000B82E00200014006008ED00E043F6572C55
:10109000C0F2000C6047FFFF2B4B40F6617210B5A9
:1010A000C3F8202140F2044400F088F8274A284978
:1010B000D2F88030274843F00303C2F88030264B33
:1010C000C1F8604102681A4203D1D1F8A8319A07E9
:1010D00018D01F4A4FF000411E4B5963D2F84031DF
:1010E00043F00203C2F84031D2F840319B07FBD4F1
:1010F0004FF0E0214FF40030164B4FF00042C1F8A2
:101100008C029A63134A4FF08040114C0021906387
:101110000A20124B11604FF42072C4F8A80118463F
:1011200000F051F84FF4800103464FF4810040F283
:1011300043121860C4F8583119640123C4F84821D7
:10114000C4F8403110BD00BF00800D4000C00F400A
:1011500000002E4000900D40001C1E00005000209A
:10116000F0B4154A40274FF480314FF480564FF4C5
:1011700000554FF4404443F24200136913F0020F4C
:101180000ED113F4005F0FD013F4805F0ED0002B4C
:10119000F3DA13F4803F0BD15B060BD5F0BC70473C
:1011A000946151619061E8E75561E6E75661E4E7D3
:1011B0009161E2E75761E0E700800D404AF2F10CEF
:1011C000C0F2000C604749F2D37CC0F2000C6047CB
:1011D00016035500530042002000530065007200C2
:1011E000690061006C000000180354006500650090
:1011F0006E00730079006400750069006E006F0076
:101200000403090409024300020100C0320904007A
:101210000001020201000524001001052401010162
:1012200004240206052406000107058203100010AD
:1012300009040100020A0000000705030240000043
:10124000070584024000000009024300020100C0BB
:10125000320904000001020201000524001001050A
:101260002401010104240206052406000107058269
:101270000310001009040100020A00000007050322
:101280000200020007058402000200000A060002B4
:0612900002000040010015
:10140000000007202D100060FD4B000005A6000025
:10141000FD4B0000FD4B0000FD4B000000000000F4
:10142000000000000000000000000000FD4B000074
:10143000FD4B000000000000FD4B0000C93400001F
:10144000FD4B0000FD4B0000FD4B0000FD4B00007C
:10145000FD4B0000FD4B0000FD4B0000FD4B00006C
:10146000FD4B0000FD4B0000FD4B0000FD4B00005C
:10147000FD4B0000FD4B0000FD4B0000FD4B00004C
:10148000FD4B0000FD4B0000FD4B0000FD4B00003C
:10149000FD4B0000FD4B0000FD4B0000FD4B00002C
:1014A000FD4B0000FD4B0000FD4B0000FD4B00001C
:1014B000FD4B0000FD4B0000FD4B0000FD4B00000C
:1014C000FD4B0000FD4B0000FD4B0000FD4B0000FC
:1014D000FD4B0000FD4B0000FD4B0000FD4B0000EC
:1014E000FD4B0000FD4B0000FD4B0000FD4B0000DC
:1014F000FD4B0000FD4B0000FD4B0000FD4B0000CC
:10150000FD4B0000FD4B0000FD4B0000FD4B0000BB
:10151000FD4B0000FD4B0000FD4B0000FD4B0000AB
:10152000FD4B0000FD4B0000FD4B0000FD4B00009B
:10153000FD4B0000FD4B0000FD4B0000FD4B00008B
:10154000FD4B0000FD4B0000FD4B0000FD4B00007B
:10155000FD4B0000FD4B0000FD4B0000FD4B00006B
:10156000FD4B0000FD4B0000FD4B0000FD4B00005B
:10157000FD4B0000FD4B0000FD4B0000FD4B00004B
:10158000FD4B0000FD4B0000FD4B0000FD4B00003B
:10159000FD4B0000FD4B0000FD4B0000FD4B00002B
:1015A000FD4B0000FD4B0000FD4B0000FD4B00001B
:1015B000FD4B0000FD4B0000FD4B0000FD4B00000B
:1015C000FD4B0000FD4B0000FD4B0000FD4B0000FB
:1015D000FD4B0000FD4B0000FD4B0000FD4B0000EB
:1015E000FD4B0000FD4B0000FD4B0000FD4B0000DB
:1015F000FD4B0000FD4B0000FD4B0000FD4B0000CB
:10160000FD4B000067010000FD4B0000FD4B00009A
:10161000FD4B0000FD4B0000FD4B0000FD4B0000AA
:10162000FD4B0000FD4B0000FD4B0000FD4B00009A
:10163000FD4B0000FD4B0000FD4B0000FD4B00008A
:10164000FD4B0000FD4B0000FD4B0000FD4B00007A
:10165000FD4B0000FD4B0000FD4B0000FD4B00006A
:10166000FD4B0000FD4B0000FD4B0000FD4B00005A
:10167000FD4B0000FD4B0000FD4B0000FD4B00004A
:10168000FD4B0000FD4B0000FD4B0000FD4B00003A
:10169000FD4B0000FD4B0000FD4B0000FD4B00002A
:1016A000FD4B0000FD4B0000A54B0000FD4B000072
:0816B000FD4B0000FD4B0000A2
:1016B80080B56F4604F0FBFD45F28C4042F6B861F8
:1016C800C2F20000C2F20001814213D242F6B861B0
:1016D8000022C2F2000141F8042B81423FBF41F8C9
:1016E800042B814241F8042B814203D241F8042B98
:1016F8008142F0D342F6742140F20000C2F20001A8
:10170800C2F2000088420ED2021D8A4238BF0A4641
:10171800C143114421F003010A1D4CF20001C6F235
:10172800000109F0A9FA4EF68850CEF200000168CF
:1017380041F47001016004F0B4FDFEDE7047B0B5FD
:1017480002AF88B004F0A9FD044604F09CFD04F043
:10175800A7FD44F2384004F00101C2F20000057808
:10176800002D04BF01220270002908BF04F08DFD7E
:101778009DBB05A803F0A5FA40F2747100200490FF
:10178800C2F200010598CDE90201002002A9C4F2C5
:101798002E0003F0A0FAC4B2042C1BD104F07DFD86
:1017A800054604F070FD04F07BFD43F20000C2F230
:1017B80000000168E9B900210160012101714EF2C0
:1017C8000C10CEF200004FF400310160E80708BFAA
:1017D80004F05BFD204608B0B0BD40F2187040F23E
:1017E8006472C2F20000C2F200022B2106F0C4FBB0
:1017F800FEDE40F2747040F24473C2F2000002AAA6
:10180800009040F2D860C2F20000C2F2000310213A
:1018180006F0FEFBFEDEB0B502AF82B004F03DFD7F
:10182800044604F030FD04F03BFD43F20005C2F22B
:1018380000052868C8B94FF0FF3004F0010428609B
:101848002879012808D1681D03F073FA2868013047
:1018580028602CB102B0B0BD0020002C2860F9D15E
:1018680002B0BDE8B04004F010BD40F2847040F210
:101878004473C2F2000001AA009040F2D860C2F29C
:101888000000C2F20003102106F0C2FBFEDE704722
:10189800F0B503AF2DE90007ADF5487D804601207E
:1018A80041464FF0010904F050FF0546002000268C
:1018B80004F04BFF8246002004F047FF044602F084
:1018C80056FA002874D005F120014FF48270ADF863
:1018D8001C033F2004F120020424CDE96E100323E9
:1018E800CDE96A61CDE968101AA9CDE97420CDE97E
:1018F8007206CDE96C06CDE91D0481E84104CDE905
:101908001650CDE91406CDE91050CDE90E06CDE903
:101918000A50CDE908060220059040F20030C0F2D6
:101928000220CDE97A66CDE9039040F20D30C0F28D
:101938000330CDE97766CDE9019001A8CDE92866A5
:10194800CDE92566CDE92266CDE91F668DF81E33FF
:1019580079947694CDE97062CDE96636279424941B
:101968002194CDE9186ACDE91265CDE90C65CDE978
:10197800066502F019FAC0B2052825D104F08DFCDD
:10198800044604F080FC04F08BFC01A840F6FF72CA
:10199800C0F20002014602F0E0F9E00708BF04F0D7
:1019A80074FC012041460DF5487DBDE80007F0BDF7
:1019B80040F6100040F68402C2F20000C2F20002B3
:1019C8002B2106F0D9FAFEDE8DF8040040F69400CB
:1019D800C2F2000040F66803009040F63B0001AAFE
:1019E800C2F20000C2F200032B2106F011FBFEDE5A
:1019F800F0B503AF2DE9000F97B00DF104080E46BE
:101A08008146402140469A46144609F0ECF9304692
:101A1800414606F02FF802460E46C0073ED1204642
:101A2800514699F8005099F801B004F08EFE04462A
:101A38002846594604F089FE311D412938D2002232
:101A4800CDF84C808DF85420202E1491119288BF27
:101A5800203404EB8010129004F01FFC044604F0BC
:101A680012FC04F01DFC16A911AA484602F069F9F7
:101A7800C5B2E00708BF04F008FC40F20312E80012
:101A8800C0F20102E91E22FA00F018BF2946032D10
:101A980008BF042017B0BDE8000FF0BD100A110CF4
:101AA80040EA066041EA064117B0BDE8000FF0BD04
:101AB80040F6A4020846C2F20002402107F01FFBCC
:101AC800FEDEF0B503AF2DE9000BBAB0044604F012
:101AD800E4FB064604F0D7FB04F0E2FB14AD6846CD
:101AE800294600F084FEF00708BF04F0CEFB0098FA
:101AF80002280AD12046242109F075F9032084F828
:101B080020003AB0BDE8000BF0BD694628465022D7
:101B180009F0B2F80DF1A00905F10E01484605F0EB
:101B2800C7FFDDE914120020002908BF02F01F00DA
:101B380004F017FE884609F101010DF1C4090546B4
:101B480023229DF8A060484609F057F8E8B2032818
:101B580010D016F001000DD109F103012046202212
:101B680009F04BF884F8218084F820503AB0BDE899
:101B7800000BF0BD2046242109F035F9032584F82F
:101B880020503AB0BDE8000BF0BD704780B56F46F5
:101B980000F002F8FEDED4D4B0B502AFADF5BA6DF0
:101BA800A4A803F08AFBC298022800F0EB830DF189
:101BB8000809A4A94FF42272484609F05DF804F018
:101BC8006CFB044604F05FFB04F06AFB04F065FB61
:101BD800054604F058FB04F063FB44F2474805F05F
:101BE8000100C2F2000898F80060002E04BF01212D
:101BF80088F80010002808BF04F047FB002E04F006
:101C0800010004BF012188F80010002808BF04F073
:101C18003CFB002E40F0BF8302F095FF04F048FB28
:101C280002F0B2FFFFF78BFDC0B2042840F0BF837B
:101C380009F10808DDE90201424603F0F9FA054610
:101C480003F0F2FA044603F0F1FAA96C40F6042214
:101C5800C0B2C2F2000221F0010140F28863022CF6
:101C680008BF0131A96480F00200696CC2F2000368
:101C780052F8242053F8200021F06301114308434F
:101C8800012140F480606864686C61F383006864D3
:101C9800686C20F080006864A86C40F02000A8649C
:101CA800686C40F440406864686C40F44470686450
:101CB800A86C40F08000A864A86D00071FBFA86D3D
:101CC8005FEA0070A86D5FEA007002D0A86D000797
:101CD800F2D1A86C40F02000A864686C20F4404061
:101CE8006864686C20F4447000F58870686404F0D7
:101CF800E0FA04694FF0050A6AF3030404F0D9FA1C
:101D0800046104F0CAFA044604F0BDFA04F0C8FA03
:101D18004CF2740940F2646BC4F20A09C2F2000B77
:101D2800D9F800002026D9F80010C9064FF0200184
:101D380058BF0C21C0064FF020005BF8011058BFB7
:101D48000C205BF80000496841F010014160E00791
:101D580008BF04F09AFA04F0ACFA44696AF3030481
:101D680004F0A7FA446104F098FA044604F08BFAE8
:101D780004F096FAD9F80000D9F8001089064FF057
:101D8800200158BF0C2180065BF8010058BF0C26C3
:101D98005BF80610406840F020004860E00708BF84
:101DA80004F073FA04F085FA84694FF0050A6AF3BF
:101DB800030404F07EFA846104F06FFA044604F028
:101DC80062FA04F06DFAD9F800002026D9F800105C
:101DD80049064FF0200158BF0C2140065BF801006E
:101DE8004FF0200158BF0C215BF80110406840F00B
:101DF80040004860E00708BF04F047FA04F059FAC9
:101E0800046A6AF3030404F054FA046204F045FA1D
:101E1800044604F038FA04F043FAD9F80000D9F877
:101E28000010C9054FF0200158BF0C21C0055BF810
:101E3800010058BF0C265BF80610406840F480701B
:101E48004860E00708BF04F020FA04F041FA846A09
:101E58004FF0050A6AF3030404F03AFA846204F0C6
:101E68001CFA044604F00FFA04F01AFA59F8080CA0
:101E7800182659F8081C49054FF0180158BF0421C5
:101E880040055BF801004FF0180158BF04215BF8CA
:101E98000110406840F480604860E00708BF04F023
:101EA800F4F904F01AFA44686AF3030404F015FA22
:101EB800446004F0F2F9044604F0E5F904F0F0F99E
:101EC80059F8080C59F8081C89034FF0180158BF35
:101ED800042180035BF8010058BF04265BF8061054
:101EE800406840F400304860E00708BF04F0CDF9CE
:101EF80004F0F3F904684FF0050A6AF3030404F0E8
:101F0800ECF9046004F0C9F9044604F0BCF904F0E3
:101F1800C7F959F8080C182259F8081CC90358BF02
:101F28000422C0034FF018015BF8020058BF0421D7
:101F38005BF80110406840F480304860E00708BF53
:101F480004F0A3F904F0BAF9446A6AF3030404F04C
:101F5800B5F9446204F0C7F900224FF0000904F013
:101F6800C5F904460E4604F0AEF9406AB04304438E
:101F780004F0A9F9446204F0A1F9046A6AF30304BD
:101F880004F09CF9046204F0AEF9002204F0AEF902
:101F980004460E4604F097F9006AB043044304F07F
:101FA80092F9046204F08AF944696AF3030404F0BC
:101FB80085F9446104F097F9002204F097F9044682
:101FC8000E4604F080F94069B043044304F07BF9FD
:101FD800446104F073F904696AF3030404F06EF9C8
:101FE800046104F080F9002204F080F904460E46EA
:101FF80004F069F90069B043044304F064F904612A
:1020080004F05CF9C46A6AF3030404F057F9C46283
:1020180004F069F9002204F069F904460E4604F058
:1020280052F9C06AB043044304F04DF9C46204F0A5
:1020380045F9846A6AF3030404F040F9846204F001
:1020480052F9002204F052F904460E4604F03BF916
:10205800806AB043044304F036F9846204F02EF930
:1020680004686AF3030404F029F9046004F03BF9F6
:10207800002204F03BF904460E4604F024F90068F7
:10208800B043044304F01FF9046004F017F94468EE
:102098006AF3030404F012F9446004F024F90022FE
:1020A80004F024F904460E4604F00DF94068B043E4
:1020B800044304F008F9446004F000F984696AF301
:1020C800030404F0FBF8846104F00DF9002204F025
:1020D8000DF904460E4604F0F6F88069B04304434F
:1020E80004F0F1F8846104F0E9F8C4696AF30304C0
:1020F80004F0E4F8C46104F0F6F8002204F0F6F8FD
:1021080004460E4604F0DFF8C069B043044304F007
:10211800DAF8C46104F0D2F8C4686AF3030404F07E
:10212800CDF8C46004F0DFF8002204F0DFF80446BC
:102138000E4604F0C8F8C068B043044304F0C3F87E
:10214800C46004F0BBF884686AF3030404F0B6F8CA
:10215800846004F0C8F8002204F0C8F804460E466B
:1021680004F0B1F88068B043044304F0ACF884602C
:10217800A7F1BC0005F02FFDA7F1BC03A7F1600C87
:10218800A4ACCDE9B9990FCBCDE9BB998CE80F0088
:10219800A7F1500C8CE80F00A7F1400C8CE80F0059
:1021A800A7F1300C8CE80F00A7F1BC03A7F11C0CB9
:1021B8000FCB8CE80E00A7F16001502247F8200CE5
:1021C800201DCDE9BD99CDF8FC92ADF80093A495FA
:1021D80008F052FD8DF806930221CDF80293686C41
:1021E80061F3830068640020FFF752FB07F8C00C16
:1021F80040F67010C2F20000A7F1600247F8540CD4
:10220800A7F1C00047F8580C40F64810C2F2000089
:1022180007F8BF1C47E91840A7F1BC00002104F0EB
:102228006BF802A844F2006100F11403C2F2C33152
:102238004046424602F0DFFFA7F1A0040091414664
:1022480002222046012303F023F80699A7F1600033
:10225800224602F0FBFFA7F1600344F20816C4F21D
:102268000806A7F1900C0FCB356825F002053560FC
:102278008CE80F0044F24C40C2F2000000680328CA
:102288001BD340F6A41040F6B012C2F20000C2F20E
:10229800000247F8500C012047F85C0C40F69C10EF
:1022A800C2F20000032147F8600CA7F1600047F86C
:1022B8004C9C47E9169904F003FA41F26F2047F85D
:1022C800809CA7F11008A7F1800BA7F17C09A7F162
:1022D8007806A7F19004A7F160059FED3B8AC3F645
:1022E800832047F87C0C11E0A7F1700A9AE80304F0
:1022F80008F0EEFB00EE10AA01EE100AB8EE400A54
:1023080080EE080A30EE010A07ED1F0AA7F1C000A7
:1023180047F8580CA7F1BC0047F85C0CA4A847F88C
:10232800600C304621462A4647F84C8C47E9159BF5
:1023380000F036FB57F8780C0028D5D144F24C4011
:10234800C2F2000000680028E0D0002040F6A41186
:1023580047F84C0C40F6E81247E91600012047F808
:102368005C0C40F6E010C2F20001C2F2000047F82F
:10237800501C012147F8600C2846C2F2000204F004
:102388009FF9C3E740F6B40040F6EC02C2F2000041
:10239800C2F2000207E040F6B40040F6FC02C2F2C6
:1023A8000000C2F200022B2105F0E6FDFEDE40F639
:1023B8000C1040F63812C2F20000C2F200022921C5
:1023C80005F0DAFDFEDE00BF286B6E4EF0B503AFF8
:1023D8002DE9000740F610224FF0000CC2F200026F
:1023E8004FF00E0E4FF00F084FF005094FF0060A98
:1023F8001546002124E05B6A9CB200EE104A00EB0F
:102408000614B8EE400A94ED011A94ED022A94EDF0
:10241800033A32EE412A94ED044A00EB4604A4F84C
:10242800683000EB860330EE410A34EE431A80EE42
:10243800020A00EE013A83ED153A531D9D426AD017
:1024480015F8013B0E460131DFE803F00316293C7D
:10245800500003681C68C3F800E003681C6AE407BE
:10246800C9D11C6AE40704BF1C6A5FEAC474C2D1FC
:102478001C6AE407F2D0BEE703681C68C3F800C012
:1024880003681C6AE407B6D11C6AE40704BF1C6A27
:102498005FEAC474AFD11C6AE407F2D0ABE7036803
:1024A8001C68C3F8008003681C6AE407A3D11C6A8F
:1024B800E40704BF1C6A5FEAC4749CD11C6AE40781
:1024C800F2D098E703681C68C3F8009003681C6A98
:1024D800E40701BF1C6A5FEAC4741C6A5FEAC4743B
:1024E8007FF489AF1C6AE407F1D084E703681C68AD
:1024F800C3F800A003681C6AE4077FF47CAF1C6A79
:10250800E40704BF1C6A5FEAC4747FF474AF1C6AF2
:10251800E407F0D06FE7BDE80007F0BD5FFA81FC83
:1025280080B56F46DFE80CF0021D39544CF2740395
:102538004FF0200CC4F20A031B685B0658BF4FF02B
:102548000C0C40F26463C2F2000353F80CC013068B
:102558005CD04023CCF8843050FA81F080F87220A7
:1025680080BD4CF274034FF0200CC4F20A031B68C0
:10257800DB0558BF4FF00C0C40F26463C2F2000355
:1025880053F80CC0130649D04FF48073CCF884304C
:1025980050FA81F080F8722080BD4CF274034FF03D
:1025A800200CC4F20A031B68DB0658BF4FF00C0C62
:1025B80040F26463C2F2000353F80CC0130636D02D
:1025C8001023CCF8843050FA81F080F8722080BD56
:1025D8004CF274034FF0200EC4F20A034FF0200CA3
:1025E8001B689B0658BF4FF00C0E40F26463C2F2A2
:1025F800000353F80EE013060CBFCEF888C0CEF8DF
:1026080084C050FA81F080F8722080BD4023CCF855
:10261800883050FA81F080F8722080BD4FF48073C2
:10262800CCF8883050FA81F080F8722080BD1023F1
:10263800CCF8883050FA81F080F8722080BD4CF2D6
:102648006C0240F26463C4F20A02C2F20003126828
:10265800D2034FF0180258BF042253F802C088234F
:102668004FF48032002918BF84234CF8032080F8E7
:1026780076107047C9B200EB810090ED150A7047DB
:1026880068300521704772300421704790F8760051
:10269800704780B56F4692E80850C9B200EB011048
:1026A800D268011D81E80850026180BD7047B0B54D
:1026B80002AF96B043F208050C46C2F2000528683E
:1026C800BFF35F8F48BB55E8000F48B90121BFF33E
:1026D8005F8F45E8001232B155E8000F0028F8D0A6
:1026E8000021BFF32F8FBFF35F8FB1B1002141F2FB
:1026F8001040295041F20C4029500120C5E9010140
:10270800022002958DF80C10BFF35F8F286002A895
:10271800BFF35F8F05F0DEFB1AE0012801BF10BF91
:102728002868BFF35F8F012801BF10BF2868BFF377
:102738005F8F01280AD110BF2868BFF35F8F012877
:1027480004D110BF2868BFF35F8FE6E7022823D1C2
:10275800A868D0BB02A82146502208F08DFA41F2A1
:102768000C4041F210442A5829598B1A402B04BFB7
:1027780001322A5001F03F0002A9502200EB8000EC
:1027880005EB00100C3008F077FA28590130285171
:102798000020A86016B0B0BD58B940F68C2040F6AD
:1027A800B422C2F20000C2F20002282105F0E4FBC4
:1027B800FEDE40F6152040F67C22C2F20000C2F28E
:1027C8000002112105F0D8FBFEDE40F6C83040F6C5
:1027D8009433C2F2000002AA009040F2D860C2F21C
:1027E8000000C2F20003102105F012FCFEDEF0B575
:1027F80003AF2DE9000B84B043F208058046C2F20E
:1028080000052868BFF35F8F48BB55E8000F48B93B
:102818000121BFF35F8F45E8001232B155E8000F80
:102828000028F8D00021BFF32F8FBFF35F8FB1B11D
:10283800002141F21040295041F20C40295001205A
:10284800C5E90101022001958DF80810BFF35F8FDB
:10285800286001A8BFF35F8F05F03CFB1AE0012850
:1028680001BF10BF2868BFF35F8F012801BF10BFE9
:102878002868BFF35F8F01280AD110BF2868BFF30B
:102888005F8F012804D110BF2868BFF35F8FE6E788
:10289800022858D1D5F8089009F1010100296BDD0B
:1028A80041F2104041F20C422858AA58A9609042BF
:1028B80017D1002129B38A68D1E900408B89C8E97A
:1028C800010208F10E0091F84E600E314022A8F87E
:1028D8000C3008F092F9002E18BF012688F84E60D7
:1028E80015E0811A1BD0B0FBF1F202FB1100402861
:1028F80021D200EB800005EB001000F10C0100294B
:10290800D9D108F104004C2108F06DFA0224C8F866
:102918000040C5F8089004B0BDE8000BF0BD40F6D3
:10292800403040F63032C2F20000C2F200023921D3
:1029380005F022FBFEDE40F600024021C2F2000252
:1029480005F032FBFEDE58B940F68C2040F6B42282
:10295800C2F20000C2F20002282105F00DFBFEDEE3
:1029680040F6152040F67C22C2F20000C2F20002B6
:10297800112105F001FBFEDE40F6D83040F6A43305
:10298800C2F2000003AA009040F67930C2F20000BB
:10299800C2F20003182105F03BFBFEDE7047D4D4D9
:1029A800F0B503AF2DE9000F89B044F21814824640
:1029B8008868C4F2080400901546D1F80C90206885
:1029C8000490206820F00200206054F8100C039056
:1029D80054F8100C20F0010044F8100C54F8180CAE
:1029E800029020680190206820F0010020600120FA
:1029F80054F808BC60604FF0FF3044F8080C44F805
:102A0800180C206840F004002060206840F00100A5
:102A1800206054F8100C40F0010044F8100C1668BF
:102A28003046FFF7D3FC40F6104205F10408C2F225
:102A38000002089240F6E832C2F2000298E8030168
:102A4800079105A9CDE9056298ED000A03F089FC14
:102A5800B7EE001A286990ED000AB4EE410AF1EECB
:102A680010FA15DD4CF26C0140F26462C4F20A01FE
:102A7800C2F20002096808239FED2E0A09074FF0E9
:102A8800180158BF042151580022C1F88C30026047
:102A980098ED001A30EE010A80ED000A54F8385C0F
:102AA80054F8346C6068C00726D10098494602F093
:102AB800A8FB02F07CFB4CF60028ED43C3F69A38DD
:102AC80001FB08F1E0FB0821F043A2FB006302FBD5
:102AD8000532002301FB00210020CAF8040030461B
:102AE800424608F07FF8012300FB1862CAF800305C
:102AF8000AF1080307C302E00020CAE9000044F80D
:102B080008BC2068019961F300002060029844F82D
:102B1800180C54F8100C039961F3000044F8100CD9
:102B280020680499490861F34100206009B0BDE8B4
:102B3800000FF0BD00000000B0B502AFC2684AF651
:102B4800AB2CCAF6AA2CFAB1D0E900E3A3EB0E0429
:102B5800A4FB0C450024C460541EB4EBD50F0DD261
:102B680085682A44826004EB44020EEB82020C3230
:102B78009D1AA5FB0C54B1EBD40F0DD300220021F4
:102B8800036008461146B0BDD0E900239D1AA5FB95
:102B98000C54B1EBD40FF1D201EB4105836802EB81
:102BA8008502194402F10C054B1C05608360084638
:102BB8001146B0BDD0B502AFC16859B9D0E900120D
:102BC800914224D0826801F10C030360531C836096
:102BD8001046D0BDD0E900C24AF6AB23CAF6AA23F4
:102BE8004C1EA2EB0C0EAEFB033E0023C360B4EBFD
:102BF800DE0F0BD283681944816004EB44010CEBAF
:102C080081010C3101609142DCD100E002600021B9
:102C18000020D0BDD1E900234FF0010CC9689A1AF1
:102C28004AF6AB23CAF6AA23A2FB0323C1EBD302BD
:102C3800DB088B4238BF0022C0E9002C8260704755
:102C4800D0B502AFC2688A421DD9D0E900CE4AF693
:102C5800AB24CAF6AA24AEEB0C03A3FB0434CB4383
:102C68001A44C260B1EBD40F26D201EB410283684B
:102C780019440CEB820202F10C044B1C04608360C3
:102C880008461146D0BDCAB1D0E900C34AF6AB2404
:102C9800CAF6AA24A3EB0C01A1FB0414511EB1EB44
:102CA800D40F10D201EB410183680CEB81011A4467
:102CB8000C318260016007E0C0F800E000210022CA
:102CC80008461146D0BD03600021C16000220846B5
:102CD8001146D0BD0246C06868B1D2E90013013878
:102CE800D06099421FBF906801F10C031360431C28
:102CF8001CBF93607047002000217047CA688AB1E2
:102D0800D1E90031C91A4AF6AB23CAF6AA23A1FBB6
:102D18000313B2EBD30F28BFDA0801218260C0E9A0
:102D280000217047002201218260C0E9002170471C
:102D38007047F0B503AF2DE9000BE1B3C3688C46CB
:102D4800D0F804E0002B4ED10368CCF10008002134
:102D5800AEEB0302B2B3846803F10C0608EB01057D
:102D68000660013484606C1C1FD0B64529D0846885
:102D780003F11806066001348460AC1C15D0B64512
:102D880025D0846803F12406066001348460EC1CB5
:102D98000BD0B64521D0846830330431303A013441
:102DA800846018EB01040360D4D1002361461846FF
:102DB800BDE8000BF0BD002100231846BDE8000B5C
:102DC800F0BD013101231846BDE8000BF0BD02310A
:102DD80001231846BDE8000BF0BD03310123184656
:102DE800BDE8000BF0BD4AF6AB240022CAF6AA24BF
:102DF800002163B903687345E4D085680C33013159
:102E080003606B1C836000238C45F2D116E0D0F878
:102E18000090C260AEEB0906A6FB04685E1EB6EB26
:102E2800D80F10D285682B44836006EB460309EB64
:102E380083030C3303607345DFD1C3E7614618464B
:102E4800BDE8000BF0BDC0F800E001231846BDE85E
:102E5800000BF0BDD0B502AFD1B18E46C168D0F835
:102E680004C04B1E00215A1C1EBFC3600268624585
:102E78000CD001318468013B0C328E45026004F1AC
:102E880001028260EFD100207146D0BD0120D0BD83
:102E980000210020D0BDD4D4F0B503AF4DF804BD57
:102EA800E0B0044608681546DFE810F004005C014D
:102EB800E0002F016E46043130464FF4C07207F02F
:102EC800DBFE20462946324600F0E0F9691C06F18F
:102ED8000C02204600F0DAF9A91C06F11802204677
:102EE80000F0D4F9E91C06F12402204600F0CEF9DE
:102EF800291D06F13002204600F0C8F9691D06F1C7
:102F08003C02204600F0C2F9A91D06F148022046FD
:102F180000F0BCF9E91D06F15402204600F0B6F9AC
:102F280005F1080106F16002204600F0AFF905F14D
:102F3800090106F16C02204600F0A8F905F10A0122
:102F480006F17802204600F0A1F905F10B0106F11F
:102F58008402204600F09AF905F10C0106F190026E
:102F6800204600F093F905F10D0106F19C02204678
:102F780000F08CF905F10E0106F1A802204600F0D8
:102F880085F905F10F0106F1B402204600F07EF93B
:102F980005F1100106F1C002204600F077F905F1AD
:102FA800110106F1CC02204600F070F905F112017A
:102FB80006F1D802204600F069F905F1130106F17F
:102FC800E402204600F062F905F1140106F1F0026E
:102FD800204600F05BF905F1150106F1FC022046D8
:102FE80000F054F905F1160106F58472204600F048
:102FF8004DF905F1170106F58A72204600F046F9E9
:1030080005F1180106F59072204600F03FF905F128
:10301800190106F59672204600F038F905F11A01F3
:1030280006F59C72204600F031F905F11B0106F502
:10303800A272204600F02AF905F11C0106F5A872D3
:10304800204600F023F905F11D0106F5AE72204671
:1030580000F01CF905F11E0106F5B472204600F0D7
:1030680015F905F11F0106F5BA7208E16E4604313B
:103078003046902207F000FE20462946324600F0EE
:1030880005F9691C06F10C02204600F0FFF8A91C9E
:1030980006F11802204600F0F9F8E91C06F12402AE
:1030A800204600F0F3F8291D06F13002204600F012
:1030B800EDF8691D06F13C02204600F0E7F8A91D6D
:1030C80006F14802204600F0E1F8E91D06F1540235
:1030D800204600F0DBF805F1080106F16002204601
:1030E80000F0D4F805F1090106F16C02204600F061
:1030F800CDF805F10A0106F17802204600F0C6F87D
:1031080005F10B0106F18402B9E06E460431304640
:10311800542207F0B1FD20462946324600F0B6F8A1
:10312800691C06F10C02204600F0B0F8A91C06F153
:103138001802204600F0AAF8E91C06F124022046ED
:1031480000F0A4F8291D06F13002204600F09EF890
:10315800691D06F13C02204600F098F8A91D06F109
:1031680048028CE06E4604313046FC2207F084FDAC
:1031780020462946324600F089F8691C06F10C02FF
:10318800204600F083F8A91C06F11802204600F03A
:103198007DF8E91C06F12402204600F077F8291D85
:1031A80006F13002204600F071F8691D06F13C0274
:1031B800204600F06BF8A91D06F14802204600F0F1
:1031C80065F8E91D06F15402204600F05FF805F1A4
:1031D800080106F16002204600F058F805F10901DF
:1031E80006F16C02204600F051F805F10A0106F1DB
:1031F8007802204600F04AF805F10B0106F1840236
:10320800204600F043F805F10C0106F19002204633
:1032180000F03CF805F10D0106F19C02204600F093
:1032280035F805F10E0106F1A802204600F02EF847
:1032380005F10F0106F1B402204600F027F805F168
:10324800100106F1C002204600F020F805F1110136
:1032580006F1CC02204600F019F805F1120106F13A
:10326800D802204600F012F805F1130106F1E40235
:10327800204600F00BF805F1140106F1F002204693
:1032880000F004F860B05DF804BBF0BDF0B503AF22
:103298002DE9000F81B0D2F80080054691460C4612
:1032A800A8F10200032828BF0120002800F052815D
:1032B80040F2E8660128C2F200060DD1686956F8A6
:1032C8002010A14215D9DFE800F002262D344FEA7C
:1032D800041C202C33D26AE0686956F82010A142F9
:1032E80010D9DFE800F002383E442001202C44D2F7
:1032F800F2E0601AD5F89811DFE801F0024C4F525D
:10330800000150E0601AD5F89811DFE801F002D703
:10331800DADD0001DBE004EB44004FEAC00C202CAE
:103328000DD244E004EB84004FEAC00C202C06D2F6
:103338003DE004EBC4004FEAC00C202C37D3402CEE
:103348003ED2296804F01F00012202FA00F0C86288
:103358002968243131E004EB4400C000202C0CD251
:10336800BAE004EB8400C000202C06D2B4E004EBE1
:10337800C400C000202CC0F0AF80402C80F0B68084
:103388002A6804F01F01012303FA01F1D1622A68B7
:103398002432A7E000EB400004E000EB800001E0ED
:1033A80000EBC000C00000F5007C202CC7D22968C3
:1033B8000120A0400863296828310A681043086082
:1033C80048F2800E0020C4F21D0E0CEB0E0B5B467B
:1033D80043F8080B6969D5F8982156F82160A64288
:1033E80088BF0A4640F2F8610026C2F2000151F88F
:1033F800221000220EE08A423EBF985012F10402C9
:103408008A4211D29850043238BF8A420CD298505E
:1034180001320126F60701D0033205D28A423CBFA9
:10342800985012F10402E6D3D9F8040040F2000AD9
:10343800C1F6FC7AB8F1010F0AEA804108BF20F012
:1034480060414FF08060CBF8041008BF4FF08460F3
:103458004EF80C002868016841F0A0410160286816
:103468000168C9015FBF01685FEAC11101685FEACD
:10347800C11102D40168C901F2D5214600F028FA29
:10348800D9F80810B8F1010F0AEA814208BF21F003
:10349800604202602868016821F080510160286854
:1034A8000168C90141BF01685FEAC11101685FEAAB
:1034B800C1114FD50168C901F2D44BE000EB4000BF
:1034C80004E000EB800001E000EBC000C00000F564
:1034D8000070202CBFF451AF2A680121A14011636C
:1034E8002A682832136823EA0101116048F2800132
:1034F8004FF00062C4F21D01425042180020506093
:1035080008326969D5F8983156F82160A64288BF13
:103518000B4640F2F8610026C2F2000151F8231070
:1035280000230CE0D050043338BF8B4212D2D05065
:10353800043338BF8B420DD2D05001330126F60731
:1035480001D0033306D28B4204D2D050043338BFA3
:103558008B42E7D33F2C9FBF99E8070004EB440355
:1035680005EB830303F548739FBF07C301B0BDE8AC
:10357800000FF0BD40F6A8422046C2F200024021EA
:1035880004F012FDFEDEF0B503AF2DE9000B8EB09E
:1035980040F2000240F2F863C2F20002C2F20003F5
:1035A80056690190C06853F826100092029088422C
:1035B8000AD9D2F8985153F82550A84204D90120C5
:1035C8000EB0BDE8000BF0BDD2F8984140F2E865B6
:1035D800C2F200054FF0000955F8266002F5C465EF
:1035E80053F8244002F5487207AB4028CDF81490F0
:1035F8000495039206960A9683E8240228BF402081
:103608000B1AA4EB000609D4002E07D540F6B840E3
:1036180003ADC2F200004FF000083AE040F6E05077
:1036280007ADC2F20000B3F1FF3F07DCB6F1FF3F80
:1036380004DD4FF000094FF000082AE0A1420BD248
:103648000021B6F1FF3FDCBF0D46084640F6B84101
:10365800C2F2000103AA11E040F6B84003ADC2F27D
:1036680000008C420FD20021B3F1FF3FDCBF0D46B2
:10367800084640F6E05107AAC2F20001A946804672
:103688000846154605E040F6E0580DF11C09C2F25F
:103698000008C4680BAE02A968460D9101A90C91F7
:1036A8000B902846A04749B10A6803463046194698
:1036B80000F020F8C0B20328F3D111E0B9F1000FEF
:1036C80013D0D8F80C400BAD4846A04769B10A683A
:1036D80003462846194600F00DF8C0B20328F3D176
:1036E80003200EB0BDE8000BF0BD00200EB0BDE811
:1036F800000BF0BDF0B503AF2DE9000F81B0042A2F
:1037080042D1834600680C46DBE90165D5F80080A4
:10371800016840F2E860C2F200004A6950F82230BD
:103728003068A34205D9DFE802F002140D1826011B
:103738001FE0E21AD1F89831DFE803F00213081607
:10374800120114E004EB8402D60012E002EB8202BC
:103758000CE004EB4402D6000BE004EBC402D600F4
:1037680007E002EB420201E002EBC202D20002F5DE
:10377800007648F28009C4F21D0956F8092002F0C3
:103788007063B3F1406F04D1002001B0BDE8000FB1
:10379800F0BD1F2C03D809682346303105E03F2CC3
:1037A80007D8096804F01F032C31012505FA03F333
:1037B8000B60082161F31B6249F806200022D0E95A
:1037C80000A1C1F6FC72057C02EA8143BAF1010F3F
:1037D80008BF21F06043002D1CBF417C43EA4173C0
:1037E800D0E9021209EB060043603046434601F077
:1037F800BEF8B8F1090F01D2404622E0B8F10D0F2A
:1038080001D209201DE0B8F1110F01D20A2018E0F9
:10381800B8F1150F01D20B2013E0B8F1190F01D23E
:103828000C200EE0B8F1210F01D20D2009E0B8F10B
:10383800310F01D20E2004E00820B8F1410F38BF43
:103848000F204FF04C41BAF1000F1CBF0021CCF6FD
:103858006041202C60F3134149F806104FF0010134
:10386800DBF800000068006816D2A140026B0A402D
:10387800012A01BF026B0A40012A026B04BF0A40F9
:10388800012A03D1026B0A40012AEFD00163032009
:1038980001B0BDE8000FF0BD04F01F029140C26AFC
:1038A8000A40012A0BD1C26A0A40012A07D1C26A1A
:1038B8000A40012A02BFC26A0A40012AEFD03F2CFF
:1038C80098BFC162032001B0BDE8000FF0BDD4D499
:1038D8003F2900F24280DFE811F040004300460033
:1038E80049004C004F005200550058005B005E0034
:1038F8006100640067006A006D0070007300760064
:1039080079007C007F008200850088008B008E0093
:103918009100940097009A009D00A000A300A600C3
:10392800A900AC00AF00B200B500B800BB00BE00F3
:10393800C100C400C700CA00CD00D000D300D60023
:10394800D900DC00DF00E200E500E800EB00EE0053
:10395800F100F400F700FA00FD0000F50860704778
:1039680000F68400704700F68800704700F68C0067
:10397800704700F50960704700F69400704700F63C
:103988009800704700F69C00704700F50A60704781
:1039980000F6A400704700F6A800704700F6AC00D7
:1039A800704700F50B60704700F6B400704700F6EA
:1039B800B800704700F6BC00704700F50C6070470F
:1039C80000F6C400704700F6C800704700F6CC0047
:1039D800704700F50D60704700F6D400704700F698
:1039E800D800704700F6DC00704700F50E6070479D
:1039F80000F6E400704700F6E800704700F6EC00B7
:103A0800704700F50F60704700F6F400704700F645
:103A1800F800704700F6FC00704700F5106070472A
:103A280000F60410704700F60810704700F60C10F6
:103A3800704700F51160704700F61410704700F6E3
:103A48001810704700F61C10704700F51260704798
:103A580000F62410704700F62810704700F62C1066
:103A6800704700F51360704700F63410704700F691
:103A78003810704700F63C10704700F51460704726
:103A880000F64410704700F64810704700F64C10D6
:103A9800704700F51560704700F65410704700F63F
:103AA8005810704700F65C10704700F516607047B4
:103AB80000F66410704700F66810704700F66C1046
:103AC800704700F51760704700F67410704700F6ED
:103AD8007810704700F67C107047D4D4F0B503AF67
:103AE8002DE9000FB3B04369042B00F0268101686B
:103AF8004FF001094FF0000B0E6B0C96CE6A0B9637
:103B08008E6A0E9640F2E866496AC2F200060D9186
:103B1800D0F898110A9056F8230056F82110084456
:103B28001FA90E3106911168002205910021089203
:103B38000022099207900BEBCB020BEB8B0352424E
:103B48005B42A1EB0B1EABEB8B01DC46D200C9003C
:103B5800DB00584588BF8446DC4500F0E7800BF061
:103B68003F05483AC5F12004B5F1200609FA05FADF
:103B7800A3F1280329FA04F8A1F1180158BF09FA9A
:103B880006F80D9858BF4FF0000AAEF1100E08EA7B
:103B980000060E980BF1010B00EA0A003043DBD057
:103BA8000B980C9C00EA08000AEA04063043D3D0BC
:103BB8000A9840F2E865C2F20005ABF101044669D3
:103BC80055F826C0644508D2DFE806F00229131725
:103BD8006FF00F00A0EB0E012CE0D0F89861DFE841
:103BE80006F0022210170EEB0C106FF00F01081AE6
:103BF8001EE06FF02700C11A1CE06FF04700811A21
:103C080018E00CEB8C004042C3EBC00028380FE0F2
:103C18000CEBCC004042C2EBC000483808E06FF023
:103C28001700411A06E0ACEB8C00C1EBC000183855
:103C380000F5007148F28000C4F21D000D5805F02F
:103C48003060B0F1007F66D148F28000C4F21D00F8
:103C58004218C5F303405668A0F10902072A06D2A4
:103C680040F67070C2F2000050F8222009E048F6D1
:103C78003962C3F6E302A0FB02235A0802EBC20230
:103C8800821A1FA8049505F40015039200F0A5FEFA
:103C98000A9826F06042002D016808BFC6F38A42E0
:103CA800019218BF012502951F2C8A6801D830316E
:103CB80004E03F2C05D804F01F042C3109FA04F263
:103CC8000A601FAA0DF13C0EB2E84B10AEE84B108B
:103CD8005BCAAEE85B0092E87B008EE87B000A983E
:103CE800D0F820660498B6B1C0F34074ADF88800E7
:103CF80003980FA9219040220198209002981F90C4
:103D0800069806F07AFF00201FA98DF8CB000598C9
:103D18008DF8CA40B0470898002140EA0A00089088
:103D2800099840EA08000990079804E70A99089A50
:103D38000868026308680999C16233B0BDE8000FDA
:103D4800F0BD40F20000C2F20000406904281CBF28
:103D58001046FFF718BC0220704740F20000C2F27C
:103D680000004169042918BFC0F820267047B0B583
:103D780002AF02F092FA044602F085FA02F090FAD5
:103D880044F21C4004F00101C2F2000005782A0642
:103D980004BF01220270002908BF02F076FAE8B2D7
:103DA800B0FA80F04009B0BDF0B503AF2DE9000FBF
:103DB800ADF6840D369002F070FA00F0010402F0BE
:103DC80062FA02F06DFA44F24340C2F2000005784C
:103DD800002D04BF01210170002C08BF02F055FA24
:103DE800002D40F0B8850DF1DC0A36990AF58A6095
:103DF8000F900AF25C4010900AF58D6011900AF25B
:103E0800744012900AF5906013900AF28C40149056
:103E18000AF5936015900AF2A44016900AF5966088
:103E280017900AF2BC4018900AF5996019900AF2A6
:103E3800D4401A900AF59C601B900AF2EC401C9042
:103E48000AF59F601D900AF204501E900AF5A260C0
:103E58001F900AF21C5020900AF5A56021900AF2E2
:103E6800345022900AF5A86023900AF24C5024900E
:103E78000AF5AB6025900AF2645026900AF5AE6008
:103E880027900AF27C5028900AF5B16029900AF22E
:103E980094502A900AF5B4602B900AF2AC502C90FA
:103EA8000AF5B7602D900AF2C4502E900AF5BA6050
:103EB8002F900AF2DC5030900AF5BD6031900AF27A
:103EC800F45032900AF5C06033900AF20C603490D6
:103ED8000AF5C36035900AF104004FF447720AF5F9
:103EE80081690AF214480AF584660AF22C440AF534
:103EF800876B0AF2444506F0BFFE48F20002002034
:103F0800C4F21D02022137920F9ACDF8E014CDF8C1
:103F1800D414C2E90000109ACDF8C814CDF8BC1426
:103F2800C2E90000119ACDF8B014CDF8A414C2E982
:103F38000000129ACDF89814CDF88C14C2E900004C
:103F4800139ACDF88014CDF87414C2E90000149ABD
:103F5800CDF86814CDF85C14C2E90000159ACDF8C4
:103F68005014CDF84414C2E90000169ACDF838145C
:103F7800CDF82C14C2E90000179ACDF82014CDF81A
:103F88001414C2E90000189ACDF80814FF91C2E988
:103F98000000199ACDF8EC14CDF8F814C2E9000025
:103FA8001A9ACDF80415CDF81015C2E900001B9A2D
:103FB800CDF81C15CDF82815C2E900001C9ACDF8DB
:103FC8003415CDF84015C2E900001D9ACDF84C15FE
:103FD800CDF85815C2E900001E9ACDF86415CDF841
:103FE8007015C2E900001F9ACDF87C15CDF8881528
:103FF800C2E90000209ACDF89415CDF8A015C2E9C1
:104008000000219ACDF8AC15CDF8B815C2E900002A
:10401800229ACDF8C415CDF8D015C2E90000239A2C
:10402800CDF8DC15CDF8E815C2E90000249ACDF8E2
:10403800F415CDF80016C2E90000259ACDF80C1643
:10404800CDF81816C2E90000269ACDF82416CDF846
:104058003016C2E90000279ACDF83C16CDF848166C
:10406800C2E90000289ACDF85416CDF86016C2E9C6
:104078000000299ACDF86C16CDF87816C2E9000030
:104088002A9ACDF88416CDF89016C2E900002B9A2A
:10409800CDF89C16CDF8A816C2E900002C9ACDF8E8
:1040A800B416CDF8C016C2E900002D9ACDF8CC168A
:1040B800CDF8D816C2E900002E9ACDF8E416CDF84E
:1040C800F016C2E900002F9A3599CDF8DC04C2E950
:1040D8000000309ACDF8D804CDF8D004C2E9000029
:1040E800319ACDF8CC04CDF8C404C2E90000329A64
:1040F800CDF8C004CDF8B804C2E90000339ACDF871
:10410800B404CDF8AC04C2E90000349ACDF8A80490
:10411800CDF8A004C2E900004FF48072CDF89C04E9
:10412800CDF89404CDF89004CDF88804CDF8840433
:10413800CDF87C04CDF87804CDF87004CDF86C0483
:10414800CDF86404CDF86004CDF85804CDF85404D3
:10415800CDF84C04CDF84804CDF84004CDF83C0423
:10416800CDF83404CDF83004CDF82804CDF8240473
:10417800CDF81C04CDF81804CDF81004CDF80C04C3
:10418800CDF80404CDF80004C9E90000C8E900002E
:10419800C6E90000C4E90000CBE90000C5E9000059
:1041A800C1E90000CDF8FC064CF22000C4F20F0073
:1041B80001689DF8F83321F47F71DFE803F0040407
:1041C80004100D040F0441F400710022DFE803F02D
:1041D8000A0C0E0F04040F0F042208E000221143FA
:1041E800002204E0242202E0102200E00C22114305
:1041F8000160816C192241F440518164416E41F49F
:104208007071416648F2A400C4F21F00016862F3AD
:1042180004010160D0F8F01141F2B001C0F8F011CA
:10422800D0F8E83623F00303C0F8E836436862F3B1
:1042380004034360D0F8F421C0F8F41137980168FA
:1042480021F00041016037980168C90241BF016847
:104258005FEAC12101685FEAC12102D50168C9028C
:10426800F2D4016821F48021016037980168C902FD
:1042780041BF01685FEAC12101685FEAC12102D537
:104288000168C902F2D4016841F0007101603798F1
:104298000168890141BF01685FEA811101685FEA2D
:1042A800811106D501688901F2D402E00168C901CB
:1042B80009D40168C9015FBF01685FEAC1110168DB
:1042C8005FEAC111F2D54DF680720168CFF65772D8
:1042D800114042F23F02C0F228021143016000215E
:1042E8003798416041F20001C0F2B20141630021F8
:1042F800FFF7EEFA6FF04045012405603798214634
:10430800FFF7E6FA01340560402CF7D13798002111
:10431800002600F1900200F18004016100F5806E32
:10432800416100F58268816100F58469816400F566
:104338008665816200F5886B416200F58A630163D6
:10434800C162369200F1A002359200F1B0023492B7
:1043580000F1C002339200F1D002329200F1E00283
:10436800319200F1F002309200F580722F9200F540
:1043780088722E9200F590722D9200F598722C9208
:1043880000F5A0722B9200F5A8722A9200F5B0727F
:10439800299200F5B872289200F5C072279200F5AC
:1043A800C872269200F5D072259200F5D872249230
:1043B80000F5E072239200F5E872229200F5F0729F
:1043C800219200F5F872209200F500721F9200F514
:1043D80004721E9200F508721D9200F50C721C9270
:1043E80000F510721B9200F514721A9200F51872FB
:1043F800199200F51C72189200F52072179200F5B8
:104408002472169200F52872159200F52C721492F7
:1044180000F53072139200F53472129200F538727A
:10442800119200F53C72109200F540720F9200F55F
:1044380044720E9200F548720D9200F54C720C927F
:1044480000F550720B9200F554720A9200F55872FA
:10445800099200F55C72089200F56072079200F507
:104468006472069200F56872059200F56C72049207
:1044780000F57072039200F57472029200F578727A
:10448800019200F57C72009204E0013611603F2E23
:1044980000F0A480A6F1010C2246BCF13D0FF4D82F
:1044A800DFE80CF01F21232527292B2D2F31333549
:1044B80037393B3D3F41434547494B4D4F51535594
:1044C80057595B5D5F61636567696B6D6F71737584
:1044D80077797B7D7F81838587898B8D8F91939574
:1044E8009799369AD1E7359ACFE7349ACDE7339A38
:1044F800CBE7329AC9E7319AC7E7309AC5E72F9ACE
:10450800C3E72E9AC1E72D9ABFE72C9ABDE72B9AED
:10451800BBE72A9AB9E7299AB7E7289AB5E7279A0D
:10452800B3E7269AB1E7259AAFE7249AADE7239A2D
:10453800ABE7229AA9E7219AA7E7209AA5E71F9A4D
:10454800A3E71E9AA1E71D9A9FE71C9A9DE71B9A6D
:104558009BE71A9A99E7199A97E7189A95E7179A8D
:1045680093E7169A91E7159A8FE7149A8DE7139AAD
:104578008BE7129A89E7119A87E7109A85E70F9ACD
:1045880083E70E9A81E70D9A7FE70C9A7DE70B9AED
:104598007BE70A9A79E7099A77E7089A75E7079A0D
:1045A80073E7069A71E7059A6FE7049A6DE7039A2D
:1045B8006BE7029A69E7019A67E7009A65E772462E
:1045C80063E7424661E74A465FE72A465DE75A469F
:1045D8005BE71A4659E70021C0F86014416841F2C8
:1045E800280240F2A8660125914341600168C2F2A1
:1045F80000063C9A9D9B56F8222040F2E866C2F2DB
:10460800000656F823301A444EF68073CDF6B07380
:1046180002F07F021940114401F544310160DDE9DF
:1046280037049DF8E7B09DF8E6C09DF8E410BBF1AB
:10463800010F9DF8E560036843F0A043036098BF4D
:10464800AB46012E98BF2E46012988BF0D460AF5B4
:10465800CC7136910AF1140135910368DB015FBF13
:1046680001685FEAC11101685FEAC11102D40168FB
:10467800C901F2D5DDF8DCE0012C4FF0010398BF49
:104688001C4640F2FF3A544528BF54463F2D28BFE8
:104698003F254FF6004ADEF85020CFF6FF7A0AEBA6
:1046A80085221F2EC2EA44524FF01F0428BF264617
:1046B8006FF01F05BCF1010F88BF634605EB461577
:1046C8001F2B28BF234605F47875013B2A4403F0C5
:1046D8001F03BBF11F0F1A4440F20003CFF6FF730C
:1046E80038BF5C4603EB044303F4F8131A4402F1A1
:1046F800C04202F1FF5242F00042CEF85020026858
:1047080022F0805202600268D20141BF01685FEA6C
:10471800C11101685FEAC11102D50168C901F2D46B
:10472800DDF8E8A001229DF8EF6040F2FF30BAF111
:10473800010F9DF8EE309DF8ED509DF8EC4098BFC4
:104748009246824528BF8246012E98BF16461F2EE4
:104758004FF01F0028BF0646012B98BF13461F2B9A
:1047680028BF0346012D98BF15461F2D9DF8F9E374
:1047780028BF0546012C98BF14463F2C28BF3F246C
:10478800BEF1000F0DD09DF8FAC3BCF1010F88BF30
:1047980062461F2A38BF10464FF4F85202EA002139
:1047A80001E04FF4807103F10709379B06F1070B0D
:1047B80005F1070C1F34186840F0A040186018680D
:1047C800C0015FBF18685FEAC01018685FEAC010D0
:1047D80002D41868C001F2D500263798C3F6F076DF
:1047E80006EB0A5535400CF0070664F38E25D0F821
:1047F800042C45EA461609F007052E440BF0070578
:1048080048F21838BEF1000FCCF2080846EA05460F
:1048180002EA08024FF080253244C0F8042C0268EE
:1048280042F40062026037983C9A9D9E08BF4FF0A0
:104838000045294446F2FF05D0F8004CC7F6E47558
:104848002540294341EA024141EAC641C0F8001C1B
:10485800186820F0805018601868C00141BF1868B7
:104868005FEAC01018685FEAC01002D51868C00176
:10487800F2D43798D0F8001C490466D4026842F094
:10488800A042026037980268D2015FBF01685FEA00
:10489800C11101685FEAC11102D40168C901F2D5EA
:1048A8000DF5E06535994FF4C2723C9C284606F038
:1048B800E3F937AE294600223046FEF7EDFA0DF54A
:1048C800E06536994FF4C272284606F0D5F940F2F1
:1048D800E8602946C2F2000050F824203046FEF76E
:1048E800DBFA3798016821F0805101603798016838
:1048F800C90141BF01685FEAC11101685FEAC111DE
:1049080002D50168C901F2D401F0C7FC044601F0E0
:10491800BAFC01F0C5FC40F2000037A9C2F2000061
:1049280040F2246206F0A8F9E00708BF01F0ADFCE8
:104938004EF210104FF08061CEF2000001600520A9
:104948000DF6840DBDE8000FF0BD03200DF6840DB3
:10495800BDE8000FF0BD40F6244040F66072C2F298
:104968000000C2F200022B2103F006FBFEDE80B538
:104978006F46402B28BF40234FF0000CBCEB930F31
:104988002AD04FEA930C48F28803C4F21D0300EBC7
:10499800030E07E0BCF1010CA2EB030219440EF16F
:1049A800040E19D0002A08BF80BD0B78042A8EF89F
:1049B8000330134628BF0423012BEBD04878022B81
:1049C8008EF80200E6D08878032B8EF801001CBF11
:1049D800C8788EF80000DDE780BDF0B503AF2DE99B
:1049E800000F83B00D46402116468246402406F04B
:1049F800F7F9402E38BF34460020B0EB940F6BD047
:104A080048F288000023C4F21D00291801F1030EA2
:104A180001F102084E1CA0084FF0400902900091D5
:104A28000DE00298A9EB0B09DA4401330EF1040EEC
:104A380008F1040804360431013802904CD0102BD8
:104A48004AD04FF0040BB9F1040F38BFCB46ABF195
:104A580001040420032C04D254461BF003051ED184
:104A6800DFE72BF003006FF00304454200200193B9
:104A78000AEB04031EF8002004341A7118F8002009
:104A88005A71325C9A710A5C04388542DA71EFD146
:104A9800019BAAEB000404301BF00305C1D01A46A1
:104AA800009B01902046019C03EB820C1346012DCC
:104AB800A444CDF804C01CF8014C0470B1D00446DD
:104AC8000198022D10F8023C637013461EBF01982E
:104AD80010F8030CA070A4E703B0BDE8000FF0BD08
:104AE800D0B502AF84B00078DFE800F0030A1118EF
:104AF8001F0001AC41F25702C2F200020F231AE074
:104B080001AC40F2B862C2F20002102313E001AC1B
:104B180041F23402C2F2000223230CE001AC40F659
:104B2800F472C2F20002202305E001AC40F68C7258
:104B3800C2F200020723204604F06BF9204603F076
:104B480032FC04B0D0BD4EF21000CEF20000016875
:104B580021F001010160016821F004010160632175
:104B6800416000218160016841F001010160016834
:104B780041F002010160704744F22040C2F2000097
:104B88000168013101607047D0B502AF82B001F011
:104B98009FFBC468052060F3030401F099FBC4601F
:104BA80001A8012100F074FA01F077FB044601F036
:104BB8006AFB01F075FB4CF26C001822C4F20A0083
:104BC80001680068000758BF042209074FF0180061
:104BD80041F2301158BF0420C2F200018A58085827
:104BE800516841F008014160E00708BF01F04DFB42
:104BF80002B0D0BD704780B56F4682B000208029D2
:104C0800019007D28DF80410012201A900F077F96C
:104C180002B080BDB1F5006F09D20222084662F3E6
:104C28009F108DF80500C02040EA911028E002206E
:104C38000A4660F39F12B1F5803F11D28DF8062025
:104C48008A0960F39F12E0208DF8052040EA1130B0
:104C58008DF80400032201A900F051F902B080BDCB
:104C68008DF807208A0960F39F128DF806200A0B39
:104C780060F39F12F0208DF80520042240EA91404D
:104C88008DF8040001A900F03AF902B080BDF0B532
:104C980003AF4DF804BD88B0006802AA019091E8FE
:104CA8007850104641F26801C2F2000180E878505D
:104CB80001A803F07CFC08B05DF804BBF0BD00F06F
:104CC8001EB941F280020021C2F200020523C0E9A8
:104CD800003281607047D0B502AF00220C46014611
:104CE800C4F22E020120914218BFD0BD40F22462C6
:104CF800D4E90113C2F20002C2E9001341F28001B3
:104D08001072C2F20001104601F091FC08B10020B7
:104D1800D0BD44F24C412068C2F20001BFF35F8F5E
:104D28000860BFF35F8F06F0BBFF06F0BEFF0420EC
:104D3800D0BD06F0ABB9F0B503AF2DE900070646C4
:104D4800007A60B10D4606F099F940B144F24C4042
:104D5800D5F80080C2F200000068804503D9002021
:104D6800BDE80007F0BD7168012029B333686FF012
:104D7800030202EB8101D5E901951E1D002400EB19
:104D8800910A03E001340C36A245E8D03068A84205
:104D9800F8D156F8040C49462A4606F09DF8002832
:104DA800F0D1706800218045A0F10600B0FA80F0CB
:104DB80098BF012140090843BDE80007F0BDF0B5E0
:104DC80003AF2DE9000F93B00446007A002874D091
:104DD800894606F053F900286FD044F24C40D9F8C0
:104DE80000A0C2F200000068824566D8606808B377
:104DF80023686FF0030202EB8000D9E901B80121B2
:104E08001C1D01EB9005002603E001360C34B54269
:104E180053D020684045F8D154F8040C594642460E
:104E280006F05AF80028F0D16068062818BF8245B5
:104E380002D942E0D9E901B801F02FFA054601F09C
:104E480022FA01F02DFA43F6CF1041F26801C0F2C0
:104E580000000CAA06900AA8059043F6D510C0F2E7
:104E68000000C2F20001049008A8039044F65B70A9
:104E7800C0F20000CDF81CA0029007A8019009F12B
:104E88000C000A9012A80B900320119001A8109012
:104E98000020CDE90E0004200D9041F20C10C2F262
:104EA8000000CDE908B80C900BA803F080FB04467D
:104EB800E80708BF01F0E9F91CB913B0BDE8000F15
:104EC800F0BD40F6947041F2F402C2F20000C2F262
:104ED8000002202103F050F8FEDED0B502AF01F049
:104EE800DCF9044601F0CFF901F0DAF906F058FED2
:104EF800E00718BFD0BDBDE8D04001F0C6B9F0B595
:104F080003AF2DE9000F8DB092468B4606F0B6F838
:104F18000021002800F0A28001200BEB0A060A906D
:104F280003A84FF00A0980E8020C00250020CDF8FC
:104F38002C90CDE908A9CDE906A107E00299012046
:104F4800002949464FF00A0900F09380554506D9D3
:104F5800002289460292D046C00755D162E0CDE9C9
:104F6800000101E0554547D8AAEB05020BEB050106
:104F7800072A1CD802B300200B5C0A2B2BD00B1875
:104F88000133B34219D01C780A2C27D00133B3421D
:104F980013D01C780A2C24D00133B3420DD01C78CE
:104FA8000A2C21D001330430B342E5D105E00A20B0
:104FB80003F0EAFF0A4601E000220020012816D18A
:104FC80002EB050808F10105D045CBD21BF8080013
:104FD8004845C7D136E002460120EFE7421C0120D0
:104FE800ECE7821C0120E9E7C21C0120E6E70199F1
:104FF80000200290554602E001990020029089465F
:10500800D0460098C0070DD041F22C100C46C2F2D1
:105018000000022106F0BAFDB0F1FF3F1ADD0228B8
:10502800214620D3B8EB01043FF488AF0BEB010015
:10503800214606F0ABFDB0F1FF3F0BDD84427FF661
:105048007DAF10E00120A946029001990098C007A1
:10505800DAD1E7E7B0F1FF3118BF012108460DB0FA
:10506800BDE8000FF0BD012108460DB0BDE8000FF6
:10507800F0BD002108460DB0BDE8000FF0BD006886
:1050880003F081BA0A46D0E90031184603F0D9BEC8
:10509800F0B503AF4DF804BD0D4601F0FEF8064625
:1050A80001F0F1F801F0FCF84CF26C0041F2301418
:1050B800C4F20A0018230168C2F20004026821F051
:1050C800080165F3C301120758BF0423E3581822E7
:1050D8005B6801600168006800074FF0180058BF5E
:1050E80004200907205858BF0422A158DA0840684C
:1050F80062F3C3004860F00708BF01F0C6F801205A
:105108005DF804BBF0BDB0B502AF4EF69C54002567
:10511800CEF20004102044F8085C20602520C0F27C
:10512800083060601120C0F2200020602120C0F209
:10513800027060601220C2F2000020602520C1F2D7
:10514800083060601320C2F2200020602720C1F2DE
:105158000B3060601420C4F2000020603320C1F2DC
:10516800103060601520C6F2000020602F20C0F2C9
:105178000B706060012044F8080C01F088F801F019
:1051880089F8C4F8B45101F082F801F083F84FF4BB
:10519800403044F8880C4CF25400C4F20F00016807
:1051A80021F003010160BDE8B040FCF781BA002896
:1051B8001FBF4CF60021C3F69A31B1FBF0F2500A3A
:1051C8001FBF44F68333C0F20403A0FB0303D809CE
:1051D8001EBF00FB11220021704780B56F4641F2C7
:1051E800C01041F2B012C2F20000C2F2000219214E
:1051F80002F0C2FEFEDE944604320846614600F024
:105208001CBD00291CBFB0FBF1F0704780B56F468C
:1052180041F2502041F23422C2F20000C2F20002F0
:10522800192102F0A9FEFEDE022070470120704716
:10523800D2F800C0DCF86C3043F44033CCF86C3062
:105248001268D36E43F44073D366704780B56F46D7
:105258001368D3F800C0DCF86C3043F44053CCF842
:105268006C30D2E901EC0023D268BCF1000F0B606E
:105278000EF1010104BF43F20062C0F26E12C0E9F0
:105288000021C0E90221C0E90421C0E9062180BD4E
:10529800B0B502AFD1F800C01546D7F808E0002B2A
:1052A800DCF81C4008BF45F0400524F07F042C437F
:1052B800CCF81C4080E80E40B0BDF0B503AF2DE936
:1052C8000007E2B0044600F0E8FF054600F0DBFF07
:1052D80000F0E6FF44F2424005F00101C2F200008E
:1052E8000678002E04BF01220270002908BF00F0D2
:1052F800CCFF002E40F0198300F0CFFF054600F0E8
:10530800C2FF00F0CDFF44F2254005F00101C2F2D2
:1053180000000678002E04BF01220270002908BF91
:1053280000F0B3FF002E40F0008300F0B6FF054602
:1053380000F0A9FF00F0B4FF44F2274005F0010196
:10534800C2F200000678002E04BF01220270002974
:1053580008BF00F09AFF002E40F0E78200F0C2FF7D
:1053680000F09BFF054600F08EFF00F099FF44F225
:10537800444005F00101C2F200000678002E04BF87
:1053880001220270002908BF00F07FFF002E40F0C4
:10539800CC8200F082FF054600F075FF00F080FF28
:1053A80044F2244005F00101C2F200000678002E04
:1053B80004BF01220270002908BF00F066FF002E1A
:1053C80040F0B38200F069FF054600F05CFF00F092
:1053D80067FF44F2284005F00101C2F20000067898
:1053E800002E04BF01220270002908BF00F04DFF03
:1053F800002E40F09A8200F050FF054600F043FF6F
:1054080000F04EFF44F22B4005F00101C2F200000B
:105418000678002E04BF01220270002908BF00F0A0
:1054280034FF002E40F0818200F037FF054600F07F
:105438002AFF00F035FF44F2334005F00101C2F2C3
:1054480000000678002E04BF01220270002908BF60
:1054580000F01BFF002E40F0688200F01EFF05469A
:1054680000F011FF00F01CFF44F23A4005F0010182
:10547800C2F200000678002E04BF01220270002943
:1054880008BF00F002FF002E40F04F8200F005FF39
:10549800054600F0F8FE00F003FF44F2454005F031
:1054A8000101C2F200000678002E04BF012202703A
:1054B800002908BF00F0E9FE002E40F0368200F017
:1054C800ECFE054600F0DFFE00F0EAFE44F2304054
:1054D80005F00101C2F200000678002E04BF012287
:1054E8000270002908BF00F0D0FE002E40F01D8297
:1054F80000F0D3FE054600F0C6FE00F0D1FE44F2EF
:10550800324005F00101C2F200000678002E04BF07
:1055180001220270002908BF00F0B7FE002E40F0FB
:10552800048200F0BAFE054600F0ADFE00F0B8FEB9
:1055380044F2464005F00101C2F200000678002E50
:1055480004BF01220270002908BF00F09EFE002E51
:1055580040F0EB8100F0A1FE054600F094FE00F05B
:105568009FFE44F22C4005F00101C2F200000678CB
:10557800002E04BF01220270002908BF00F085FE3A
:10558800002E40F0D28100F088FE054600F07BFE38
:1055980000F086FE44F2314005F00101C2F200003D
:1055A8000678002E04BF01220270002908BF00F00F
:1055B8006CFE002E40F0B98100F06FFE054600F049
:1055C80062FE00F06DFE44F22F4005F00101C2F2C8
:1055D80000000678002E04BF01220270002908BFCF
:1055E80000F053FE002E40F0A08100F056FE054664
:1055F80000F049FE00F054FE44F22A4005F0010193
:10560800C2F200000678002E04BF012202700029B1
:1056180008BF00F03AFE002E40F0878100F03DFE02
:10562800054600F030FE00F03BFE44F23F4005F036
:105638000101C2F200000678002E04BF01220270A8
:10564800002908BF00F021FE002E40F06E8100F016
:1056580024FE054600F017FE00F022FE44F22E401C
:1056680005F00101C2F200000678002E04BF0122F5
:105678000270002908BF00F008FE002E40F0558196
:1056880000F00BFE054600F0FEFD00F009FE44F2B6
:10569800364005F00101C2F200000678002E04BF72
:1056A80001220270002908BF00F0EFFD002E40F033
:1056B8003C8100F0F2FD054600F0E5FD00F0F0FD4C
:1056C80044F2374005F00101C2F200000678002ECE
:1056D80004BF01220270002908BF00F0D6FD002E89
:1056E80040F0238100F0D9FD054600F0CCFD00F024
:1056F800D7FD44F2404005F00101C2F200000678EF
:10570800002E04BF01220270002908BF00F0BDFD71
:10571800002E40F00A8100F0C0FD054600F0B3FD00
:1057280000F0BEFD44F2354005F00101C2F2000070
:105738000678002E04BF01220270002908BF00F07D
:10574800A4FD002E40F0F18000F0A7FD054600F012
:105758009AFD00F0A5FD44F23C4005F00101C2F2BB
:1057680000000678002E04BF01220270002908BF3D
:1057780000F08BFD002E40F0D88000F08EFD05462D
:1057880000F081FD00F08CFD44F23D4005F0010180
:10579800C2F200000678002E04BF01220270002920
:1057A80008BF00F072FD002E40F0BF8000F075FDCC
:1057B800054600F068FD00F073FD44F2414005F035
:1057C8000101C2F200000678002E04BF0122027017
:1057D800002908BF00F059FD002E40F0A68000F017
:1057E8005CFD054600F04FFD00F05AFD44F23940DB
:1057F80005F00101C2F200000678002E04BF012264
:105808000270002908BF00F040FD002E40F08D8096
:1058180000F043FD054600F036FD00F041FD44F27E
:10582800264005F00101C2F200000678002E04BFF0
:1058380001220270002908BF00F027FD002E74D154
:1058480000F02BFD054600F01EFD00F029FD44F296
:105858003B4005F00101C2F200000678002E04BFAB
:1058680001220270002908BF00F00FFD002E5CD154
:1058780000F013FD054600F006FD00F011FD44F2AE
:10588800294005F00101C2F200000678002E04BF8D
:1058980001220270002908BF00F0F7FC002E44D155
:1058A80000F0FBFC054600F0EEFC00F0F9FC44F2C9
:1058B8003E4005F00101C2F200000678002E04BF48
:1058C80001220270002908BF00F0DFFC6EBB00F067
:1058D800E4FC054600F0D7FC00F0E2FC44F234405A
:1058E80005F00101C2F200000678002E04BF012273
:1058F8000270002908BF00F0C8FCB6B900F0CDFC62
:10590800054600F0C0FC00F0CBFC44F22D4005F049
:105918000101C2F200000678002E04BF01220270C5
:10592800002908BF00F0B1FC56B120464FF422719F
:1059380005F059FA0220A06762B0BDE80007F0BD83
:1059480040F2000E0220C4F2080EC4F880020EF5E0
:1059580048160EF58C100EF5B6130EF54715C4E96A
:1059680018560EF59015A3660EF58A13C4E9123081
:105978000EF58E120EF5881604F150000EF59821DA
:105988000EF5451980E824020EF55D150EF55F1237
:10599800C4F87C120EF58611C4E910160EF55C16D3
:1059A800C4E90A650EF55A100EF590260EF546184C
:1059B8000EF55E13C4E90C320EF55911C4E908104E
:1059C8000EF580420EF58820C4E900065DAEC4F8E5
:1059D8005C800EF58418C4E9042E0EF5821937F898
:1059E8001B0C4FF0000A17F8192C0EF5571184F804
:1059F8006F200EF5B023A4F86D000EF5F82545CEFE
:105A08004FF0010CC4E90E980EF55818C4E91EA011
:105A180004F18000C4E9061837F81E1C80E8440425
:105A280054AA04F18C00C4E902530EF5B813A4F883
:105A38007510DDE95991236717F81C3C84F8773015
:105A4800DDE95B352AC004F1A003C4F884C284F8F8
:105A580074C0DDE957C807CA83E8000704F1AC033E
:105A680007C3DDE95050DDE95212C4E92EA004F164
:105A7800C00080E80604C4F8D450DDE94A50DDE9E6
:105A88004C12C4E936A004F1E00080E80604C4F82A
:105A9800F450DDE94450DDE94612C4E93EA004F5BE
:105AA800807080E80604C4F81451DDE93E50DDE951
:105AB8004012C4E946A004F5907080E80604C4F8D2
:105AC8003451DDE93850DDE93A12C4E94EA004F555
:105AD800A07080E80604C4F85451DDE93250DDE9CD
:105AE8003412C4E956A004F5B07080E80604C4F87E
:105AF8007451DDE92C50DDE92E12C4E95EA004F5ED
:105B0800C070DDE94E3680E80604C4F89451DDE93A
:105B18002650DDE92812C4E93336DDE94836C4E900
:105B280066A004F5D070C4E93B36DDE9423680E86A
:105B38000604C4F8B451DDE92050DDE92212C4E9B5
:105B48004336DDE93C36C4E96EA004F5E070C4E9EB
:105B58004B36DDE9363680E80604C4F8D451DDE971
:105B68001A50DDE91C12C4E95336DDE93036C4E9C0
:105B780076A004F5F070C4E95B36DDE92A3680E8E2
:105B88000604C4F8F451DDE91450DDE91612C4E93D
:105B98006336DDE92436C4E97EA004F50070C4E963
:105BA8006B36DDE91E3680E80604C4F81452DDE9D8
:105BB8000E50DDE91012C4E97336DDE91836C4E980
:105BC80086A004F50870C4E97B36DDE9123680E862
:105BD8000604C4F83452DDE90850DDE90A12C4E9C4
:105BE8008336DDE90C36C4E98EA004F51070C4E9EB
:105BF8008B36DDE9063680E80604C4F85452DDE940
:105C08000250DDE90412C4E99336DDE90036C4E93F
:105C180096A004F5187080E806040EF5A82084F80C
:105C28006CA0C4E926ACC4E99B36C4F87452C4F825
:105C3800780262B0BDE80007F0BDF0B503AF2DE90A
:105C4800000F93B08B464AF20141C1F6787198462D
:105C580092468842009003D340F2E24012240CE0BE
:105C680043F20061C0F26E11884203D840F2B630A8
:105C7800062402E040F27E400E240190DBF800008A
:105C880044F24C49C2F20009D0F8801041F0C0013A
:105C9800C0F88010D8F80050E86800F01F00A04253
:105CA8003CD2D9F8000004281CD3012041F210325C
:105CB800129005A811900020CDE90F0002200E9047
:105CC80041F28420C2F20000C2F200020D9048F2B4
:105CD8000540C0F200000421069001A805900DA817
:105CE80000F0EEFCE86820F01F002044E860D8F8D7
:105CF80000000168002911D410BF0168B1F1FF3F0D
:105D08000CDD10BF016800295EBF10BF01680029C3
:105D180004D410BF0168B1F1FF3FEDDCDBF80040AF
:105D28006169D9F80000890142D4042817D30020FA
:105D380041F2E841129041F2E842CDE90F0001201A
:105D48000E9041F2E040C2F20000C2F200010D9054
:105D58000DA81191C2F20002042100F0B1FCDAF89A
:105D6800000043F24002C8F200020169D9F80000BD
:105D78001140914237D10026042816D341F2E84059
:105D880041F23452C2F20000C2F200021190012026
:105D98000E9041F22C50C2F2000004210D900DA883
:105DA8001296CDE90F6600F08BFC4FF0C05536E037
:105DB800042868D3002041F2E841129041F2C85209
:105DC800CDE90F0001200E9041F2C050C2F2000050
:105DD800C2F200010D900DA81191C2F20002042137
:105DE80000F06EFC4FE00025042816D341F2E8408D
:105DF80041F28052C2F20000C2F20002119001206A
:105E08000E9041F27850C2F2000004210D900DA8C6
:105E18001295CDE90F5500F053FC4FF48056606998
:105E280020F0605028436061A06920F4405030435E
:105E3800A06100E010BFA06C000742BF10BFA06CBB
:105E48005FEA007008D510BFA06C000742BF10BF02
:105E5800A06C5FEA0070EDD4606940F0007060618A
:105E680009E010BFA06C800642BF10BFA06C5FEABB
:105E7800806008D510BFA06C800642BF10BFA06C20
:105E88005FEA8060EDD4009E4BF200230120C2F24D
:105E98009F6301219E42CDE9020016D232460120BD
:105EA80005E0013100FB06F24A439A420BD207296A
:105EB800F7D9042807D801300121039000FB06F226
:105EC8004A439A42F3D3029100E0324602F5B70200
:105ED80049F6817302F55862C1F25E636C26A2FB33
:105EE80003231A0D6C2A38BF1E0D362E98BF36268E
:105EF8000496D9F80020042A26D30DA90320099175
:105F080000210A9041F25C32CDE9060141F24430A9
:105F1800C2F200000891059048F2054003A9C0F2BA
:105F280000001290C2F20002CDE9100102A9CDE9E9
:105F38000E0104A80D9005A8042100F0C1FB0299E8
:105F4800002900F06F810398002800F06B81049A03
:105F580041F60033C0F2B703DAF8005041F2B83422
:105F680048F2BD065A43C2F20004C0F20006B2FB72
:105F7800F1F1B1FBF0F0009028680B90D9F800001F
:105F8800042813D3012005A9129041F2C032CDE9AB
:105F98000D400BA81191002105900DA8CDE90F1116
:105FA800C2F200020421069600F08AFB4FF48050EA
:105FB80040222860DAF80000049962F3DF110160DA
:105FC800DAF800000168002911D410BF0168B1F1A6
:105FD800FF3F0CDD10BF016800295EBF10BF0168DC
:105FE800002904D410BF0168B1F1FF3FEDDCD9F8F6
:105FF8000010042915D300680CA9059105A90C9077
:10600800012041F2DC32119100211290CDE90D40BE
:106018000DA8CDE90F11C2F200020421069600F086
:106028004FFB0298DBF80010013800F00700086108
:10603800DBF8000000E010BF816CC90342BF10BF4D
:10604800816C5FEAC13108D510BF816CC90342BFBA
:1060580010BF816C5FEAC131EDD403994FF4E0526F
:10606800436902EB8121890A61F38C234361DBF8E0
:10607800000000E010BF816CC90342BF10BF816CF3
:106088005FEAC13108D510BF816CC90342BF10BF98
:10609800816C5FEAC131EDD400994DF27F12C0F6F0
:1060A800F0020424114441F29F02C0F2E502436960
:1060B800C909A1FB02124FF44071160B042E38BF18
:1060C800140B01EB0421090A61F309234361DBF88E
:1060D8000000416921F000714161DBF80000816C2A
:1060E800890641BF10BF816C5FEA816110BF41BF63
:1060F800816C5FEA816110BF816C48BF5FEA816192
:1061080001D510BFEBE7D9F80000042825D3002CEF
:1061180000F0948048F205400CA9C0F2000041F25A
:106128003442CDE90601002108906846059005A88B
:10613800119041F21440C2F2000010910D90C2F289
:1061480000020098B0FBF4F00C900220CDE90E019B
:10615800042112900DA800F0B3FA019848F21F51DB
:10616800C5F2EB11D8F80050A0F54870A0FB01105B
:10617800E96801F01F01C0F3C70291423CD9C60883
:10618800D9F8000004281CD3012041F2784212906B
:1061980005A811900020CDE90F0002200E9041F2D1
:1061A8006840C2F20000C2F200020D9048F20540B9
:1061B800C0F200000421069001A805900DA800F087
:1061C8007FFAE86866F30400E860D8F80000016820
:1061D800002911D410BF0168B1F1FF3F0CDD10BFD9
:1061E800016800295EBF10BF0168002904D410BFF0
:1061F8000168B1F1FF3FEDDC002C1FBF0098B0FB38
:10620800F4F113B0BDE8000F18BFF0BD41F29030B3
:1062180041F29442C2F20000C2F20002192101F0D8
:10622800ABFEFEDE41F2903041F27832C2F200005D
:10623800C2F20002192101F09FFEFEDE41F2903009
:1062480041F22442C2F20000C2F20002192101F018
:1062580093FEFEDED0B502AF82B000F01EF8044611
:1062680000F011F800F01CF840F2000001A9C2F299
:1062780000006A460091FDF731FCE00708BF00F016
:1062880004F802B0D0BD72B6704762B67047BFF36B
:106298004F8F7047BFF36F8F7047EFF310807047D1
:1062A800704780B56F46FBF771FCFEDEFEE770476E
:1062B800704748F21400C4F21F00704748F2FC000F
:1062C800C4F21F00704748F2EC20C4F21F00704768
:1062D80048F23C10C4F21F00704748F27C10C4F228
:1062E8001F007047704700200021704720F480503D
:1062F80041F4805110437047F0B503AF4DF8048D59
:1063080088460446D2E900011646CB6800210022DF
:1063180000259847D6E900010022CB68012198475B
:10632800D6E900010022CB6802219847D6E900018E
:10633800FF22CB68032198474FF4FA60A5722081A9
:10634800FA20C0F2E83084F81880C4E9005041F21D
:106358006F20C3F603206561C4E903505DF8048B20
:10636800F0BDF0B503AF2DE900072DED068B98B011
:10637800B0EE408A90ED031A90ED050A88468146F2
:1063880090ED049AF0EE480A31EE08AA04F08CFB6E
:10639800B4EE49AA89ED050AF1EE10FA89ED03AACF
:1063A80040F38180D8E90001096A99F80A608847B2
:1063B800002199ED050A8DF813004FF04530C9F812
:1063C80014102A23CDF80F00D8E90002D269ADF8DD
:1063D8000C304FF02A138DF80E600293CDE90013AC
:1063E8008DED060A8DED050A9047042928BF042182
:1063F80000291EBF02788DF80F2001295FD1D8E946
:1064080000018969884705294FF0050C28BF6146B6
:1064180000291EBF0388ADF8043001295DD16A4602
:10642800D8E9020E38CA07A901F1040AAAE8380017
:1064380092E8780002228AE87800DEF80C308DF8BD
:106448001CC09847C2B2042A25D08DF83C0044F2FB
:106458004C408DF83D10C2F200000068D8B116A972
:10646800012014910021159041F24862CDE91101F3
:1064780041F20060C2F200001391109044F63D70A2
:10648800C0F20000C2F2000217900FA8169010A8E0
:10649800012100F015F999ED030A99ED041A30EE7F
:1064A800410A89ED030AB0EE480A4846414600F021
:1064B80027F818B0BDEC068BBDE80007F0BD4278A0
:1064C80002298DF810209AD0827803298DF811209E
:1064D8001CBFC0788DF8120091E742880229ADF8F8
:1064E80006209CD082880329ADF8082097D0C2885E
:1064F8000429ADF80A201CBF0089ADF80C008EE70E
:10650800D0B502AF90ED001A0C46817A31EE000A40
:1065180080ED000ADFE801F067021D4381889FEDE6
:10652800322A01EE101AB8EE411A21EE021AB4EE20
:10653800410AF1EE10FA56DD002101600221817254
:10654800D4E900010A6901219047D4E90001FF223A
:106558001AE0C1889FED242A01EE101AB8EE411AFC
:1065680021EE021AB4EE410AF1EE10FAD8BFD0BDFE
:106578000021016003218172D4E900010A69002128
:106588009047D4E900010022CB6800219847616850
:10659800FF222068CB680121BDE8D0401847018957
:1065A8009FED112A01EE101AB8EE411A21EE021AD7
:1065B800B4EE410AF1EE10FA15DD00210160817296
:1065C800D4E900010A6900219047D4E900010022BA
:1065D800CB6800219847D4E900010022CB6801214B
:1065E800BDE8D0401847D0BD6F12833A0278032A1D
:1065F80018BF00F024BA41F264620846C2F20002F1
:1066080011460A2202F0FFBB7047006841F29C6203
:10661800C2F200020B4652F8301002EBC00042688A
:10662800184602F01FBA002070477047704780B5BF
:106638006F4644F2484EC2F2000E5EE8003F53B97E
:106648004FF0010CBFF35F8F4EE800C22AB15EE83D
:10665800003F002BF8D0BFF32F8FBFF35F8F13B12C
:10666800012B1ED02AE040F23062C2F20002C2E9D9
:1066780000010220BFF35F8FCEF800000020BFF3B7
:106688005F8F80BD10BFDEF80000BFF35F8F012869
:1066980001BF10BFDEF80000BFF35F8F01280DD1E6
:1066A80010BFDEF80000BFF35F8F012801BF10BFE5
:1066B800DEF80000BFF35F8F0128E3D0012080BD22
:1066C800F0B503AF2DE9000F91B044F2484592E8C8
:1066D800000BC2F20005D2E90363D2E90542D5F8FE
:1066E80000E0BFF35F8F40F2306510920122C2F2E2
:1066F80000050F920022D5E900ACBEF1020FCDE9EA
:106708000D34CDE90AB60C92099290E87C004069F4
:10671800089003A8009141F2CC617CC041F27060FE
:10672800C2F20000C2F20001CDE9018908BF50465B
:1067380008BF61460A696946904711B0BDE8000F75
:10674800F0BD006800F0BAB97047C0B2002804BFB5
:1067580000207047012812BF0120152050FA81F04F
:10676800704718B1012803D10220704700207047F4
:10677800A0F115010B2932BF012000210320704729
:10678800F0B503AF4DF8048D92B00DF12808054619
:10679800404601F0E2FA4046002101F0E1FA10B16A
:1067A8000120002256E00AAA07CA47F8482C47F8F1
:1067B8004C1C47F8500C01F002FB57F8502CCDE95F
:1067C800080105A857F8486C57F84C3C4CC005AE72
:1067D8002846314600F0B2F9C1B20E2921D196E817
:1067E8003E0040463EC0DDE90D0101F01FFB41F6C9
:1067F800900203460D46C2F200024046194601F0D7
:10680800D1FA05704046002101F0AAFAE8B90AAAAF
:106818000FAB07CA07C30FA801F0B0FAA8B1002050
:1068280018E0012000220D2914D800FA01F39B0773
:106838000ED1012303FA01F111F00C0F05D111F467
:10684800405F07D00120032204E00122012001E07B
:1068580001200222D2B240EA022012B05DF8048B75
:10686800F0BDD4D4F0B503AF2DE9000B94B00446C5
:106878000E4608461146154601F0D9FA38B12CE003
:1068880060700120207014B0BDE8000BF0BDA94273
:1068980040D8304601F0EBF90BADCDE9000169466F
:1068A800284600F043FA02350DF1080822229DF827
:1068B8002C60404629469DF82D9004F09EF9012E43
:1068C8000FD1B9F10D0F21D8DFE809F01C1C2020E9
:1068D80022090909090909071E1E0620D0E7052013
:1068E800CEE708F102012846202204F086F9201D8F
:1068F8002946202204F081F90020207014B0BDE858
:10690800000BF0BD0220BBE70320B9E70020B7E782
:106918000420B5E741F680320846C2F20002294653
:1069280002F0EDFBFEDEB0B502AF84B0054600789C
:106938000C46B8B1012817D10120039001F094F951
:10694800009003A88DF80410694601F04CF902463E
:106958000B46114620461A4600F031FCE8B10220E9
:1069680004B0B0BD002000E00220039001F07CF9E3
:106978008DF804106946009003A801F034F9024626
:106988000B46114620461A4600F019FC01460E2017
:10699800002918BF022004B0B0BD6978204601F074
:1069A8009BF8C0B204B0B0BDD0B502AF84B0044605
:1069B80001F070F9C2070DD181B1012917D0022960
:1069C80021D1204601F0C7F9C0B20E281CD10022FF
:1069D80002201AE0000A40EA016015E0204601F0B2
:1069E800BAF9C0B20E280FD1002000220DE001A88C
:1069F8002146012201F03CF99DF8040001280BD141
:106A08009DF805100CE00D200122C0B2000240EAFA
:106A18000140104404B0D0BD039939B102990978F6
:106A280010F00102084608BF0120EEE741F62412E3
